{
	"DesignPattern_WithdrawalPattern.sol": {
		"findRichest": {
			"abi": [
				{
					"inputs": [],
					"stateMutability": "payable",
					"type": "constructor"
				},
				{
					"inputs": [],
					"name": "invest",
					"outputs": [],
					"stateMutability": "payable",
					"type": "function"
				},
				{
					"inputs": [],
					"name": "max",
					"outputs": [
						{
							"internalType": "uint256",
							"name": "",
							"type": "uint256"
						}
					],
					"stateMutability": "view",
					"type": "function"
				},
				{
					"inputs": [],
					"name": "richest",
					"outputs": [
						{
							"internalType": "address payable",
							"name": "",
							"type": "address"
						}
					],
					"stateMutability": "view",
					"type": "function"
				},
				{
					"inputs": [],
					"name": "withdraw",
					"outputs": [],
					"stateMutability": "nonpayable",
					"type": "function"
				}
			],
			"devdoc": {
				"kind": "dev",
				"methods": {},
				"version": 1
			},
			"evm": {
				"assembly": "    /* \"DesignPattern_WithdrawalPattern.sol\":787:1529  contract findRichest {... */\n  mstore(0x40, 0x80)\n    /* \"DesignPattern_WithdrawalPattern.sol\":961:971  msg.sender */\n  caller\n    /* \"DesignPattern_WithdrawalPattern.sol\":945:952  richest */\n  0x00\n  dup1\n    /* \"DesignPattern_WithdrawalPattern.sol\":945:972  richest=payable(msg.sender) */\n  0x0100\n  exp\n  dup2\n  sload\n  dup2\n  0xffffffffffffffffffffffffffffffffffffffff\n  mul\n  not\n  and\n  swap1\n  dup4\n  0xffffffffffffffffffffffffffffffffffffffff\n  and\n  mul\n  or\n  swap1\n  sstore\n  pop\n    /* \"DesignPattern_WithdrawalPattern.sol\":986:995  msg.value */\n  callvalue\n    /* \"DesignPattern_WithdrawalPattern.sol\":982:985  max */\n  0x01\n    /* \"DesignPattern_WithdrawalPattern.sol\":982:995  max=msg.value */\n  dup2\n  swap1\n  sstore\n  pop\n    /* \"DesignPattern_WithdrawalPattern.sol\":1005:1012  richest */\n  0x00\n  dup1\n  sload\n  swap1\n  0x0100\n  exp\n  swap1\n  div\n  0xffffffffffffffffffffffffffffffffffffffff\n  and\n    /* \"DesignPattern_WithdrawalPattern.sol\":1005:1021  richest.transfer */\n  0xffffffffffffffffffffffffffffffffffffffff\n  and\n    /* \"DesignPattern_WithdrawalPattern.sol\":1005:1032  richest.transfer(msg.value) */\n  0x08fc\n    /* \"DesignPattern_WithdrawalPattern.sol\":1022:1031  msg.value */\n  callvalue\n    /* \"DesignPattern_WithdrawalPattern.sol\":1005:1032  richest.transfer(msg.value) */\n  swap1\n  dup2\n  iszero\n  mul\n  swap1\n  mload(0x40)\n  0x00\n  mload(0x40)\n  dup1\n  dup4\n  sub\n  dup2\n  dup6\n  dup9\n  dup9\n  call\n  swap4\n  pop\n  pop\n  pop\n  pop\n  iszero\n  dup1\n  iszero\n  tag_4\n  jumpi\n  returndatasize\n  0x00\n  dup1\n  returndatacopy\n  revert(0x00, returndatasize)\ntag_4:\n  pop\n    /* \"DesignPattern_WithdrawalPattern.sol\":787:1529  contract findRichest {... */\n  dataSize(sub_0)\n  dup1\n  dataOffset(sub_0)\n  0x00\n  codecopy\n  0x00\n  return\nstop\n\nsub_0: assembly {\n        /* \"DesignPattern_WithdrawalPattern.sol\":787:1529  contract findRichest {... */\n      mstore(0x40, 0x80)\n      jumpi(tag_1, lt(calldatasize, 0x04))\n      shr(0xe0, calldataload(0x00))\n      dup1\n      0x02e26c38\n      eq\n      tag_2\n      jumpi\n      dup1\n      0x3ccfd60b\n      eq\n      tag_3\n      jumpi\n      dup1\n      0x6ac5db19\n      eq\n      tag_4\n      jumpi\n      dup1\n      0xe8b5e51f\n      eq\n      tag_5\n      jumpi\n    tag_1:\n      0x00\n      dup1\n      revert\n        /* \"DesignPattern_WithdrawalPattern.sol\":815:845  address payable public richest */\n    tag_2:\n      callvalue\n      dup1\n      iszero\n      tag_6\n      jumpi\n      0x00\n      dup1\n      revert\n    tag_6:\n      pop\n      tag_7\n      tag_8\n      jump\t// in\n    tag_7:\n      mload(0x40)\n      tag_9\n      swap2\n      swap1\n      tag_10\n      jump\t// in\n    tag_9:\n      mload(0x40)\n      dup1\n      swap2\n      sub\n      swap1\n      return\n        /* \"DesignPattern_WithdrawalPattern.sol\":1323:1526  function withdraw() public {... */\n    tag_3:\n      callvalue\n      dup1\n      iszero\n      tag_11\n      jumpi\n      0x00\n      dup1\n      revert\n    tag_11:\n      pop\n      tag_12\n      tag_13\n      jump\t// in\n    tag_12:\n      stop\n        /* \"DesignPattern_WithdrawalPattern.sol\":851:866  uint public max */\n    tag_4:\n      callvalue\n      dup1\n      iszero\n      tag_14\n      jumpi\n      0x00\n      dup1\n      revert\n    tag_14:\n      pop\n      tag_15\n      tag_16\n      jump\t// in\n    tag_15:\n      mload(0x40)\n      tag_17\n      swap2\n      swap1\n      tag_18\n      jump\t// in\n    tag_17:\n      mload(0x40)\n      dup1\n      swap2\n      sub\n      swap1\n      return\n        /* \"DesignPattern_WithdrawalPattern.sol\":1113:1317  function invest() payable public {... */\n    tag_5:\n      tag_19\n      tag_20\n      jump\t// in\n    tag_19:\n      stop\n        /* \"DesignPattern_WithdrawalPattern.sol\":815:845  address payable public richest */\n    tag_8:\n      0x00\n      dup1\n      sload\n      swap1\n      0x0100\n      exp\n      swap1\n      div\n      0xffffffffffffffffffffffffffffffffffffffff\n      and\n      dup2\n      jump\t// out\n        /* \"DesignPattern_WithdrawalPattern.sol\":1323:1526  function withdraw() public {... */\n    tag_13:\n        /* \"DesignPattern_WithdrawalPattern.sol\":1360:1371  uint amount */\n      0x00\n        /* \"DesignPattern_WithdrawalPattern.sol\":1374:1383  investors */\n      0x02\n        /* \"DesignPattern_WithdrawalPattern.sol\":1374:1395  investors[msg.sender] */\n      0x00\n        /* \"DesignPattern_WithdrawalPattern.sol\":1384:1394  msg.sender */\n      caller\n        /* \"DesignPattern_WithdrawalPattern.sol\":1374:1395  investors[msg.sender] */\n      0xffffffffffffffffffffffffffffffffffffffff\n      and\n      0xffffffffffffffffffffffffffffffffffffffff\n      and\n      dup2\n      mstore\n      0x20\n      add\n      swap1\n      dup2\n      mstore\n      0x20\n      add\n      0x00\n      keccak256\n      sload\n        /* \"DesignPattern_WithdrawalPattern.sol\":1360:1395  uint amount = investors[msg.sender] */\n      swap1\n      pop\n        /* \"DesignPattern_WithdrawalPattern.sol\":1427:1428  0 */\n      0x00\n        /* \"DesignPattern_WithdrawalPattern.sol\":1405:1414  investors */\n      0x02\n        /* \"DesignPattern_WithdrawalPattern.sol\":1405:1426  investors[msg.sender] */\n      0x00\n        /* \"DesignPattern_WithdrawalPattern.sol\":1415:1425  msg.sender */\n      caller\n        /* \"DesignPattern_WithdrawalPattern.sol\":1405:1426  investors[msg.sender] */\n      0xffffffffffffffffffffffffffffffffffffffff\n      and\n      0xffffffffffffffffffffffffffffffffffffffff\n      and\n      dup2\n      mstore\n      0x20\n      add\n      swap1\n      dup2\n      mstore\n      0x20\n      add\n      0x00\n      keccak256\n        /* \"DesignPattern_WithdrawalPattern.sol\":1405:1428  investors[msg.sender]=0 */\n      dup2\n      swap1\n      sstore\n      pop\n        /* \"DesignPattern_WithdrawalPattern.sol\":1446:1456  msg.sender */\n      caller\n        /* \"DesignPattern_WithdrawalPattern.sol\":1438:1466  payable(msg.sender).transfer */\n      0xffffffffffffffffffffffffffffffffffffffff\n      and\n        /* \"DesignPattern_WithdrawalPattern.sol\":1438:1474  payable(msg.sender).transfer(amount) */\n      0x08fc\n        /* \"DesignPattern_WithdrawalPattern.sol\":1467:1473  amount */\n      dup3\n        /* \"DesignPattern_WithdrawalPattern.sol\":1438:1474  payable(msg.sender).transfer(amount) */\n      swap1\n      dup2\n      iszero\n      mul\n      swap1\n      mload(0x40)\n      0x00\n      mload(0x40)\n      dup1\n      dup4\n      sub\n      dup2\n      dup6\n      dup9\n      dup9\n      call\n      swap4\n      pop\n      pop\n      pop\n      pop\n      iszero\n      dup1\n      iszero\n      tag_23\n      jumpi\n      returndatasize\n      0x00\n      dup1\n      returndatacopy\n      revert(0x00, returndatasize)\n    tag_23:\n      pop\n        /* \"DesignPattern_WithdrawalPattern.sol\":1350:1526  {... */\n      pop\n        /* \"DesignPattern_WithdrawalPattern.sol\":1323:1526  function withdraw() public {... */\n      jump\t// out\n        /* \"DesignPattern_WithdrawalPattern.sol\":851:866  uint public max */\n    tag_16:\n      sload(0x01)\n      dup2\n      jump\t// out\n        /* \"DesignPattern_WithdrawalPattern.sol\":1113:1317  function invest() payable public {... */\n    tag_20:\n        /* \"DesignPattern_WithdrawalPattern.sol\":1174:1177  max */\n      sload(0x01)\n        /* \"DesignPattern_WithdrawalPattern.sol\":1164:1173  msg.value */\n      callvalue\n        /* \"DesignPattern_WithdrawalPattern.sol\":1164:1177  msg.value>max */\n      gt\n        /* \"DesignPattern_WithdrawalPattern.sol\":1156:1209  require(msg.value>max,\"Sorry you're not the richest\") */\n      tag_25\n      jumpi\n      mload(0x40)\n      0x08c379a000000000000000000000000000000000000000000000000000000000\n      dup2\n      mstore\n      0x04\n      add\n      tag_26\n      swap1\n      tag_27\n      jump\t// in\n    tag_26:\n      mload(0x40)\n      dup1\n      swap2\n      sub\n      swap1\n      revert\n    tag_25:\n        /* \"DesignPattern_WithdrawalPattern.sol\":1235:1245  msg.sender */\n      caller\n        /* \"DesignPattern_WithdrawalPattern.sol\":1219:1226  richest */\n      0x00\n      dup1\n        /* \"DesignPattern_WithdrawalPattern.sol\":1219:1246  richest=payable(msg.sender) */\n      0x0100\n      exp\n      dup2\n      sload\n      dup2\n      0xffffffffffffffffffffffffffffffffffffffff\n      mul\n      not\n      and\n      swap1\n      dup4\n      0xffffffffffffffffffffffffffffffffffffffff\n      and\n      mul\n      or\n      swap1\n      sstore\n      pop\n        /* \"DesignPattern_WithdrawalPattern.sol\":1260:1269  msg.value */\n      callvalue\n        /* \"DesignPattern_WithdrawalPattern.sol\":1256:1259  max */\n      0x01\n        /* \"DesignPattern_WithdrawalPattern.sol\":1256:1269  max=msg.value */\n      dup2\n      swap1\n      sstore\n      pop\n        /* \"DesignPattern_WithdrawalPattern.sol\":1301:1310  msg.value */\n      callvalue\n        /* \"DesignPattern_WithdrawalPattern.sol\":1279:1288  investors */\n      0x02\n        /* \"DesignPattern_WithdrawalPattern.sol\":1279:1300  investors[msg.sender] */\n      0x00\n        /* \"DesignPattern_WithdrawalPattern.sol\":1289:1299  msg.sender */\n      caller\n        /* \"DesignPattern_WithdrawalPattern.sol\":1279:1300  investors[msg.sender] */\n      0xffffffffffffffffffffffffffffffffffffffff\n      and\n      0xffffffffffffffffffffffffffffffffffffffff\n      and\n      dup2\n      mstore\n      0x20\n      add\n      swap1\n      dup2\n      mstore\n      0x20\n      add\n      0x00\n      keccak256\n        /* \"DesignPattern_WithdrawalPattern.sol\":1279:1310  investors[msg.sender]=msg.value */\n      dup2\n      swap1\n      sstore\n      pop\n        /* \"DesignPattern_WithdrawalPattern.sol\":1113:1317  function invest() payable public {... */\n      jump\t// out\n        /* \"#utility.yul\":7:149   */\n    tag_29:\n        /* \"#utility.yul\":110:142   */\n      tag_31\n        /* \"#utility.yul\":136:141   */\n      dup2\n        /* \"#utility.yul\":110:142   */\n      tag_32\n      jump\t// in\n    tag_31:\n        /* \"#utility.yul\":105:108   */\n      dup3\n        /* \"#utility.yul\":98:143   */\n      mstore\n        /* \"#utility.yul\":7:149   */\n      pop\n      pop\n      jump\t// out\n        /* \"#utility.yul\":155:521   */\n    tag_33:\n        /* \"#utility.yul\":297:300   */\n      0x00\n        /* \"#utility.yul\":318:385   */\n      tag_35\n        /* \"#utility.yul\":382:384   */\n      0x1c\n        /* \"#utility.yul\":377:380   */\n      dup4\n        /* \"#utility.yul\":318:385   */\n      tag_36\n      jump\t// in\n    tag_35:\n        /* \"#utility.yul\":311:385   */\n      swap2\n      pop\n        /* \"#utility.yul\":394:487   */\n      tag_37\n        /* \"#utility.yul\":483:486   */\n      dup3\n        /* \"#utility.yul\":394:487   */\n      tag_38\n      jump\t// in\n    tag_37:\n        /* \"#utility.yul\":512:514   */\n      0x20\n        /* \"#utility.yul\":507:510   */\n      dup3\n        /* \"#utility.yul\":503:515   */\n      add\n        /* \"#utility.yul\":496:515   */\n      swap1\n      pop\n        /* \"#utility.yul\":155:521   */\n      swap2\n      swap1\n      pop\n      jump\t// out\n        /* \"#utility.yul\":527:645   */\n    tag_39:\n        /* \"#utility.yul\":614:638   */\n      tag_41\n        /* \"#utility.yul\":632:637   */\n      dup2\n        /* \"#utility.yul\":614:638   */\n      tag_42\n      jump\t// in\n    tag_41:\n        /* \"#utility.yul\":609:612   */\n      dup3\n        /* \"#utility.yul\":602:639   */\n      mstore\n        /* \"#utility.yul\":527:645   */\n      pop\n      pop\n      jump\t// out\n        /* \"#utility.yul\":651:905   */\n    tag_10:\n        /* \"#utility.yul\":760:764   */\n      0x00\n        /* \"#utility.yul\":798:800   */\n      0x20\n        /* \"#utility.yul\":787:796   */\n      dup3\n        /* \"#utility.yul\":783:801   */\n      add\n        /* \"#utility.yul\":775:801   */\n      swap1\n      pop\n        /* \"#utility.yul\":811:898   */\n      tag_44\n        /* \"#utility.yul\":895:896   */\n      0x00\n        /* \"#utility.yul\":884:893   */\n      dup4\n        /* \"#utility.yul\":880:897   */\n      add\n        /* \"#utility.yul\":871:877   */\n      dup5\n        /* \"#utility.yul\":811:898   */\n      tag_29\n      jump\t// in\n    tag_44:\n        /* \"#utility.yul\":651:905   */\n      swap3\n      swap2\n      pop\n      pop\n      jump\t// out\n        /* \"#utility.yul\":911:1330   */\n    tag_27:\n        /* \"#utility.yul\":1077:1081   */\n      0x00\n        /* \"#utility.yul\":1115:1117   */\n      0x20\n        /* \"#utility.yul\":1104:1113   */\n      dup3\n        /* \"#utility.yul\":1100:1118   */\n      add\n        /* \"#utility.yul\":1092:1118   */\n      swap1\n      pop\n        /* \"#utility.yul\":1164:1173   */\n      dup2\n        /* \"#utility.yul\":1158:1162   */\n      dup2\n        /* \"#utility.yul\":1154:1174   */\n      sub\n        /* \"#utility.yul\":1150:1151   */\n      0x00\n        /* \"#utility.yul\":1139:1148   */\n      dup4\n        /* \"#utility.yul\":1135:1152   */\n      add\n        /* \"#utility.yul\":1128:1175   */\n      mstore\n        /* \"#utility.yul\":1192:1323   */\n      tag_46\n        /* \"#utility.yul\":1318:1322   */\n      dup2\n        /* \"#utility.yul\":1192:1323   */\n      tag_33\n      jump\t// in\n    tag_46:\n        /* \"#utility.yul\":1184:1323   */\n      swap1\n      pop\n        /* \"#utility.yul\":911:1330   */\n      swap2\n      swap1\n      pop\n      jump\t// out\n        /* \"#utility.yul\":1336:1558   */\n    tag_18:\n        /* \"#utility.yul\":1429:1433   */\n      0x00\n        /* \"#utility.yul\":1467:1469   */\n      0x20\n        /* \"#utility.yul\":1456:1465   */\n      dup3\n        /* \"#utility.yul\":1452:1470   */\n      add\n        /* \"#utility.yul\":1444:1470   */\n      swap1\n      pop\n        /* \"#utility.yul\":1480:1551   */\n      tag_48\n        /* \"#utility.yul\":1548:1549   */\n      0x00\n        /* \"#utility.yul\":1537:1546   */\n      dup4\n        /* \"#utility.yul\":1533:1550   */\n      add\n        /* \"#utility.yul\":1524:1530   */\n      dup5\n        /* \"#utility.yul\":1480:1551   */\n      tag_39\n      jump\t// in\n    tag_48:\n        /* \"#utility.yul\":1336:1558   */\n      swap3\n      swap2\n      pop\n      pop\n      jump\t// out\n        /* \"#utility.yul\":1564:1733   */\n    tag_36:\n        /* \"#utility.yul\":1648:1659   */\n      0x00\n        /* \"#utility.yul\":1682:1688   */\n      dup3\n        /* \"#utility.yul\":1677:1680   */\n      dup3\n        /* \"#utility.yul\":1670:1689   */\n      mstore\n        /* \"#utility.yul\":1722:1726   */\n      0x20\n        /* \"#utility.yul\":1717:1720   */\n      dup3\n        /* \"#utility.yul\":1713:1727   */\n      add\n        /* \"#utility.yul\":1698:1727   */\n      swap1\n      pop\n        /* \"#utility.yul\":1564:1733   */\n      swap3\n      swap2\n      pop\n      pop\n      jump\t// out\n        /* \"#utility.yul\":1739:1843   */\n    tag_32:\n        /* \"#utility.yul\":1784:1791   */\n      0x00\n        /* \"#utility.yul\":1813:1837   */\n      tag_51\n        /* \"#utility.yul\":1831:1836   */\n      dup3\n        /* \"#utility.yul\":1813:1837   */\n      tag_52\n      jump\t// in\n    tag_51:\n        /* \"#utility.yul\":1802:1837   */\n      swap1\n      pop\n        /* \"#utility.yul\":1739:1843   */\n      swap2\n      swap1\n      pop\n      jump\t// out\n        /* \"#utility.yul\":1849:1975   */\n    tag_52:\n        /* \"#utility.yul\":1886:1893   */\n      0x00\n        /* \"#utility.yul\":1926:1968   */\n      0xffffffffffffffffffffffffffffffffffffffff\n        /* \"#utility.yul\":1919:1924   */\n      dup3\n        /* \"#utility.yul\":1915:1969   */\n      and\n        /* \"#utility.yul\":1904:1969   */\n      swap1\n      pop\n        /* \"#utility.yul\":1849:1975   */\n      swap2\n      swap1\n      pop\n      jump\t// out\n        /* \"#utility.yul\":1981:2058   */\n    tag_42:\n        /* \"#utility.yul\":2018:2025   */\n      0x00\n        /* \"#utility.yul\":2047:2052   */\n      dup2\n        /* \"#utility.yul\":2036:2052   */\n      swap1\n      pop\n        /* \"#utility.yul\":1981:2058   */\n      swap2\n      swap1\n      pop\n      jump\t// out\n        /* \"#utility.yul\":2064:2242   */\n    tag_38:\n        /* \"#utility.yul\":2204:2234   */\n      0x536f72727920796f75277265206e6f7420746865207269636865737400000000\n        /* \"#utility.yul\":2200:2201   */\n      0x00\n        /* \"#utility.yul\":2192:2198   */\n      dup3\n        /* \"#utility.yul\":2188:2202   */\n      add\n        /* \"#utility.yul\":2181:2235   */\n      mstore\n        /* \"#utility.yul\":2064:2242   */\n      pop\n      jump\t// out\n\n    auxdata: 0xa2646970667358221220ef56da054c4530ac85596b13d8664545471dbbe95569703d5a2e7d252237b8b664736f6c63430008070033\n}\n",
				"bytecode": {
					"linkReferences": {},
					"object": "6080604052336000806101000a81548173ffffffffffffffffffffffffffffffffffffffff021916908373ffffffffffffffffffffffffffffffffffffffff1602179055503460018190555060008054906101000a900473ffffffffffffffffffffffffffffffffffffffff1673ffffffffffffffffffffffffffffffffffffffff166108fc349081150290604051600060405180830381858888f193505050501580156100b1573d6000803e3d6000fd5b506103cc806100c16000396000f3fe60806040526004361061003f5760003560e01c806302e26c38146100445780633ccfd60b1461006f5780636ac5db1914610086578063e8b5e51f146100b1575b600080fd5b34801561005057600080fd5b506100596100bb565b60405161006691906102ca565b60405180910390f35b34801561007b57600080fd5b506100846100df565b005b34801561009257600080fd5b5061009b6101b2565b6040516100a89190610305565b60405180910390f35b6100b96101b8565b005b60008054906101000a900473ffffffffffffffffffffffffffffffffffffffff1681565b6000600260003373ffffffffffffffffffffffffffffffffffffffff1673ffffffffffffffffffffffffffffffffffffffff1681526020019081526020016000205490506000600260003373ffffffffffffffffffffffffffffffffffffffff1673ffffffffffffffffffffffffffffffffffffffff168152602001908152602001600020819055503373ffffffffffffffffffffffffffffffffffffffff166108fc829081150290604051600060405180830381858888f193505050501580156101ae573d6000803e3d6000fd5b5050565b60015481565b60015434116101fc576040517f08c379a00000000000000000000000000000000000000000000000000000000081526004016101f3906102e5565b60405180910390fd5b336000806101000a81548173ffffffffffffffffffffffffffffffffffffffff021916908373ffffffffffffffffffffffffffffffffffffffff1602179055503460018190555034600260003373ffffffffffffffffffffffffffffffffffffffff1673ffffffffffffffffffffffffffffffffffffffff16815260200190815260200160002081905550565b61029281610331565b82525050565b60006102a5601c83610320565b91506102b08261036d565b602082019050919050565b6102c481610363565b82525050565b60006020820190506102df6000830184610289565b92915050565b600060208201905081810360008301526102fe81610298565b9050919050565b600060208201905061031a60008301846102bb565b92915050565b600082825260208201905092915050565b600061033c82610343565b9050919050565b600073ffffffffffffffffffffffffffffffffffffffff82169050919050565b6000819050919050565b7f536f72727920796f75277265206e6f742074686520726963686573740000000060008201525056fea2646970667358221220ef56da054c4530ac85596b13d8664545471dbbe95569703d5a2e7d252237b8b664736f6c63430008070033",
					"opcodes": "PUSH1 0x80 PUSH1 0x40 MSTORE CALLER PUSH1 0x0 DUP1 PUSH2 0x100 EXP DUP2 SLOAD DUP2 PUSH20 0xFFFFFFFFFFFFFFFFFFFFFFFFFFFFFFFFFFFFFFFF MUL NOT AND SWAP1 DUP4 PUSH20 0xFFFFFFFFFFFFFFFFFFFFFFFFFFFFFFFFFFFFFFFF AND MUL OR SWAP1 SSTORE POP CALLVALUE PUSH1 0x1 DUP2 SWAP1 SSTORE POP PUSH1 0x0 DUP1 SLOAD SWAP1 PUSH2 0x100 EXP SWAP1 DIV PUSH20 0xFFFFFFFFFFFFFFFFFFFFFFFFFFFFFFFFFFFFFFFF AND PUSH20 0xFFFFFFFFFFFFFFFFFFFFFFFFFFFFFFFFFFFFFFFF AND PUSH2 0x8FC CALLVALUE SWAP1 DUP2 ISZERO MUL SWAP1 PUSH1 0x40 MLOAD PUSH1 0x0 PUSH1 0x40 MLOAD DUP1 DUP4 SUB DUP2 DUP6 DUP9 DUP9 CALL SWAP4 POP POP POP POP ISZERO DUP1 ISZERO PUSH2 0xB1 JUMPI RETURNDATASIZE PUSH1 0x0 DUP1 RETURNDATACOPY RETURNDATASIZE PUSH1 0x0 REVERT JUMPDEST POP PUSH2 0x3CC DUP1 PUSH2 0xC1 PUSH1 0x0 CODECOPY PUSH1 0x0 RETURN INVALID PUSH1 0x80 PUSH1 0x40 MSTORE PUSH1 0x4 CALLDATASIZE LT PUSH2 0x3F JUMPI PUSH1 0x0 CALLDATALOAD PUSH1 0xE0 SHR DUP1 PUSH4 0x2E26C38 EQ PUSH2 0x44 JUMPI DUP1 PUSH4 0x3CCFD60B EQ PUSH2 0x6F JUMPI DUP1 PUSH4 0x6AC5DB19 EQ PUSH2 0x86 JUMPI DUP1 PUSH4 0xE8B5E51F EQ PUSH2 0xB1 JUMPI JUMPDEST PUSH1 0x0 DUP1 REVERT JUMPDEST CALLVALUE DUP1 ISZERO PUSH2 0x50 JUMPI PUSH1 0x0 DUP1 REVERT JUMPDEST POP PUSH2 0x59 PUSH2 0xBB JUMP JUMPDEST PUSH1 0x40 MLOAD PUSH2 0x66 SWAP2 SWAP1 PUSH2 0x2CA JUMP JUMPDEST PUSH1 0x40 MLOAD DUP1 SWAP2 SUB SWAP1 RETURN JUMPDEST CALLVALUE DUP1 ISZERO PUSH2 0x7B JUMPI PUSH1 0x0 DUP1 REVERT JUMPDEST POP PUSH2 0x84 PUSH2 0xDF JUMP JUMPDEST STOP JUMPDEST CALLVALUE DUP1 ISZERO PUSH2 0x92 JUMPI PUSH1 0x0 DUP1 REVERT JUMPDEST POP PUSH2 0x9B PUSH2 0x1B2 JUMP JUMPDEST PUSH1 0x40 MLOAD PUSH2 0xA8 SWAP2 SWAP1 PUSH2 0x305 JUMP JUMPDEST PUSH1 0x40 MLOAD DUP1 SWAP2 SUB SWAP1 RETURN JUMPDEST PUSH2 0xB9 PUSH2 0x1B8 JUMP JUMPDEST STOP JUMPDEST PUSH1 0x0 DUP1 SLOAD SWAP1 PUSH2 0x100 EXP SWAP1 DIV PUSH20 0xFFFFFFFFFFFFFFFFFFFFFFFFFFFFFFFFFFFFFFFF AND DUP2 JUMP JUMPDEST PUSH1 0x0 PUSH1 0x2 PUSH1 0x0 CALLER PUSH20 0xFFFFFFFFFFFFFFFFFFFFFFFFFFFFFFFFFFFFFFFF AND PUSH20 0xFFFFFFFFFFFFFFFFFFFFFFFFFFFFFFFFFFFFFFFF AND DUP2 MSTORE PUSH1 0x20 ADD SWAP1 DUP2 MSTORE PUSH1 0x20 ADD PUSH1 0x0 KECCAK256 SLOAD SWAP1 POP PUSH1 0x0 PUSH1 0x2 PUSH1 0x0 CALLER PUSH20 0xFFFFFFFFFFFFFFFFFFFFFFFFFFFFFFFFFFFFFFFF AND PUSH20 0xFFFFFFFFFFFFFFFFFFFFFFFFFFFFFFFFFFFFFFFF AND DUP2 MSTORE PUSH1 0x20 ADD SWAP1 DUP2 MSTORE PUSH1 0x20 ADD PUSH1 0x0 KECCAK256 DUP2 SWAP1 SSTORE POP CALLER PUSH20 0xFFFFFFFFFFFFFFFFFFFFFFFFFFFFFFFFFFFFFFFF AND PUSH2 0x8FC DUP3 SWAP1 DUP2 ISZERO MUL SWAP1 PUSH1 0x40 MLOAD PUSH1 0x0 PUSH1 0x40 MLOAD DUP1 DUP4 SUB DUP2 DUP6 DUP9 DUP9 CALL SWAP4 POP POP POP POP ISZERO DUP1 ISZERO PUSH2 0x1AE JUMPI RETURNDATASIZE PUSH1 0x0 DUP1 RETURNDATACOPY RETURNDATASIZE PUSH1 0x0 REVERT JUMPDEST POP POP JUMP JUMPDEST PUSH1 0x1 SLOAD DUP2 JUMP JUMPDEST PUSH1 0x1 SLOAD CALLVALUE GT PUSH2 0x1FC JUMPI PUSH1 0x40 MLOAD PUSH32 0x8C379A000000000000000000000000000000000000000000000000000000000 DUP2 MSTORE PUSH1 0x4 ADD PUSH2 0x1F3 SWAP1 PUSH2 0x2E5 JUMP JUMPDEST PUSH1 0x40 MLOAD DUP1 SWAP2 SUB SWAP1 REVERT JUMPDEST CALLER PUSH1 0x0 DUP1 PUSH2 0x100 EXP DUP2 SLOAD DUP2 PUSH20 0xFFFFFFFFFFFFFFFFFFFFFFFFFFFFFFFFFFFFFFFF MUL NOT AND SWAP1 DUP4 PUSH20 0xFFFFFFFFFFFFFFFFFFFFFFFFFFFFFFFFFFFFFFFF AND MUL OR SWAP1 SSTORE POP CALLVALUE PUSH1 0x1 DUP2 SWAP1 SSTORE POP CALLVALUE PUSH1 0x2 PUSH1 0x0 CALLER PUSH20 0xFFFFFFFFFFFFFFFFFFFFFFFFFFFFFFFFFFFFFFFF AND PUSH20 0xFFFFFFFFFFFFFFFFFFFFFFFFFFFFFFFFFFFFFFFF AND DUP2 MSTORE PUSH1 0x20 ADD SWAP1 DUP2 MSTORE PUSH1 0x20 ADD PUSH1 0x0 KECCAK256 DUP2 SWAP1 SSTORE POP JUMP JUMPDEST PUSH2 0x292 DUP2 PUSH2 0x331 JUMP JUMPDEST DUP3 MSTORE POP POP JUMP JUMPDEST PUSH1 0x0 PUSH2 0x2A5 PUSH1 0x1C DUP4 PUSH2 0x320 JUMP JUMPDEST SWAP2 POP PUSH2 0x2B0 DUP3 PUSH2 0x36D JUMP JUMPDEST PUSH1 0x20 DUP3 ADD SWAP1 POP SWAP2 SWAP1 POP JUMP JUMPDEST PUSH2 0x2C4 DUP2 PUSH2 0x363 JUMP JUMPDEST DUP3 MSTORE POP POP JUMP JUMPDEST PUSH1 0x0 PUSH1 0x20 DUP3 ADD SWAP1 POP PUSH2 0x2DF PUSH1 0x0 DUP4 ADD DUP5 PUSH2 0x289 JUMP JUMPDEST SWAP3 SWAP2 POP POP JUMP JUMPDEST PUSH1 0x0 PUSH1 0x20 DUP3 ADD SWAP1 POP DUP2 DUP2 SUB PUSH1 0x0 DUP4 ADD MSTORE PUSH2 0x2FE DUP2 PUSH2 0x298 JUMP JUMPDEST SWAP1 POP SWAP2 SWAP1 POP JUMP JUMPDEST PUSH1 0x0 PUSH1 0x20 DUP3 ADD SWAP1 POP PUSH2 0x31A PUSH1 0x0 DUP4 ADD DUP5 PUSH2 0x2BB JUMP JUMPDEST SWAP3 SWAP2 POP POP JUMP JUMPDEST PUSH1 0x0 DUP3 DUP3 MSTORE PUSH1 0x20 DUP3 ADD SWAP1 POP SWAP3 SWAP2 POP POP JUMP JUMPDEST PUSH1 0x0 PUSH2 0x33C DUP3 PUSH2 0x343 JUMP JUMPDEST SWAP1 POP SWAP2 SWAP1 POP JUMP JUMPDEST PUSH1 0x0 PUSH20 0xFFFFFFFFFFFFFFFFFFFFFFFFFFFFFFFFFFFFFFFF DUP3 AND SWAP1 POP SWAP2 SWAP1 POP JUMP JUMPDEST PUSH1 0x0 DUP2 SWAP1 POP SWAP2 SWAP1 POP JUMP JUMPDEST PUSH32 0x536F72727920796F75277265206E6F7420746865207269636865737400000000 PUSH1 0x0 DUP3 ADD MSTORE POP JUMP INVALID LOG2 PUSH5 0x6970667358 0x22 SLT KECCAK256 0xEF JUMP 0xDA SDIV 0x4C GASLIMIT ADDRESS 0xAC DUP6 MSIZE PUSH12 0x13D8664545471DBBE9556970 RETURNDATASIZE GAS 0x2E PUSH30 0x252237B8B664736F6C634300080700330000000000000000000000000000 "
				},
				"gasEstimates": {
					"creation": {
						"codeDepositCost": "194400",
						"executionCost": "infinite",
						"totalCost": "infinite"
					},
					"external": {
						"invest()": "70867",
						"max()": "2451",
						"richest()": "2489",
						"withdraw()": "infinite"
					}
				},
				"methodIdentifiers": {
					"invest()": "e8b5e51f",
					"max()": "6ac5db19",
					"richest()": "02e26c38",
					"withdraw()": "3ccfd60b"
				}
			},
			"storageLayout": {
				"storage": [
					{
						"astId": 3,
						"contract": "DesignPattern_WithdrawalPattern.sol:findRichest",
						"label": "richest",
						"offset": 0,
						"slot": "0",
						"type": "t_address_payable"
					},
					{
						"astId": 5,
						"contract": "DesignPattern_WithdrawalPattern.sol:findRichest",
						"label": "max",
						"offset": 0,
						"slot": "1",
						"type": "t_uint256"
					},
					{
						"astId": 9,
						"contract": "DesignPattern_WithdrawalPattern.sol:findRichest",
						"label": "investors",
						"offset": 0,
						"slot": "2",
						"type": "t_mapping(t_address,t_uint256)"
					}
				],
				"types": {
					"t_address": {
						"encoding": "inplace",
						"label": "address",
						"numberOfBytes": "20"
					},
					"t_address_payable": {
						"encoding": "inplace",
						"label": "address payable",
						"numberOfBytes": "20"
					},
					"t_mapping(t_address,t_uint256)": {
						"encoding": "mapping",
						"key": "t_address",
						"label": "mapping(address => uint256)",
						"numberOfBytes": "32",
						"value": "t_uint256"
					},
					"t_uint256": {
						"encoding": "inplace",
						"label": "uint256",
						"numberOfBytes": "32"
					}
				}
			},
			"userdoc": {
				"kind": "user",
				"methods": {},
				"version": 1
			}
		}
	}
}