{
	"polymorphism.sol": {
		"poly": {
			"abi": [
				{
					"inputs": [
						{
							"internalType": "string",
							"name": "a",
							"type": "string"
						}
					],
					"name": "sum",
					"outputs": [
						{
							"internalType": "string",
							"name": "",
							"type": "string"
						}
					],
					"stateMutability": "pure",
					"type": "function"
				},
				{
					"inputs": [
						{
							"internalType": "int256",
							"name": "a",
							"type": "int256"
						},
						{
							"internalType": "int256",
							"name": "b",
							"type": "int256"
						}
					],
					"name": "sum",
					"outputs": [
						{
							"internalType": "int256",
							"name": "",
							"type": "int256"
						}
					],
					"stateMutability": "pure",
					"type": "function"
				},
				{
					"inputs": [
						{
							"internalType": "int256",
							"name": "a",
							"type": "int256"
						},
						{
							"internalType": "int256",
							"name": "b",
							"type": "int256"
						},
						{
							"internalType": "int256",
							"name": "c",
							"type": "int256"
						}
					],
					"name": "sum",
					"outputs": [
						{
							"internalType": "int256",
							"name": "",
							"type": "int256"
						}
					],
					"stateMutability": "pure",
					"type": "function"
				}
			],
			"devdoc": {
				"kind": "dev",
				"methods": {},
				"version": 1
			},
			"evm": {
				"assembly": "    /* \"polymorphism.sol\":226:512  contract poly{... */\n  mstore(0x40, 0x80)\n  callvalue\n  dup1\n  iszero\n  tag_1\n  jumpi\n  0x00\n  dup1\n  revert\ntag_1:\n  pop\n  dataSize(sub_0)\n  dup1\n  dataOffset(sub_0)\n  0x00\n  codecopy\n  0x00\n  return\nstop\n\nsub_0: assembly {\n        /* \"polymorphism.sol\":226:512  contract poly{... */\n      mstore(0x40, 0x80)\n      callvalue\n      dup1\n      iszero\n      tag_1\n      jumpi\n      0x00\n      dup1\n      revert\n    tag_1:\n      pop\n      jumpi(tag_2, lt(calldatasize, 0x04))\n      shr(0xe0, calldataload(0x00))\n      dup1\n      0x8885353b\n      eq\n      tag_3\n      jumpi\n      dup1\n      0x9967062d\n      eq\n      tag_4\n      jumpi\n      dup1\n      0xa7e04671\n      eq\n      tag_5\n      jumpi\n    tag_2:\n      0x00\n      dup1\n      revert\n        /* \"polymorphism.sol\":421:510  function sum(string memory a) public pure returns(string memory){... */\n    tag_3:\n      tag_6\n      0x04\n      dup1\n      calldatasize\n      sub\n      dup2\n      add\n      swap1\n      tag_7\n      swap2\n      swap1\n      tag_8\n      jump\t// in\n    tag_7:\n      tag_9\n      jump\t// in\n    tag_6:\n      mload(0x40)\n      tag_10\n      swap2\n      swap1\n      tag_11\n      jump\t// in\n    tag_10:\n      mload(0x40)\n      dup1\n      swap2\n      sub\n      swap1\n      return\n        /* \"polymorphism.sol\":245:323  function sum(int a,int b) public pure returns (int){... */\n    tag_4:\n      tag_12\n      0x04\n      dup1\n      calldatasize\n      sub\n      dup2\n      add\n      swap1\n      tag_13\n      swap2\n      swap1\n      tag_14\n      jump\t// in\n    tag_13:\n      tag_15\n      jump\t// in\n    tag_12:\n      mload(0x40)\n      tag_16\n      swap2\n      swap1\n      tag_17\n      jump\t// in\n    tag_16:\n      mload(0x40)\n      dup1\n      swap2\n      sub\n      swap1\n      return\n        /* \"polymorphism.sol\":329:415  function sum(int a,int b,int c) public pure returns (int){... */\n    tag_5:\n      tag_18\n      0x04\n      dup1\n      calldatasize\n      sub\n      dup2\n      add\n      swap1\n      tag_19\n      swap2\n      swap1\n      tag_20\n      jump\t// in\n    tag_19:\n      tag_21\n      jump\t// in\n    tag_18:\n      mload(0x40)\n      tag_22\n      swap2\n      swap1\n      tag_17\n      jump\t// in\n    tag_22:\n      mload(0x40)\n      dup1\n      swap2\n      sub\n      swap1\n      return\n        /* \"polymorphism.sol\":421:510  function sum(string memory a) public pure returns(string memory){... */\n    tag_9:\n        /* \"polymorphism.sol\":471:484  string memory */\n      0x60\n        /* \"polymorphism.sol\":502:503  a */\n      dup2\n        /* \"polymorphism.sol\":495:503  return a */\n      swap1\n      pop\n        /* \"polymorphism.sol\":421:510  function sum(string memory a) public pure returns(string memory){... */\n      swap2\n      swap1\n      pop\n      jump\t// out\n        /* \"polymorphism.sol\":245:323  function sum(int a,int b) public pure returns (int){... */\n    tag_15:\n        /* \"polymorphism.sol\":292:295  int */\n      0x00\n        /* \"polymorphism.sol\":315:316  b */\n      dup2\n        /* \"polymorphism.sol\":313:314  a */\n      dup4\n        /* \"polymorphism.sol\":313:316  a+b */\n      tag_25\n      swap2\n      swap1\n      tag_26\n      jump\t// in\n    tag_25:\n        /* \"polymorphism.sol\":306:316  return a+b */\n      swap1\n      pop\n        /* \"polymorphism.sol\":245:323  function sum(int a,int b) public pure returns (int){... */\n      swap3\n      swap2\n      pop\n      pop\n      jump\t// out\n        /* \"polymorphism.sol\":329:415  function sum(int a,int b,int c) public pure returns (int){... */\n    tag_21:\n        /* \"polymorphism.sol\":382:385  int */\n      0x00\n        /* \"polymorphism.sol\":407:408  c */\n      dup2\n        /* \"polymorphism.sol\":405:406  b */\n      dup4\n        /* \"polymorphism.sol\":403:404  a */\n      dup6\n        /* \"polymorphism.sol\":403:406  a+b */\n      tag_28\n      swap2\n      swap1\n      tag_26\n      jump\t// in\n    tag_28:\n        /* \"polymorphism.sol\":403:408  a+b+c */\n      tag_29\n      swap2\n      swap1\n      tag_26\n      jump\t// in\n    tag_29:\n        /* \"polymorphism.sol\":396:408  return a+b+c */\n      swap1\n      pop\n        /* \"polymorphism.sol\":329:415  function sum(int a,int b,int c) public pure returns (int){... */\n      swap4\n      swap3\n      pop\n      pop\n      pop\n      jump\t// out\n        /* \"#utility.yul\":7:419   */\n    tag_31:\n        /* \"#utility.yul\":85:90   */\n      0x00\n        /* \"#utility.yul\":110:176   */\n      tag_33\n        /* \"#utility.yul\":126:175   */\n      tag_34\n        /* \"#utility.yul\":168:174   */\n      dup5\n        /* \"#utility.yul\":126:175   */\n      tag_35\n      jump\t// in\n    tag_34:\n        /* \"#utility.yul\":110:176   */\n      tag_36\n      jump\t// in\n    tag_33:\n        /* \"#utility.yul\":101:176   */\n      swap1\n      pop\n        /* \"#utility.yul\":199:205   */\n      dup3\n        /* \"#utility.yul\":192:197   */\n      dup2\n        /* \"#utility.yul\":185:206   */\n      mstore\n        /* \"#utility.yul\":237:241   */\n      0x20\n        /* \"#utility.yul\":230:235   */\n      dup2\n        /* \"#utility.yul\":226:242   */\n      add\n        /* \"#utility.yul\":275:278   */\n      dup5\n        /* \"#utility.yul\":266:272   */\n      dup5\n        /* \"#utility.yul\":261:264   */\n      dup5\n        /* \"#utility.yul\":257:273   */\n      add\n        /* \"#utility.yul\":254:279   */\n      gt\n        /* \"#utility.yul\":251:363   */\n      iszero\n      tag_37\n      jumpi\n        /* \"#utility.yul\":282:361   */\n      tag_38\n      tag_39\n      jump\t// in\n    tag_38:\n        /* \"#utility.yul\":251:363   */\n    tag_37:\n        /* \"#utility.yul\":372:413   */\n      tag_40\n        /* \"#utility.yul\":406:412   */\n      dup5\n        /* \"#utility.yul\":401:404   */\n      dup3\n        /* \"#utility.yul\":396:399   */\n      dup6\n        /* \"#utility.yul\":372:413   */\n      tag_41\n      jump\t// in\n    tag_40:\n        /* \"#utility.yul\":91:419   */\n      pop\n        /* \"#utility.yul\":7:419   */\n      swap4\n      swap3\n      pop\n      pop\n      pop\n      jump\t// out\n        /* \"#utility.yul\":425:562   */\n    tag_42:\n        /* \"#utility.yul\":470:475   */\n      0x00\n        /* \"#utility.yul\":508:514   */\n      dup2\n        /* \"#utility.yul\":495:515   */\n      calldataload\n        /* \"#utility.yul\":486:515   */\n      swap1\n      pop\n        /* \"#utility.yul\":524:556   */\n      tag_44\n        /* \"#utility.yul\":550:555   */\n      dup2\n        /* \"#utility.yul\":524:556   */\n      tag_45\n      jump\t// in\n    tag_44:\n        /* \"#utility.yul\":425:562   */\n      swap3\n      swap2\n      pop\n      pop\n      jump\t// out\n        /* \"#utility.yul\":582:922   */\n    tag_46:\n        /* \"#utility.yul\":638:643   */\n      0x00\n        /* \"#utility.yul\":687:690   */\n      dup3\n        /* \"#utility.yul\":680:684   */\n      0x1f\n        /* \"#utility.yul\":672:678   */\n      dup4\n        /* \"#utility.yul\":668:685   */\n      add\n        /* \"#utility.yul\":664:691   */\n      slt\n        /* \"#utility.yul\":654:776   */\n      tag_48\n      jumpi\n        /* \"#utility.yul\":695:774   */\n      tag_49\n      tag_50\n      jump\t// in\n    tag_49:\n        /* \"#utility.yul\":654:776   */\n    tag_48:\n        /* \"#utility.yul\":812:818   */\n      dup2\n        /* \"#utility.yul\":799:819   */\n      calldataload\n        /* \"#utility.yul\":837:916   */\n      tag_51\n        /* \"#utility.yul\":912:915   */\n      dup5\n        /* \"#utility.yul\":904:910   */\n      dup3\n        /* \"#utility.yul\":897:901   */\n      0x20\n        /* \"#utility.yul\":889:895   */\n      dup7\n        /* \"#utility.yul\":885:902   */\n      add\n        /* \"#utility.yul\":837:916   */\n      tag_31\n      jump\t// in\n    tag_51:\n        /* \"#utility.yul\":828:916   */\n      swap2\n      pop\n        /* \"#utility.yul\":644:922   */\n      pop\n        /* \"#utility.yul\":582:922   */\n      swap3\n      swap2\n      pop\n      pop\n      jump\t// out\n        /* \"#utility.yul\":928:1398   */\n    tag_14:\n        /* \"#utility.yul\":994:1000   */\n      0x00\n        /* \"#utility.yul\":1002:1008   */\n      dup1\n        /* \"#utility.yul\":1051:1053   */\n      0x40\n        /* \"#utility.yul\":1039:1048   */\n      dup4\n        /* \"#utility.yul\":1030:1037   */\n      dup6\n        /* \"#utility.yul\":1026:1049   */\n      sub\n        /* \"#utility.yul\":1022:1054   */\n      slt\n        /* \"#utility.yul\":1019:1138   */\n      iszero\n      tag_53\n      jumpi\n        /* \"#utility.yul\":1057:1136   */\n      tag_54\n      tag_55\n      jump\t// in\n    tag_54:\n        /* \"#utility.yul\":1019:1138   */\n    tag_53:\n        /* \"#utility.yul\":1177:1178   */\n      0x00\n        /* \"#utility.yul\":1202:1254   */\n      tag_56\n        /* \"#utility.yul\":1246:1253   */\n      dup6\n        /* \"#utility.yul\":1237:1243   */\n      dup3\n        /* \"#utility.yul\":1226:1235   */\n      dup7\n        /* \"#utility.yul\":1222:1244   */\n      add\n        /* \"#utility.yul\":1202:1254   */\n      tag_42\n      jump\t// in\n    tag_56:\n        /* \"#utility.yul\":1192:1254   */\n      swap3\n      pop\n        /* \"#utility.yul\":1148:1264   */\n      pop\n        /* \"#utility.yul\":1303:1305   */\n      0x20\n        /* \"#utility.yul\":1329:1381   */\n      tag_57\n        /* \"#utility.yul\":1373:1380   */\n      dup6\n        /* \"#utility.yul\":1364:1370   */\n      dup3\n        /* \"#utility.yul\":1353:1362   */\n      dup7\n        /* \"#utility.yul\":1349:1371   */\n      add\n        /* \"#utility.yul\":1329:1381   */\n      tag_42\n      jump\t// in\n    tag_57:\n        /* \"#utility.yul\":1319:1381   */\n      swap2\n      pop\n        /* \"#utility.yul\":1274:1391   */\n      pop\n        /* \"#utility.yul\":928:1398   */\n      swap3\n      pop\n      swap3\n      swap1\n      pop\n      jump\t// out\n        /* \"#utility.yul\":1404:2017   */\n    tag_20:\n        /* \"#utility.yul\":1478:1484   */\n      0x00\n        /* \"#utility.yul\":1486:1492   */\n      dup1\n        /* \"#utility.yul\":1494:1500   */\n      0x00\n        /* \"#utility.yul\":1543:1545   */\n      0x60\n        /* \"#utility.yul\":1531:1540   */\n      dup5\n        /* \"#utility.yul\":1522:1529   */\n      dup7\n        /* \"#utility.yul\":1518:1541   */\n      sub\n        /* \"#utility.yul\":1514:1546   */\n      slt\n        /* \"#utility.yul\":1511:1630   */\n      iszero\n      tag_59\n      jumpi\n        /* \"#utility.yul\":1549:1628   */\n      tag_60\n      tag_55\n      jump\t// in\n    tag_60:\n        /* \"#utility.yul\":1511:1630   */\n    tag_59:\n        /* \"#utility.yul\":1669:1670   */\n      0x00\n        /* \"#utility.yul\":1694:1746   */\n      tag_61\n        /* \"#utility.yul\":1738:1745   */\n      dup7\n        /* \"#utility.yul\":1729:1735   */\n      dup3\n        /* \"#utility.yul\":1718:1727   */\n      dup8\n        /* \"#utility.yul\":1714:1736   */\n      add\n        /* \"#utility.yul\":1694:1746   */\n      tag_42\n      jump\t// in\n    tag_61:\n        /* \"#utility.yul\":1684:1746   */\n      swap4\n      pop\n        /* \"#utility.yul\":1640:1756   */\n      pop\n        /* \"#utility.yul\":1795:1797   */\n      0x20\n        /* \"#utility.yul\":1821:1873   */\n      tag_62\n        /* \"#utility.yul\":1865:1872   */\n      dup7\n        /* \"#utility.yul\":1856:1862   */\n      dup3\n        /* \"#utility.yul\":1845:1854   */\n      dup8\n        /* \"#utility.yul\":1841:1863   */\n      add\n        /* \"#utility.yul\":1821:1873   */\n      tag_42\n      jump\t// in\n    tag_62:\n        /* \"#utility.yul\":1811:1873   */\n      swap3\n      pop\n        /* \"#utility.yul\":1766:1883   */\n      pop\n        /* \"#utility.yul\":1922:1924   */\n      0x40\n        /* \"#utility.yul\":1948:2000   */\n      tag_63\n        /* \"#utility.yul\":1992:1999   */\n      dup7\n        /* \"#utility.yul\":1983:1989   */\n      dup3\n        /* \"#utility.yul\":1972:1981   */\n      dup8\n        /* \"#utility.yul\":1968:1990   */\n      add\n        /* \"#utility.yul\":1948:2000   */\n      tag_42\n      jump\t// in\n    tag_63:\n        /* \"#utility.yul\":1938:2000   */\n      swap2\n      pop\n        /* \"#utility.yul\":1893:2010   */\n      pop\n        /* \"#utility.yul\":1404:2017   */\n      swap3\n      pop\n      swap3\n      pop\n      swap3\n      jump\t// out\n        /* \"#utility.yul\":2023:2532   */\n    tag_8:\n        /* \"#utility.yul\":2092:2098   */\n      0x00\n        /* \"#utility.yul\":2141:2143   */\n      0x20\n        /* \"#utility.yul\":2129:2138   */\n      dup3\n        /* \"#utility.yul\":2120:2127   */\n      dup5\n        /* \"#utility.yul\":2116:2139   */\n      sub\n        /* \"#utility.yul\":2112:2144   */\n      slt\n        /* \"#utility.yul\":2109:2228   */\n      iszero\n      tag_65\n      jumpi\n        /* \"#utility.yul\":2147:2226   */\n      tag_66\n      tag_55\n      jump\t// in\n    tag_66:\n        /* \"#utility.yul\":2109:2228   */\n    tag_65:\n        /* \"#utility.yul\":2295:2296   */\n      0x00\n        /* \"#utility.yul\":2284:2293   */\n      dup3\n        /* \"#utility.yul\":2280:2297   */\n      add\n        /* \"#utility.yul\":2267:2298   */\n      calldataload\n        /* \"#utility.yul\":2325:2343   */\n      0xffffffffffffffff\n        /* \"#utility.yul\":2317:2323   */\n      dup2\n        /* \"#utility.yul\":2314:2344   */\n      gt\n        /* \"#utility.yul\":2311:2428   */\n      iszero\n      tag_67\n      jumpi\n        /* \"#utility.yul\":2347:2426   */\n      tag_68\n      tag_69\n      jump\t// in\n    tag_68:\n        /* \"#utility.yul\":2311:2428   */\n    tag_67:\n        /* \"#utility.yul\":2452:2515   */\n      tag_70\n        /* \"#utility.yul\":2507:2514   */\n      dup5\n        /* \"#utility.yul\":2498:2504   */\n      dup3\n        /* \"#utility.yul\":2487:2496   */\n      dup6\n        /* \"#utility.yul\":2483:2505   */\n      add\n        /* \"#utility.yul\":2452:2515   */\n      tag_46\n      jump\t// in\n    tag_70:\n        /* \"#utility.yul\":2442:2515   */\n      swap2\n      pop\n        /* \"#utility.yul\":2238:2525   */\n      pop\n        /* \"#utility.yul\":2023:2532   */\n      swap3\n      swap2\n      pop\n      pop\n      jump\t// out\n        /* \"#utility.yul\":2538:2653   */\n    tag_71:\n        /* \"#utility.yul\":2623:2646   */\n      tag_73\n        /* \"#utility.yul\":2640:2645   */\n      dup2\n        /* \"#utility.yul\":2623:2646   */\n      tag_74\n      jump\t// in\n    tag_73:\n        /* \"#utility.yul\":2618:2621   */\n      dup3\n        /* \"#utility.yul\":2611:2647   */\n      mstore\n        /* \"#utility.yul\":2538:2653   */\n      pop\n      pop\n      jump\t// out\n        /* \"#utility.yul\":2659:3023   */\n    tag_75:\n        /* \"#utility.yul\":2747:2750   */\n      0x00\n        /* \"#utility.yul\":2775:2814   */\n      tag_77\n        /* \"#utility.yul\":2808:2813   */\n      dup3\n        /* \"#utility.yul\":2775:2814   */\n      tag_78\n      jump\t// in\n    tag_77:\n        /* \"#utility.yul\":2830:2901   */\n      tag_79\n        /* \"#utility.yul\":2894:2900   */\n      dup2\n        /* \"#utility.yul\":2889:2892   */\n      dup6\n        /* \"#utility.yul\":2830:2901   */\n      tag_80\n      jump\t// in\n    tag_79:\n        /* \"#utility.yul\":2823:2901   */\n      swap4\n      pop\n        /* \"#utility.yul\":2910:2962   */\n      tag_81\n        /* \"#utility.yul\":2955:2961   */\n      dup2\n        /* \"#utility.yul\":2950:2953   */\n      dup6\n        /* \"#utility.yul\":2943:2947   */\n      0x20\n        /* \"#utility.yul\":2936:2941   */\n      dup7\n        /* \"#utility.yul\":2932:2948   */\n      add\n        /* \"#utility.yul\":2910:2962   */\n      tag_82\n      jump\t// in\n    tag_81:\n        /* \"#utility.yul\":2987:3016   */\n      tag_83\n        /* \"#utility.yul\":3009:3015   */\n      dup2\n        /* \"#utility.yul\":2987:3016   */\n      tag_84\n      jump\t// in\n    tag_83:\n        /* \"#utility.yul\":2982:2985   */\n      dup5\n        /* \"#utility.yul\":2978:3017   */\n      add\n        /* \"#utility.yul\":2971:3017   */\n      swap2\n      pop\n        /* \"#utility.yul\":2751:3023   */\n      pop\n        /* \"#utility.yul\":2659:3023   */\n      swap3\n      swap2\n      pop\n      pop\n      jump\t// out\n        /* \"#utility.yul\":3029:3247   */\n    tag_17:\n        /* \"#utility.yul\":3120:3124   */\n      0x00\n        /* \"#utility.yul\":3158:3160   */\n      0x20\n        /* \"#utility.yul\":3147:3156   */\n      dup3\n        /* \"#utility.yul\":3143:3161   */\n      add\n        /* \"#utility.yul\":3135:3161   */\n      swap1\n      pop\n        /* \"#utility.yul\":3171:3240   */\n      tag_86\n        /* \"#utility.yul\":3237:3238   */\n      0x00\n        /* \"#utility.yul\":3226:3235   */\n      dup4\n        /* \"#utility.yul\":3222:3239   */\n      add\n        /* \"#utility.yul\":3213:3219   */\n      dup5\n        /* \"#utility.yul\":3171:3240   */\n      tag_71\n      jump\t// in\n    tag_86:\n        /* \"#utility.yul\":3029:3247   */\n      swap3\n      swap2\n      pop\n      pop\n      jump\t// out\n        /* \"#utility.yul\":3253:3566   */\n    tag_11:\n        /* \"#utility.yul\":3366:3370   */\n      0x00\n        /* \"#utility.yul\":3404:3406   */\n      0x20\n        /* \"#utility.yul\":3393:3402   */\n      dup3\n        /* \"#utility.yul\":3389:3407   */\n      add\n        /* \"#utility.yul\":3381:3407   */\n      swap1\n      pop\n        /* \"#utility.yul\":3453:3462   */\n      dup2\n        /* \"#utility.yul\":3447:3451   */\n      dup2\n        /* \"#utility.yul\":3443:3463   */\n      sub\n        /* \"#utility.yul\":3439:3440   */\n      0x00\n        /* \"#utility.yul\":3428:3437   */\n      dup4\n        /* \"#utility.yul\":3424:3441   */\n      add\n        /* \"#utility.yul\":3417:3464   */\n      mstore\n        /* \"#utility.yul\":3481:3559   */\n      tag_88\n        /* \"#utility.yul\":3554:3558   */\n      dup2\n        /* \"#utility.yul\":3545:3551   */\n      dup5\n        /* \"#utility.yul\":3481:3559   */\n      tag_75\n      jump\t// in\n    tag_88:\n        /* \"#utility.yul\":3473:3559   */\n      swap1\n      pop\n        /* \"#utility.yul\":3253:3566   */\n      swap3\n      swap2\n      pop\n      pop\n      jump\t// out\n        /* \"#utility.yul\":3572:3701   */\n    tag_36:\n        /* \"#utility.yul\":3606:3612   */\n      0x00\n        /* \"#utility.yul\":3633:3653   */\n      tag_90\n      tag_91\n      jump\t// in\n    tag_90:\n        /* \"#utility.yul\":3623:3653   */\n      swap1\n      pop\n        /* \"#utility.yul\":3662:3695   */\n      tag_92\n        /* \"#utility.yul\":3690:3694   */\n      dup3\n        /* \"#utility.yul\":3682:3688   */\n      dup3\n        /* \"#utility.yul\":3662:3695   */\n      tag_93\n      jump\t// in\n    tag_92:\n        /* \"#utility.yul\":3572:3701   */\n      swap2\n      swap1\n      pop\n      jump\t// out\n        /* \"#utility.yul\":3707:3782   */\n    tag_91:\n        /* \"#utility.yul\":3740:3746   */\n      0x00\n        /* \"#utility.yul\":3773:3775   */\n      0x40\n        /* \"#utility.yul\":3767:3776   */\n      mload\n        /* \"#utility.yul\":3757:3776   */\n      swap1\n      pop\n        /* \"#utility.yul\":3707:3782   */\n      swap1\n      jump\t// out\n        /* \"#utility.yul\":3788:4096   */\n    tag_35:\n        /* \"#utility.yul\":3850:3854   */\n      0x00\n        /* \"#utility.yul\":3940:3958   */\n      0xffffffffffffffff\n        /* \"#utility.yul\":3932:3938   */\n      dup3\n        /* \"#utility.yul\":3929:3959   */\n      gt\n        /* \"#utility.yul\":3926:3982   */\n      iszero\n      tag_96\n      jumpi\n        /* \"#utility.yul\":3962:3980   */\n      tag_97\n      tag_98\n      jump\t// in\n    tag_97:\n        /* \"#utility.yul\":3926:3982   */\n    tag_96:\n        /* \"#utility.yul\":4000:4029   */\n      tag_99\n        /* \"#utility.yul\":4022:4028   */\n      dup3\n        /* \"#utility.yul\":4000:4029   */\n      tag_84\n      jump\t// in\n    tag_99:\n        /* \"#utility.yul\":3992:4029   */\n      swap1\n      pop\n        /* \"#utility.yul\":4084:4088   */\n      0x20\n        /* \"#utility.yul\":4078:4082   */\n      dup2\n        /* \"#utility.yul\":4074:4089   */\n      add\n        /* \"#utility.yul\":4066:4089   */\n      swap1\n      pop\n        /* \"#utility.yul\":3788:4096   */\n      swap2\n      swap1\n      pop\n      jump\t// out\n        /* \"#utility.yul\":4102:4201   */\n    tag_78:\n        /* \"#utility.yul\":4154:4160   */\n      0x00\n        /* \"#utility.yul\":4188:4193   */\n      dup2\n        /* \"#utility.yul\":4182:4194   */\n      mload\n        /* \"#utility.yul\":4172:4194   */\n      swap1\n      pop\n        /* \"#utility.yul\":4102:4201   */\n      swap2\n      swap1\n      pop\n      jump\t// out\n        /* \"#utility.yul\":4207:4376   */\n    tag_80:\n        /* \"#utility.yul\":4291:4302   */\n      0x00\n        /* \"#utility.yul\":4325:4331   */\n      dup3\n        /* \"#utility.yul\":4320:4323   */\n      dup3\n        /* \"#utility.yul\":4313:4332   */\n      mstore\n        /* \"#utility.yul\":4365:4369   */\n      0x20\n        /* \"#utility.yul\":4360:4363   */\n      dup3\n        /* \"#utility.yul\":4356:4370   */\n      add\n        /* \"#utility.yul\":4341:4370   */\n      swap1\n      pop\n        /* \"#utility.yul\":4207:4376   */\n      swap3\n      swap2\n      pop\n      pop\n      jump\t// out\n        /* \"#utility.yul\":4382:4907   */\n    tag_26:\n        /* \"#utility.yul\":4421:4424   */\n      0x00\n        /* \"#utility.yul\":4440:4459   */\n      tag_103\n        /* \"#utility.yul\":4457:4458   */\n      dup3\n        /* \"#utility.yul\":4440:4459   */\n      tag_74\n      jump\t// in\n    tag_103:\n        /* \"#utility.yul\":4435:4459   */\n      swap2\n      pop\n        /* \"#utility.yul\":4473:4492   */\n      tag_104\n        /* \"#utility.yul\":4490:4491   */\n      dup4\n        /* \"#utility.yul\":4473:4492   */\n      tag_74\n      jump\t// in\n    tag_104:\n        /* \"#utility.yul\":4468:4492   */\n      swap3\n      pop\n        /* \"#utility.yul\":4661:4662   */\n      dup2\n        /* \"#utility.yul\":4593:4659   */\n      0x7fffffffffffffffffffffffffffffffffffffffffffffffffffffffffffffff\n        /* \"#utility.yul\":4589:4663   */\n      sub\n        /* \"#utility.yul\":4586:4587   */\n      dup4\n        /* \"#utility.yul\":4582:4664   */\n      sgt\n        /* \"#utility.yul\":4577:4578   */\n      0x00\n        /* \"#utility.yul\":4574:4575   */\n      dup4\n        /* \"#utility.yul\":4570:4579   */\n      slt\n        /* \"#utility.yul\":4563:4580   */\n      iszero\n        /* \"#utility.yul\":4559:4665   */\n      and\n        /* \"#utility.yul\":4556:4688   */\n      iszero\n      tag_105\n      jumpi\n        /* \"#utility.yul\":4668:4686   */\n      tag_106\n      tag_107\n      jump\t// in\n    tag_106:\n        /* \"#utility.yul\":4556:4688   */\n    tag_105:\n        /* \"#utility.yul\":4848:4849   */\n      dup2\n        /* \"#utility.yul\":4780:4846   */\n      0x8000000000000000000000000000000000000000000000000000000000000000\n        /* \"#utility.yul\":4776:4850   */\n      sub\n        /* \"#utility.yul\":4773:4774   */\n      dup4\n        /* \"#utility.yul\":4769:4851   */\n      slt\n        /* \"#utility.yul\":4765:4766   */\n      0x00\n        /* \"#utility.yul\":4762:4763   */\n      dup4\n        /* \"#utility.yul\":4758:4767   */\n      slt\n        /* \"#utility.yul\":4754:4852   */\n      and\n        /* \"#utility.yul\":4751:4875   */\n      iszero\n      tag_108\n      jumpi\n        /* \"#utility.yul\":4855:4873   */\n      tag_109\n      tag_107\n      jump\t// in\n    tag_109:\n        /* \"#utility.yul\":4751:4875   */\n    tag_108:\n        /* \"#utility.yul\":4899:4900   */\n      dup3\n        /* \"#utility.yul\":4896:4897   */\n      dup3\n        /* \"#utility.yul\":4892:4901   */\n      add\n        /* \"#utility.yul\":4885:4901   */\n      swap1\n      pop\n        /* \"#utility.yul\":4382:4907   */\n      swap3\n      swap2\n      pop\n      pop\n      jump\t// out\n        /* \"#utility.yul\":4913:4989   */\n    tag_74:\n        /* \"#utility.yul\":4949:4956   */\n      0x00\n        /* \"#utility.yul\":4978:4983   */\n      dup2\n        /* \"#utility.yul\":4967:4983   */\n      swap1\n      pop\n        /* \"#utility.yul\":4913:4989   */\n      swap2\n      swap1\n      pop\n      jump\t// out\n        /* \"#utility.yul\":4995:5149   */\n    tag_41:\n        /* \"#utility.yul\":5079:5085   */\n      dup3\n        /* \"#utility.yul\":5074:5077   */\n      dup2\n        /* \"#utility.yul\":5069:5072   */\n      dup4\n        /* \"#utility.yul\":5056:5086   */\n      calldatacopy\n        /* \"#utility.yul\":5141:5142   */\n      0x00\n        /* \"#utility.yul\":5132:5138   */\n      dup4\n        /* \"#utility.yul\":5127:5130   */\n      dup4\n        /* \"#utility.yul\":5123:5139   */\n      add\n        /* \"#utility.yul\":5116:5143   */\n      mstore\n        /* \"#utility.yul\":4995:5149   */\n      pop\n      pop\n      pop\n      jump\t// out\n        /* \"#utility.yul\":5155:5462   */\n    tag_82:\n        /* \"#utility.yul\":5223:5224   */\n      0x00\n        /* \"#utility.yul\":5233:5346   */\n    tag_113:\n        /* \"#utility.yul\":5247:5253   */\n      dup4\n        /* \"#utility.yul\":5244:5245   */\n      dup2\n        /* \"#utility.yul\":5241:5254   */\n      lt\n        /* \"#utility.yul\":5233:5346   */\n      iszero\n      tag_115\n      jumpi\n        /* \"#utility.yul\":5332:5333   */\n      dup1\n        /* \"#utility.yul\":5327:5330   */\n      dup3\n        /* \"#utility.yul\":5323:5334   */\n      add\n        /* \"#utility.yul\":5317:5335   */\n      mload\n        /* \"#utility.yul\":5313:5314   */\n      dup2\n        /* \"#utility.yul\":5308:5311   */\n      dup5\n        /* \"#utility.yul\":5304:5315   */\n      add\n        /* \"#utility.yul\":5297:5336   */\n      mstore\n        /* \"#utility.yul\":5269:5271   */\n      0x20\n        /* \"#utility.yul\":5266:5267   */\n      dup2\n        /* \"#utility.yul\":5262:5272   */\n      add\n        /* \"#utility.yul\":5257:5272   */\n      swap1\n      pop\n        /* \"#utility.yul\":5233:5346   */\n      jump(tag_113)\n    tag_115:\n        /* \"#utility.yul\":5364:5370   */\n      dup4\n        /* \"#utility.yul\":5361:5362   */\n      dup2\n        /* \"#utility.yul\":5358:5371   */\n      gt\n        /* \"#utility.yul\":5355:5456   */\n      iszero\n      tag_116\n      jumpi\n        /* \"#utility.yul\":5444:5445   */\n      0x00\n        /* \"#utility.yul\":5435:5441   */\n      dup5\n        /* \"#utility.yul\":5430:5433   */\n      dup5\n        /* \"#utility.yul\":5426:5442   */\n      add\n        /* \"#utility.yul\":5419:5446   */\n      mstore\n        /* \"#utility.yul\":5355:5456   */\n    tag_116:\n        /* \"#utility.yul\":5204:5462   */\n      pop\n        /* \"#utility.yul\":5155:5462   */\n      pop\n      pop\n      pop\n      jump\t// out\n        /* \"#utility.yul\":5468:5749   */\n    tag_93:\n        /* \"#utility.yul\":5551:5578   */\n      tag_118\n        /* \"#utility.yul\":5573:5577   */\n      dup3\n        /* \"#utility.yul\":5551:5578   */\n      tag_84\n      jump\t// in\n    tag_118:\n        /* \"#utility.yul\":5543:5549   */\n      dup2\n        /* \"#utility.yul\":5539:5579   */\n      add\n        /* \"#utility.yul\":5681:5687   */\n      dup2\n        /* \"#utility.yul\":5669:5679   */\n      dup2\n        /* \"#utility.yul\":5666:5688   */\n      lt\n        /* \"#utility.yul\":5645:5663   */\n      0xffffffffffffffff\n        /* \"#utility.yul\":5633:5643   */\n      dup3\n        /* \"#utility.yul\":5630:5664   */\n      gt\n        /* \"#utility.yul\":5627:5689   */\n      or\n        /* \"#utility.yul\":5624:5712   */\n      iszero\n      tag_119\n      jumpi\n        /* \"#utility.yul\":5692:5710   */\n      tag_120\n      tag_98\n      jump\t// in\n    tag_120:\n        /* \"#utility.yul\":5624:5712   */\n    tag_119:\n        /* \"#utility.yul\":5732:5742   */\n      dup1\n        /* \"#utility.yul\":5728:5730   */\n      0x40\n        /* \"#utility.yul\":5721:5743   */\n      mstore\n        /* \"#utility.yul\":5511:5749   */\n      pop\n        /* \"#utility.yul\":5468:5749   */\n      pop\n      pop\n      jump\t// out\n        /* \"#utility.yul\":5755:5935   */\n    tag_107:\n        /* \"#utility.yul\":5803:5880   */\n      0x4e487b7100000000000000000000000000000000000000000000000000000000\n        /* \"#utility.yul\":5800:5801   */\n      0x00\n        /* \"#utility.yul\":5793:5881   */\n      mstore\n        /* \"#utility.yul\":5900:5904   */\n      0x11\n        /* \"#utility.yul\":5897:5898   */\n      0x04\n        /* \"#utility.yul\":5890:5905   */\n      mstore\n        /* \"#utility.yul\":5924:5928   */\n      0x24\n        /* \"#utility.yul\":5921:5922   */\n      0x00\n        /* \"#utility.yul\":5914:5929   */\n      revert\n        /* \"#utility.yul\":5941:6121   */\n    tag_98:\n        /* \"#utility.yul\":5989:6066   */\n      0x4e487b7100000000000000000000000000000000000000000000000000000000\n        /* \"#utility.yul\":5986:5987   */\n      0x00\n        /* \"#utility.yul\":5979:6067   */\n      mstore\n        /* \"#utility.yul\":6086:6090   */\n      0x41\n        /* \"#utility.yul\":6083:6084   */\n      0x04\n        /* \"#utility.yul\":6076:6091   */\n      mstore\n        /* \"#utility.yul\":6110:6114   */\n      0x24\n        /* \"#utility.yul\":6107:6108   */\n      0x00\n        /* \"#utility.yul\":6100:6115   */\n      revert\n        /* \"#utility.yul\":6127:6244   */\n    tag_50:\n        /* \"#utility.yul\":6236:6237   */\n      0x00\n        /* \"#utility.yul\":6233:6234   */\n      dup1\n        /* \"#utility.yul\":6226:6238   */\n      revert\n        /* \"#utility.yul\":6250:6367   */\n    tag_39:\n        /* \"#utility.yul\":6359:6360   */\n      0x00\n        /* \"#utility.yul\":6356:6357   */\n      dup1\n        /* \"#utility.yul\":6349:6361   */\n      revert\n        /* \"#utility.yul\":6373:6490   */\n    tag_69:\n        /* \"#utility.yul\":6482:6483   */\n      0x00\n        /* \"#utility.yul\":6479:6480   */\n      dup1\n        /* \"#utility.yul\":6472:6484   */\n      revert\n        /* \"#utility.yul\":6496:6613   */\n    tag_55:\n        /* \"#utility.yul\":6605:6606   */\n      0x00\n        /* \"#utility.yul\":6602:6603   */\n      dup1\n        /* \"#utility.yul\":6595:6607   */\n      revert\n        /* \"#utility.yul\":6619:6721   */\n    tag_84:\n        /* \"#utility.yul\":6660:6666   */\n      0x00\n        /* \"#utility.yul\":6711:6713   */\n      0x1f\n        /* \"#utility.yul\":6707:6714   */\n      not\n        /* \"#utility.yul\":6702:6704   */\n      0x1f\n        /* \"#utility.yul\":6695:6700   */\n      dup4\n        /* \"#utility.yul\":6691:6705   */\n      add\n        /* \"#utility.yul\":6687:6715   */\n      and\n        /* \"#utility.yul\":6677:6715   */\n      swap1\n      pop\n        /* \"#utility.yul\":6619:6721   */\n      swap2\n      swap1\n      pop\n      jump\t// out\n        /* \"#utility.yul\":6727:6847   */\n    tag_45:\n        /* \"#utility.yul\":6799:6822   */\n      tag_129\n        /* \"#utility.yul\":6816:6821   */\n      dup2\n        /* \"#utility.yul\":6799:6822   */\n      tag_74\n      jump\t// in\n    tag_129:\n        /* \"#utility.yul\":6792:6797   */\n      dup2\n        /* \"#utility.yul\":6789:6823   */\n      eq\n        /* \"#utility.yul\":6779:6841   */\n      tag_130\n      jumpi\n        /* \"#utility.yul\":6837:6838   */\n      0x00\n        /* \"#utility.yul\":6834:6835   */\n      dup1\n        /* \"#utility.yul\":6827:6839   */\n      revert\n        /* \"#utility.yul\":6779:6841   */\n    tag_130:\n        /* \"#utility.yul\":6727:6847   */\n      pop\n      jump\t// out\n\n    auxdata: 0xa2646970667358221220da9a7788f7af528aa8aacd54790f68f174dcca6f70f4766598e64faa369292d164736f6c63430008070033\n}\n",
				"bytecode": {
					"linkReferences": {},
					"object": "608060405234801561001057600080fd5b50610551806100206000396000f3fe608060405234801561001057600080fd5b50600436106100415760003560e01c80638885353b146100465780639967062d14610076578063a7e04671146100a6575b600080fd5b610060600480360381019061005b9190610230565b6100d6565b60405161006d91906102dc565b60405180910390f35b610090600480360381019061008b919061019d565b6100e0565b60405161009d91906102c1565b60405180910390f35b6100c060048036038101906100bb91906101dd565b6100f6565b6040516100cd91906102c1565b60405180910390f35b6060819050919050565b600081836100ee9190610370565b905092915050565b60008183856101059190610370565b61010f9190610370565b90509392505050565b600061012b61012684610323565b6102fe565b905082815260208101848484011115610147576101466104e4565b5b61015284828561040e565b509392505050565b60008135905061016981610504565b92915050565b600082601f830112610184576101836104df565b5b8135610194848260208601610118565b91505092915050565b600080604083850312156101b4576101b36104ee565b5b60006101c28582860161015a565b92505060206101d38582860161015a565b9150509250929050565b6000806000606084860312156101f6576101f56104ee565b5b60006102048682870161015a565b93505060206102158682870161015a565b92505060406102268682870161015a565b9150509250925092565b600060208284031215610246576102456104ee565b5b600082013567ffffffffffffffff811115610264576102636104e9565b5b6102708482850161016f565b91505092915050565b61028281610404565b82525050565b600061029382610354565b61029d818561035f565b93506102ad81856020860161041d565b6102b6816104f3565b840191505092915050565b60006020820190506102d66000830184610279565b92915050565b600060208201905081810360008301526102f68184610288565b905092915050565b6000610308610319565b90506103148282610450565b919050565b6000604051905090565b600067ffffffffffffffff82111561033e5761033d6104b0565b5b610347826104f3565b9050602081019050919050565b600081519050919050565b600082825260208201905092915050565b600061037b82610404565b915061038683610404565b9250817f7fffffffffffffffffffffffffffffffffffffffffffffffffffffffffffffff038313600083121516156103c1576103c0610481565b5b817f80000000000000000000000000000000000000000000000000000000000000000383126000831216156103f9576103f8610481565b5b828201905092915050565b6000819050919050565b82818337600083830152505050565b60005b8381101561043b578082015181840152602081019050610420565b8381111561044a576000848401525b50505050565b610459826104f3565b810181811067ffffffffffffffff82111715610478576104776104b0565b5b80604052505050565b7f4e487b7100000000000000000000000000000000000000000000000000000000600052601160045260246000fd5b7f4e487b7100000000000000000000000000000000000000000000000000000000600052604160045260246000fd5b600080fd5b600080fd5b600080fd5b600080fd5b6000601f19601f8301169050919050565b61050d81610404565b811461051857600080fd5b5056fea2646970667358221220da9a7788f7af528aa8aacd54790f68f174dcca6f70f4766598e64faa369292d164736f6c63430008070033",
					"opcodes": "PUSH1 0x80 PUSH1 0x40 MSTORE CALLVALUE DUP1 ISZERO PUSH2 0x10 JUMPI PUSH1 0x0 DUP1 REVERT JUMPDEST POP PUSH2 0x551 DUP1 PUSH2 0x20 PUSH1 0x0 CODECOPY PUSH1 0x0 RETURN INVALID PUSH1 0x80 PUSH1 0x40 MSTORE CALLVALUE DUP1 ISZERO PUSH2 0x10 JUMPI PUSH1 0x0 DUP1 REVERT JUMPDEST POP PUSH1 0x4 CALLDATASIZE LT PUSH2 0x41 JUMPI PUSH1 0x0 CALLDATALOAD PUSH1 0xE0 SHR DUP1 PUSH4 0x8885353B EQ PUSH2 0x46 JUMPI DUP1 PUSH4 0x9967062D EQ PUSH2 0x76 JUMPI DUP1 PUSH4 0xA7E04671 EQ PUSH2 0xA6 JUMPI JUMPDEST PUSH1 0x0 DUP1 REVERT JUMPDEST PUSH2 0x60 PUSH1 0x4 DUP1 CALLDATASIZE SUB DUP2 ADD SWAP1 PUSH2 0x5B SWAP2 SWAP1 PUSH2 0x230 JUMP JUMPDEST PUSH2 0xD6 JUMP JUMPDEST PUSH1 0x40 MLOAD PUSH2 0x6D SWAP2 SWAP1 PUSH2 0x2DC JUMP JUMPDEST PUSH1 0x40 MLOAD DUP1 SWAP2 SUB SWAP1 RETURN JUMPDEST PUSH2 0x90 PUSH1 0x4 DUP1 CALLDATASIZE SUB DUP2 ADD SWAP1 PUSH2 0x8B SWAP2 SWAP1 PUSH2 0x19D JUMP JUMPDEST PUSH2 0xE0 JUMP JUMPDEST PUSH1 0x40 MLOAD PUSH2 0x9D SWAP2 SWAP1 PUSH2 0x2C1 JUMP JUMPDEST PUSH1 0x40 MLOAD DUP1 SWAP2 SUB SWAP1 RETURN JUMPDEST PUSH2 0xC0 PUSH1 0x4 DUP1 CALLDATASIZE SUB DUP2 ADD SWAP1 PUSH2 0xBB SWAP2 SWAP1 PUSH2 0x1DD JUMP JUMPDEST PUSH2 0xF6 JUMP JUMPDEST PUSH1 0x40 MLOAD PUSH2 0xCD SWAP2 SWAP1 PUSH2 0x2C1 JUMP JUMPDEST PUSH1 0x40 MLOAD DUP1 SWAP2 SUB SWAP1 RETURN JUMPDEST PUSH1 0x60 DUP2 SWAP1 POP SWAP2 SWAP1 POP JUMP JUMPDEST PUSH1 0x0 DUP2 DUP4 PUSH2 0xEE SWAP2 SWAP1 PUSH2 0x370 JUMP JUMPDEST SWAP1 POP SWAP3 SWAP2 POP POP JUMP JUMPDEST PUSH1 0x0 DUP2 DUP4 DUP6 PUSH2 0x105 SWAP2 SWAP1 PUSH2 0x370 JUMP JUMPDEST PUSH2 0x10F SWAP2 SWAP1 PUSH2 0x370 JUMP JUMPDEST SWAP1 POP SWAP4 SWAP3 POP POP POP JUMP JUMPDEST PUSH1 0x0 PUSH2 0x12B PUSH2 0x126 DUP5 PUSH2 0x323 JUMP JUMPDEST PUSH2 0x2FE JUMP JUMPDEST SWAP1 POP DUP3 DUP2 MSTORE PUSH1 0x20 DUP2 ADD DUP5 DUP5 DUP5 ADD GT ISZERO PUSH2 0x147 JUMPI PUSH2 0x146 PUSH2 0x4E4 JUMP JUMPDEST JUMPDEST PUSH2 0x152 DUP5 DUP3 DUP6 PUSH2 0x40E JUMP JUMPDEST POP SWAP4 SWAP3 POP POP POP JUMP JUMPDEST PUSH1 0x0 DUP2 CALLDATALOAD SWAP1 POP PUSH2 0x169 DUP2 PUSH2 0x504 JUMP JUMPDEST SWAP3 SWAP2 POP POP JUMP JUMPDEST PUSH1 0x0 DUP3 PUSH1 0x1F DUP4 ADD SLT PUSH2 0x184 JUMPI PUSH2 0x183 PUSH2 0x4DF JUMP JUMPDEST JUMPDEST DUP2 CALLDATALOAD PUSH2 0x194 DUP5 DUP3 PUSH1 0x20 DUP7 ADD PUSH2 0x118 JUMP JUMPDEST SWAP2 POP POP SWAP3 SWAP2 POP POP JUMP JUMPDEST PUSH1 0x0 DUP1 PUSH1 0x40 DUP4 DUP6 SUB SLT ISZERO PUSH2 0x1B4 JUMPI PUSH2 0x1B3 PUSH2 0x4EE JUMP JUMPDEST JUMPDEST PUSH1 0x0 PUSH2 0x1C2 DUP6 DUP3 DUP7 ADD PUSH2 0x15A JUMP JUMPDEST SWAP3 POP POP PUSH1 0x20 PUSH2 0x1D3 DUP6 DUP3 DUP7 ADD PUSH2 0x15A JUMP JUMPDEST SWAP2 POP POP SWAP3 POP SWAP3 SWAP1 POP JUMP JUMPDEST PUSH1 0x0 DUP1 PUSH1 0x0 PUSH1 0x60 DUP5 DUP7 SUB SLT ISZERO PUSH2 0x1F6 JUMPI PUSH2 0x1F5 PUSH2 0x4EE JUMP JUMPDEST JUMPDEST PUSH1 0x0 PUSH2 0x204 DUP7 DUP3 DUP8 ADD PUSH2 0x15A JUMP JUMPDEST SWAP4 POP POP PUSH1 0x20 PUSH2 0x215 DUP7 DUP3 DUP8 ADD PUSH2 0x15A JUMP JUMPDEST SWAP3 POP POP PUSH1 0x40 PUSH2 0x226 DUP7 DUP3 DUP8 ADD PUSH2 0x15A JUMP JUMPDEST SWAP2 POP POP SWAP3 POP SWAP3 POP SWAP3 JUMP JUMPDEST PUSH1 0x0 PUSH1 0x20 DUP3 DUP5 SUB SLT ISZERO PUSH2 0x246 JUMPI PUSH2 0x245 PUSH2 0x4EE JUMP JUMPDEST JUMPDEST PUSH1 0x0 DUP3 ADD CALLDATALOAD PUSH8 0xFFFFFFFFFFFFFFFF DUP2 GT ISZERO PUSH2 0x264 JUMPI PUSH2 0x263 PUSH2 0x4E9 JUMP JUMPDEST JUMPDEST PUSH2 0x270 DUP5 DUP3 DUP6 ADD PUSH2 0x16F JUMP JUMPDEST SWAP2 POP POP SWAP3 SWAP2 POP POP JUMP JUMPDEST PUSH2 0x282 DUP2 PUSH2 0x404 JUMP JUMPDEST DUP3 MSTORE POP POP JUMP JUMPDEST PUSH1 0x0 PUSH2 0x293 DUP3 PUSH2 0x354 JUMP JUMPDEST PUSH2 0x29D DUP2 DUP6 PUSH2 0x35F JUMP JUMPDEST SWAP4 POP PUSH2 0x2AD DUP2 DUP6 PUSH1 0x20 DUP7 ADD PUSH2 0x41D JUMP JUMPDEST PUSH2 0x2B6 DUP2 PUSH2 0x4F3 JUMP JUMPDEST DUP5 ADD SWAP2 POP POP SWAP3 SWAP2 POP POP JUMP JUMPDEST PUSH1 0x0 PUSH1 0x20 DUP3 ADD SWAP1 POP PUSH2 0x2D6 PUSH1 0x0 DUP4 ADD DUP5 PUSH2 0x279 JUMP JUMPDEST SWAP3 SWAP2 POP POP JUMP JUMPDEST PUSH1 0x0 PUSH1 0x20 DUP3 ADD SWAP1 POP DUP2 DUP2 SUB PUSH1 0x0 DUP4 ADD MSTORE PUSH2 0x2F6 DUP2 DUP5 PUSH2 0x288 JUMP JUMPDEST SWAP1 POP SWAP3 SWAP2 POP POP JUMP JUMPDEST PUSH1 0x0 PUSH2 0x308 PUSH2 0x319 JUMP JUMPDEST SWAP1 POP PUSH2 0x314 DUP3 DUP3 PUSH2 0x450 JUMP JUMPDEST SWAP2 SWAP1 POP JUMP JUMPDEST PUSH1 0x0 PUSH1 0x40 MLOAD SWAP1 POP SWAP1 JUMP JUMPDEST PUSH1 0x0 PUSH8 0xFFFFFFFFFFFFFFFF DUP3 GT ISZERO PUSH2 0x33E JUMPI PUSH2 0x33D PUSH2 0x4B0 JUMP JUMPDEST JUMPDEST PUSH2 0x347 DUP3 PUSH2 0x4F3 JUMP JUMPDEST SWAP1 POP PUSH1 0x20 DUP2 ADD SWAP1 POP SWAP2 SWAP1 POP JUMP JUMPDEST PUSH1 0x0 DUP2 MLOAD SWAP1 POP SWAP2 SWAP1 POP JUMP JUMPDEST PUSH1 0x0 DUP3 DUP3 MSTORE PUSH1 0x20 DUP3 ADD SWAP1 POP SWAP3 SWAP2 POP POP JUMP JUMPDEST PUSH1 0x0 PUSH2 0x37B DUP3 PUSH2 0x404 JUMP JUMPDEST SWAP2 POP PUSH2 0x386 DUP4 PUSH2 0x404 JUMP JUMPDEST SWAP3 POP DUP2 PUSH32 0x7FFFFFFFFFFFFFFFFFFFFFFFFFFFFFFFFFFFFFFFFFFFFFFFFFFFFFFFFFFFFFFF SUB DUP4 SGT PUSH1 0x0 DUP4 SLT ISZERO AND ISZERO PUSH2 0x3C1 JUMPI PUSH2 0x3C0 PUSH2 0x481 JUMP JUMPDEST JUMPDEST DUP2 PUSH32 0x8000000000000000000000000000000000000000000000000000000000000000 SUB DUP4 SLT PUSH1 0x0 DUP4 SLT AND ISZERO PUSH2 0x3F9 JUMPI PUSH2 0x3F8 PUSH2 0x481 JUMP JUMPDEST JUMPDEST DUP3 DUP3 ADD SWAP1 POP SWAP3 SWAP2 POP POP JUMP JUMPDEST PUSH1 0x0 DUP2 SWAP1 POP SWAP2 SWAP1 POP JUMP JUMPDEST DUP3 DUP2 DUP4 CALLDATACOPY PUSH1 0x0 DUP4 DUP4 ADD MSTORE POP POP POP JUMP JUMPDEST PUSH1 0x0 JUMPDEST DUP4 DUP2 LT ISZERO PUSH2 0x43B JUMPI DUP1 DUP3 ADD MLOAD DUP2 DUP5 ADD MSTORE PUSH1 0x20 DUP2 ADD SWAP1 POP PUSH2 0x420 JUMP JUMPDEST DUP4 DUP2 GT ISZERO PUSH2 0x44A JUMPI PUSH1 0x0 DUP5 DUP5 ADD MSTORE JUMPDEST POP POP POP POP JUMP JUMPDEST PUSH2 0x459 DUP3 PUSH2 0x4F3 JUMP JUMPDEST DUP2 ADD DUP2 DUP2 LT PUSH8 0xFFFFFFFFFFFFFFFF DUP3 GT OR ISZERO PUSH2 0x478 JUMPI PUSH2 0x477 PUSH2 0x4B0 JUMP JUMPDEST JUMPDEST DUP1 PUSH1 0x40 MSTORE POP POP POP JUMP JUMPDEST PUSH32 0x4E487B7100000000000000000000000000000000000000000000000000000000 PUSH1 0x0 MSTORE PUSH1 0x11 PUSH1 0x4 MSTORE PUSH1 0x24 PUSH1 0x0 REVERT JUMPDEST PUSH32 0x4E487B7100000000000000000000000000000000000000000000000000000000 PUSH1 0x0 MSTORE PUSH1 0x41 PUSH1 0x4 MSTORE PUSH1 0x24 PUSH1 0x0 REVERT JUMPDEST PUSH1 0x0 DUP1 REVERT JUMPDEST PUSH1 0x0 DUP1 REVERT JUMPDEST PUSH1 0x0 DUP1 REVERT JUMPDEST PUSH1 0x0 DUP1 REVERT JUMPDEST PUSH1 0x0 PUSH1 0x1F NOT PUSH1 0x1F DUP4 ADD AND SWAP1 POP SWAP2 SWAP1 POP JUMP JUMPDEST PUSH2 0x50D DUP2 PUSH2 0x404 JUMP JUMPDEST DUP2 EQ PUSH2 0x518 JUMPI PUSH1 0x0 DUP1 REVERT JUMPDEST POP JUMP INVALID LOG2 PUSH5 0x6970667358 0x22 SLT KECCAK256 0xDA SWAP11 PUSH24 0x88F7AF528AA8AACD54790F68F174DCCA6F70F4766598E64F 0xAA CALLDATASIZE SWAP3 SWAP3 0xD1 PUSH5 0x736F6C6343 STOP ADDMOD SMOD STOP CALLER "
				},
				"gasEstimates": {
					"creation": {
						"codeDepositCost": "272200",
						"executionCost": "312",
						"totalCost": "272512"
					},
					"external": {
						"sum(int256,int256)": "infinite",
						"sum(int256,int256,int256)": "infinite",
						"sum(string)": "infinite"
					}
				},
				"methodIdentifiers": {
					"sum(int256,int256)": "9967062d",
					"sum(int256,int256,int256)": "a7e04671",
					"sum(string)": "8885353b"
				}
			},
			"storageLayout": {
				"storage": [],
				"types": null
			},
			"userdoc": {
				"kind": "user",
				"methods": {},
				"version": 1
			}
		}
	}
}