{
	"payableFunctionAndAddress.sol": {
		"WalletDemo2": {
			"abi": [
				{
					"inputs": [],
					"stateMutability": "nonpayable",
					"type": "constructor"
				},
				{
					"inputs": [],
					"name": "checkBalance",
					"outputs": [
						{
							"internalType": "uint256",
							"name": "",
							"type": "uint256"
						}
					],
					"stateMutability": "view",
					"type": "function"
				},
				{
					"inputs": [],
					"name": "owner",
					"outputs": [
						{
							"internalType": "address payable",
							"name": "",
							"type": "address"
						}
					],
					"stateMutability": "view",
					"type": "function"
				},
				{
					"inputs": [],
					"name": "recieveEther",
					"outputs": [],
					"stateMutability": "payable",
					"type": "function"
				},
				{
					"inputs": [
						{
							"internalType": "address",
							"name": "toAddress",
							"type": "address"
						},
						{
							"internalType": "uint256",
							"name": "amount",
							"type": "uint256"
						}
					],
					"name": "tranferEther",
					"outputs": [],
					"stateMutability": "payable",
					"type": "function"
				}
			],
			"devdoc": {
				"kind": "dev",
				"methods": {},
				"version": 1
			},
			"evm": {
				"assembly": "    /* \"payableFunctionAndAddress.sol\":1282:1976  contract WalletDemo2{... */\n  mstore(0x40, 0x80)\n    /* \"payableFunctionAndAddress.sol\":1383:1428  constructor(){... */\n  callvalue\n  dup1\n  iszero\n  tag_1\n  jumpi\n  0x00\n  dup1\n  revert\ntag_1:\n  pop\n    /* \"payableFunctionAndAddress.sol\":1414:1424  msg.sender */\n  caller\n    /* \"payableFunctionAndAddress.sol\":1398:1403  owner */\n  0x00\n  dup1\n    /* \"payableFunctionAndAddress.sol\":1398:1425  owner = payable(msg.sender) */\n  0x0100\n  exp\n  dup2\n  sload\n  dup2\n  0xffffffffffffffffffffffffffffffffffffffff\n  mul\n  not\n  and\n  swap1\n  dup4\n  0xffffffffffffffffffffffffffffffffffffffff\n  and\n  mul\n  or\n  swap1\n  sstore\n  pop\n    /* \"payableFunctionAndAddress.sol\":1282:1976  contract WalletDemo2{... */\n  dataSize(sub_0)\n  dup1\n  dataOffset(sub_0)\n  0x00\n  codecopy\n  0x00\n  return\nstop\n\nsub_0: assembly {\n        /* \"payableFunctionAndAddress.sol\":1282:1976  contract WalletDemo2{... */\n      mstore(0x40, 0x80)\n      jumpi(tag_1, lt(calldatasize, 0x04))\n      shr(0xe0, calldataload(0x00))\n      dup1\n      0x11787365\n      eq\n      tag_2\n      jumpi\n      dup1\n      0x8da5cb5b\n      eq\n      tag_3\n      jumpi\n      dup1\n      0x8f4062d7\n      eq\n      tag_4\n      jumpi\n      dup1\n      0xc71daccb\n      eq\n      tag_5\n      jumpi\n    tag_1:\n      0x00\n      dup1\n      revert\n        /* \"payableFunctionAndAddress.sol\":1578:1764  function tranferEther(address toAddress,uint amount) payable public {... */\n    tag_2:\n      tag_6\n      0x04\n      dup1\n      calldatasize\n      sub\n      dup2\n      add\n      swap1\n      tag_7\n      swap2\n      swap1\n      tag_8\n      jump\t// in\n    tag_7:\n      tag_9\n      jump\t// in\n    tag_6:\n      stop\n        /* \"payableFunctionAndAddress.sol\":1352:1380  address payable public owner */\n    tag_3:\n      callvalue\n      dup1\n      iszero\n      tag_10\n      jumpi\n      0x00\n      dup1\n      revert\n    tag_10:\n      pop\n      tag_11\n      tag_12\n      jump\t// in\n    tag_11:\n      mload(0x40)\n      tag_13\n      swap2\n      swap1\n      tag_14\n      jump\t// in\n    tag_13:\n      mload(0x40)\n      dup1\n      swap2\n      sub\n      swap1\n      return\n        /* \"payableFunctionAndAddress.sol\":1481:1524  function recieveEther() public payable {... */\n    tag_4:\n      tag_15\n      tag_16\n      jump\t// in\n    tag_15:\n      stop\n        /* \"payableFunctionAndAddress.sol\":1812:1972  function checkBalance() public view returns(uint){... */\n    tag_5:\n      callvalue\n      dup1\n      iszero\n      tag_17\n      jumpi\n      0x00\n      dup1\n      revert\n    tag_17:\n      pop\n      tag_18\n      tag_19\n      jump\t// in\n    tag_18:\n      mload(0x40)\n      tag_20\n      swap2\n      swap1\n      tag_21\n      jump\t// in\n    tag_20:\n      mload(0x40)\n      dup1\n      swap2\n      sub\n      swap1\n      return\n        /* \"payableFunctionAndAddress.sol\":1578:1764  function tranferEther(address toAddress,uint amount) payable public {... */\n    tag_9:\n        /* \"payableFunctionAndAddress.sol\":1667:1677  msg.sender */\n      caller\n        /* \"payableFunctionAndAddress.sol\":1660:1677  owner==msg.sender */\n      0xffffffffffffffffffffffffffffffffffffffff\n      and\n        /* \"payableFunctionAndAddress.sol\":1660:1665  owner */\n      0x00\n      dup1\n      sload\n      swap1\n      0x0100\n      exp\n      swap1\n      div\n      0xffffffffffffffffffffffffffffffffffffffff\n      and\n        /* \"payableFunctionAndAddress.sol\":1660:1677  owner==msg.sender */\n      0xffffffffffffffffffffffffffffffffffffffff\n      and\n      eq\n        /* \"payableFunctionAndAddress.sol\":1652:1720  require(owner==msg.sender,\"You are not authorized to access wallet\") */\n      tag_23\n      jumpi\n      mload(0x40)\n      0x08c379a000000000000000000000000000000000000000000000000000000000\n      dup2\n      mstore\n      0x04\n      add\n      tag_24\n      swap1\n      tag_25\n      jump\t// in\n    tag_24:\n      mload(0x40)\n      dup1\n      swap2\n      sub\n      swap1\n      revert\n    tag_23:\n        /* \"payableFunctionAndAddress.sol\":1734:1743  toAddress */\n      dup2\n        /* \"payableFunctionAndAddress.sol\":1726:1753  payable(toAddress).transfer */\n      0xffffffffffffffffffffffffffffffffffffffff\n      and\n        /* \"payableFunctionAndAddress.sol\":1726:1761  payable(toAddress).transfer(amount) */\n      0x08fc\n        /* \"payableFunctionAndAddress.sol\":1754:1760  amount */\n      dup3\n        /* \"payableFunctionAndAddress.sol\":1726:1761  payable(toAddress).transfer(amount) */\n      swap1\n      dup2\n      iszero\n      mul\n      swap1\n      mload(0x40)\n      0x00\n      mload(0x40)\n      dup1\n      dup4\n      sub\n      dup2\n      dup6\n      dup9\n      dup9\n      call\n      swap4\n      pop\n      pop\n      pop\n      pop\n      iszero\n      dup1\n      iszero\n      tag_27\n      jumpi\n      returndatasize\n      0x00\n      dup1\n      returndatacopy\n      revert(0x00, returndatasize)\n    tag_27:\n      pop\n        /* \"payableFunctionAndAddress.sol\":1578:1764  function tranferEther(address toAddress,uint amount) payable public {... */\n      pop\n      pop\n      jump\t// out\n        /* \"payableFunctionAndAddress.sol\":1352:1380  address payable public owner */\n    tag_12:\n      0x00\n      dup1\n      sload\n      swap1\n      0x0100\n      exp\n      swap1\n      div\n      0xffffffffffffffffffffffffffffffffffffffff\n      and\n      dup2\n      jump\t// out\n        /* \"payableFunctionAndAddress.sol\":1481:1524  function recieveEther() public payable {... */\n    tag_16:\n      jump\t// out\n        /* \"payableFunctionAndAddress.sol\":1812:1972  function checkBalance() public view returns(uint){... */\n    tag_19:\n        /* \"payableFunctionAndAddress.sol\":1856:1860  uint */\n      0x00\n        /* \"payableFunctionAndAddress.sol\":1882:1892  msg.sender */\n      caller\n        /* \"payableFunctionAndAddress.sol\":1875:1892  owner==msg.sender */\n      0xffffffffffffffffffffffffffffffffffffffff\n      and\n        /* \"payableFunctionAndAddress.sol\":1875:1880  owner */\n      0x00\n      dup1\n      sload\n      swap1\n      0x0100\n      exp\n      swap1\n      div\n      0xffffffffffffffffffffffffffffffffffffffff\n      and\n        /* \"payableFunctionAndAddress.sol\":1875:1892  owner==msg.sender */\n      0xffffffffffffffffffffffffffffffffffffffff\n      and\n      eq\n        /* \"payableFunctionAndAddress.sol\":1867:1935  require(owner==msg.sender,\"You are not authorized to access wallet\") */\n      tag_30\n      jumpi\n      mload(0x40)\n      0x08c379a000000000000000000000000000000000000000000000000000000000\n      dup2\n      mstore\n      0x04\n      add\n      tag_31\n      swap1\n      tag_25\n      jump\t// in\n    tag_31:\n      mload(0x40)\n      dup1\n      swap2\n      sub\n      swap1\n      revert\n    tag_30:\n        /* \"payableFunctionAndAddress.sol\":1948:1969  address(this).balance */\n      selfbalance\n        /* \"payableFunctionAndAddress.sol\":1941:1969  return address(this).balance */\n      swap1\n      pop\n        /* \"payableFunctionAndAddress.sol\":1812:1972  function checkBalance() public view returns(uint){... */\n      swap1\n      jump\t// out\n        /* \"#utility.yul\":7:146   */\n    tag_33:\n        /* \"#utility.yul\":53:58   */\n      0x00\n        /* \"#utility.yul\":91:97   */\n      dup2\n        /* \"#utility.yul\":78:98   */\n      calldataload\n        /* \"#utility.yul\":69:98   */\n      swap1\n      pop\n        /* \"#utility.yul\":107:140   */\n      tag_35\n        /* \"#utility.yul\":134:139   */\n      dup2\n        /* \"#utility.yul\":107:140   */\n      tag_36\n      jump\t// in\n    tag_35:\n        /* \"#utility.yul\":7:146   */\n      swap3\n      swap2\n      pop\n      pop\n      jump\t// out\n        /* \"#utility.yul\":152:291   */\n    tag_37:\n        /* \"#utility.yul\":198:203   */\n      0x00\n        /* \"#utility.yul\":236:242   */\n      dup2\n        /* \"#utility.yul\":223:243   */\n      calldataload\n        /* \"#utility.yul\":214:243   */\n      swap1\n      pop\n        /* \"#utility.yul\":252:285   */\n      tag_39\n        /* \"#utility.yul\":279:284   */\n      dup2\n        /* \"#utility.yul\":252:285   */\n      tag_40\n      jump\t// in\n    tag_39:\n        /* \"#utility.yul\":152:291   */\n      swap3\n      swap2\n      pop\n      pop\n      jump\t// out\n        /* \"#utility.yul\":297:771   */\n    tag_8:\n        /* \"#utility.yul\":365:371   */\n      0x00\n        /* \"#utility.yul\":373:379   */\n      dup1\n        /* \"#utility.yul\":422:424   */\n      0x40\n        /* \"#utility.yul\":410:419   */\n      dup4\n        /* \"#utility.yul\":401:408   */\n      dup6\n        /* \"#utility.yul\":397:420   */\n      sub\n        /* \"#utility.yul\":393:425   */\n      slt\n        /* \"#utility.yul\":390:509   */\n      iszero\n      tag_42\n      jumpi\n        /* \"#utility.yul\":428:507   */\n      tag_43\n      tag_44\n      jump\t// in\n    tag_43:\n        /* \"#utility.yul\":390:509   */\n    tag_42:\n        /* \"#utility.yul\":548:549   */\n      0x00\n        /* \"#utility.yul\":573:626   */\n      tag_45\n        /* \"#utility.yul\":618:625   */\n      dup6\n        /* \"#utility.yul\":609:615   */\n      dup3\n        /* \"#utility.yul\":598:607   */\n      dup7\n        /* \"#utility.yul\":594:616   */\n      add\n        /* \"#utility.yul\":573:626   */\n      tag_33\n      jump\t// in\n    tag_45:\n        /* \"#utility.yul\":563:626   */\n      swap3\n      pop\n        /* \"#utility.yul\":519:636   */\n      pop\n        /* \"#utility.yul\":675:677   */\n      0x20\n        /* \"#utility.yul\":701:754   */\n      tag_46\n        /* \"#utility.yul\":746:753   */\n      dup6\n        /* \"#utility.yul\":737:743   */\n      dup3\n        /* \"#utility.yul\":726:735   */\n      dup7\n        /* \"#utility.yul\":722:744   */\n      add\n        /* \"#utility.yul\":701:754   */\n      tag_37\n      jump\t// in\n    tag_46:\n        /* \"#utility.yul\":691:754   */\n      swap2\n      pop\n        /* \"#utility.yul\":646:764   */\n      pop\n        /* \"#utility.yul\":297:771   */\n      swap3\n      pop\n      swap3\n      swap1\n      pop\n      jump\t// out\n        /* \"#utility.yul\":777:919   */\n    tag_47:\n        /* \"#utility.yul\":880:912   */\n      tag_49\n        /* \"#utility.yul\":906:911   */\n      dup2\n        /* \"#utility.yul\":880:912   */\n      tag_50\n      jump\t// in\n    tag_49:\n        /* \"#utility.yul\":875:878   */\n      dup3\n        /* \"#utility.yul\":868:913   */\n      mstore\n        /* \"#utility.yul\":777:919   */\n      pop\n      pop\n      jump\t// out\n        /* \"#utility.yul\":925:1291   */\n    tag_51:\n        /* \"#utility.yul\":1067:1070   */\n      0x00\n        /* \"#utility.yul\":1088:1155   */\n      tag_53\n        /* \"#utility.yul\":1152:1154   */\n      0x27\n        /* \"#utility.yul\":1147:1150   */\n      dup4\n        /* \"#utility.yul\":1088:1155   */\n      tag_54\n      jump\t// in\n    tag_53:\n        /* \"#utility.yul\":1081:1155   */\n      swap2\n      pop\n        /* \"#utility.yul\":1164:1257   */\n      tag_55\n        /* \"#utility.yul\":1253:1256   */\n      dup3\n        /* \"#utility.yul\":1164:1257   */\n      tag_56\n      jump\t// in\n    tag_55:\n        /* \"#utility.yul\":1282:1284   */\n      0x40\n        /* \"#utility.yul\":1277:1280   */\n      dup3\n        /* \"#utility.yul\":1273:1285   */\n      add\n        /* \"#utility.yul\":1266:1285   */\n      swap1\n      pop\n        /* \"#utility.yul\":925:1291   */\n      swap2\n      swap1\n      pop\n      jump\t// out\n        /* \"#utility.yul\":1297:1415   */\n    tag_57:\n        /* \"#utility.yul\":1384:1408   */\n      tag_59\n        /* \"#utility.yul\":1402:1407   */\n      dup2\n        /* \"#utility.yul\":1384:1408   */\n      tag_60\n      jump\t// in\n    tag_59:\n        /* \"#utility.yul\":1379:1382   */\n      dup3\n        /* \"#utility.yul\":1372:1409   */\n      mstore\n        /* \"#utility.yul\":1297:1415   */\n      pop\n      pop\n      jump\t// out\n        /* \"#utility.yul\":1421:1675   */\n    tag_14:\n        /* \"#utility.yul\":1530:1534   */\n      0x00\n        /* \"#utility.yul\":1568:1570   */\n      0x20\n        /* \"#utility.yul\":1557:1566   */\n      dup3\n        /* \"#utility.yul\":1553:1571   */\n      add\n        /* \"#utility.yul\":1545:1571   */\n      swap1\n      pop\n        /* \"#utility.yul\":1581:1668   */\n      tag_62\n        /* \"#utility.yul\":1665:1666   */\n      0x00\n        /* \"#utility.yul\":1654:1663   */\n      dup4\n        /* \"#utility.yul\":1650:1667   */\n      add\n        /* \"#utility.yul\":1641:1647   */\n      dup5\n        /* \"#utility.yul\":1581:1668   */\n      tag_47\n      jump\t// in\n    tag_62:\n        /* \"#utility.yul\":1421:1675   */\n      swap3\n      swap2\n      pop\n      pop\n      jump\t// out\n        /* \"#utility.yul\":1681:2100   */\n    tag_25:\n        /* \"#utility.yul\":1847:1851   */\n      0x00\n        /* \"#utility.yul\":1885:1887   */\n      0x20\n        /* \"#utility.yul\":1874:1883   */\n      dup3\n        /* \"#utility.yul\":1870:1888   */\n      add\n        /* \"#utility.yul\":1862:1888   */\n      swap1\n      pop\n        /* \"#utility.yul\":1934:1943   */\n      dup2\n        /* \"#utility.yul\":1928:1932   */\n      dup2\n        /* \"#utility.yul\":1924:1944   */\n      sub\n        /* \"#utility.yul\":1920:1921   */\n      0x00\n        /* \"#utility.yul\":1909:1918   */\n      dup4\n        /* \"#utility.yul\":1905:1922   */\n      add\n        /* \"#utility.yul\":1898:1945   */\n      mstore\n        /* \"#utility.yul\":1962:2093   */\n      tag_64\n        /* \"#utility.yul\":2088:2092   */\n      dup2\n        /* \"#utility.yul\":1962:2093   */\n      tag_51\n      jump\t// in\n    tag_64:\n        /* \"#utility.yul\":1954:2093   */\n      swap1\n      pop\n        /* \"#utility.yul\":1681:2100   */\n      swap2\n      swap1\n      pop\n      jump\t// out\n        /* \"#utility.yul\":2106:2328   */\n    tag_21:\n        /* \"#utility.yul\":2199:2203   */\n      0x00\n        /* \"#utility.yul\":2237:2239   */\n      0x20\n        /* \"#utility.yul\":2226:2235   */\n      dup3\n        /* \"#utility.yul\":2222:2240   */\n      add\n        /* \"#utility.yul\":2214:2240   */\n      swap1\n      pop\n        /* \"#utility.yul\":2250:2321   */\n      tag_66\n        /* \"#utility.yul\":2318:2319   */\n      0x00\n        /* \"#utility.yul\":2307:2316   */\n      dup4\n        /* \"#utility.yul\":2303:2320   */\n      add\n        /* \"#utility.yul\":2294:2300   */\n      dup5\n        /* \"#utility.yul\":2250:2321   */\n      tag_57\n      jump\t// in\n    tag_66:\n        /* \"#utility.yul\":2106:2328   */\n      swap3\n      swap2\n      pop\n      pop\n      jump\t// out\n        /* \"#utility.yul\":2415:2584   */\n    tag_54:\n        /* \"#utility.yul\":2499:2510   */\n      0x00\n        /* \"#utility.yul\":2533:2539   */\n      dup3\n        /* \"#utility.yul\":2528:2531   */\n      dup3\n        /* \"#utility.yul\":2521:2540   */\n      mstore\n        /* \"#utility.yul\":2573:2577   */\n      0x20\n        /* \"#utility.yul\":2568:2571   */\n      dup3\n        /* \"#utility.yul\":2564:2578   */\n      add\n        /* \"#utility.yul\":2549:2578   */\n      swap1\n      pop\n        /* \"#utility.yul\":2415:2584   */\n      swap3\n      swap2\n      pop\n      pop\n      jump\t// out\n        /* \"#utility.yul\":2590:2686   */\n    tag_70:\n        /* \"#utility.yul\":2627:2634   */\n      0x00\n        /* \"#utility.yul\":2656:2680   */\n      tag_72\n        /* \"#utility.yul\":2674:2679   */\n      dup3\n        /* \"#utility.yul\":2656:2680   */\n      tag_73\n      jump\t// in\n    tag_72:\n        /* \"#utility.yul\":2645:2680   */\n      swap1\n      pop\n        /* \"#utility.yul\":2590:2686   */\n      swap2\n      swap1\n      pop\n      jump\t// out\n        /* \"#utility.yul\":2692:2796   */\n    tag_50:\n        /* \"#utility.yul\":2737:2744   */\n      0x00\n        /* \"#utility.yul\":2766:2790   */\n      tag_75\n        /* \"#utility.yul\":2784:2789   */\n      dup3\n        /* \"#utility.yul\":2766:2790   */\n      tag_73\n      jump\t// in\n    tag_75:\n        /* \"#utility.yul\":2755:2790   */\n      swap1\n      pop\n        /* \"#utility.yul\":2692:2796   */\n      swap2\n      swap1\n      pop\n      jump\t// out\n        /* \"#utility.yul\":2802:2928   */\n    tag_73:\n        /* \"#utility.yul\":2839:2846   */\n      0x00\n        /* \"#utility.yul\":2879:2921   */\n      0xffffffffffffffffffffffffffffffffffffffff\n        /* \"#utility.yul\":2872:2877   */\n      dup3\n        /* \"#utility.yul\":2868:2922   */\n      and\n        /* \"#utility.yul\":2857:2922   */\n      swap1\n      pop\n        /* \"#utility.yul\":2802:2928   */\n      swap2\n      swap1\n      pop\n      jump\t// out\n        /* \"#utility.yul\":2934:3011   */\n    tag_60:\n        /* \"#utility.yul\":2971:2978   */\n      0x00\n        /* \"#utility.yul\":3000:3005   */\n      dup2\n        /* \"#utility.yul\":2989:3005   */\n      swap1\n      pop\n        /* \"#utility.yul\":2934:3011   */\n      swap2\n      swap1\n      pop\n      jump\t// out\n        /* \"#utility.yul\":3140:3257   */\n    tag_44:\n        /* \"#utility.yul\":3249:3250   */\n      0x00\n        /* \"#utility.yul\":3246:3247   */\n      dup1\n        /* \"#utility.yul\":3239:3251   */\n      revert\n        /* \"#utility.yul\":3263:3489   */\n    tag_56:\n        /* \"#utility.yul\":3403:3437   */\n      0x596f7520617265206e6f7420617574686f72697a656420746f20616363657373\n        /* \"#utility.yul\":3399:3400   */\n      0x00\n        /* \"#utility.yul\":3391:3397   */\n      dup3\n        /* \"#utility.yul\":3387:3401   */\n      add\n        /* \"#utility.yul\":3380:3438   */\n      mstore\n        /* \"#utility.yul\":3472:3481   */\n      0x2077616c6c657400000000000000000000000000000000000000000000000000\n        /* \"#utility.yul\":3467:3469   */\n      0x20\n        /* \"#utility.yul\":3459:3465   */\n      dup3\n        /* \"#utility.yul\":3455:3470   */\n      add\n        /* \"#utility.yul\":3448:3482   */\n      mstore\n        /* \"#utility.yul\":3263:3489   */\n      pop\n      jump\t// out\n        /* \"#utility.yul\":3495:3617   */\n    tag_36:\n        /* \"#utility.yul\":3568:3592   */\n      tag_83\n        /* \"#utility.yul\":3586:3591   */\n      dup2\n        /* \"#utility.yul\":3568:3592   */\n      tag_70\n      jump\t// in\n    tag_83:\n        /* \"#utility.yul\":3561:3566   */\n      dup2\n        /* \"#utility.yul\":3558:3593   */\n      eq\n        /* \"#utility.yul\":3548:3611   */\n      tag_84\n      jumpi\n        /* \"#utility.yul\":3607:3608   */\n      0x00\n        /* \"#utility.yul\":3604:3605   */\n      dup1\n        /* \"#utility.yul\":3597:3609   */\n      revert\n        /* \"#utility.yul\":3548:3611   */\n    tag_84:\n        /* \"#utility.yul\":3495:3617   */\n      pop\n      jump\t// out\n        /* \"#utility.yul\":3623:3745   */\n    tag_40:\n        /* \"#utility.yul\":3696:3720   */\n      tag_86\n        /* \"#utility.yul\":3714:3719   */\n      dup2\n        /* \"#utility.yul\":3696:3720   */\n      tag_60\n      jump\t// in\n    tag_86:\n        /* \"#utility.yul\":3689:3694   */\n      dup2\n        /* \"#utility.yul\":3686:3721   */\n      eq\n        /* \"#utility.yul\":3676:3739   */\n      tag_87\n      jumpi\n        /* \"#utility.yul\":3735:3736   */\n      0x00\n        /* \"#utility.yul\":3732:3733   */\n      dup1\n        /* \"#utility.yul\":3725:3737   */\n      revert\n        /* \"#utility.yul\":3676:3739   */\n    tag_87:\n        /* \"#utility.yul\":3623:3745   */\n      pop\n      jump\t// out\n\n    auxdata: 0xa26469706673582212208254cc6566f7b413e95e9cc7ed7da552bd58b1f681c523412920790fd9e1267a64736f6c63430008070033\n}\n",
				"bytecode": {
					"linkReferences": {},
					"object": "608060405234801561001057600080fd5b50336000806101000a81548173ffffffffffffffffffffffffffffffffffffffff021916908373ffffffffffffffffffffffffffffffffffffffff16021790555061046d806100606000396000f3fe60806040526004361061003f5760003560e01c806311787365146100445780638da5cb5b146100605780638f4062d71461008b578063c71daccb14610095575b600080fd5b61005e6004803603810190610059919061027f565b6100c0565b005b34801561006c57600080fd5b50610075610199565b6040516100829190610300565b60405180910390f35b6100936101bd565b005b3480156100a157600080fd5b506100aa6101bf565b6040516100b7919061033b565b60405180910390f35b3373ffffffffffffffffffffffffffffffffffffffff1660008054906101000a900473ffffffffffffffffffffffffffffffffffffffff1673ffffffffffffffffffffffffffffffffffffffff161461014e576040517f08c379a00000000000000000000000000000000000000000000000000000000081526004016101459061031b565b60405180910390fd5b8173ffffffffffffffffffffffffffffffffffffffff166108fc829081150290604051600060405180830381858888f19350505050158015610194573d6000803e3d6000fd5b505050565b60008054906101000a900473ffffffffffffffffffffffffffffffffffffffff1681565b565b60003373ffffffffffffffffffffffffffffffffffffffff1660008054906101000a900473ffffffffffffffffffffffffffffffffffffffff1673ffffffffffffffffffffffffffffffffffffffff161461024f576040517f08c379a00000000000000000000000000000000000000000000000000000000081526004016102469061031b565b60405180910390fd5b47905090565b60008135905061026481610409565b92915050565b60008135905061027981610420565b92915050565b60008060408385031215610296576102956103b5565b5b60006102a485828601610255565b92505060206102b58582860161026a565b9150509250929050565b6102c881610379565b82525050565b60006102db602783610356565b91506102e6826103ba565b604082019050919050565b6102fa816103ab565b82525050565b600060208201905061031560008301846102bf565b92915050565b60006020820190508181036000830152610334816102ce565b9050919050565b600060208201905061035060008301846102f1565b92915050565b600082825260208201905092915050565b60006103728261038b565b9050919050565b60006103848261038b565b9050919050565b600073ffffffffffffffffffffffffffffffffffffffff82169050919050565b6000819050919050565b600080fd5b7f596f7520617265206e6f7420617574686f72697a656420746f2061636365737360008201527f2077616c6c657400000000000000000000000000000000000000000000000000602082015250565b61041281610367565b811461041d57600080fd5b50565b610429816103ab565b811461043457600080fd5b5056fea26469706673582212208254cc6566f7b413e95e9cc7ed7da552bd58b1f681c523412920790fd9e1267a64736f6c63430008070033",
					"opcodes": "PUSH1 0x80 PUSH1 0x40 MSTORE CALLVALUE DUP1 ISZERO PUSH2 0x10 JUMPI PUSH1 0x0 DUP1 REVERT JUMPDEST POP CALLER PUSH1 0x0 DUP1 PUSH2 0x100 EXP DUP2 SLOAD DUP2 PUSH20 0xFFFFFFFFFFFFFFFFFFFFFFFFFFFFFFFFFFFFFFFF MUL NOT AND SWAP1 DUP4 PUSH20 0xFFFFFFFFFFFFFFFFFFFFFFFFFFFFFFFFFFFFFFFF AND MUL OR SWAP1 SSTORE POP PUSH2 0x46D DUP1 PUSH2 0x60 PUSH1 0x0 CODECOPY PUSH1 0x0 RETURN INVALID PUSH1 0x80 PUSH1 0x40 MSTORE PUSH1 0x4 CALLDATASIZE LT PUSH2 0x3F JUMPI PUSH1 0x0 CALLDATALOAD PUSH1 0xE0 SHR DUP1 PUSH4 0x11787365 EQ PUSH2 0x44 JUMPI DUP1 PUSH4 0x8DA5CB5B EQ PUSH2 0x60 JUMPI DUP1 PUSH4 0x8F4062D7 EQ PUSH2 0x8B JUMPI DUP1 PUSH4 0xC71DACCB EQ PUSH2 0x95 JUMPI JUMPDEST PUSH1 0x0 DUP1 REVERT JUMPDEST PUSH2 0x5E PUSH1 0x4 DUP1 CALLDATASIZE SUB DUP2 ADD SWAP1 PUSH2 0x59 SWAP2 SWAP1 PUSH2 0x27F JUMP JUMPDEST PUSH2 0xC0 JUMP JUMPDEST STOP JUMPDEST CALLVALUE DUP1 ISZERO PUSH2 0x6C JUMPI PUSH1 0x0 DUP1 REVERT JUMPDEST POP PUSH2 0x75 PUSH2 0x199 JUMP JUMPDEST PUSH1 0x40 MLOAD PUSH2 0x82 SWAP2 SWAP1 PUSH2 0x300 JUMP JUMPDEST PUSH1 0x40 MLOAD DUP1 SWAP2 SUB SWAP1 RETURN JUMPDEST PUSH2 0x93 PUSH2 0x1BD JUMP JUMPDEST STOP JUMPDEST CALLVALUE DUP1 ISZERO PUSH2 0xA1 JUMPI PUSH1 0x0 DUP1 REVERT JUMPDEST POP PUSH2 0xAA PUSH2 0x1BF JUMP JUMPDEST PUSH1 0x40 MLOAD PUSH2 0xB7 SWAP2 SWAP1 PUSH2 0x33B JUMP JUMPDEST PUSH1 0x40 MLOAD DUP1 SWAP2 SUB SWAP1 RETURN JUMPDEST CALLER PUSH20 0xFFFFFFFFFFFFFFFFFFFFFFFFFFFFFFFFFFFFFFFF AND PUSH1 0x0 DUP1 SLOAD SWAP1 PUSH2 0x100 EXP SWAP1 DIV PUSH20 0xFFFFFFFFFFFFFFFFFFFFFFFFFFFFFFFFFFFFFFFF AND PUSH20 0xFFFFFFFFFFFFFFFFFFFFFFFFFFFFFFFFFFFFFFFF AND EQ PUSH2 0x14E JUMPI PUSH1 0x40 MLOAD PUSH32 0x8C379A000000000000000000000000000000000000000000000000000000000 DUP2 MSTORE PUSH1 0x4 ADD PUSH2 0x145 SWAP1 PUSH2 0x31B JUMP JUMPDEST PUSH1 0x40 MLOAD DUP1 SWAP2 SUB SWAP1 REVERT JUMPDEST DUP2 PUSH20 0xFFFFFFFFFFFFFFFFFFFFFFFFFFFFFFFFFFFFFFFF AND PUSH2 0x8FC DUP3 SWAP1 DUP2 ISZERO MUL SWAP1 PUSH1 0x40 MLOAD PUSH1 0x0 PUSH1 0x40 MLOAD DUP1 DUP4 SUB DUP2 DUP6 DUP9 DUP9 CALL SWAP4 POP POP POP POP ISZERO DUP1 ISZERO PUSH2 0x194 JUMPI RETURNDATASIZE PUSH1 0x0 DUP1 RETURNDATACOPY RETURNDATASIZE PUSH1 0x0 REVERT JUMPDEST POP POP POP JUMP JUMPDEST PUSH1 0x0 DUP1 SLOAD SWAP1 PUSH2 0x100 EXP SWAP1 DIV PUSH20 0xFFFFFFFFFFFFFFFFFFFFFFFFFFFFFFFFFFFFFFFF AND DUP2 JUMP JUMPDEST JUMP JUMPDEST PUSH1 0x0 CALLER PUSH20 0xFFFFFFFFFFFFFFFFFFFFFFFFFFFFFFFFFFFFFFFF AND PUSH1 0x0 DUP1 SLOAD SWAP1 PUSH2 0x100 EXP SWAP1 DIV PUSH20 0xFFFFFFFFFFFFFFFFFFFFFFFFFFFFFFFFFFFFFFFF AND PUSH20 0xFFFFFFFFFFFFFFFFFFFFFFFFFFFFFFFFFFFFFFFF AND EQ PUSH2 0x24F JUMPI PUSH1 0x40 MLOAD PUSH32 0x8C379A000000000000000000000000000000000000000000000000000000000 DUP2 MSTORE PUSH1 0x4 ADD PUSH2 0x246 SWAP1 PUSH2 0x31B JUMP JUMPDEST PUSH1 0x40 MLOAD DUP1 SWAP2 SUB SWAP1 REVERT JUMPDEST SELFBALANCE SWAP1 POP SWAP1 JUMP JUMPDEST PUSH1 0x0 DUP2 CALLDATALOAD SWAP1 POP PUSH2 0x264 DUP2 PUSH2 0x409 JUMP JUMPDEST SWAP3 SWAP2 POP POP JUMP JUMPDEST PUSH1 0x0 DUP2 CALLDATALOAD SWAP1 POP PUSH2 0x279 DUP2 PUSH2 0x420 JUMP JUMPDEST SWAP3 SWAP2 POP POP JUMP JUMPDEST PUSH1 0x0 DUP1 PUSH1 0x40 DUP4 DUP6 SUB SLT ISZERO PUSH2 0x296 JUMPI PUSH2 0x295 PUSH2 0x3B5 JUMP JUMPDEST JUMPDEST PUSH1 0x0 PUSH2 0x2A4 DUP6 DUP3 DUP7 ADD PUSH2 0x255 JUMP JUMPDEST SWAP3 POP POP PUSH1 0x20 PUSH2 0x2B5 DUP6 DUP3 DUP7 ADD PUSH2 0x26A JUMP JUMPDEST SWAP2 POP POP SWAP3 POP SWAP3 SWAP1 POP JUMP JUMPDEST PUSH2 0x2C8 DUP2 PUSH2 0x379 JUMP JUMPDEST DUP3 MSTORE POP POP JUMP JUMPDEST PUSH1 0x0 PUSH2 0x2DB PUSH1 0x27 DUP4 PUSH2 0x356 JUMP JUMPDEST SWAP2 POP PUSH2 0x2E6 DUP3 PUSH2 0x3BA JUMP JUMPDEST PUSH1 0x40 DUP3 ADD SWAP1 POP SWAP2 SWAP1 POP JUMP JUMPDEST PUSH2 0x2FA DUP2 PUSH2 0x3AB JUMP JUMPDEST DUP3 MSTORE POP POP JUMP JUMPDEST PUSH1 0x0 PUSH1 0x20 DUP3 ADD SWAP1 POP PUSH2 0x315 PUSH1 0x0 DUP4 ADD DUP5 PUSH2 0x2BF JUMP JUMPDEST SWAP3 SWAP2 POP POP JUMP JUMPDEST PUSH1 0x0 PUSH1 0x20 DUP3 ADD SWAP1 POP DUP2 DUP2 SUB PUSH1 0x0 DUP4 ADD MSTORE PUSH2 0x334 DUP2 PUSH2 0x2CE JUMP JUMPDEST SWAP1 POP SWAP2 SWAP1 POP JUMP JUMPDEST PUSH1 0x0 PUSH1 0x20 DUP3 ADD SWAP1 POP PUSH2 0x350 PUSH1 0x0 DUP4 ADD DUP5 PUSH2 0x2F1 JUMP JUMPDEST SWAP3 SWAP2 POP POP JUMP JUMPDEST PUSH1 0x0 DUP3 DUP3 MSTORE PUSH1 0x20 DUP3 ADD SWAP1 POP SWAP3 SWAP2 POP POP JUMP JUMPDEST PUSH1 0x0 PUSH2 0x372 DUP3 PUSH2 0x38B JUMP JUMPDEST SWAP1 POP SWAP2 SWAP1 POP JUMP JUMPDEST PUSH1 0x0 PUSH2 0x384 DUP3 PUSH2 0x38B JUMP JUMPDEST SWAP1 POP SWAP2 SWAP1 POP JUMP JUMPDEST PUSH1 0x0 PUSH20 0xFFFFFFFFFFFFFFFFFFFFFFFFFFFFFFFFFFFFFFFF DUP3 AND SWAP1 POP SWAP2 SWAP1 POP JUMP JUMPDEST PUSH1 0x0 DUP2 SWAP1 POP SWAP2 SWAP1 POP JUMP JUMPDEST PUSH1 0x0 DUP1 REVERT JUMPDEST PUSH32 0x596F7520617265206E6F7420617574686F72697A656420746F20616363657373 PUSH1 0x0 DUP3 ADD MSTORE PUSH32 0x2077616C6C657400000000000000000000000000000000000000000000000000 PUSH1 0x20 DUP3 ADD MSTORE POP JUMP JUMPDEST PUSH2 0x412 DUP2 PUSH2 0x367 JUMP JUMPDEST DUP2 EQ PUSH2 0x41D JUMPI PUSH1 0x0 DUP1 REVERT JUMPDEST POP JUMP JUMPDEST PUSH2 0x429 DUP2 PUSH2 0x3AB JUMP JUMPDEST DUP2 EQ PUSH2 0x434 JUMPI PUSH1 0x0 DUP1 REVERT JUMPDEST POP JUMP INVALID LOG2 PUSH5 0x6970667358 0x22 SLT KECCAK256 DUP3 SLOAD 0xCC PUSH6 0x66F7B413E95E SWAP13 0xC7 0xED PUSH30 0xA552BD58B1F681C523412920790FD9E1267A64736F6C6343000807003300 "
				},
				"gasEstimates": {
					"creation": {
						"codeDepositCost": "226600",
						"executionCost": "24535",
						"totalCost": "251135"
					},
					"external": {
						"checkBalance()": "2665",
						"owner()": "2511",
						"recieveEther()": "142",
						"tranferEther(address,uint256)": "infinite"
					}
				},
				"methodIdentifiers": {
					"checkBalance()": "c71daccb",
					"owner()": "8da5cb5b",
					"recieveEther()": "8f4062d7",
					"tranferEther(address,uint256)": "11787365"
				}
			},
			"storageLayout": {
				"storage": [
					{
						"astId": 71,
						"contract": "payableFunctionAndAddress.sol:WalletDemo2",
						"label": "owner",
						"offset": 0,
						"slot": "0",
						"type": "t_address_payable"
					}
				],
				"types": {
					"t_address_payable": {
						"encoding": "inplace",
						"label": "address payable",
						"numberOfBytes": "20"
					}
				}
			},
			"userdoc": {
				"kind": "user",
				"methods": {},
				"version": 1
			}
		}
	}
}