{
	"loops.sol": {
		"loops": {
			"abi": [
				{
					"inputs": [
						{
							"internalType": "uint256",
							"name": "",
							"type": "uint256"
						}
					],
					"name": "array",
					"outputs": [
						{
							"internalType": "uint256",
							"name": "",
							"type": "uint256"
						}
					],
					"stateMutability": "view",
					"type": "function"
				},
				{
					"inputs": [],
					"name": "doWhileSum",
					"outputs": [],
					"stateMutability": "nonpayable",
					"type": "function"
				},
				{
					"inputs": [],
					"name": "forLoopReturn",
					"outputs": [
						{
							"internalType": "uint8[5]",
							"name": "",
							"type": "uint8[5]"
						}
					],
					"stateMutability": "pure",
					"type": "function"
				},
				{
					"inputs": [],
					"name": "sum",
					"outputs": [
						{
							"internalType": "uint256",
							"name": "",
							"type": "uint256"
						}
					],
					"stateMutability": "view",
					"type": "function"
				},
				{
					"inputs": [],
					"name": "whileSum",
					"outputs": [],
					"stateMutability": "nonpayable",
					"type": "function"
				}
			],
			"devdoc": {
				"kind": "dev",
				"methods": {},
				"version": 1
			},
			"evm": {
				"assembly": "    /* \"loops.sol\":294:912  contract loops{... */\n  mstore(0x40, 0x80)\n    /* \"loops.sol\":314:346  uint[5] public array=[1,2,3,4,5] */\n  mload(0x40)\n  dup1\n  0xa0\n  add\n  0x40\n  mstore\n  dup1\n    /* \"loops.sol\":336:337  1 */\n  0x01\n    /* \"loops.sol\":314:346  uint[5] public array=[1,2,3,4,5] */\n  0xff\n  and\n  dup2\n  mstore\n  0x20\n  add\n    /* \"loops.sol\":338:339  2 */\n  0x02\n    /* \"loops.sol\":314:346  uint[5] public array=[1,2,3,4,5] */\n  0xff\n  and\n  dup2\n  mstore\n  0x20\n  add\n    /* \"loops.sol\":340:341  3 */\n  0x03\n    /* \"loops.sol\":314:346  uint[5] public array=[1,2,3,4,5] */\n  0xff\n  and\n  dup2\n  mstore\n  0x20\n  add\n    /* \"loops.sol\":342:343  4 */\n  0x04\n    /* \"loops.sol\":314:346  uint[5] public array=[1,2,3,4,5] */\n  0xff\n  and\n  dup2\n  mstore\n  0x20\n  add\n    /* \"loops.sol\":344:345  5 */\n  0x05\n    /* \"loops.sol\":314:346  uint[5] public array=[1,2,3,4,5] */\n  0xff\n  and\n  dup2\n  mstore\n  pop\n  0x00\n  swap1\n  0x05\n  tag_1\n  swap3\n  swap2\n  swap1\n  tag_2\n  jump\t// in\ntag_1:\n  pop\n    /* \"loops.sol\":294:912  contract loops{... */\n  callvalue\n  dup1\n  iszero\n  tag_3\n  jumpi\n  0x00\n  dup1\n  revert\ntag_3:\n  pop\n  jump(tag_4)\ntag_2:\n  dup3\n  0x05\n  dup2\n  add\n  swap3\n  dup3\n  iszero\n  tag_5\n  jumpi\n  swap2\n  0x20\n  mul\n  dup3\n  add\ntag_6:\n  dup3\n  dup2\n  gt\n  iszero\n  tag_7\n  jumpi\n  dup3\n  mload\n  dup3\n  swap1\n  0xff\n  and\n  swap1\n  sstore\n  swap2\n  0x20\n  add\n  swap2\n  swap1\n  0x01\n  add\n  swap1\n  jump(tag_6)\ntag_7:\ntag_5:\n  pop\n  swap1\n  pop\n  tag_8\n  swap2\n  swap1\n  tag_9\n  jump\t// in\ntag_8:\n  pop\n  swap1\n  jump\t// out\ntag_9:\ntag_10:\n  dup1\n  dup3\n  gt\n  iszero\n  tag_11\n  jumpi\n  0x00\n  dup2\n  0x00\n  swap1\n  sstore\n  pop\n  0x01\n  add\n  jump(tag_10)\ntag_11:\n  pop\n  swap1\n  jump\t// out\ntag_4:\n  dataSize(sub_0)\n  dup1\n  dataOffset(sub_0)\n  0x00\n  codecopy\n  0x00\n  return\nstop\n\nsub_0: assembly {\n        /* \"loops.sol\":294:912  contract loops{... */\n      mstore(0x40, 0x80)\n      callvalue\n      dup1\n      iszero\n      tag_1\n      jumpi\n      0x00\n      dup1\n      revert\n    tag_1:\n      pop\n      jumpi(tag_2, lt(calldatasize, 0x04))\n      shr(0xe0, calldataload(0x00))\n      dup1\n      0x2e43a366\n      eq\n      tag_3\n      jumpi\n      dup1\n      0x38d94193\n      eq\n      tag_4\n      jumpi\n      dup1\n      0x853255cc\n      eq\n      tag_5\n      jumpi\n      dup1\n      0x8682630e\n      eq\n      tag_6\n      jumpi\n      dup1\n      0xea22ccc7\n      eq\n      tag_7\n      jumpi\n    tag_2:\n      0x00\n      dup1\n      revert\n        /* \"loops.sol\":373:599  function forLoopReturn() public pure returns(uint8[5] memory){... */\n    tag_3:\n      tag_8\n      tag_9\n      jump\t// in\n    tag_8:\n      mload(0x40)\n      tag_10\n      swap2\n      swap1\n      tag_11\n      jump\t// in\n    tag_10:\n      mload(0x40)\n      dup1\n      swap2\n      sub\n      swap1\n      return\n        /* \"loops.sol\":314:346  uint[5] public array=[1,2,3,4,5] */\n    tag_4:\n      tag_12\n      0x04\n      dup1\n      calldatasize\n      sub\n      dup2\n      add\n      swap1\n      tag_13\n      swap2\n      swap1\n      tag_14\n      jump\t// in\n    tag_13:\n      tag_15\n      jump\t// in\n    tag_12:\n      mload(0x40)\n      tag_16\n      swap2\n      swap1\n      tag_17\n      jump\t// in\n    tag_16:\n      mload(0x40)\n      dup1\n      swap2\n      sub\n      swap1\n      return\n        /* \"loops.sol\":352:367  uint public sum */\n    tag_5:\n      tag_18\n      tag_19\n      jump\t// in\n    tag_18:\n      mload(0x40)\n      tag_20\n      swap2\n      swap1\n      tag_17\n      jump\t// in\n    tag_20:\n      mload(0x40)\n      dup1\n      swap2\n      sub\n      swap1\n      return\n        /* \"loops.sol\":601:748  function whileSum() public {... */\n    tag_6:\n      tag_21\n      tag_22\n      jump\t// in\n    tag_21:\n      stop\n        /* \"loops.sol\":750:910  function doWhileSum() public {... */\n    tag_7:\n      tag_23\n      tag_24\n      jump\t// in\n    tag_23:\n      stop\n        /* \"loops.sol\":373:599  function forLoopReturn() public pure returns(uint8[5] memory){... */\n    tag_9:\n        /* \"loops.sol\":418:433  uint8[5] memory */\n      tag_25\n      tag_26\n      jump\t// in\n    tag_25:\n        /* \"loops.sol\":444:466  uint8[5] memory array1 */\n      0x00\n        /* \"loops.sol\":444:479  uint8[5] memory array1 =[1,2,3,4,5] */\n      mload(0x40)\n      dup1\n      0xa0\n      add\n      0x40\n      mstore\n      dup1\n        /* \"loops.sol\":469:470  1 */\n      0x01\n        /* \"loops.sol\":444:479  uint8[5] memory array1 =[1,2,3,4,5] */\n      0xff\n      and\n      dup2\n      mstore\n      0x20\n      add\n        /* \"loops.sol\":471:472  2 */\n      0x02\n        /* \"loops.sol\":444:479  uint8[5] memory array1 =[1,2,3,4,5] */\n      0xff\n      and\n      dup2\n      mstore\n      0x20\n      add\n        /* \"loops.sol\":473:474  3 */\n      0x03\n        /* \"loops.sol\":444:479  uint8[5] memory array1 =[1,2,3,4,5] */\n      0xff\n      and\n      dup2\n      mstore\n      0x20\n      add\n        /* \"loops.sol\":475:476  4 */\n      0x04\n        /* \"loops.sol\":444:479  uint8[5] memory array1 =[1,2,3,4,5] */\n      0xff\n      and\n      dup2\n      mstore\n      0x20\n      add\n        /* \"loops.sol\":477:478  5 */\n      0x05\n        /* \"loops.sol\":444:479  uint8[5] memory array1 =[1,2,3,4,5] */\n      0xff\n      and\n      dup2\n      mstore\n      pop\n      swap1\n      pop\n        /* \"loops.sol\":492:502  uint count */\n      0x00\n        /* \"loops.sol\":488:570  for(uint count=0;count<array1.length;count++){... */\n    tag_28:\n        /* \"loops.sol\":511:524  array1.length */\n      0x05\n        /* \"loops.sol\":505:510  count */\n      dup2\n        /* \"loops.sol\":505:524  count<array1.length */\n      lt\n        /* \"loops.sol\":488:570  for(uint count=0;count<array1.length;count++){... */\n      iszero\n      tag_29\n      jumpi\n        /* \"loops.sol\":558:559  2 */\n      0x02\n        /* \"loops.sol\":543:549  array1 */\n      dup3\n        /* \"loops.sol\":550:555  count */\n      dup3\n        /* \"loops.sol\":543:556  array1[count] */\n      0x05\n      dup2\n      lt\n      tag_31\n      jumpi\n      tag_32\n      tag_33\n      jump\t// in\n    tag_32:\n    tag_31:\n      0x20\n      mul\n      add\n        /* \"loops.sol\":543:559  array1[count]*=2 */\n      dup2\n      dup2\n      mload\n      tag_34\n      swap2\n      swap1\n      tag_35\n      jump\t// in\n    tag_34:\n      swap2\n      pop\n      swap1\n      0xff\n      and\n      swap1\n      dup2\n      0xff\n      and\n      dup2\n      mstore\n      pop\n      pop\n        /* \"loops.sol\":525:532  count++ */\n      dup1\n      dup1\n      tag_36\n      swap1\n      tag_37\n      jump\t// in\n    tag_36:\n      swap2\n      pop\n      pop\n        /* \"loops.sol\":488:570  for(uint count=0;count<array1.length;count++){... */\n      jump(tag_28)\n    tag_29:\n      pop\n        /* \"loops.sol\":586:592  array1 */\n      dup1\n        /* \"loops.sol\":579:592  return array1 */\n      swap2\n      pop\n      pop\n        /* \"loops.sol\":373:599  function forLoopReturn() public pure returns(uint8[5] memory){... */\n      swap1\n      jump\t// out\n        /* \"loops.sol\":314:346  uint[5] public array=[1,2,3,4,5] */\n    tag_15:\n      0x00\n      dup2\n      0x05\n      dup2\n      lt\n      tag_38\n      jumpi\n      0x00\n      dup1\n      revert\n    tag_38:\n      add\n      0x00\n      swap2\n      pop\n      swap1\n      pop\n      sload\n      dup2\n      jump\t// out\n        /* \"loops.sol\":352:367  uint public sum */\n    tag_19:\n      sload(0x05)\n      dup2\n      jump\t// out\n        /* \"loops.sol\":601:748  function whileSum() public {... */\n    tag_22:\n        /* \"loops.sol\":639:640  0 */\n      0x00\n        /* \"loops.sol\":635:638  sum */\n      0x05\n        /* \"loops.sol\":635:640  sum=0 */\n      dup2\n      swap1\n      sstore\n      pop\n        /* \"loops.sol\":646:656  uint count */\n      0x00\n        /* \"loops.sol\":664:743  while(count<array.length){... */\n    tag_41:\n        /* \"loops.sol\":676:688  array.length */\n      0x05\n        /* \"loops.sol\":670:675  count */\n      dup2\n        /* \"loops.sol\":670:688  count<array.length */\n      lt\n        /* \"loops.sol\":664:743  while(count<array.length){... */\n      iszero\n      tag_42\n      jumpi\n        /* \"loops.sol\":706:711  array */\n      0x00\n        /* \"loops.sol\":712:717  count */\n      dup2\n        /* \"loops.sol\":706:718  array[count] */\n      0x05\n      dup2\n      lt\n      tag_43\n      jumpi\n      tag_44\n      tag_33\n      jump\t// in\n    tag_44:\n    tag_43:\n      add\n      sload\n        /* \"loops.sol\":702:705  sum */\n      sload(0x05)\n        /* \"loops.sol\":702:718  sum+array[count] */\n      tag_46\n      swap2\n      swap1\n      tag_47\n      jump\t// in\n    tag_46:\n        /* \"loops.sol\":698:701  sum */\n      0x05\n        /* \"loops.sol\":698:718  sum=sum+array[count] */\n      dup2\n      swap1\n      sstore\n      pop\n        /* \"loops.sol\":728:735  count++ */\n      dup1\n      dup1\n      tag_48\n      swap1\n      tag_37\n      jump\t// in\n    tag_48:\n      swap2\n      pop\n      pop\n        /* \"loops.sol\":664:743  while(count<array.length){... */\n      jump(tag_41)\n    tag_42:\n        /* \"loops.sol\":628:748  {... */\n      pop\n        /* \"loops.sol\":601:748  function whileSum() public {... */\n      jump\t// out\n        /* \"loops.sol\":750:910  function doWhileSum() public {... */\n    tag_24:\n        /* \"loops.sol\":790:791  0 */\n      0x00\n        /* \"loops.sol\":786:789  sum */\n      0x05\n        /* \"loops.sol\":786:791  sum=0 */\n      dup2\n      swap1\n      sstore\n      pop\n        /* \"loops.sol\":797:807  uint count */\n      0x00\n        /* \"loops.sol\":815:903  do{... */\n    tag_50:\n        /* \"loops.sol\":834:839  array */\n      0x00\n        /* \"loops.sol\":840:845  count */\n      dup2\n        /* \"loops.sol\":834:846  array[count] */\n      0x05\n      dup2\n      lt\n      tag_53\n      jumpi\n      tag_54\n      tag_33\n      jump\t// in\n    tag_54:\n    tag_53:\n      add\n      sload\n        /* \"loops.sol\":830:833  sum */\n      sload(0x05)\n        /* \"loops.sol\":830:846  sum+array[count] */\n      tag_56\n      swap2\n      swap1\n      tag_47\n      jump\t// in\n    tag_56:\n        /* \"loops.sol\":826:829  sum */\n      0x05\n        /* \"loops.sol\":826:846  sum=sum+array[count] */\n      dup2\n      swap1\n      sstore\n      pop\n        /* \"loops.sol\":856:863  count++ */\n      dup1\n      dup1\n      tag_57\n      swap1\n      tag_37\n      jump\t// in\n    tag_57:\n      swap2\n      pop\n      pop\n        /* \"loops.sol\":889:901  array.length */\n      0x05\n        /* \"loops.sol\":883:888  count */\n      dup2\n        /* \"loops.sol\":883:901  count<array.length */\n      lt\n        /* \"loops.sol\":815:903  do{... */\n      tag_50\n      jumpi\n        /* \"loops.sol\":779:910  {... */\n      pop\n        /* \"loops.sol\":750:910  function doWhileSum() public {... */\n      jump\t// out\n    tag_26:\n      mload(0x40)\n      dup1\n      0xa0\n      add\n      0x40\n      mstore\n      dup1\n      0x05\n      swap1\n      0x20\n      dup3\n      mul\n      dup1\n      calldatasize\n      dup4\n      calldatacopy\n      dup1\n      dup3\n      add\n      swap2\n      pop\n      pop\n      swap1\n      pop\n      pop\n      swap1\n      jump\t// out\n        /* \"#utility.yul\":7:146   */\n    tag_59:\n        /* \"#utility.yul\":53:58   */\n      0x00\n        /* \"#utility.yul\":91:97   */\n      dup2\n        /* \"#utility.yul\":78:98   */\n      calldataload\n        /* \"#utility.yul\":69:98   */\n      swap1\n      pop\n        /* \"#utility.yul\":107:140   */\n      tag_61\n        /* \"#utility.yul\":134:139   */\n      dup2\n        /* \"#utility.yul\":107:140   */\n      tag_62\n      jump\t// in\n    tag_61:\n        /* \"#utility.yul\":7:146   */\n      swap3\n      swap2\n      pop\n      pop\n      jump\t// out\n        /* \"#utility.yul\":152:481   */\n    tag_14:\n        /* \"#utility.yul\":211:217   */\n      0x00\n        /* \"#utility.yul\":260:262   */\n      0x20\n        /* \"#utility.yul\":248:257   */\n      dup3\n        /* \"#utility.yul\":239:246   */\n      dup5\n        /* \"#utility.yul\":235:258   */\n      sub\n        /* \"#utility.yul\":231:263   */\n      slt\n        /* \"#utility.yul\":228:347   */\n      iszero\n      tag_64\n      jumpi\n        /* \"#utility.yul\":266:345   */\n      tag_65\n      tag_66\n      jump\t// in\n    tag_65:\n        /* \"#utility.yul\":228:347   */\n    tag_64:\n        /* \"#utility.yul\":386:387   */\n      0x00\n        /* \"#utility.yul\":411:464   */\n      tag_67\n        /* \"#utility.yul\":456:463   */\n      dup5\n        /* \"#utility.yul\":447:453   */\n      dup3\n        /* \"#utility.yul\":436:445   */\n      dup6\n        /* \"#utility.yul\":432:454   */\n      add\n        /* \"#utility.yul\":411:464   */\n      tag_59\n      jump\t// in\n    tag_67:\n        /* \"#utility.yul\":401:464   */\n      swap2\n      pop\n        /* \"#utility.yul\":357:474   */\n      pop\n        /* \"#utility.yul\":152:481   */\n      swap3\n      swap2\n      pop\n      pop\n      jump\t// out\n        /* \"#utility.yul\":487:658   */\n    tag_68:\n        /* \"#utility.yul\":552:562   */\n      0x00\n        /* \"#utility.yul\":573:615   */\n      tag_70\n        /* \"#utility.yul\":611:614   */\n      dup4\n        /* \"#utility.yul\":603:609   */\n      dup4\n        /* \"#utility.yul\":573:615   */\n      tag_71\n      jump\t// in\n    tag_70:\n        /* \"#utility.yul\":647:651   */\n      0x20\n        /* \"#utility.yul\":642:645   */\n      dup4\n        /* \"#utility.yul\":638:652   */\n      add\n        /* \"#utility.yul\":624:652   */\n      swap1\n      pop\n        /* \"#utility.yul\":487:658   */\n      swap3\n      swap2\n      pop\n      pop\n      jump\t// out\n        /* \"#utility.yul\":692:1370   */\n    tag_72:\n        /* \"#utility.yul\":824:874   */\n      tag_74\n        /* \"#utility.yul\":868:873   */\n      dup2\n        /* \"#utility.yul\":824:874   */\n      tag_75\n      jump\t// in\n    tag_74:\n        /* \"#utility.yul\":890:972   */\n      tag_76\n        /* \"#utility.yul\":965:971   */\n      dup2\n        /* \"#utility.yul\":960:963   */\n      dup5\n        /* \"#utility.yul\":890:972   */\n      tag_77\n      jump\t// in\n    tag_76:\n        /* \"#utility.yul\":883:972   */\n      swap3\n      pop\n        /* \"#utility.yul\":996:1048   */\n      tag_78\n        /* \"#utility.yul\":1042:1047   */\n      dup3\n        /* \"#utility.yul\":996:1048   */\n      tag_79\n      jump\t// in\n    tag_78:\n        /* \"#utility.yul\":1071:1078   */\n      dup1\n        /* \"#utility.yul\":1102:1103   */\n      0x00\n        /* \"#utility.yul\":1087:1363   */\n    tag_80:\n        /* \"#utility.yul\":1112:1118   */\n      dup4\n        /* \"#utility.yul\":1109:1110   */\n      dup2\n        /* \"#utility.yul\":1106:1119   */\n      lt\n        /* \"#utility.yul\":1087:1363   */\n      iszero\n      tag_82\n      jumpi\n        /* \"#utility.yul\":1188:1194   */\n      dup2\n        /* \"#utility.yul\":1182:1195   */\n      mload\n        /* \"#utility.yul\":1215:1274   */\n      tag_83\n        /* \"#utility.yul\":1270:1273   */\n      dup8\n        /* \"#utility.yul\":1255:1268   */\n      dup3\n        /* \"#utility.yul\":1215:1274   */\n      tag_68\n      jump\t// in\n    tag_83:\n        /* \"#utility.yul\":1208:1274   */\n      swap7\n      pop\n        /* \"#utility.yul\":1297:1353   */\n      tag_84\n        /* \"#utility.yul\":1346:1352   */\n      dup4\n        /* \"#utility.yul\":1297:1353   */\n      tag_85\n      jump\t// in\n    tag_84:\n        /* \"#utility.yul\":1287:1353   */\n      swap3\n      pop\n        /* \"#utility.yul\":1147:1363   */\n      pop\n        /* \"#utility.yul\":1134:1135   */\n      0x01\n        /* \"#utility.yul\":1131:1132   */\n      dup2\n        /* \"#utility.yul\":1127:1136   */\n      add\n        /* \"#utility.yul\":1122:1136   */\n      swap1\n      pop\n        /* \"#utility.yul\":1087:1363   */\n      jump(tag_80)\n    tag_82:\n        /* \"#utility.yul\":1091:1105   */\n      pop\n        /* \"#utility.yul\":800:1370   */\n      pop\n      pop\n      pop\n        /* \"#utility.yul\":692:1370   */\n      pop\n      pop\n      jump\t// out\n        /* \"#utility.yul\":1376:1494   */\n    tag_86:\n        /* \"#utility.yul\":1463:1487   */\n      tag_88\n        /* \"#utility.yul\":1481:1486   */\n      dup2\n        /* \"#utility.yul\":1463:1487   */\n      tag_89\n      jump\t// in\n    tag_88:\n        /* \"#utility.yul\":1458:1461   */\n      dup3\n        /* \"#utility.yul\":1451:1488   */\n      mstore\n        /* \"#utility.yul\":1376:1494   */\n      pop\n      pop\n      jump\t// out\n        /* \"#utility.yul\":1500:1602   */\n    tag_71:\n        /* \"#utility.yul\":1573:1595   */\n      tag_91\n        /* \"#utility.yul\":1589:1594   */\n      dup2\n        /* \"#utility.yul\":1573:1595   */\n      tag_92\n      jump\t// in\n    tag_91:\n        /* \"#utility.yul\":1568:1571   */\n      dup3\n        /* \"#utility.yul\":1561:1596   */\n      mstore\n        /* \"#utility.yul\":1500:1602   */\n      pop\n      pop\n      jump\t// out\n        /* \"#utility.yul\":1608:1915   */\n    tag_11:\n        /* \"#utility.yul\":1743:1747   */\n      0x00\n        /* \"#utility.yul\":1781:1784   */\n      0xa0\n        /* \"#utility.yul\":1770:1779   */\n      dup3\n        /* \"#utility.yul\":1766:1785   */\n      add\n        /* \"#utility.yul\":1758:1785   */\n      swap1\n      pop\n        /* \"#utility.yul\":1795:1908   */\n      tag_94\n        /* \"#utility.yul\":1905:1906   */\n      0x00\n        /* \"#utility.yul\":1894:1903   */\n      dup4\n        /* \"#utility.yul\":1890:1907   */\n      add\n        /* \"#utility.yul\":1881:1887   */\n      dup5\n        /* \"#utility.yul\":1795:1908   */\n      tag_72\n      jump\t// in\n    tag_94:\n        /* \"#utility.yul\":1608:1915   */\n      swap3\n      swap2\n      pop\n      pop\n      jump\t// out\n        /* \"#utility.yul\":1921:2143   */\n    tag_17:\n        /* \"#utility.yul\":2014:2018   */\n      0x00\n        /* \"#utility.yul\":2052:2054   */\n      0x20\n        /* \"#utility.yul\":2041:2050   */\n      dup3\n        /* \"#utility.yul\":2037:2055   */\n      add\n        /* \"#utility.yul\":2029:2055   */\n      swap1\n      pop\n        /* \"#utility.yul\":2065:2136   */\n      tag_96\n        /* \"#utility.yul\":2133:2134   */\n      0x00\n        /* \"#utility.yul\":2122:2131   */\n      dup4\n        /* \"#utility.yul\":2118:2135   */\n      add\n        /* \"#utility.yul\":2109:2115   */\n      dup5\n        /* \"#utility.yul\":2065:2136   */\n      tag_86\n      jump\t// in\n    tag_96:\n        /* \"#utility.yul\":1921:2143   */\n      swap3\n      swap2\n      pop\n      pop\n      jump\t// out\n        /* \"#utility.yul\":2230:2326   */\n    tag_79:\n        /* \"#utility.yul\":2293:2297   */\n      0x00\n        /* \"#utility.yul\":2316:2319   */\n      dup2\n        /* \"#utility.yul\":2308:2319   */\n      swap1\n      pop\n        /* \"#utility.yul\":2230:2326   */\n      swap2\n      swap1\n      pop\n      jump\t// out\n        /* \"#utility.yul\":2332:2434   */\n    tag_75:\n        /* \"#utility.yul\":2395:2401   */\n      0x00\n        /* \"#utility.yul\":2423:2427   */\n      0x05\n        /* \"#utility.yul\":2413:2427   */\n      swap1\n      pop\n        /* \"#utility.yul\":2332:2434   */\n      swap2\n      swap1\n      pop\n      jump\t// out\n        /* \"#utility.yul\":2440:2549   */\n    tag_85:\n        /* \"#utility.yul\":2506:2510   */\n      0x00\n        /* \"#utility.yul\":2538:2542   */\n      0x20\n        /* \"#utility.yul\":2533:2536   */\n      dup3\n        /* \"#utility.yul\":2529:2543   */\n      add\n        /* \"#utility.yul\":2521:2543   */\n      swap1\n      pop\n        /* \"#utility.yul\":2440:2549   */\n      swap2\n      swap1\n      pop\n      jump\t// out\n        /* \"#utility.yul\":2555:2696   */\n    tag_77:\n        /* \"#utility.yul\":2650:2661   */\n      0x00\n        /* \"#utility.yul\":2687:2690   */\n      dup2\n        /* \"#utility.yul\":2672:2690   */\n      swap1\n      pop\n        /* \"#utility.yul\":2555:2696   */\n      swap3\n      swap2\n      pop\n      pop\n      jump\t// out\n        /* \"#utility.yul\":2702:3007   */\n    tag_47:\n        /* \"#utility.yul\":2742:2745   */\n      0x00\n        /* \"#utility.yul\":2761:2781   */\n      tag_104\n        /* \"#utility.yul\":2779:2780   */\n      dup3\n        /* \"#utility.yul\":2761:2781   */\n      tag_89\n      jump\t// in\n    tag_104:\n        /* \"#utility.yul\":2756:2781   */\n      swap2\n      pop\n        /* \"#utility.yul\":2795:2815   */\n      tag_105\n        /* \"#utility.yul\":2813:2814   */\n      dup4\n        /* \"#utility.yul\":2795:2815   */\n      tag_89\n      jump\t// in\n    tag_105:\n        /* \"#utility.yul\":2790:2815   */\n      swap3\n      pop\n        /* \"#utility.yul\":2949:2950   */\n      dup3\n        /* \"#utility.yul\":2881:2947   */\n      0xffffffffffffffffffffffffffffffffffffffffffffffffffffffffffffffff\n        /* \"#utility.yul\":2877:2951   */\n      sub\n        /* \"#utility.yul\":2874:2875   */\n      dup3\n        /* \"#utility.yul\":2871:2952   */\n      gt\n        /* \"#utility.yul\":2868:2975   */\n      iszero\n      tag_106\n      jumpi\n        /* \"#utility.yul\":2955:2973   */\n      tag_107\n      tag_108\n      jump\t// in\n    tag_107:\n        /* \"#utility.yul\":2868:2975   */\n    tag_106:\n        /* \"#utility.yul\":2999:3000   */\n      dup3\n        /* \"#utility.yul\":2996:2997   */\n      dup3\n        /* \"#utility.yul\":2992:3001   */\n      add\n        /* \"#utility.yul\":2985:3001   */\n      swap1\n      pop\n        /* \"#utility.yul\":2702:3007   */\n      swap3\n      swap2\n      pop\n      pop\n      jump\t// out\n        /* \"#utility.yul\":3013:3293   */\n    tag_35:\n        /* \"#utility.yul\":3051:3058   */\n      0x00\n        /* \"#utility.yul\":3074:3092   */\n      tag_110\n        /* \"#utility.yul\":3090:3091   */\n      dup3\n        /* \"#utility.yul\":3074:3092   */\n      tag_92\n      jump\t// in\n    tag_110:\n        /* \"#utility.yul\":3069:3092   */\n      swap2\n      pop\n        /* \"#utility.yul\":3106:3124   */\n      tag_111\n        /* \"#utility.yul\":3122:3123   */\n      dup4\n        /* \"#utility.yul\":3106:3124   */\n      tag_92\n      jump\t// in\n    tag_111:\n        /* \"#utility.yul\":3101:3124   */\n      swap3\n      pop\n        /* \"#utility.yul\":3230:3231   */\n      dup2\n        /* \"#utility.yul\":3224:3228   */\n      0xff\n        /* \"#utility.yul\":3220:3232   */\n      div\n        /* \"#utility.yul\":3217:3218   */\n      dup4\n        /* \"#utility.yul\":3214:3233   */\n      gt\n        /* \"#utility.yul\":3209:3210   */\n      dup3\n        /* \"#utility.yul\":3202:3211   */\n      iszero\n        /* \"#utility.yul\":3195:3212   */\n      iszero\n        /* \"#utility.yul\":3191:3234   */\n      and\n        /* \"#utility.yul\":3188:3257   */\n      iszero\n      tag_112\n      jumpi\n        /* \"#utility.yul\":3237:3255   */\n      tag_113\n      tag_108\n      jump\t// in\n    tag_113:\n        /* \"#utility.yul\":3188:3257   */\n    tag_112:\n        /* \"#utility.yul\":3285:3286   */\n      dup3\n        /* \"#utility.yul\":3282:3283   */\n      dup3\n        /* \"#utility.yul\":3278:3287   */\n      mul\n        /* \"#utility.yul\":3267:3287   */\n      swap1\n      pop\n        /* \"#utility.yul\":3013:3293   */\n      swap3\n      swap2\n      pop\n      pop\n      jump\t// out\n        /* \"#utility.yul\":3299:3376   */\n    tag_89:\n        /* \"#utility.yul\":3336:3343   */\n      0x00\n        /* \"#utility.yul\":3365:3370   */\n      dup2\n        /* \"#utility.yul\":3354:3370   */\n      swap1\n      pop\n        /* \"#utility.yul\":3299:3376   */\n      swap2\n      swap1\n      pop\n      jump\t// out\n        /* \"#utility.yul\":3382:3468   */\n    tag_92:\n        /* \"#utility.yul\":3417:3424   */\n      0x00\n        /* \"#utility.yul\":3457:3461   */\n      0xff\n        /* \"#utility.yul\":3450:3455   */\n      dup3\n        /* \"#utility.yul\":3446:3462   */\n      and\n        /* \"#utility.yul\":3435:3462   */\n      swap1\n      pop\n        /* \"#utility.yul\":3382:3468   */\n      swap2\n      swap1\n      pop\n      jump\t// out\n        /* \"#utility.yul\":3474:3707   */\n    tag_37:\n        /* \"#utility.yul\":3513:3516   */\n      0x00\n        /* \"#utility.yul\":3536:3560   */\n      tag_117\n        /* \"#utility.yul\":3554:3559   */\n      dup3\n        /* \"#utility.yul\":3536:3560   */\n      tag_89\n      jump\t// in\n    tag_117:\n        /* \"#utility.yul\":3527:3560   */\n      swap2\n      pop\n        /* \"#utility.yul\":3582:3648   */\n      0xffffffffffffffffffffffffffffffffffffffffffffffffffffffffffffffff\n        /* \"#utility.yul\":3575:3580   */\n      dup3\n        /* \"#utility.yul\":3572:3649   */\n      eq\n        /* \"#utility.yul\":3569:3672   */\n      iszero\n      tag_118\n      jumpi\n        /* \"#utility.yul\":3652:3670   */\n      tag_119\n      tag_108\n      jump\t// in\n    tag_119:\n        /* \"#utility.yul\":3569:3672   */\n    tag_118:\n        /* \"#utility.yul\":3699:3700   */\n      0x01\n        /* \"#utility.yul\":3692:3697   */\n      dup3\n        /* \"#utility.yul\":3688:3701   */\n      add\n        /* \"#utility.yul\":3681:3701   */\n      swap1\n      pop\n        /* \"#utility.yul\":3474:3707   */\n      swap2\n      swap1\n      pop\n      jump\t// out\n        /* \"#utility.yul\":3713:3893   */\n    tag_108:\n        /* \"#utility.yul\":3761:3838   */\n      0x4e487b7100000000000000000000000000000000000000000000000000000000\n        /* \"#utility.yul\":3758:3759   */\n      0x00\n        /* \"#utility.yul\":3751:3839   */\n      mstore\n        /* \"#utility.yul\":3858:3862   */\n      0x11\n        /* \"#utility.yul\":3855:3856   */\n      0x04\n        /* \"#utility.yul\":3848:3863   */\n      mstore\n        /* \"#utility.yul\":3882:3886   */\n      0x24\n        /* \"#utility.yul\":3879:3880   */\n      0x00\n        /* \"#utility.yul\":3872:3887   */\n      revert\n        /* \"#utility.yul\":3899:4079   */\n    tag_33:\n        /* \"#utility.yul\":3947:4024   */\n      0x4e487b7100000000000000000000000000000000000000000000000000000000\n        /* \"#utility.yul\":3944:3945   */\n      0x00\n        /* \"#utility.yul\":3937:4025   */\n      mstore\n        /* \"#utility.yul\":4044:4048   */\n      0x32\n        /* \"#utility.yul\":4041:4042   */\n      0x04\n        /* \"#utility.yul\":4034:4049   */\n      mstore\n        /* \"#utility.yul\":4068:4072   */\n      0x24\n        /* \"#utility.yul\":4065:4066   */\n      0x00\n        /* \"#utility.yul\":4058:4073   */\n      revert\n        /* \"#utility.yul\":4208:4325   */\n    tag_66:\n        /* \"#utility.yul\":4317:4318   */\n      0x00\n        /* \"#utility.yul\":4314:4315   */\n      dup1\n        /* \"#utility.yul\":4307:4319   */\n      revert\n        /* \"#utility.yul\":4331:4453   */\n    tag_62:\n        /* \"#utility.yul\":4404:4428   */\n      tag_126\n        /* \"#utility.yul\":4422:4427   */\n      dup2\n        /* \"#utility.yul\":4404:4428   */\n      tag_89\n      jump\t// in\n    tag_126:\n        /* \"#utility.yul\":4397:4402   */\n      dup2\n        /* \"#utility.yul\":4394:4429   */\n      eq\n        /* \"#utility.yul\":4384:4447   */\n      tag_127\n      jumpi\n        /* \"#utility.yul\":4443:4444   */\n      0x00\n        /* \"#utility.yul\":4440:4441   */\n      dup1\n        /* \"#utility.yul\":4433:4445   */\n      revert\n        /* \"#utility.yul\":4384:4447   */\n    tag_127:\n        /* \"#utility.yul\":4331:4453   */\n      pop\n      jump\t// out\n\n    auxdata: 0xa2646970667358221220263ab990f3628b3409c32af9b5723f82453b24983445c252317f8f98bb3aecf564736f6c63430008070033\n}\n",
				"bytecode": {
					"linkReferences": {},
					"object": "60806040526040518060a00160405280600160ff168152602001600260ff168152602001600360ff168152602001600460ff168152602001600560ff16815250600090600561004f929190610062565b5034801561005c57600080fd5b506100c4565b8260058101928215610096579160200282015b82811115610095578251829060ff16905591602001919060010190610075565b5b5090506100a391906100a7565b5090565b5b808211156100c05760008160009055506001016100a8565b5090565b610535806100d36000396000f3fe608060405234801561001057600080fd5b50600436106100575760003560e01c80632e43a3661461005c57806338d941931461007a578063853255cc146100aa5780638682630e146100c8578063ea22ccc7146100d2575b600080fd5b6100646100dc565b6040516100719190610331565b60405180910390f35b610094600480360381019061008f9190610277565b61017f565b6040516100a1919061034c565b60405180910390f35b6100b261019a565b6040516100bf919061034c565b60405180910390f35b6100d06101a0565b005b6100da6101f3565b005b6100e4610240565b60006040518060a00160405280600160ff168152602001600260ff168152602001600360ff168152602001600460ff168152602001600560ff16815250905060005b6005811015610177576002828260058110610144576101436104b4565b5b6020020181815161015591906103ea565b91509060ff16908160ff1681525050808061016f9061043c565b915050610126565b508091505090565b6000816005811061018f57600080fd5b016000915090505481565b60055481565b600060058190555060005b60058110156101f057600081600581106101c8576101c76104b4565b5b01546005546101d79190610394565b60058190555080806101e89061043c565b9150506101ab565b50565b600060058190555060005b60008160058110610212576102116104b4565b5b01546005546102219190610394565b60058190555080806102329061043c565b915050600581106101fe5750565b6040518060a00160405280600590602082028036833780820191505090505090565b600081359050610271816104e8565b92915050565b60006020828403121561028d5761028c6104e3565b5b600061029b84828501610262565b91505092915050565b60006102b08383610322565b60208301905092915050565b6102c581610371565b6102cf8184610389565b92506102da82610367565b8060005b8381101561030b5781516102f287826102a4565b96506102fd8361037c565b9250506001810190506102de565b505050505050565b61031c81610425565b82525050565b61032b8161042f565b82525050565b600060a08201905061034660008301846102bc565b92915050565b60006020820190506103616000830184610313565b92915050565b6000819050919050565b600060059050919050565b6000602082019050919050565b600081905092915050565b600061039f82610425565b91506103aa83610425565b9250827fffffffffffffffffffffffffffffffffffffffffffffffffffffffffffffffff038211156103df576103de610485565b5b828201905092915050565b60006103f58261042f565b91506104008361042f565b92508160ff048311821515161561041a57610419610485565b5b828202905092915050565b6000819050919050565b600060ff82169050919050565b600061044782610425565b91507fffffffffffffffffffffffffffffffffffffffffffffffffffffffffffffffff82141561047a57610479610485565b5b600182019050919050565b7f4e487b7100000000000000000000000000000000000000000000000000000000600052601160045260246000fd5b7f4e487b7100000000000000000000000000000000000000000000000000000000600052603260045260246000fd5b600080fd5b6104f181610425565b81146104fc57600080fd5b5056fea2646970667358221220263ab990f3628b3409c32af9b5723f82453b24983445c252317f8f98bb3aecf564736f6c63430008070033",
					"opcodes": "PUSH1 0x80 PUSH1 0x40 MSTORE PUSH1 0x40 MLOAD DUP1 PUSH1 0xA0 ADD PUSH1 0x40 MSTORE DUP1 PUSH1 0x1 PUSH1 0xFF AND DUP2 MSTORE PUSH1 0x20 ADD PUSH1 0x2 PUSH1 0xFF AND DUP2 MSTORE PUSH1 0x20 ADD PUSH1 0x3 PUSH1 0xFF AND DUP2 MSTORE PUSH1 0x20 ADD PUSH1 0x4 PUSH1 0xFF AND DUP2 MSTORE PUSH1 0x20 ADD PUSH1 0x5 PUSH1 0xFF AND DUP2 MSTORE POP PUSH1 0x0 SWAP1 PUSH1 0x5 PUSH2 0x4F SWAP3 SWAP2 SWAP1 PUSH2 0x62 JUMP JUMPDEST POP CALLVALUE DUP1 ISZERO PUSH2 0x5C JUMPI PUSH1 0x0 DUP1 REVERT JUMPDEST POP PUSH2 0xC4 JUMP JUMPDEST DUP3 PUSH1 0x5 DUP2 ADD SWAP3 DUP3 ISZERO PUSH2 0x96 JUMPI SWAP2 PUSH1 0x20 MUL DUP3 ADD JUMPDEST DUP3 DUP2 GT ISZERO PUSH2 0x95 JUMPI DUP3 MLOAD DUP3 SWAP1 PUSH1 0xFF AND SWAP1 SSTORE SWAP2 PUSH1 0x20 ADD SWAP2 SWAP1 PUSH1 0x1 ADD SWAP1 PUSH2 0x75 JUMP JUMPDEST JUMPDEST POP SWAP1 POP PUSH2 0xA3 SWAP2 SWAP1 PUSH2 0xA7 JUMP JUMPDEST POP SWAP1 JUMP JUMPDEST JUMPDEST DUP1 DUP3 GT ISZERO PUSH2 0xC0 JUMPI PUSH1 0x0 DUP2 PUSH1 0x0 SWAP1 SSTORE POP PUSH1 0x1 ADD PUSH2 0xA8 JUMP JUMPDEST POP SWAP1 JUMP JUMPDEST PUSH2 0x535 DUP1 PUSH2 0xD3 PUSH1 0x0 CODECOPY PUSH1 0x0 RETURN INVALID PUSH1 0x80 PUSH1 0x40 MSTORE CALLVALUE DUP1 ISZERO PUSH2 0x10 JUMPI PUSH1 0x0 DUP1 REVERT JUMPDEST POP PUSH1 0x4 CALLDATASIZE LT PUSH2 0x57 JUMPI PUSH1 0x0 CALLDATALOAD PUSH1 0xE0 SHR DUP1 PUSH4 0x2E43A366 EQ PUSH2 0x5C JUMPI DUP1 PUSH4 0x38D94193 EQ PUSH2 0x7A JUMPI DUP1 PUSH4 0x853255CC EQ PUSH2 0xAA JUMPI DUP1 PUSH4 0x8682630E EQ PUSH2 0xC8 JUMPI DUP1 PUSH4 0xEA22CCC7 EQ PUSH2 0xD2 JUMPI JUMPDEST PUSH1 0x0 DUP1 REVERT JUMPDEST PUSH2 0x64 PUSH2 0xDC JUMP JUMPDEST PUSH1 0x40 MLOAD PUSH2 0x71 SWAP2 SWAP1 PUSH2 0x331 JUMP JUMPDEST PUSH1 0x40 MLOAD DUP1 SWAP2 SUB SWAP1 RETURN JUMPDEST PUSH2 0x94 PUSH1 0x4 DUP1 CALLDATASIZE SUB DUP2 ADD SWAP1 PUSH2 0x8F SWAP2 SWAP1 PUSH2 0x277 JUMP JUMPDEST PUSH2 0x17F JUMP JUMPDEST PUSH1 0x40 MLOAD PUSH2 0xA1 SWAP2 SWAP1 PUSH2 0x34C JUMP JUMPDEST PUSH1 0x40 MLOAD DUP1 SWAP2 SUB SWAP1 RETURN JUMPDEST PUSH2 0xB2 PUSH2 0x19A JUMP JUMPDEST PUSH1 0x40 MLOAD PUSH2 0xBF SWAP2 SWAP1 PUSH2 0x34C JUMP JUMPDEST PUSH1 0x40 MLOAD DUP1 SWAP2 SUB SWAP1 RETURN JUMPDEST PUSH2 0xD0 PUSH2 0x1A0 JUMP JUMPDEST STOP JUMPDEST PUSH2 0xDA PUSH2 0x1F3 JUMP JUMPDEST STOP JUMPDEST PUSH2 0xE4 PUSH2 0x240 JUMP JUMPDEST PUSH1 0x0 PUSH1 0x40 MLOAD DUP1 PUSH1 0xA0 ADD PUSH1 0x40 MSTORE DUP1 PUSH1 0x1 PUSH1 0xFF AND DUP2 MSTORE PUSH1 0x20 ADD PUSH1 0x2 PUSH1 0xFF AND DUP2 MSTORE PUSH1 0x20 ADD PUSH1 0x3 PUSH1 0xFF AND DUP2 MSTORE PUSH1 0x20 ADD PUSH1 0x4 PUSH1 0xFF AND DUP2 MSTORE PUSH1 0x20 ADD PUSH1 0x5 PUSH1 0xFF AND DUP2 MSTORE POP SWAP1 POP PUSH1 0x0 JUMPDEST PUSH1 0x5 DUP2 LT ISZERO PUSH2 0x177 JUMPI PUSH1 0x2 DUP3 DUP3 PUSH1 0x5 DUP2 LT PUSH2 0x144 JUMPI PUSH2 0x143 PUSH2 0x4B4 JUMP JUMPDEST JUMPDEST PUSH1 0x20 MUL ADD DUP2 DUP2 MLOAD PUSH2 0x155 SWAP2 SWAP1 PUSH2 0x3EA JUMP JUMPDEST SWAP2 POP SWAP1 PUSH1 0xFF AND SWAP1 DUP2 PUSH1 0xFF AND DUP2 MSTORE POP POP DUP1 DUP1 PUSH2 0x16F SWAP1 PUSH2 0x43C JUMP JUMPDEST SWAP2 POP POP PUSH2 0x126 JUMP JUMPDEST POP DUP1 SWAP2 POP POP SWAP1 JUMP JUMPDEST PUSH1 0x0 DUP2 PUSH1 0x5 DUP2 LT PUSH2 0x18F JUMPI PUSH1 0x0 DUP1 REVERT JUMPDEST ADD PUSH1 0x0 SWAP2 POP SWAP1 POP SLOAD DUP2 JUMP JUMPDEST PUSH1 0x5 SLOAD DUP2 JUMP JUMPDEST PUSH1 0x0 PUSH1 0x5 DUP2 SWAP1 SSTORE POP PUSH1 0x0 JUMPDEST PUSH1 0x5 DUP2 LT ISZERO PUSH2 0x1F0 JUMPI PUSH1 0x0 DUP2 PUSH1 0x5 DUP2 LT PUSH2 0x1C8 JUMPI PUSH2 0x1C7 PUSH2 0x4B4 JUMP JUMPDEST JUMPDEST ADD SLOAD PUSH1 0x5 SLOAD PUSH2 0x1D7 SWAP2 SWAP1 PUSH2 0x394 JUMP JUMPDEST PUSH1 0x5 DUP2 SWAP1 SSTORE POP DUP1 DUP1 PUSH2 0x1E8 SWAP1 PUSH2 0x43C JUMP JUMPDEST SWAP2 POP POP PUSH2 0x1AB JUMP JUMPDEST POP JUMP JUMPDEST PUSH1 0x0 PUSH1 0x5 DUP2 SWAP1 SSTORE POP PUSH1 0x0 JUMPDEST PUSH1 0x0 DUP2 PUSH1 0x5 DUP2 LT PUSH2 0x212 JUMPI PUSH2 0x211 PUSH2 0x4B4 JUMP JUMPDEST JUMPDEST ADD SLOAD PUSH1 0x5 SLOAD PUSH2 0x221 SWAP2 SWAP1 PUSH2 0x394 JUMP JUMPDEST PUSH1 0x5 DUP2 SWAP1 SSTORE POP DUP1 DUP1 PUSH2 0x232 SWAP1 PUSH2 0x43C JUMP JUMPDEST SWAP2 POP POP PUSH1 0x5 DUP2 LT PUSH2 0x1FE JUMPI POP JUMP JUMPDEST PUSH1 0x40 MLOAD DUP1 PUSH1 0xA0 ADD PUSH1 0x40 MSTORE DUP1 PUSH1 0x5 SWAP1 PUSH1 0x20 DUP3 MUL DUP1 CALLDATASIZE DUP4 CALLDATACOPY DUP1 DUP3 ADD SWAP2 POP POP SWAP1 POP POP SWAP1 JUMP JUMPDEST PUSH1 0x0 DUP2 CALLDATALOAD SWAP1 POP PUSH2 0x271 DUP2 PUSH2 0x4E8 JUMP JUMPDEST SWAP3 SWAP2 POP POP JUMP JUMPDEST PUSH1 0x0 PUSH1 0x20 DUP3 DUP5 SUB SLT ISZERO PUSH2 0x28D JUMPI PUSH2 0x28C PUSH2 0x4E3 JUMP JUMPDEST JUMPDEST PUSH1 0x0 PUSH2 0x29B DUP5 DUP3 DUP6 ADD PUSH2 0x262 JUMP JUMPDEST SWAP2 POP POP SWAP3 SWAP2 POP POP JUMP JUMPDEST PUSH1 0x0 PUSH2 0x2B0 DUP4 DUP4 PUSH2 0x322 JUMP JUMPDEST PUSH1 0x20 DUP4 ADD SWAP1 POP SWAP3 SWAP2 POP POP JUMP JUMPDEST PUSH2 0x2C5 DUP2 PUSH2 0x371 JUMP JUMPDEST PUSH2 0x2CF DUP2 DUP5 PUSH2 0x389 JUMP JUMPDEST SWAP3 POP PUSH2 0x2DA DUP3 PUSH2 0x367 JUMP JUMPDEST DUP1 PUSH1 0x0 JUMPDEST DUP4 DUP2 LT ISZERO PUSH2 0x30B JUMPI DUP2 MLOAD PUSH2 0x2F2 DUP8 DUP3 PUSH2 0x2A4 JUMP JUMPDEST SWAP7 POP PUSH2 0x2FD DUP4 PUSH2 0x37C JUMP JUMPDEST SWAP3 POP POP PUSH1 0x1 DUP2 ADD SWAP1 POP PUSH2 0x2DE JUMP JUMPDEST POP POP POP POP POP POP JUMP JUMPDEST PUSH2 0x31C DUP2 PUSH2 0x425 JUMP JUMPDEST DUP3 MSTORE POP POP JUMP JUMPDEST PUSH2 0x32B DUP2 PUSH2 0x42F JUMP JUMPDEST DUP3 MSTORE POP POP JUMP JUMPDEST PUSH1 0x0 PUSH1 0xA0 DUP3 ADD SWAP1 POP PUSH2 0x346 PUSH1 0x0 DUP4 ADD DUP5 PUSH2 0x2BC JUMP JUMPDEST SWAP3 SWAP2 POP POP JUMP JUMPDEST PUSH1 0x0 PUSH1 0x20 DUP3 ADD SWAP1 POP PUSH2 0x361 PUSH1 0x0 DUP4 ADD DUP5 PUSH2 0x313 JUMP JUMPDEST SWAP3 SWAP2 POP POP JUMP JUMPDEST PUSH1 0x0 DUP2 SWAP1 POP SWAP2 SWAP1 POP JUMP JUMPDEST PUSH1 0x0 PUSH1 0x5 SWAP1 POP SWAP2 SWAP1 POP JUMP JUMPDEST PUSH1 0x0 PUSH1 0x20 DUP3 ADD SWAP1 POP SWAP2 SWAP1 POP JUMP JUMPDEST PUSH1 0x0 DUP2 SWAP1 POP SWAP3 SWAP2 POP POP JUMP JUMPDEST PUSH1 0x0 PUSH2 0x39F DUP3 PUSH2 0x425 JUMP JUMPDEST SWAP2 POP PUSH2 0x3AA DUP4 PUSH2 0x425 JUMP JUMPDEST SWAP3 POP DUP3 PUSH32 0xFFFFFFFFFFFFFFFFFFFFFFFFFFFFFFFFFFFFFFFFFFFFFFFFFFFFFFFFFFFFFFFF SUB DUP3 GT ISZERO PUSH2 0x3DF JUMPI PUSH2 0x3DE PUSH2 0x485 JUMP JUMPDEST JUMPDEST DUP3 DUP3 ADD SWAP1 POP SWAP3 SWAP2 POP POP JUMP JUMPDEST PUSH1 0x0 PUSH2 0x3F5 DUP3 PUSH2 0x42F JUMP JUMPDEST SWAP2 POP PUSH2 0x400 DUP4 PUSH2 0x42F JUMP JUMPDEST SWAP3 POP DUP2 PUSH1 0xFF DIV DUP4 GT DUP3 ISZERO ISZERO AND ISZERO PUSH2 0x41A JUMPI PUSH2 0x419 PUSH2 0x485 JUMP JUMPDEST JUMPDEST DUP3 DUP3 MUL SWAP1 POP SWAP3 SWAP2 POP POP JUMP JUMPDEST PUSH1 0x0 DUP2 SWAP1 POP SWAP2 SWAP1 POP JUMP JUMPDEST PUSH1 0x0 PUSH1 0xFF DUP3 AND SWAP1 POP SWAP2 SWAP1 POP JUMP JUMPDEST PUSH1 0x0 PUSH2 0x447 DUP3 PUSH2 0x425 JUMP JUMPDEST SWAP2 POP PUSH32 0xFFFFFFFFFFFFFFFFFFFFFFFFFFFFFFFFFFFFFFFFFFFFFFFFFFFFFFFFFFFFFFFF DUP3 EQ ISZERO PUSH2 0x47A JUMPI PUSH2 0x479 PUSH2 0x485 JUMP JUMPDEST JUMPDEST PUSH1 0x1 DUP3 ADD SWAP1 POP SWAP2 SWAP1 POP JUMP JUMPDEST PUSH32 0x4E487B7100000000000000000000000000000000000000000000000000000000 PUSH1 0x0 MSTORE PUSH1 0x11 PUSH1 0x4 MSTORE PUSH1 0x24 PUSH1 0x0 REVERT JUMPDEST PUSH32 0x4E487B7100000000000000000000000000000000000000000000000000000000 PUSH1 0x0 MSTORE PUSH1 0x32 PUSH1 0x4 MSTORE PUSH1 0x24 PUSH1 0x0 REVERT JUMPDEST PUSH1 0x0 DUP1 REVERT JUMPDEST PUSH2 0x4F1 DUP2 PUSH2 0x425 JUMP JUMPDEST DUP2 EQ PUSH2 0x4FC JUMPI PUSH1 0x0 DUP1 REVERT JUMPDEST POP JUMP INVALID LOG2 PUSH5 0x6970667358 0x22 SLT KECCAK256 0x26 GASPRICE 0xB9 SWAP1 RETURN PUSH3 0x8B3409 0xC3 0x2A 0xF9 0xB5 PUSH19 0x3F82453B24983445C252317F8F98BB3AECF564 PUSH20 0x6F6C634300080700330000000000000000000000 "
				},
				"gasEstimates": {
					"creation": {
						"codeDepositCost": "266600",
						"executionCost": "infinite",
						"totalCost": "infinite"
					},
					"external": {
						"array(uint256)": "infinite",
						"doWhileSum()": "infinite",
						"forLoopReturn()": "infinite",
						"sum()": "2451",
						"whileSum()": "infinite"
					}
				},
				"methodIdentifiers": {
					"array(uint256)": "38d94193",
					"doWhileSum()": "ea22ccc7",
					"forLoopReturn()": "2e43a366",
					"sum()": "853255cc",
					"whileSum()": "8682630e"
				}
			},
			"storageLayout": {
				"storage": [
					{
						"astId": 11,
						"contract": "loops.sol:loops",
						"label": "array",
						"offset": 0,
						"slot": "0",
						"type": "t_array(t_uint256)5_storage"
					},
					{
						"astId": 13,
						"contract": "loops.sol:loops",
						"label": "sum",
						"offset": 0,
						"slot": "5",
						"type": "t_uint256"
					}
				],
				"types": {
					"t_array(t_uint256)5_storage": {
						"base": "t_uint256",
						"encoding": "inplace",
						"label": "uint256[5]",
						"numberOfBytes": "160"
					},
					"t_uint256": {
						"encoding": "inplace",
						"label": "uint256",
						"numberOfBytes": "32"
					}
				}
			},
			"userdoc": {
				"kind": "user",
				"methods": {},
				"version": 1
			}
		}
	}
}