{
	"ICO.sol": {
		"ICO": {
			"abi": [
				{
					"inputs": [
						{
							"internalType": "address",
							"name": "_deposit",
							"type": "address"
						}
					],
					"stateMutability": "nonpayable",
					"type": "constructor"
				},
				{
					"anonymous": false,
					"inputs": [
						{
							"indexed": true,
							"internalType": "address",
							"name": "tokenOwner",
							"type": "address"
						},
						{
							"indexed": true,
							"internalType": "address",
							"name": "spender",
							"type": "address"
						},
						{
							"indexed": false,
							"internalType": "uint256",
							"name": "tokens",
							"type": "uint256"
						}
					],
					"name": "Approval",
					"type": "event"
				},
				{
					"anonymous": false,
					"inputs": [
						{
							"indexed": true,
							"internalType": "address",
							"name": "from",
							"type": "address"
						},
						{
							"indexed": true,
							"internalType": "address",
							"name": "to",
							"type": "address"
						},
						{
							"indexed": false,
							"internalType": "uint256",
							"name": "tokens",
							"type": "uint256"
						}
					],
					"name": "Transfer",
					"type": "event"
				},
				{
					"inputs": [],
					"name": "ICOstate",
					"outputs": [
						{
							"internalType": "enum ICO.State",
							"name": "",
							"type": "uint8"
						}
					],
					"stateMutability": "view",
					"type": "function"
				},
				{
					"inputs": [
						{
							"internalType": "address",
							"name": "tokenOwner",
							"type": "address"
						},
						{
							"internalType": "address",
							"name": "spender",
							"type": "address"
						}
					],
					"name": "allowance",
					"outputs": [
						{
							"internalType": "uint256",
							"name": "noOftokens",
							"type": "uint256"
						}
					],
					"stateMutability": "view",
					"type": "function"
				},
				{
					"inputs": [
						{
							"internalType": "address",
							"name": "spender",
							"type": "address"
						},
						{
							"internalType": "uint256",
							"name": "tokens",
							"type": "uint256"
						}
					],
					"name": "approve",
					"outputs": [
						{
							"internalType": "bool",
							"name": "success",
							"type": "bool"
						}
					],
					"stateMutability": "nonpayable",
					"type": "function"
				},
				{
					"inputs": [
						{
							"internalType": "address",
							"name": "tokenOwner",
							"type": "address"
						}
					],
					"name": "balanceOf",
					"outputs": [
						{
							"internalType": "uint256",
							"name": "tokens",
							"type": "uint256"
						}
					],
					"stateMutability": "view",
					"type": "function"
				},
				{
					"inputs": [
						{
							"internalType": "address",
							"name": "",
							"type": "address"
						}
					],
					"name": "balances",
					"outputs": [
						{
							"internalType": "uint256",
							"name": "",
							"type": "uint256"
						}
					],
					"stateMutability": "view",
					"type": "function"
				},
				{
					"inputs": [],
					"name": "burn",
					"outputs": [
						{
							"internalType": "bool",
							"name": "success",
							"type": "bool"
						}
					],
					"stateMutability": "nonpayable",
					"type": "function"
				},
				{
					"inputs": [],
					"name": "cap",
					"outputs": [
						{
							"internalType": "uint256",
							"name": "",
							"type": "uint256"
						}
					],
					"stateMutability": "view",
					"type": "function"
				},
				{
					"inputs": [
						{
							"internalType": "address payable",
							"name": "newDeposit",
							"type": "address"
						}
					],
					"name": "changeDepositAddress",
					"outputs": [],
					"stateMutability": "nonpayable",
					"type": "function"
				},
				{
					"inputs": [],
					"name": "decimal",
					"outputs": [
						{
							"internalType": "string",
							"name": "",
							"type": "string"
						}
					],
					"stateMutability": "view",
					"type": "function"
				},
				{
					"inputs": [],
					"name": "deposit",
					"outputs": [
						{
							"internalType": "address payable",
							"name": "",
							"type": "address"
						}
					],
					"stateMutability": "view",
					"type": "function"
				},
				{
					"inputs": [],
					"name": "founder",
					"outputs": [
						{
							"internalType": "address",
							"name": "",
							"type": "address"
						}
					],
					"stateMutability": "view",
					"type": "function"
				},
				{
					"inputs": [],
					"name": "getState",
					"outputs": [
						{
							"internalType": "enum ICO.State",
							"name": "",
							"type": "uint8"
						}
					],
					"stateMutability": "view",
					"type": "function"
				},
				{
					"inputs": [],
					"name": "halt",
					"outputs": [],
					"stateMutability": "nonpayable",
					"type": "function"
				},
				{
					"inputs": [],
					"name": "invest",
					"outputs": [
						{
							"internalType": "bool",
							"name": "success",
							"type": "bool"
						}
					],
					"stateMutability": "payable",
					"type": "function"
				},
				{
					"inputs": [],
					"name": "manager",
					"outputs": [
						{
							"internalType": "address",
							"name": "",
							"type": "address"
						}
					],
					"stateMutability": "view",
					"type": "function"
				},
				{
					"inputs": [],
					"name": "maxLimit",
					"outputs": [
						{
							"internalType": "uint256",
							"name": "",
							"type": "uint256"
						}
					],
					"stateMutability": "view",
					"type": "function"
				},
				{
					"inputs": [],
					"name": "minLimit",
					"outputs": [
						{
							"internalType": "uint256",
							"name": "",
							"type": "uint256"
						}
					],
					"stateMutability": "view",
					"type": "function"
				},
				{
					"inputs": [],
					"name": "raisedAmount",
					"outputs": [
						{
							"internalType": "uint256",
							"name": "",
							"type": "uint256"
						}
					],
					"stateMutability": "view",
					"type": "function"
				},
				{
					"inputs": [],
					"name": "resume",
					"outputs": [],
					"stateMutability": "nonpayable",
					"type": "function"
				},
				{
					"inputs": [],
					"name": "tokenPrice",
					"outputs": [
						{
							"internalType": "uint256",
							"name": "",
							"type": "uint256"
						}
					],
					"stateMutability": "view",
					"type": "function"
				},
				{
					"inputs": [],
					"name": "tokenTradeTime",
					"outputs": [
						{
							"internalType": "uint256",
							"name": "",
							"type": "uint256"
						}
					],
					"stateMutability": "view",
					"type": "function"
				},
				{
					"inputs": [],
					"name": "totalSupply",
					"outputs": [
						{
							"internalType": "uint256",
							"name": "",
							"type": "uint256"
						}
					],
					"stateMutability": "view",
					"type": "function"
				},
				{
					"inputs": [
						{
							"internalType": "address",
							"name": "to",
							"type": "address"
						},
						{
							"internalType": "uint256",
							"name": "tokens",
							"type": "uint256"
						}
					],
					"name": "transfer",
					"outputs": [
						{
							"internalType": "bool",
							"name": "success",
							"type": "bool"
						}
					],
					"stateMutability": "nonpayable",
					"type": "function"
				},
				{
					"inputs": [
						{
							"internalType": "address",
							"name": "from",
							"type": "address"
						},
						{
							"internalType": "address",
							"name": "to",
							"type": "address"
						},
						{
							"internalType": "uint256",
							"name": "tokens",
							"type": "uint256"
						}
					],
					"name": "transferFrom",
					"outputs": [
						{
							"internalType": "bool",
							"name": "success",
							"type": "bool"
						}
					],
					"stateMutability": "nonpayable",
					"type": "function"
				}
			],
			"devdoc": {
				"kind": "dev",
				"methods": {},
				"version": 1
			},
			"evm": {
				"assembly": "    /* \"ICO.sol\":3815:7271  contract ICO is Block {... */\n  mstore(0x40, 0x80)\n    /* \"ICO.sol\":1707:1728  string name = \"Block\" */\n  mload(0x40)\n  dup1\n  0x40\n  add\n  0x40\n  mstore\n  dup1\n  0x05\n  dup2\n  mstore\n  0x20\n  add\n  0x426c6f636b000000000000000000000000000000000000000000000000000000\n  dup2\n  mstore\n  pop\n  0x01\n  swap1\n  dup1\n  mload\n  swap1\n  0x20\n  add\n  swap1\n  tag_1\n  swap3\n  swap2\n  swap1\n  tag_2\n  jump\t// in\ntag_1:\n  pop\n    /* \"ICO.sol\":1734:1755  string symbol = \"BLK\" */\n  mload(0x40)\n  dup1\n  0x40\n  add\n  0x40\n  mstore\n  dup1\n  0x03\n  dup2\n  mstore\n  0x20\n  add\n  0x424c4b0000000000000000000000000000000000000000000000000000000000\n  dup2\n  mstore\n  pop\n  0x02\n  swap1\n  dup1\n  mload\n  swap1\n  0x20\n  add\n  swap1\n  tag_3\n  swap3\n  swap2\n  swap1\n  tag_2\n  jump\t// in\ntag_3:\n  pop\n    /* \"ICO.sol\":1973:1998  string public decimal=\"0\" */\n  mload(0x40)\n  dup1\n  0x40\n  add\n  0x40\n  mstore\n  dup1\n  0x01\n  dup2\n  mstore\n  0x20\n  add\n  0x3000000000000000000000000000000000000000000000000000000000000000\n  dup2\n  mstore\n  pop\n  0x06\n  swap1\n  dup1\n  mload\n  swap1\n  0x20\n  add\n  swap1\n  tag_4\n  swap3\n  swap2\n  swap1\n  tag_2\n  jump\t// in\ntag_4:\n  pop\n    /* \"ICO.sol\":3979:3994  block.timestamp */\n  timestamp\n    /* \"ICO.sol\":3963:3994  uint icoStart = block.timestamp */\n  0x09\n  sstore\n    /* \"ICO.sol\":4033:4037  3600 */\n  0x0e10\n    /* \"ICO.sol\":4015:4030  block.timestamp */\n  timestamp\n    /* \"ICO.sol\":4015:4037  block.timestamp + 3600 */\n  tag_5\n  swap2\n  swap1\n  tag_6\n  jump\t// in\ntag_5:\n    /* \"ICO.sol\":4001:4037  uint icoEnd = block.timestamp + 3600 */\n  0x0a\n  sstore\n    /* \"ICO.sol\":4090:4099  0.1 ether */\n  0x016345785d8a0000\n    /* \"ICO.sol\":4065:4099  uint public tokenPrice = 0.1 ether */\n  0x0b\n  sstore\n    /* \"ICO.sol\":4141:4145  3600 */\n  0x0e10\n    /* \"ICO.sol\":4134:4140  icoEnd */\n  sload(0x0a)\n    /* \"ICO.sol\":4134:4145  icoEnd+3600 */\n  tag_7\n  swap2\n  swap1\n  tag_6\n  jump\t// in\ntag_7:\n    /* \"ICO.sol\":4105:4145  uint public tokenTradeTime = icoEnd+3600 */\n  0x0c\n  sstore\n    /* \"ICO.sol\":4215:4224  0.1 ether */\n  0x016345785d8a0000\n    /* \"ICO.sol\":4192:4224  uint public minLimit = 0.1 ether */\n  0x0d\n  sstore\n    /* \"ICO.sol\":4253:4261  10 ether */\n  0x8ac7230489e80000\n    /* \"ICO.sol\":4230:4261  uint public maxLimit = 10 ether */\n  0x0e\n  sstore\n    /* \"ICO.sol\":4285:4294  300 ether */\n  0x1043561a8829300000\n    /* \"ICO.sol\":4267:4294  uint public cap = 300 ether */\n  0x0f\n  sstore\n    /* \"ICO.sol\":4428:4565  constructor(address _deposit){... */\n  callvalue\n  dup1\n  iszero\n  tag_8\n  jumpi\n  0x00\n  dup1\n  revert\ntag_8:\n  pop\n  mload(0x40)\n  sub(codesize, bytecodeSize)\n  dup1\n  bytecodeSize\n  dup4\n  codecopy\n  dup2\n  dup2\n  add\n  0x40\n  mstore\n  dup2\n  add\n  swap1\n  tag_9\n  swap2\n  swap1\n  tag_10\n  jump\t// in\ntag_9:\n    /* \"ICO.sol\":2058:2064  100000 */\n  0x0186a0\n    /* \"ICO.sol\":2044:2055  totalSupply */\n  0x03\n    /* \"ICO.sol\":2044:2064  totalSupply = 100000 */\n  dup2\n  swap1\n  sstore\n  pop\n    /* \"ICO.sol\":2084:2094  msg.sender */\n  caller\n    /* \"ICO.sol\":2074:2081  founder */\n  0x00\n  dup1\n    /* \"ICO.sol\":2074:2094  founder = msg.sender */\n  0x0100\n  exp\n  dup2\n  sload\n  dup2\n  0xffffffffffffffffffffffffffffffffffffffff\n  mul\n  not\n  and\n  swap1\n  dup4\n  0xffffffffffffffffffffffffffffffffffffffff\n  and\n  mul\n  or\n  swap1\n  sstore\n  pop\n    /* \"ICO.sol\":2122:2133  totalSupply */\n  sload(0x03)\n    /* \"ICO.sol\":2104:2112  balances */\n  0x04\n    /* \"ICO.sol\":2104:2121  balances[founder] */\n  0x00\n    /* \"ICO.sol\":2113:2120  founder */\n  dup1\n  0x00\n  swap1\n  sload\n  swap1\n  0x0100\n  exp\n  swap1\n  div\n  0xffffffffffffffffffffffffffffffffffffffff\n  and\n    /* \"ICO.sol\":2104:2121  balances[founder] */\n  0xffffffffffffffffffffffffffffffffffffffff\n  and\n  0xffffffffffffffffffffffffffffffffffffffff\n  and\n  dup2\n  mstore\n  0x20\n  add\n  swap1\n  dup2\n  mstore\n  0x20\n  add\n  0x00\n  keccak256\n    /* \"ICO.sol\":2104:2133  balances[founder]=totalSupply */\n  dup2\n  swap1\n  sstore\n  pop\n    /* \"ICO.sol\":4483:4491  _deposit */\n  dup1\n    /* \"ICO.sol\":4467:4474  deposit */\n  0x08\n  0x00\n    /* \"ICO.sol\":4467:4492  deposit=payable(_deposit) */\n  0x0100\n  exp\n  dup2\n  sload\n  dup2\n  0xffffffffffffffffffffffffffffffffffffffff\n  mul\n  not\n  and\n  swap1\n  dup4\n  0xffffffffffffffffffffffffffffffffffffffff\n  and\n  mul\n  or\n  swap1\n  sstore\n  pop\n    /* \"ICO.sol\":4510:4520  msg.sender */\n  caller\n    /* \"ICO.sol\":4502:4509  manager */\n  0x07\n  0x00\n    /* \"ICO.sol\":4502:4520  manager=msg.sender */\n  0x0100\n  exp\n  dup2\n  sload\n  dup2\n  0xffffffffffffffffffffffffffffffffffffffff\n  mul\n  not\n  and\n  swap1\n  dup4\n  0xffffffffffffffffffffffffffffffffffffffff\n  and\n  mul\n  or\n  swap1\n  sstore\n  pop\n    /* \"ICO.sol\":4541:4558  State.beforeStart */\n  0x00\n    /* \"ICO.sol\":4530:4538  ICOstate */\n  0x11\n  0x00\n    /* \"ICO.sol\":4530:4558  ICOstate = State.beforeStart */\n  0x0100\n  exp\n  dup2\n  sload\n  dup2\n  0xff\n  mul\n  not\n  and\n  swap1\n  dup4\n  0x03\n  dup2\n  gt\n  iszero\n  tag_15\n  jumpi\n  tag_16\n  tag_17\n  jump\t// in\ntag_16:\ntag_15:\n  mul\n  or\n  swap1\n  sstore\n  pop\n    /* \"ICO.sol\":4428:4565  constructor(address _deposit){... */\n  pop\n    /* \"ICO.sol\":3815:7271  contract ICO is Block {... */\n  jump(tag_18)\ntag_2:\n  dup3\n  dup1\n  sload\n  tag_19\n  swap1\n  tag_20\n  jump\t// in\ntag_19:\n  swap1\n  0x00\n  mstore\n  keccak256(0x00, 0x20)\n  swap1\n  0x1f\n  add\n  0x20\n  swap1\n  div\n  dup2\n  add\n  swap3\n  dup3\n  tag_22\n  jumpi\n  0x00\n  dup6\n  sstore\n  jump(tag_21)\ntag_22:\n  dup3\n  0x1f\n  lt\n  tag_23\n  jumpi\n  dup1\n  mload\n  not(0xff)\n  and\n  dup4\n  dup1\n  add\n  or\n  dup6\n  sstore\n  jump(tag_21)\ntag_23:\n  dup3\n  dup1\n  add\n  0x01\n  add\n  dup6\n  sstore\n  dup3\n  iszero\n  tag_21\n  jumpi\n  swap2\n  dup3\n  add\ntag_24:\n  dup3\n  dup2\n  gt\n  iszero\n  tag_25\n  jumpi\n  dup3\n  mload\n  dup3\n  sstore\n  swap2\n  0x20\n  add\n  swap2\n  swap1\n  0x01\n  add\n  swap1\n  jump(tag_24)\ntag_25:\ntag_21:\n  pop\n  swap1\n  pop\n  tag_26\n  swap2\n  swap1\n  tag_27\n  jump\t// in\ntag_26:\n  pop\n  swap1\n  jump\t// out\ntag_27:\ntag_28:\n  dup1\n  dup3\n  gt\n  iszero\n  tag_29\n  jumpi\n  0x00\n  dup2\n  0x00\n  swap1\n  sstore\n  pop\n  0x01\n  add\n  jump(tag_28)\ntag_29:\n  pop\n  swap1\n  jump\t// out\n    /* \"#utility.yul\":7:150   */\ntag_31:\n    /* \"#utility.yul\":64:69   */\n  0x00\n    /* \"#utility.yul\":95:101   */\n  dup2\n    /* \"#utility.yul\":89:102   */\n  mload\n    /* \"#utility.yul\":80:102   */\n  swap1\n  pop\n    /* \"#utility.yul\":111:144   */\n  tag_33\n    /* \"#utility.yul\":138:143   */\n  dup2\n    /* \"#utility.yul\":111:144   */\n  tag_34\n  jump\t// in\ntag_33:\n    /* \"#utility.yul\":7:150   */\n  swap3\n  swap2\n  pop\n  pop\n  jump\t// out\n    /* \"#utility.yul\":156:507   */\ntag_10:\n    /* \"#utility.yul\":226:232   */\n  0x00\n    /* \"#utility.yul\":275:277   */\n  0x20\n    /* \"#utility.yul\":263:272   */\n  dup3\n    /* \"#utility.yul\":254:261   */\n  dup5\n    /* \"#utility.yul\":250:273   */\n  sub\n    /* \"#utility.yul\":246:278   */\n  slt\n    /* \"#utility.yul\":243:362   */\n  iszero\n  tag_36\n  jumpi\n    /* \"#utility.yul\":281:360   */\n  tag_37\n  tag_38\n  jump\t// in\ntag_37:\n    /* \"#utility.yul\":243:362   */\ntag_36:\n    /* \"#utility.yul\":401:402   */\n  0x00\n    /* \"#utility.yul\":426:490   */\n  tag_39\n    /* \"#utility.yul\":482:489   */\n  dup5\n    /* \"#utility.yul\":473:479   */\n  dup3\n    /* \"#utility.yul\":462:471   */\n  dup6\n    /* \"#utility.yul\":458:480   */\n  add\n    /* \"#utility.yul\":426:490   */\n  tag_31\n  jump\t// in\ntag_39:\n    /* \"#utility.yul\":416:490   */\n  swap2\n  pop\n    /* \"#utility.yul\":372:500   */\n  pop\n    /* \"#utility.yul\":156:507   */\n  swap3\n  swap2\n  pop\n  pop\n  jump\t// out\n    /* \"#utility.yul\":594:899   */\ntag_6:\n    /* \"#utility.yul\":634:637   */\n  0x00\n    /* \"#utility.yul\":653:673   */\n  tag_43\n    /* \"#utility.yul\":671:672   */\n  dup3\n    /* \"#utility.yul\":653:673   */\n  tag_44\n  jump\t// in\ntag_43:\n    /* \"#utility.yul\":648:673   */\n  swap2\n  pop\n    /* \"#utility.yul\":687:707   */\n  tag_45\n    /* \"#utility.yul\":705:706   */\n  dup4\n    /* \"#utility.yul\":687:707   */\n  tag_44\n  jump\t// in\ntag_45:\n    /* \"#utility.yul\":682:707   */\n  swap3\n  pop\n    /* \"#utility.yul\":841:842   */\n  dup3\n    /* \"#utility.yul\":773:839   */\n  0xffffffffffffffffffffffffffffffffffffffffffffffffffffffffffffffff\n    /* \"#utility.yul\":769:843   */\n  sub\n    /* \"#utility.yul\":766:767   */\n  dup3\n    /* \"#utility.yul\":763:844   */\n  gt\n    /* \"#utility.yul\":760:867   */\n  iszero\n  tag_46\n  jumpi\n    /* \"#utility.yul\":847:865   */\n  tag_47\n  tag_48\n  jump\t// in\ntag_47:\n    /* \"#utility.yul\":760:867   */\ntag_46:\n    /* \"#utility.yul\":891:892   */\n  dup3\n    /* \"#utility.yul\":888:889   */\n  dup3\n    /* \"#utility.yul\":884:893   */\n  add\n    /* \"#utility.yul\":877:893   */\n  swap1\n  pop\n    /* \"#utility.yul\":594:899   */\n  swap3\n  swap2\n  pop\n  pop\n  jump\t// out\n    /* \"#utility.yul\":905:1001   */\ntag_49:\n    /* \"#utility.yul\":942:949   */\n  0x00\n    /* \"#utility.yul\":971:995   */\n  tag_51\n    /* \"#utility.yul\":989:994   */\n  dup3\n    /* \"#utility.yul\":971:995   */\n  tag_52\n  jump\t// in\ntag_51:\n    /* \"#utility.yul\":960:995   */\n  swap1\n  pop\n    /* \"#utility.yul\":905:1001   */\n  swap2\n  swap1\n  pop\n  jump\t// out\n    /* \"#utility.yul\":1007:1133   */\ntag_52:\n    /* \"#utility.yul\":1044:1051   */\n  0x00\n    /* \"#utility.yul\":1084:1126   */\n  0xffffffffffffffffffffffffffffffffffffffff\n    /* \"#utility.yul\":1077:1082   */\n  dup3\n    /* \"#utility.yul\":1073:1127   */\n  and\n    /* \"#utility.yul\":1062:1127   */\n  swap1\n  pop\n    /* \"#utility.yul\":1007:1133   */\n  swap2\n  swap1\n  pop\n  jump\t// out\n    /* \"#utility.yul\":1139:1216   */\ntag_44:\n    /* \"#utility.yul\":1176:1183   */\n  0x00\n    /* \"#utility.yul\":1205:1210   */\n  dup2\n    /* \"#utility.yul\":1194:1210   */\n  swap1\n  pop\n    /* \"#utility.yul\":1139:1216   */\n  swap2\n  swap1\n  pop\n  jump\t// out\n    /* \"#utility.yul\":1222:1542   */\ntag_20:\n    /* \"#utility.yul\":1266:1272   */\n  0x00\n    /* \"#utility.yul\":1303:1304   */\n  0x02\n    /* \"#utility.yul\":1297:1301   */\n  dup3\n    /* \"#utility.yul\":1293:1305   */\n  div\n    /* \"#utility.yul\":1283:1305   */\n  swap1\n  pop\n    /* \"#utility.yul\":1350:1351   */\n  0x01\n    /* \"#utility.yul\":1344:1348   */\n  dup3\n    /* \"#utility.yul\":1340:1352   */\n  and\n    /* \"#utility.yul\":1371:1389   */\n  dup1\n    /* \"#utility.yul\":1361:1442   */\n  tag_56\n  jumpi\n    /* \"#utility.yul\":1427:1431   */\n  0x7f\n    /* \"#utility.yul\":1419:1425   */\n  dup3\n    /* \"#utility.yul\":1415:1432   */\n  and\n    /* \"#utility.yul\":1405:1432   */\n  swap2\n  pop\n    /* \"#utility.yul\":1361:1442   */\ntag_56:\n    /* \"#utility.yul\":1489:1491   */\n  0x20\n    /* \"#utility.yul\":1481:1487   */\n  dup3\n    /* \"#utility.yul\":1478:1492   */\n  lt\n    /* \"#utility.yul\":1458:1476   */\n  dup2\n    /* \"#utility.yul\":1455:1493   */\n  eq\n    /* \"#utility.yul\":1452:1536   */\n  iszero\n  tag_57\n  jumpi\n    /* \"#utility.yul\":1508:1526   */\n  tag_58\n  tag_59\n  jump\t// in\ntag_58:\n    /* \"#utility.yul\":1452:1536   */\ntag_57:\n    /* \"#utility.yul\":1273:1542   */\n  pop\n    /* \"#utility.yul\":1222:1542   */\n  swap2\n  swap1\n  pop\n  jump\t// out\n    /* \"#utility.yul\":1548:1728   */\ntag_48:\n    /* \"#utility.yul\":1596:1673   */\n  0x4e487b7100000000000000000000000000000000000000000000000000000000\n    /* \"#utility.yul\":1593:1594   */\n  0x00\n    /* \"#utility.yul\":1586:1674   */\n  mstore\n    /* \"#utility.yul\":1693:1697   */\n  0x11\n    /* \"#utility.yul\":1690:1691   */\n  0x04\n    /* \"#utility.yul\":1683:1698   */\n  mstore\n    /* \"#utility.yul\":1717:1721   */\n  0x24\n    /* \"#utility.yul\":1714:1715   */\n  0x00\n    /* \"#utility.yul\":1707:1722   */\n  revert\n    /* \"#utility.yul\":1734:1914   */\ntag_17:\n    /* \"#utility.yul\":1782:1859   */\n  0x4e487b7100000000000000000000000000000000000000000000000000000000\n    /* \"#utility.yul\":1779:1780   */\n  0x00\n    /* \"#utility.yul\":1772:1860   */\n  mstore\n    /* \"#utility.yul\":1879:1883   */\n  0x21\n    /* \"#utility.yul\":1876:1877   */\n  0x04\n    /* \"#utility.yul\":1869:1884   */\n  mstore\n    /* \"#utility.yul\":1903:1907   */\n  0x24\n    /* \"#utility.yul\":1900:1901   */\n  0x00\n    /* \"#utility.yul\":1893:1908   */\n  revert\n    /* \"#utility.yul\":1920:2100   */\ntag_59:\n    /* \"#utility.yul\":1968:2045   */\n  0x4e487b7100000000000000000000000000000000000000000000000000000000\n    /* \"#utility.yul\":1965:1966   */\n  0x00\n    /* \"#utility.yul\":1958:2046   */\n  mstore\n    /* \"#utility.yul\":2065:2069   */\n  0x22\n    /* \"#utility.yul\":2062:2063   */\n  0x04\n    /* \"#utility.yul\":2055:2070   */\n  mstore\n    /* \"#utility.yul\":2089:2093   */\n  0x24\n    /* \"#utility.yul\":2086:2087   */\n  0x00\n    /* \"#utility.yul\":2079:2094   */\n  revert\n    /* \"#utility.yul\":2229:2346   */\ntag_38:\n    /* \"#utility.yul\":2338:2339   */\n  0x00\n    /* \"#utility.yul\":2335:2336   */\n  dup1\n    /* \"#utility.yul\":2328:2340   */\n  revert\n    /* \"#utility.yul\":2352:2474   */\ntag_34:\n    /* \"#utility.yul\":2425:2449   */\n  tag_67\n    /* \"#utility.yul\":2443:2448   */\n  dup2\n    /* \"#utility.yul\":2425:2449   */\n  tag_49\n  jump\t// in\ntag_67:\n    /* \"#utility.yul\":2418:2423   */\n  dup2\n    /* \"#utility.yul\":2415:2450   */\n  eq\n    /* \"#utility.yul\":2405:2468   */\n  tag_68\n  jumpi\n    /* \"#utility.yul\":2464:2465   */\n  0x00\n    /* \"#utility.yul\":2461:2462   */\n  dup1\n    /* \"#utility.yul\":2454:2466   */\n  revert\n    /* \"#utility.yul\":2405:2468   */\ntag_68:\n    /* \"#utility.yul\":2352:2474   */\n  pop\n  jump\t// out\n    /* \"ICO.sol\":3815:7271  contract ICO is Block {... */\ntag_18:\n  dataSize(sub_0)\n  dup1\n  dataOffset(sub_0)\n  0x00\n  codecopy\n  0x00\n  return\nstop\n\nsub_0: assembly {\n        /* \"ICO.sol\":3815:7271  contract ICO is Block {... */\n      mstore(0x40, 0x80)\n      jumpi(tag_1, lt(calldatasize, 0x04))\n      shr(0xe0, calldataload(0x00))\n      dup1\n      0x4d853ee5\n      gt\n      tag_26\n      jumpi\n      dup1\n      0xa9059cbb\n      gt\n      tag_27\n      jumpi\n      dup1\n      0xa9059cbb\n      eq\n      tag_20\n      jumpi\n      dup1\n      0xb8a4825f\n      eq\n      tag_21\n      jumpi\n      dup1\n      0xc59ee1dc\n      eq\n      tag_22\n      jumpi\n      dup1\n      0xd0e30db0\n      eq\n      tag_23\n      jumpi\n      dup1\n      0xdd62ed3e\n      eq\n      tag_24\n      jumpi\n      dup1\n      0xe8b5e51f\n      eq\n      tag_25\n      jumpi\n      jump(tag_1)\n    tag_27:\n      dup1\n      0x4d853ee5\n      eq\n      tag_14\n      jumpi\n      dup1\n      0x5ed7ca5b\n      eq\n      tag_15\n      jumpi\n      dup1\n      0x6d58c88f\n      eq\n      tag_16\n      jumpi\n      dup1\n      0x70a08231\n      eq\n      tag_17\n      jumpi\n      dup1\n      0x76809ce3\n      eq\n      tag_18\n      jumpi\n      dup1\n      0x7ff9b596\n      eq\n      tag_19\n      jumpi\n      jump(tag_1)\n    tag_26:\n      dup1\n      0x23b872dd\n      gt\n      tag_28\n      jumpi\n      dup1\n      0x23b872dd\n      eq\n      tag_8\n      jumpi\n      dup1\n      0x27e235e3\n      eq\n      tag_9\n      jumpi\n      dup1\n      0x355274ea\n      eq\n      tag_10\n      jumpi\n      dup1\n      0x3a2c7a37\n      eq\n      tag_11\n      jumpi\n      dup1\n      0x44df8e70\n      eq\n      tag_12\n      jumpi\n      dup1\n      0x481c6a75\n      eq\n      tag_13\n      jumpi\n      jump(tag_1)\n    tag_28:\n      dup1\n      0x046f7da2\n      eq\n      tag_2\n      jumpi\n      dup1\n      0x095ea7b3\n      eq\n      tag_3\n      jumpi\n      dup1\n      0x18160ddd\n      eq\n      tag_4\n      jumpi\n      dup1\n      0x1865c57d\n      eq\n      tag_5\n      jumpi\n      dup1\n      0x1a861d26\n      eq\n      tag_6\n      jumpi\n      dup1\n      0x1fd8088d\n      eq\n      tag_7\n      jumpi\n    tag_1:\n      0x00\n      dup1\n      revert\n        /* \"ICO.sol\":4776:4851  function resume() public onlyManager{... */\n    tag_2:\n      callvalue\n      dup1\n      iszero\n      tag_29\n      jumpi\n      0x00\n      dup1\n      revert\n    tag_29:\n      pop\n      tag_30\n      tag_31\n      jump\t// in\n    tag_30:\n      stop\n        /* \"ICO.sol\":2867:3171  function approve(address spender,uint tokens) public override returns(bool success){... */\n    tag_3:\n      callvalue\n      dup1\n      iszero\n      tag_32\n      jumpi\n      0x00\n      dup1\n      revert\n    tag_32:\n      pop\n      tag_33\n      0x04\n      dup1\n      calldatasize\n      sub\n      dup2\n      add\n      swap1\n      tag_34\n      swap2\n      swap1\n      tag_35\n      jump\t// in\n    tag_34:\n      tag_36\n      jump\t// in\n    tag_33:\n      mload(0x40)\n      tag_37\n      swap2\n      swap1\n      tag_38\n      jump\t// in\n    tag_37:\n      mload(0x40)\n      dup1\n      swap2\n      sub\n      swap1\n      return\n        /* \"ICO.sol\":1761:1793  uint public override totalSupply */\n    tag_4:\n      callvalue\n      dup1\n      iszero\n      tag_39\n      jumpi\n      0x00\n      dup1\n      revert\n    tag_39:\n      pop\n      tag_40\n      tag_41\n      jump\t// in\n    tag_40:\n      mload(0x40)\n      tag_42\n      swap2\n      swap1\n      tag_43\n      jump\t// in\n    tag_42:\n      mload(0x40)\n      dup1\n      swap2\n      sub\n      swap1\n      return\n        /* \"ICO.sol\":5001:5329  function getState() public view returns(State){... */\n    tag_5:\n      callvalue\n      dup1\n      iszero\n      tag_44\n      jumpi\n      0x00\n      dup1\n      revert\n    tag_44:\n      pop\n      tag_45\n      tag_46\n      jump\t// in\n    tag_45:\n      mload(0x40)\n      tag_47\n      swap2\n      swap1\n      tag_48\n      jump\t// in\n    tag_47:\n      mload(0x40)\n      dup1\n      swap2\n      sub\n      swap1\n      return\n        /* \"ICO.sol\":4230:4261  uint public maxLimit = 10 ether */\n    tag_6:\n      callvalue\n      dup1\n      iszero\n      tag_49\n      jumpi\n      0x00\n      dup1\n      revert\n    tag_49:\n      pop\n      tag_50\n      tag_51\n      jump\t// in\n    tag_50:\n      mload(0x40)\n      tag_52\n      swap2\n      swap1\n      tag_43\n      jump\t// in\n    tag_52:\n      mload(0x40)\n      dup1\n      swap2\n      sub\n      swap1\n      return\n        /* \"ICO.sol\":4192:4224  uint public minLimit = 0.1 ether */\n    tag_7:\n      callvalue\n      dup1\n      iszero\n      tag_53\n      jumpi\n      0x00\n      dup1\n      revert\n    tag_53:\n      pop\n      tag_54\n      tag_55\n      jump\t// in\n    tag_54:\n      mload(0x40)\n      tag_56\n      swap2\n      swap1\n      tag_43\n      jump\t// in\n    tag_56:\n      mload(0x40)\n      dup1\n      swap2\n      sub\n      swap1\n      return\n        /* \"ICO.sol\":6871:7268  function transferFrom(address from,address to,uint tokens) public override returns(bool success){... */\n    tag_8:\n      callvalue\n      dup1\n      iszero\n      tag_57\n      jumpi\n      0x00\n      dup1\n      revert\n    tag_57:\n      pop\n      tag_58\n      0x04\n      dup1\n      calldatasize\n      sub\n      dup2\n      add\n      swap1\n      tag_59\n      swap2\n      swap1\n      tag_60\n      jump\t// in\n    tag_59:\n      tag_61\n      jump\t// in\n    tag_58:\n      mload(0x40)\n      tag_62\n      swap2\n      swap1\n      tag_38\n      jump\t// in\n    tag_62:\n      mload(0x40)\n      dup1\n      swap2\n      sub\n      swap1\n      return\n        /* \"ICO.sol\":1799:1837  mapping(address=>uint) public balances */\n    tag_9:\n      callvalue\n      dup1\n      iszero\n      tag_63\n      jumpi\n      0x00\n      dup1\n      revert\n    tag_63:\n      pop\n      tag_64\n      0x04\n      dup1\n      calldatasize\n      sub\n      dup2\n      add\n      swap1\n      tag_65\n      swap2\n      swap1\n      tag_66\n      jump\t// in\n    tag_65:\n      tag_67\n      jump\t// in\n    tag_64:\n      mload(0x40)\n      tag_68\n      swap2\n      swap1\n      tag_43\n      jump\t// in\n    tag_68:\n      mload(0x40)\n      dup1\n      swap2\n      sub\n      swap1\n      return\n        /* \"ICO.sol\":4267:4294  uint public cap = 300 ether */\n    tag_10:\n      callvalue\n      dup1\n      iszero\n      tag_69\n      jumpi\n      0x00\n      dup1\n      revert\n    tag_69:\n      pop\n      tag_70\n      tag_71\n      jump\t// in\n    tag_70:\n      mload(0x40)\n      tag_72\n      swap2\n      swap1\n      tag_43\n      jump\t// in\n    tag_72:\n      mload(0x40)\n      dup1\n      swap2\n      sub\n      swap1\n      return\n        /* \"ICO.sol\":4399:4420  State public ICOstate */\n    tag_11:\n      callvalue\n      dup1\n      iszero\n      tag_73\n      jumpi\n      0x00\n      dup1\n      revert\n    tag_73:\n      pop\n      tag_74\n      tag_75\n      jump\t// in\n    tag_74:\n      mload(0x40)\n      tag_76\n      swap2\n      swap1\n      tag_48\n      jump\t// in\n    tag_76:\n      mload(0x40)\n      dup1\n      swap2\n      sub\n      swap1\n      return\n        /* \"ICO.sol\":6192:6362  function burn() public onlyManager returns (bool success){... */\n    tag_12:\n      callvalue\n      dup1\n      iszero\n      tag_77\n      jumpi\n      0x00\n      dup1\n      revert\n    tag_77:\n      pop\n      tag_78\n      tag_79\n      jump\t// in\n    tag_78:\n      mload(0x40)\n      tag_80\n      swap2\n      swap1\n      tag_38\n      jump\t// in\n    tag_80:\n      mload(0x40)\n      dup1\n      swap2\n      sub\n      swap1\n      return\n        /* \"ICO.sol\":3889:3911  address public manager */\n    tag_13:\n      callvalue\n      dup1\n      iszero\n      tag_81\n      jumpi\n      0x00\n      dup1\n      revert\n    tag_81:\n      pop\n      tag_82\n      tag_83\n      jump\t// in\n    tag_82:\n      mload(0x40)\n      tag_84\n      swap2\n      swap1\n      tag_85\n      jump\t// in\n    tag_84:\n      mload(0x40)\n      dup1\n      swap2\n      sub\n      swap1\n      return\n        /* \"ICO.sol\":1679:1701  address public founder */\n    tag_14:\n      callvalue\n      dup1\n      iszero\n      tag_86\n      jumpi\n      0x00\n      dup1\n      revert\n    tag_86:\n      pop\n      tag_87\n      tag_88\n      jump\t// in\n    tag_87:\n      mload(0x40)\n      tag_89\n      swap2\n      swap1\n      tag_85\n      jump\t// in\n    tag_89:\n      mload(0x40)\n      dup1\n      swap2\n      sub\n      swap1\n      return\n        /* \"ICO.sol\":4698:4770  function halt() public onlyManager{... */\n    tag_15:\n      callvalue\n      dup1\n      iszero\n      tag_90\n      jumpi\n      0x00\n      dup1\n      revert\n    tag_90:\n      pop\n      tag_91\n      tag_92\n      jump\t// in\n    tag_91:\n      stop\n        /* \"ICO.sol\":4857:4969  function changeDepositAddress(address payable newDeposit) onlyManager public {... */\n    tag_16:\n      callvalue\n      dup1\n      iszero\n      tag_93\n      jumpi\n      0x00\n      dup1\n      revert\n    tag_93:\n      pop\n      tag_94\n      0x04\n      dup1\n      calldatasize\n      sub\n      dup2\n      add\n      swap1\n      tag_95\n      swap2\n      swap1\n      tag_96\n      jump\t// in\n    tag_95:\n      tag_97\n      jump\t// in\n    tag_94:\n      stop\n        /* \"ICO.sol\":2146:2271  function balanceOf(address tokenOwner) public view override returns (uint tokens){... */\n    tag_17:\n      callvalue\n      dup1\n      iszero\n      tag_98\n      jumpi\n      0x00\n      dup1\n      revert\n    tag_98:\n      pop\n      tag_99\n      0x04\n      dup1\n      calldatasize\n      sub\n      dup2\n      add\n      swap1\n      tag_100\n      swap2\n      swap1\n      tag_66\n      jump\t// in\n    tag_100:\n      tag_101\n      jump\t// in\n    tag_99:\n      mload(0x40)\n      tag_102\n      swap2\n      swap1\n      tag_43\n      jump\t// in\n    tag_102:\n      mload(0x40)\n      dup1\n      swap2\n      sub\n      swap1\n      return\n        /* \"ICO.sol\":1973:1998  string public decimal=\"0\" */\n    tag_18:\n      callvalue\n      dup1\n      iszero\n      tag_103\n      jumpi\n      0x00\n      dup1\n      revert\n    tag_103:\n      pop\n      tag_104\n      tag_105\n      jump\t// in\n    tag_104:\n      mload(0x40)\n      tag_106\n      swap2\n      swap1\n      tag_107\n      jump\t// in\n    tag_106:\n      mload(0x40)\n      dup1\n      swap2\n      sub\n      swap1\n      return\n        /* \"ICO.sol\":4065:4099  uint public tokenPrice = 0.1 ether */\n    tag_19:\n      callvalue\n      dup1\n      iszero\n      tag_108\n      jumpi\n      0x00\n      dup1\n      revert\n    tag_108:\n      pop\n      tag_109\n      tag_110\n      jump\t// in\n    tag_109:\n      mload(0x40)\n      tag_111\n      swap2\n      swap1\n      tag_43\n      jump\t// in\n    tag_111:\n      mload(0x40)\n      dup1\n      swap2\n      sub\n      swap1\n      return\n        /* \"ICO.sol\":6433:6802  function transfer(address to,uint tokens) public override returns(bool success){... */\n    tag_20:\n      callvalue\n      dup1\n      iszero\n      tag_112\n      jumpi\n      0x00\n      dup1\n      revert\n    tag_112:\n      pop\n      tag_113\n      0x04\n      dup1\n      calldatasize\n      sub\n      dup2\n      add\n      swap1\n      tag_114\n      swap2\n      swap1\n      tag_35\n      jump\t// in\n    tag_114:\n      tag_115\n      jump\t// in\n    tag_113:\n      mload(0x40)\n      tag_116\n      swap2\n      swap1\n      tag_38\n      jump\t// in\n    tag_116:\n      mload(0x40)\n      dup1\n      swap2\n      sub\n      swap1\n      return\n        /* \"ICO.sol\":4105:4145  uint public tokenTradeTime = icoEnd+3600 */\n    tag_21:\n      callvalue\n      dup1\n      iszero\n      tag_117\n      jumpi\n      0x00\n      dup1\n      revert\n    tag_117:\n      pop\n      tag_118\n      tag_119\n      jump\t// in\n    tag_118:\n      mload(0x40)\n      tag_120\n      swap2\n      swap1\n      tag_43\n      jump\t// in\n    tag_120:\n      mload(0x40)\n      dup1\n      swap2\n      sub\n      swap1\n      return\n        /* \"ICO.sol\":4300:4324  uint public raisedAmount */\n    tag_22:\n      callvalue\n      dup1\n      iszero\n      tag_121\n      jumpi\n      0x00\n      dup1\n      revert\n    tag_121:\n      pop\n      tag_122\n      tag_123\n      jump\t// in\n    tag_122:\n      mload(0x40)\n      tag_124\n      swap2\n      swap1\n      tag_43\n      jump\t// in\n    tag_124:\n      mload(0x40)\n      dup1\n      swap2\n      sub\n      swap1\n      return\n        /* \"ICO.sol\":3917:3947  address payable public deposit */\n    tag_23:\n      callvalue\n      dup1\n      iszero\n      tag_125\n      jumpi\n      0x00\n      dup1\n      revert\n    tag_125:\n      pop\n      tag_126\n      tag_127\n      jump\t// in\n    tag_126:\n      mload(0x40)\n      tag_128\n      swap2\n      swap1\n      tag_129\n      jump\t// in\n    tag_128:\n      mload(0x40)\n      dup1\n      swap2\n      sub\n      swap1\n      return\n        /* \"ICO.sol\":3227:3379  function allowance(address tokenOwner,address spender) public view override returns(uint noOftokens){... */\n    tag_24:\n      callvalue\n      dup1\n      iszero\n      tag_130\n      jumpi\n      0x00\n      dup1\n      revert\n    tag_130:\n      pop\n      tag_131\n      0x04\n      dup1\n      calldatasize\n      sub\n      dup2\n      add\n      swap1\n      tag_132\n      swap2\n      swap1\n      tag_133\n      jump\t// in\n    tag_132:\n      tag_134\n      jump\t// in\n    tag_131:\n      mload(0x40)\n      tag_135\n      swap2\n      swap1\n      tag_43\n      jump\t// in\n    tag_135:\n      mload(0x40)\n      dup1\n      swap2\n      sub\n      swap1\n      return\n        /* \"ICO.sol\":5353:6096  function invest() public payable returns (bool success){... */\n    tag_25:\n      tag_136\n      tag_137\n      jump\t// in\n    tag_136:\n      mload(0x40)\n      tag_138\n      swap2\n      swap1\n      tag_38\n      jump\t// in\n    tag_138:\n      mload(0x40)\n      dup1\n      swap2\n      sub\n      swap1\n      return\n        /* \"ICO.sol\":4776:4851  function resume() public onlyManager{... */\n    tag_31:\n        /* \"ICO.sol\":4666:4673  manager */\n      0x07\n      0x00\n      swap1\n      sload\n      swap1\n      0x0100\n      exp\n      swap1\n      div\n      0xffffffffffffffffffffffffffffffffffffffff\n      and\n        /* \"ICO.sol\":4654:4673  msg.sender==manager */\n      0xffffffffffffffffffffffffffffffffffffffff\n      and\n        /* \"ICO.sol\":4654:4664  msg.sender */\n      caller\n        /* \"ICO.sol\":4654:4673  msg.sender==manager */\n      0xffffffffffffffffffffffffffffffffffffffff\n      and\n      eq\n        /* \"ICO.sol\":4646:4674  require(msg.sender==manager) */\n      tag_140\n      jumpi\n      0x00\n      dup1\n      revert\n    tag_140:\n        /* \"ICO.sol\":4831:4844  State.running */\n      0x01\n        /* \"ICO.sol\":4822:4830  ICOstate */\n      0x11\n      0x00\n        /* \"ICO.sol\":4822:4844  ICOstate=State.running */\n      0x0100\n      exp\n      dup2\n      sload\n      dup2\n      0xff\n      mul\n      not\n      and\n      swap1\n      dup4\n      0x03\n      dup2\n      gt\n      iszero\n      tag_142\n      jumpi\n      tag_143\n      tag_144\n      jump\t// in\n    tag_143:\n    tag_142:\n      mul\n      or\n      swap1\n      sstore\n      pop\n        /* \"ICO.sol\":4776:4851  function resume() public onlyManager{... */\n      jump\t// out\n        /* \"ICO.sol\":2867:3171  function approve(address spender,uint tokens) public override returns(bool success){... */\n    tag_36:\n        /* \"ICO.sol\":2937:2949  bool success */\n      0x00\n        /* \"ICO.sol\":2975:2976  0 */\n      dup1\n        /* \"ICO.sol\":2968:2974  tokens */\n      dup3\n        /* \"ICO.sol\":2968:2976  tokens>0 */\n      gt\n        /* \"ICO.sol\":2960:2977  require(tokens>0) */\n      tag_146\n      jumpi\n      0x00\n      dup1\n      revert\n    tag_146:\n        /* \"ICO.sol\":3017:3023  tokens */\n      dup2\n        /* \"ICO.sol\":2995:3003  balances */\n      0x04\n        /* \"ICO.sol\":2995:3015  balances[msg.sender] */\n      0x00\n        /* \"ICO.sol\":3004:3014  msg.sender */\n      caller\n        /* \"ICO.sol\":2995:3015  balances[msg.sender] */\n      0xffffffffffffffffffffffffffffffffffffffff\n      and\n      0xffffffffffffffffffffffffffffffffffffffff\n      and\n      dup2\n      mstore\n      0x20\n      add\n      swap1\n      dup2\n      mstore\n      0x20\n      add\n      0x00\n      keccak256\n      sload\n        /* \"ICO.sol\":2995:3023  balances[msg.sender]>=tokens */\n      lt\n      iszero\n        /* \"ICO.sol\":2987:3047  require(balances[msg.sender]>=tokens,\"Insufficient balance\") */\n      tag_147\n      jumpi\n      mload(0x40)\n      0x08c379a000000000000000000000000000000000000000000000000000000000\n      dup2\n      mstore\n      0x04\n      add\n      tag_148\n      swap1\n      tag_149\n      jump\t// in\n    tag_148:\n      mload(0x40)\n      dup1\n      swap2\n      sub\n      swap1\n      revert\n    tag_147:\n        /* \"ICO.sol\":3086:3092  tokens */\n      dup2\n        /* \"ICO.sol\":3057:3064  allowed */\n      0x05\n        /* \"ICO.sol\":3057:3076  allowed[msg.sender] */\n      0x00\n        /* \"ICO.sol\":3065:3075  msg.sender */\n      caller\n        /* \"ICO.sol\":3057:3076  allowed[msg.sender] */\n      0xffffffffffffffffffffffffffffffffffffffff\n      and\n      0xffffffffffffffffffffffffffffffffffffffff\n      and\n      dup2\n      mstore\n      0x20\n      add\n      swap1\n      dup2\n      mstore\n      0x20\n      add\n      0x00\n      keccak256\n        /* \"ICO.sol\":3057:3085  allowed[msg.sender][spender] */\n      0x00\n        /* \"ICO.sol\":3077:3084  spender */\n      dup6\n        /* \"ICO.sol\":3057:3085  allowed[msg.sender][spender] */\n      0xffffffffffffffffffffffffffffffffffffffff\n      and\n      0xffffffffffffffffffffffffffffffffffffffff\n      and\n      dup2\n      mstore\n      0x20\n      add\n      swap1\n      dup2\n      mstore\n      0x20\n      add\n      0x00\n      keccak256\n        /* \"ICO.sol\":3057:3092  allowed[msg.sender][spender]=tokens */\n      dup2\n      swap1\n      sstore\n      pop\n        /* \"ICO.sol\":3127:3134  spender */\n      dup3\n        /* \"ICO.sol\":3107:3142  Approval(msg.sender,spender,tokens) */\n      0xffffffffffffffffffffffffffffffffffffffff\n      and\n        /* \"ICO.sol\":3116:3126  msg.sender */\n      caller\n        /* \"ICO.sol\":3107:3142  Approval(msg.sender,spender,tokens) */\n      0xffffffffffffffffffffffffffffffffffffffff\n      and\n      0x8c5be1e5ebec7d5bd14f71427d1e84f3dd0314c0f7b2291e5b200ac8c7c3b925\n        /* \"ICO.sol\":3135:3141  tokens */\n      dup5\n        /* \"ICO.sol\":3107:3142  Approval(msg.sender,spender,tokens) */\n      mload(0x40)\n      tag_150\n      swap2\n      swap1\n      tag_43\n      jump\t// in\n    tag_150:\n      mload(0x40)\n      dup1\n      swap2\n      sub\n      swap1\n      log3\n        /* \"ICO.sol\":3159:3163  true */\n      0x01\n        /* \"ICO.sol\":3152:3163  return true */\n      swap1\n      pop\n        /* \"ICO.sol\":2867:3171  function approve(address spender,uint tokens) public override returns(bool success){... */\n      swap3\n      swap2\n      pop\n      pop\n      jump\t// out\n        /* \"ICO.sol\":1761:1793  uint public override totalSupply */\n    tag_41:\n      sload(0x03)\n      dup2\n      jump\t// out\n        /* \"ICO.sol\":5001:5329  function getState() public view returns(State){... */\n    tag_46:\n        /* \"ICO.sol\":5041:5046  State */\n      0x00\n        /* \"ICO.sol\":5069:5081  State.halted */\n      0x03\n        /* \"ICO.sol\":5057:5081  ICOstate == State.halted */\n      dup1\n      dup2\n      gt\n      iszero\n      tag_152\n      jumpi\n      tag_153\n      tag_144\n      jump\t// in\n    tag_153:\n    tag_152:\n        /* \"ICO.sol\":5057:5065  ICOstate */\n      0x11\n      0x00\n      swap1\n      sload\n      swap1\n      0x0100\n      exp\n      swap1\n      div\n      0xff\n      and\n        /* \"ICO.sol\":5057:5081  ICOstate == State.halted */\n      0x03\n      dup2\n      gt\n      iszero\n      tag_154\n      jumpi\n      tag_155\n      tag_144\n      jump\t// in\n    tag_155:\n    tag_154:\n      eq\n        /* \"ICO.sol\":5053:5322  if( ICOstate == State.halted){... */\n      iszero\n      tag_156\n      jumpi\n        /* \"ICO.sol\":5099:5111  State.halted */\n      0x03\n        /* \"ICO.sol\":5092:5111  return State.halted */\n      swap1\n      pop\n      jump(tag_151)\n        /* \"ICO.sol\":5053:5322  if( ICOstate == State.halted){... */\n    tag_156:\n        /* \"ICO.sol\":5143:5151  icoStart */\n      sload(0x09)\n        /* \"ICO.sol\":5126:5141  block.timestamp */\n      timestamp\n        /* \"ICO.sol\":5126:5151  block.timestamp>=icoStart */\n      lt\n      iszero\n        /* \"ICO.sol\":5126:5178  block.timestamp>=icoStart && block.timestamp<=icoEnd */\n      dup1\n      iszero\n      tag_158\n      jumpi\n      pop\n        /* \"ICO.sol\":5172:5178  icoEnd */\n      sload(0x0a)\n        /* \"ICO.sol\":5155:5170  block.timestamp */\n      timestamp\n        /* \"ICO.sol\":5155:5178  block.timestamp<=icoEnd */\n      gt\n      iszero\n        /* \"ICO.sol\":5126:5178  block.timestamp>=icoStart && block.timestamp<=icoEnd */\n    tag_158:\n        /* \"ICO.sol\":5123:5322  if(block.timestamp>=icoStart && block.timestamp<=icoEnd){... */\n      iszero\n      tag_159\n      jumpi\n        /* \"ICO.sol\":5196:5209  State.running */\n      0x01\n        /* \"ICO.sol\":5189:5209  return State.running */\n      swap1\n      pop\n      jump(tag_151)\n        /* \"ICO.sol\":5123:5322  if(block.timestamp>=icoStart && block.timestamp<=icoEnd){... */\n    tag_159:\n        /* \"ICO.sol\":5241:5249  icoStart */\n      sload(0x09)\n        /* \"ICO.sol\":5224:5239  block.timestamp */\n      timestamp\n        /* \"ICO.sol\":5224:5249  block.timestamp<=icoStart */\n      gt\n        /* \"ICO.sol\":5221:5322  if(block.timestamp<=icoStart){... */\n      tag_161\n      jumpi\n        /* \"ICO.sol\":5267:5284  State.beforeStart */\n      0x00\n        /* \"ICO.sol\":5260:5284  return State.beforeStart */\n      swap1\n      pop\n      jump(tag_151)\n        /* \"ICO.sol\":5221:5322  if(block.timestamp<=icoStart){... */\n    tag_161:\n        /* \"ICO.sol\":5308:5322  State.afterEnd */\n      0x02\n        /* \"ICO.sol\":5301:5322  return State.afterEnd */\n      swap1\n      pop\n        /* \"ICO.sol\":5001:5329  function getState() public view returns(State){... */\n    tag_151:\n      swap1\n      jump\t// out\n        /* \"ICO.sol\":4230:4261  uint public maxLimit = 10 ether */\n    tag_51:\n      sload(0x0e)\n      dup2\n      jump\t// out\n        /* \"ICO.sol\":4192:4224  uint public minLimit = 0.1 ether */\n    tag_55:\n      sload(0x0d)\n      dup2\n      jump\t// out\n        /* \"ICO.sol\":6871:7268  function transferFrom(address from,address to,uint tokens) public override returns(bool success){... */\n    tag_61:\n        /* \"ICO.sol\":6954:6966  bool success */\n      0x00\n        /* \"ICO.sol\":7034:7044  getState() */\n      tag_164\n        /* \"ICO.sol\":7034:7042  getState */\n      tag_46\n        /* \"ICO.sol\":7034:7044  getState() */\n      jump\t// in\n    tag_164:\n        /* \"ICO.sol\":7025:7033  ICOstate */\n      0x11\n      0x00\n        /* \"ICO.sol\":7025:7044  ICOstate=getState() */\n      0x0100\n      exp\n      dup2\n      sload\n      dup2\n      0xff\n      mul\n      not\n      and\n      swap1\n      dup4\n      0x03\n      dup2\n      gt\n      iszero\n      tag_165\n      jumpi\n      tag_166\n      tag_144\n      jump\t// in\n    tag_166:\n    tag_165:\n      mul\n      or\n      swap1\n      sstore\n      pop\n        /* \"ICO.sol\":7068:7082  State.afterEnd */\n      0x02\n        /* \"ICO.sol\":7058:7082  ICOstate==State.afterEnd */\n      0x03\n      dup2\n      gt\n      iszero\n      tag_167\n      jumpi\n      tag_168\n      tag_144\n      jump\t// in\n    tag_168:\n    tag_167:\n        /* \"ICO.sol\":7058:7066  ICOstate */\n      0x11\n      0x00\n      swap1\n      sload\n      swap1\n      0x0100\n      exp\n      swap1\n      div\n      0xff\n      and\n        /* \"ICO.sol\":7058:7082  ICOstate==State.afterEnd */\n      0x03\n      dup2\n      gt\n      iszero\n      tag_169\n      jumpi\n      tag_170\n      tag_144\n      jump\t// in\n    tag_170:\n    tag_169:\n      eq\n        /* \"ICO.sol\":7050:7083  require(ICOstate==State.afterEnd) */\n      tag_171\n      jumpi\n      0x00\n      dup1\n      revert\n    tag_171:\n        /* \"ICO.sol\":7114:7128  tokenTradeTime */\n      sload(0x0c)\n        /* \"ICO.sol\":7097:7112  block.timestamp */\n      timestamp\n        /* \"ICO.sol\":7097:7128  block.timestamp>=tokenTradeTime */\n      lt\n      iszero\n        /* \"ICO.sol\":7089:7129  require(block.timestamp>=tokenTradeTime) */\n      tag_172\n      jumpi\n      0x00\n      dup1\n      revert\n    tag_172:\n        /* \"ICO.sol\":7214:7248  super.transferFrom(from,to,tokens) */\n      tag_173\n        /* \"ICO.sol\":7233:7237  from */\n      dup5\n        /* \"ICO.sol\":7238:7240  to */\n      dup5\n        /* \"ICO.sol\":7241:7247  tokens */\n      dup5\n        /* \"ICO.sol\":7214:7232  super.transferFrom */\n      tag_174\n        /* \"ICO.sol\":7214:7248  super.transferFrom(from,to,tokens) */\n      jump\t// in\n    tag_173:\n      pop\n        /* \"ICO.sol\":7261:7265  true */\n      0x01\n        /* \"ICO.sol\":7254:7265  return true */\n      swap1\n      pop\n        /* \"ICO.sol\":6871:7268  function transferFrom(address from,address to,uint tokens) public override returns(bool success){... */\n      swap4\n      swap3\n      pop\n      pop\n      pop\n      jump\t// out\n        /* \"ICO.sol\":1799:1837  mapping(address=>uint) public balances */\n    tag_67:\n      mstore(0x20, 0x04)\n      dup1\n      0x00\n      mstore\n      keccak256(0x00, 0x40)\n      0x00\n      swap2\n      pop\n      swap1\n      pop\n      sload\n      dup2\n      jump\t// out\n        /* \"ICO.sol\":4267:4294  uint public cap = 300 ether */\n    tag_71:\n      sload(0x0f)\n      dup2\n      jump\t// out\n        /* \"ICO.sol\":4399:4420  State public ICOstate */\n    tag_75:\n      0x11\n      0x00\n      swap1\n      sload\n      swap1\n      0x0100\n      exp\n      swap1\n      div\n      0xff\n      and\n      dup2\n      jump\t// out\n        /* \"ICO.sol\":6192:6362  function burn() public onlyManager returns (bool success){... */\n    tag_79:\n        /* \"ICO.sol\":6236:6248  bool success */\n      0x00\n        /* \"ICO.sol\":4666:4673  manager */\n      0x07\n      0x00\n      swap1\n      sload\n      swap1\n      0x0100\n      exp\n      swap1\n      div\n      0xffffffffffffffffffffffffffffffffffffffff\n      and\n        /* \"ICO.sol\":4654:4673  msg.sender==manager */\n      0xffffffffffffffffffffffffffffffffffffffff\n      and\n        /* \"ICO.sol\":4654:4664  msg.sender */\n      caller\n        /* \"ICO.sol\":4654:4673  msg.sender==manager */\n      0xffffffffffffffffffffffffffffffffffffffff\n      and\n      eq\n        /* \"ICO.sol\":4646:4674  require(msg.sender==manager) */\n      tag_176\n      jumpi\n      0x00\n      dup1\n      revert\n    tag_176:\n        /* \"ICO.sol\":6264:6274  getState() */\n      tag_178\n        /* \"ICO.sol\":6264:6272  getState */\n      tag_46\n        /* \"ICO.sol\":6264:6274  getState() */\n      jump\t// in\n    tag_178:\n        /* \"ICO.sol\":6255:6263  ICOstate */\n      0x11\n      0x00\n        /* \"ICO.sol\":6255:6274  ICOstate=getState() */\n      0x0100\n      exp\n      dup2\n      sload\n      dup2\n      0xff\n      mul\n      not\n      and\n      swap1\n      dup4\n      0x03\n      dup2\n      gt\n      iszero\n      tag_179\n      jumpi\n      tag_180\n      tag_144\n      jump\t// in\n    tag_180:\n    tag_179:\n      mul\n      or\n      swap1\n      sstore\n      pop\n        /* \"ICO.sol\":6298:6312  State.afterEnd */\n      0x02\n        /* \"ICO.sol\":6288:6312  ICOstate==State.afterEnd */\n      0x03\n      dup2\n      gt\n      iszero\n      tag_181\n      jumpi\n      tag_182\n      tag_144\n      jump\t// in\n    tag_182:\n    tag_181:\n        /* \"ICO.sol\":6288:6296  ICOstate */\n      0x11\n      0x00\n      swap1\n      sload\n      swap1\n      0x0100\n      exp\n      swap1\n      div\n      0xff\n      and\n        /* \"ICO.sol\":6288:6312  ICOstate==State.afterEnd */\n      0x03\n      dup2\n      gt\n      iszero\n      tag_183\n      jumpi\n      tag_184\n      tag_144\n      jump\t// in\n    tag_184:\n    tag_183:\n      eq\n        /* \"ICO.sol\":6280:6313  require(ICOstate==State.afterEnd) */\n      tag_185\n      jumpi\n      0x00\n      dup1\n      revert\n    tag_185:\n        /* \"ICO.sol\":6337:6338  0 */\n      0x00\n        /* \"ICO.sol\":6319:6327  balances */\n      0x04\n        /* \"ICO.sol\":6319:6336  balances[founder] */\n      0x00\n        /* \"ICO.sol\":6328:6335  founder */\n      dup1\n      0x00\n      swap1\n      sload\n      swap1\n      0x0100\n      exp\n      swap1\n      div\n      0xffffffffffffffffffffffffffffffffffffffff\n      and\n        /* \"ICO.sol\":6319:6336  balances[founder] */\n      0xffffffffffffffffffffffffffffffffffffffff\n      and\n      0xffffffffffffffffffffffffffffffffffffffff\n      and\n      dup2\n      mstore\n      0x20\n      add\n      swap1\n      dup2\n      mstore\n      0x20\n      add\n      0x00\n      keccak256\n        /* \"ICO.sol\":6319:6338  balances[founder]=0 */\n      dup2\n      swap1\n      sstore\n      pop\n        /* \"ICO.sol\":6351:6355  true */\n      0x01\n        /* \"ICO.sol\":6344:6355  return true */\n      swap1\n      pop\n        /* \"ICO.sol\":6192:6362  function burn() public onlyManager returns (bool success){... */\n      swap1\n      jump\t// out\n        /* \"ICO.sol\":3889:3911  address public manager */\n    tag_83:\n      0x07\n      0x00\n      swap1\n      sload\n      swap1\n      0x0100\n      exp\n      swap1\n      div\n      0xffffffffffffffffffffffffffffffffffffffff\n      and\n      dup2\n      jump\t// out\n        /* \"ICO.sol\":1679:1701  address public founder */\n    tag_88:\n      0x00\n      dup1\n      sload\n      swap1\n      0x0100\n      exp\n      swap1\n      div\n      0xffffffffffffffffffffffffffffffffffffffff\n      and\n      dup2\n      jump\t// out\n        /* \"ICO.sol\":4698:4770  function halt() public onlyManager{... */\n    tag_92:\n        /* \"ICO.sol\":4666:4673  manager */\n      0x07\n      0x00\n      swap1\n      sload\n      swap1\n      0x0100\n      exp\n      swap1\n      div\n      0xffffffffffffffffffffffffffffffffffffffff\n      and\n        /* \"ICO.sol\":4654:4673  msg.sender==manager */\n      0xffffffffffffffffffffffffffffffffffffffff\n      and\n        /* \"ICO.sol\":4654:4664  msg.sender */\n      caller\n        /* \"ICO.sol\":4654:4673  msg.sender==manager */\n      0xffffffffffffffffffffffffffffffffffffffff\n      and\n      eq\n        /* \"ICO.sol\":4646:4674  require(msg.sender==manager) */\n      tag_187\n      jumpi\n      0x00\n      dup1\n      revert\n    tag_187:\n        /* \"ICO.sol\":4751:4763  State.halted */\n      0x03\n        /* \"ICO.sol\":4742:4750  ICOstate */\n      0x11\n      0x00\n        /* \"ICO.sol\":4742:4763  ICOstate=State.halted */\n      0x0100\n      exp\n      dup2\n      sload\n      dup2\n      0xff\n      mul\n      not\n      and\n      swap1\n      dup4\n      0x03\n      dup2\n      gt\n      iszero\n      tag_189\n      jumpi\n      tag_190\n      tag_144\n      jump\t// in\n    tag_190:\n    tag_189:\n      mul\n      or\n      swap1\n      sstore\n      pop\n        /* \"ICO.sol\":4698:4770  function halt() public onlyManager{... */\n      jump\t// out\n        /* \"ICO.sol\":4857:4969  function changeDepositAddress(address payable newDeposit) onlyManager public {... */\n    tag_97:\n        /* \"ICO.sol\":4666:4673  manager */\n      0x07\n      0x00\n      swap1\n      sload\n      swap1\n      0x0100\n      exp\n      swap1\n      div\n      0xffffffffffffffffffffffffffffffffffffffff\n      and\n        /* \"ICO.sol\":4654:4673  msg.sender==manager */\n      0xffffffffffffffffffffffffffffffffffffffff\n      and\n        /* \"ICO.sol\":4654:4664  msg.sender */\n      caller\n        /* \"ICO.sol\":4654:4673  msg.sender==manager */\n      0xffffffffffffffffffffffffffffffffffffffff\n      and\n      eq\n        /* \"ICO.sol\":4646:4674  require(msg.sender==manager) */\n      tag_192\n      jumpi\n      0x00\n      dup1\n      revert\n    tag_192:\n        /* \"ICO.sol\":4952:4962  newDeposit */\n      dup1\n        /* \"ICO.sol\":4944:4951  deposit */\n      0x08\n      0x00\n        /* \"ICO.sol\":4944:4962  deposit=newDeposit */\n      0x0100\n      exp\n      dup2\n      sload\n      dup2\n      0xffffffffffffffffffffffffffffffffffffffff\n      mul\n      not\n      and\n      swap1\n      dup4\n      0xffffffffffffffffffffffffffffffffffffffff\n      and\n      mul\n      or\n      swap1\n      sstore\n      pop\n        /* \"ICO.sol\":4857:4969  function changeDepositAddress(address payable newDeposit) onlyManager public {... */\n      pop\n      jump\t// out\n        /* \"ICO.sol\":2146:2271  function balanceOf(address tokenOwner) public view override returns (uint tokens){... */\n    tag_101:\n        /* \"ICO.sol\":2215:2226  uint tokens */\n      0x00\n        /* \"ICO.sol\":2244:2252  balances */\n      0x04\n        /* \"ICO.sol\":2244:2264  balances[tokenOwner] */\n      0x00\n        /* \"ICO.sol\":2253:2263  tokenOwner */\n      dup4\n        /* \"ICO.sol\":2244:2264  balances[tokenOwner] */\n      0xffffffffffffffffffffffffffffffffffffffff\n      and\n      0xffffffffffffffffffffffffffffffffffffffff\n      and\n      dup2\n      mstore\n      0x20\n      add\n      swap1\n      dup2\n      mstore\n      0x20\n      add\n      0x00\n      keccak256\n      sload\n        /* \"ICO.sol\":2237:2264  return balances[tokenOwner] */\n      swap1\n      pop\n        /* \"ICO.sol\":2146:2271  function balanceOf(address tokenOwner) public view override returns (uint tokens){... */\n      swap2\n      swap1\n      pop\n      jump\t// out\n        /* \"ICO.sol\":1973:1998  string public decimal=\"0\" */\n    tag_105:\n      0x06\n      dup1\n      sload\n      tag_195\n      swap1\n      tag_196\n      jump\t// in\n    tag_195:\n      dup1\n      0x1f\n      add\n      0x20\n      dup1\n      swap2\n      div\n      mul\n      0x20\n      add\n      mload(0x40)\n      swap1\n      dup2\n      add\n      0x40\n      mstore\n      dup1\n      swap3\n      swap2\n      swap1\n      dup2\n      dup2\n      mstore\n      0x20\n      add\n      dup3\n      dup1\n      sload\n      tag_197\n      swap1\n      tag_196\n      jump\t// in\n    tag_197:\n      dup1\n      iszero\n      tag_198\n      jumpi\n      dup1\n      0x1f\n      lt\n      tag_199\n      jumpi\n      0x0100\n      dup1\n      dup4\n      sload\n      div\n      mul\n      dup4\n      mstore\n      swap2\n      0x20\n      add\n      swap2\n      jump(tag_198)\n    tag_199:\n      dup3\n      add\n      swap2\n      swap1\n      0x00\n      mstore\n      keccak256(0x00, 0x20)\n      swap1\n    tag_200:\n      dup2\n      sload\n      dup2\n      mstore\n      swap1\n      0x01\n      add\n      swap1\n      0x20\n      add\n      dup1\n      dup4\n      gt\n      tag_200\n      jumpi\n      dup3\n      swap1\n      sub\n      0x1f\n      and\n      dup3\n      add\n      swap2\n    tag_198:\n      pop\n      pop\n      pop\n      pop\n      pop\n      dup2\n      jump\t// out\n        /* \"ICO.sol\":4065:4099  uint public tokenPrice = 0.1 ether */\n    tag_110:\n      sload(0x0b)\n      dup2\n      jump\t// out\n        /* \"ICO.sol\":6433:6802  function transfer(address to,uint tokens) public override returns(bool success){... */\n    tag_115:\n        /* \"ICO.sol\":6499:6511  bool success */\n      0x00\n        /* \"ICO.sol\":6579:6589  getState() */\n      tag_202\n        /* \"ICO.sol\":6579:6587  getState */\n      tag_46\n        /* \"ICO.sol\":6579:6589  getState() */\n      jump\t// in\n    tag_202:\n        /* \"ICO.sol\":6570:6578  ICOstate */\n      0x11\n      0x00\n        /* \"ICO.sol\":6570:6589  ICOstate=getState() */\n      0x0100\n      exp\n      dup2\n      sload\n      dup2\n      0xff\n      mul\n      not\n      and\n      swap1\n      dup4\n      0x03\n      dup2\n      gt\n      iszero\n      tag_203\n      jumpi\n      tag_204\n      tag_144\n      jump\t// in\n    tag_204:\n    tag_203:\n      mul\n      or\n      swap1\n      sstore\n      pop\n        /* \"ICO.sol\":6613:6627  State.afterEnd */\n      0x02\n        /* \"ICO.sol\":6603:6627  ICOstate==State.afterEnd */\n      0x03\n      dup2\n      gt\n      iszero\n      tag_205\n      jumpi\n      tag_206\n      tag_144\n      jump\t// in\n    tag_206:\n    tag_205:\n        /* \"ICO.sol\":6603:6611  ICOstate */\n      0x11\n      0x00\n      swap1\n      sload\n      swap1\n      0x0100\n      exp\n      swap1\n      div\n      0xff\n      and\n        /* \"ICO.sol\":6603:6627  ICOstate==State.afterEnd */\n      0x03\n      dup2\n      gt\n      iszero\n      tag_207\n      jumpi\n      tag_208\n      tag_144\n      jump\t// in\n    tag_208:\n    tag_207:\n      eq\n        /* \"ICO.sol\":6595:6628  require(ICOstate==State.afterEnd) */\n      tag_209\n      jumpi\n      0x00\n      dup1\n      revert\n    tag_209:\n        /* \"ICO.sol\":6659:6673  tokenTradeTime */\n      sload(0x0c)\n        /* \"ICO.sol\":6642:6657  block.timestamp */\n      timestamp\n        /* \"ICO.sol\":6642:6673  block.timestamp>=tokenTradeTime */\n      lt\n      iszero\n        /* \"ICO.sol\":6634:6674  require(block.timestamp>=tokenTradeTime) */\n      tag_210\n      jumpi\n      0x00\n      dup1\n      revert\n    tag_210:\n        /* \"ICO.sol\":6757:6782  super.transfer(to,tokens) */\n      tag_211\n        /* \"ICO.sol\":6772:6774  to */\n      dup4\n        /* \"ICO.sol\":6775:6781  tokens */\n      dup4\n        /* \"ICO.sol\":6757:6771  super.transfer */\n      tag_212\n        /* \"ICO.sol\":6757:6782  super.transfer(to,tokens) */\n      jump\t// in\n    tag_211:\n      pop\n        /* \"ICO.sol\":6795:6799  true */\n      0x01\n        /* \"ICO.sol\":6788:6799  return true */\n      swap1\n      pop\n        /* \"ICO.sol\":6433:6802  function transfer(address to,uint tokens) public override returns(bool success){... */\n      swap3\n      swap2\n      pop\n      pop\n      jump\t// out\n        /* \"ICO.sol\":4105:4145  uint public tokenTradeTime = icoEnd+3600 */\n    tag_119:\n      sload(0x0c)\n      dup2\n      jump\t// out\n        /* \"ICO.sol\":4300:4324  uint public raisedAmount */\n    tag_123:\n      sload(0x10)\n      dup2\n      jump\t// out\n        /* \"ICO.sol\":3917:3947  address payable public deposit */\n    tag_127:\n      0x08\n      0x00\n      swap1\n      sload\n      swap1\n      0x0100\n      exp\n      swap1\n      div\n      0xffffffffffffffffffffffffffffffffffffffff\n      and\n      dup2\n      jump\t// out\n        /* \"ICO.sol\":3227:3379  function allowance(address tokenOwner,address spender) public view override returns(uint noOftokens){... */\n    tag_134:\n        /* \"ICO.sol\":3311:3326  uint noOftokens */\n      0x00\n        /* \"ICO.sol\":3344:3351  allowed */\n      0x05\n        /* \"ICO.sol\":3344:3363  allowed[tokenOwner] */\n      0x00\n        /* \"ICO.sol\":3352:3362  tokenOwner */\n      dup5\n        /* \"ICO.sol\":3344:3363  allowed[tokenOwner] */\n      0xffffffffffffffffffffffffffffffffffffffff\n      and\n      0xffffffffffffffffffffffffffffffffffffffff\n      and\n      dup2\n      mstore\n      0x20\n      add\n      swap1\n      dup2\n      mstore\n      0x20\n      add\n      0x00\n      keccak256\n        /* \"ICO.sol\":3344:3372  allowed[tokenOwner][spender] */\n      0x00\n        /* \"ICO.sol\":3364:3371  spender */\n      dup4\n        /* \"ICO.sol\":3344:3372  allowed[tokenOwner][spender] */\n      0xffffffffffffffffffffffffffffffffffffffff\n      and\n      0xffffffffffffffffffffffffffffffffffffffff\n      and\n      dup2\n      mstore\n      0x20\n      add\n      swap1\n      dup2\n      mstore\n      0x20\n      add\n      0x00\n      keccak256\n      sload\n        /* \"ICO.sol\":3337:3372  return allowed[tokenOwner][spender] */\n      swap1\n      pop\n        /* \"ICO.sol\":3227:3379  function allowance(address tokenOwner,address spender) public view override returns(uint noOftokens){... */\n      swap3\n      swap2\n      pop\n      pop\n      jump\t// out\n        /* \"ICO.sol\":5353:6096  function invest() public payable returns (bool success){... */\n    tag_137:\n        /* \"ICO.sol\":5395:5407  bool success */\n      0x00\n        /* \"ICO.sol\":5451:5461  getState() */\n      tag_215\n        /* \"ICO.sol\":5451:5459  getState */\n      tag_46\n        /* \"ICO.sol\":5451:5461  getState() */\n      jump\t// in\n    tag_215:\n        /* \"ICO.sol\":5442:5450  ICOstate */\n      0x11\n      0x00\n        /* \"ICO.sol\":5442:5461  ICOstate=getState() */\n      0x0100\n      exp\n      dup2\n      sload\n      dup2\n      0xff\n      mul\n      not\n      and\n      swap1\n      dup4\n      0x03\n      dup2\n      gt\n      iszero\n      tag_216\n      jumpi\n      tag_217\n      tag_144\n      jump\t// in\n    tag_217:\n    tag_216:\n      mul\n      or\n      swap1\n      sstore\n      pop\n        /* \"ICO.sol\":5485:5498  State.running */\n      0x01\n        /* \"ICO.sol\":5475:5498  ICOstate==State.running */\n      0x03\n      dup2\n      gt\n      iszero\n      tag_218\n      jumpi\n      tag_219\n      tag_144\n      jump\t// in\n    tag_219:\n    tag_218:\n        /* \"ICO.sol\":5475:5483  ICOstate */\n      0x11\n      0x00\n      swap1\n      sload\n      swap1\n      0x0100\n      exp\n      swap1\n      div\n      0xff\n      and\n        /* \"ICO.sol\":5475:5498  ICOstate==State.running */\n      0x03\n      dup2\n      gt\n      iszero\n      tag_220\n      jumpi\n      tag_221\n      tag_144\n      jump\t// in\n    tag_221:\n    tag_220:\n      eq\n        /* \"ICO.sol\":5467:5499  require(ICOstate==State.running) */\n      tag_222\n      jumpi\n      0x00\n      dup1\n      revert\n    tag_222:\n        /* \"ICO.sol\":5578:5586  minLimit */\n      sload(0x0d)\n        /* \"ICO.sol\":5567:5576  msg.value */\n      callvalue\n        /* \"ICO.sol\":5567:5586  msg.value>=minLimit */\n      lt\n      iszero\n        /* \"ICO.sol\":5567:5609  msg.value>=minLimit && msg.value<=maxLimit */\n      dup1\n      iszero\n      tag_223\n      jumpi\n      pop\n        /* \"ICO.sol\":5601:5609  maxLimit */\n      sload(0x0e)\n        /* \"ICO.sol\":5590:5599  msg.value */\n      callvalue\n        /* \"ICO.sol\":5590:5609  msg.value<=maxLimit */\n      gt\n      iszero\n        /* \"ICO.sol\":5567:5609  msg.value>=minLimit && msg.value<=maxLimit */\n    tag_223:\n        /* \"ICO.sol\":5559:5610  require(msg.value>=minLimit && msg.value<=maxLimit) */\n      tag_224\n      jumpi\n      0x00\n      dup1\n      revert\n    tag_224:\n        /* \"ICO.sol\":5692:5701  msg.value */\n      callvalue\n        /* \"ICO.sol\":5678:5690  raisedAmount */\n      0x10\n      0x00\n        /* \"ICO.sol\":5678:5701  raisedAmount+=msg.value */\n      dup3\n      dup3\n      sload\n      tag_225\n      swap2\n      swap1\n      tag_226\n      jump\t// in\n    tag_225:\n      swap3\n      pop\n      pop\n      dup2\n      swap1\n      sstore\n      pop\n        /* \"ICO.sol\":5729:5732  cap */\n      sload(0x0f)\n        /* \"ICO.sol\":5715:5727  raisedAmount */\n      sload(0x10)\n        /* \"ICO.sol\":5715:5732  raisedAmount<=cap */\n      gt\n      iszero\n        /* \"ICO.sol\":5707:5733  require(raisedAmount<=cap) */\n      tag_227\n      jumpi\n      0x00\n      dup1\n      revert\n    tag_227:\n        /* \"ICO.sol\":5829:5840  uint tokens */\n      0x00\n        /* \"ICO.sol\":5853:5863  tokenPrice */\n      sload(0x0b)\n        /* \"ICO.sol\":5843:5852  msg.value */\n      callvalue\n        /* \"ICO.sol\":5843:5863  msg.value/tokenPrice */\n      tag_228\n      swap2\n      swap1\n      tag_229\n      jump\t// in\n    tag_228:\n        /* \"ICO.sol\":5829:5863  uint tokens = msg.value/tokenPrice */\n      swap1\n      pop\n        /* \"ICO.sol\":5948:5954  tokens */\n      dup1\n        /* \"ICO.sol\":5926:5934  balances */\n      0x04\n        /* \"ICO.sol\":5926:5946  balances[msg.sender] */\n      0x00\n        /* \"ICO.sol\":5935:5945  msg.sender */\n      caller\n        /* \"ICO.sol\":5926:5946  balances[msg.sender] */\n      0xffffffffffffffffffffffffffffffffffffffff\n      and\n      0xffffffffffffffffffffffffffffffffffffffff\n      and\n      dup2\n      mstore\n      0x20\n      add\n      swap1\n      dup2\n      mstore\n      0x20\n      add\n      0x00\n      keccak256\n      0x00\n        /* \"ICO.sol\":5926:5954  balances[msg.sender]+=tokens */\n      dup3\n      dup3\n      sload\n      tag_230\n      swap2\n      swap1\n      tag_226\n      jump\t// in\n    tag_230:\n      swap3\n      pop\n      pop\n      dup2\n      swap1\n      sstore\n      pop\n        /* \"ICO.sol\":5979:5985  tokens */\n      dup1\n        /* \"ICO.sol\":5960:5968  balances */\n      0x04\n        /* \"ICO.sol\":5960:5977  balances[founder] */\n      0x00\n        /* \"ICO.sol\":5969:5976  founder */\n      dup1\n      0x00\n      swap1\n      sload\n      swap1\n      0x0100\n      exp\n      swap1\n      div\n      0xffffffffffffffffffffffffffffffffffffffff\n      and\n        /* \"ICO.sol\":5960:5977  balances[founder] */\n      0xffffffffffffffffffffffffffffffffffffffff\n      and\n      0xffffffffffffffffffffffffffffffffffffffff\n      and\n      dup2\n      mstore\n      0x20\n      add\n      swap1\n      dup2\n      mstore\n      0x20\n      add\n      0x00\n      keccak256\n      0x00\n        /* \"ICO.sol\":5960:5985  balances[founder]-=tokens */\n      dup3\n      dup3\n      sload\n      tag_231\n      swap2\n      swap1\n      tag_232\n      jump\t// in\n    tag_231:\n      swap3\n      pop\n      pop\n      dup2\n      swap1\n      sstore\n      pop\n        /* \"ICO.sol\":6045:6052  deposit */\n      0x08\n      0x00\n      swap1\n      sload\n      swap1\n      0x0100\n      exp\n      swap1\n      div\n      0xffffffffffffffffffffffffffffffffffffffff\n      and\n        /* \"ICO.sol\":6045:6061  deposit.transfer */\n      0xffffffffffffffffffffffffffffffffffffffff\n      and\n        /* \"ICO.sol\":6045:6072  deposit.transfer(msg.value) */\n      0x08fc\n        /* \"ICO.sol\":6062:6071  msg.value */\n      callvalue\n        /* \"ICO.sol\":6045:6072  deposit.transfer(msg.value) */\n      swap1\n      dup2\n      iszero\n      mul\n      swap1\n      mload(0x40)\n      0x00\n      mload(0x40)\n      dup1\n      dup4\n      sub\n      dup2\n      dup6\n      dup9\n      dup9\n      call\n      swap4\n      pop\n      pop\n      pop\n      pop\n      iszero\n      dup1\n      iszero\n      tag_234\n      jumpi\n      returndatasize\n      0x00\n      dup1\n      returndatacopy\n      revert(0x00, returndatasize)\n    tag_234:\n      pop\n        /* \"ICO.sol\":6085:6089  true */\n      0x01\n        /* \"ICO.sol\":6078:6089  return true */\n      swap2\n      pop\n      pop\n        /* \"ICO.sol\":5353:6096  function invest() public payable returns (bool success){... */\n      swap1\n      jump\t// out\n        /* \"ICO.sol\":3475:3810  function transferFrom(address from,address to,uint tokens) public virtual override returns(bool success){... */\n    tag_174:\n        /* \"ICO.sol\":3566:3578  bool success */\n      0x00\n        /* \"ICO.sol\":3616:3622  tokens */\n      dup2\n        /* \"ICO.sol\":3597:3604  allowed */\n      0x05\n        /* \"ICO.sol\":3597:3610  allowed[from] */\n      0x00\n        /* \"ICO.sol\":3605:3609  from */\n      dup7\n        /* \"ICO.sol\":3597:3610  allowed[from] */\n      0xffffffffffffffffffffffffffffffffffffffff\n      and\n      0xffffffffffffffffffffffffffffffffffffffff\n      and\n      dup2\n      mstore\n      0x20\n      add\n      swap1\n      dup2\n      mstore\n      0x20\n      add\n      0x00\n      keccak256\n        /* \"ICO.sol\":3597:3614  allowed[from][to] */\n      0x00\n        /* \"ICO.sol\":3611:3613  to */\n      dup6\n        /* \"ICO.sol\":3597:3614  allowed[from][to] */\n      0xffffffffffffffffffffffffffffffffffffffff\n      and\n      0xffffffffffffffffffffffffffffffffffffffff\n      and\n      dup2\n      mstore\n      0x20\n      add\n      swap1\n      dup2\n      mstore\n      0x20\n      add\n      0x00\n      keccak256\n      sload\n        /* \"ICO.sol\":3597:3622  allowed[from][to]>=tokens */\n      lt\n      iszero\n        /* \"ICO.sol\":3589:3623  require(allowed[from][to]>=tokens) */\n      tag_236\n      jumpi\n      0x00\n      dup1\n      revert\n    tag_236:\n        /* \"ICO.sol\":3688:3694  tokens */\n      dup2\n        /* \"ICO.sol\":3672:3680  balances */\n      0x04\n        /* \"ICO.sol\":3672:3686  balances[from] */\n      0x00\n        /* \"ICO.sol\":3681:3685  from */\n      dup7\n        /* \"ICO.sol\":3672:3686  balances[from] */\n      0xffffffffffffffffffffffffffffffffffffffff\n      and\n      0xffffffffffffffffffffffffffffffffffffffff\n      and\n      dup2\n      mstore\n      0x20\n      add\n      swap1\n      dup2\n      mstore\n      0x20\n      add\n      0x00\n      keccak256\n      sload\n        /* \"ICO.sol\":3672:3694  balances[from]>=tokens */\n      lt\n      iszero\n        /* \"ICO.sol\":3664:3718  require(balances[from]>=tokens,\"Insufficient Balance\") */\n      tag_237\n      jumpi\n      mload(0x40)\n      0x08c379a000000000000000000000000000000000000000000000000000000000\n      dup2\n      mstore\n      0x04\n      add\n      tag_238\n      swap1\n      tag_239\n      jump\t// in\n    tag_238:\n      mload(0x40)\n      dup1\n      swap2\n      sub\n      swap1\n      revert\n    tag_237:\n        /* \"ICO.sol\":3742:3748  tokens */\n      dup2\n        /* \"ICO.sol\":3728:3736  balances */\n      0x04\n        /* \"ICO.sol\":3728:3740  balances[to] */\n      0x00\n        /* \"ICO.sol\":3737:3739  to */\n      dup6\n        /* \"ICO.sol\":3728:3740  balances[to] */\n      0xffffffffffffffffffffffffffffffffffffffff\n      and\n      0xffffffffffffffffffffffffffffffffffffffff\n      and\n      dup2\n      mstore\n      0x20\n      add\n      swap1\n      dup2\n      mstore\n      0x20\n      add\n      0x00\n      keccak256\n      0x00\n        /* \"ICO.sol\":3728:3748  balances[to]+=tokens */\n      dup3\n      dup3\n      sload\n      tag_240\n      swap2\n      swap1\n      tag_226\n      jump\t// in\n    tag_240:\n      swap3\n      pop\n      pop\n      dup2\n      swap1\n      sstore\n      pop\n        /* \"ICO.sol\":3775:3781  tokens */\n      dup2\n        /* \"ICO.sol\":3759:3767  balances */\n      0x04\n        /* \"ICO.sol\":3759:3773  balances[from] */\n      0x00\n        /* \"ICO.sol\":3768:3772  from */\n      dup7\n        /* \"ICO.sol\":3759:3773  balances[from] */\n      0xffffffffffffffffffffffffffffffffffffffff\n      and\n      0xffffffffffffffffffffffffffffffffffffffff\n      and\n      dup2\n      mstore\n      0x20\n      add\n      swap1\n      dup2\n      mstore\n      0x20\n      add\n      0x00\n      keccak256\n      0x00\n        /* \"ICO.sol\":3759:3781  balances[from]-=tokens */\n      dup3\n      dup3\n      sload\n      tag_241\n      swap2\n      swap1\n      tag_232\n      jump\t// in\n    tag_241:\n      swap3\n      pop\n      pop\n      dup2\n      swap1\n      sstore\n      pop\n        /* \"ICO.sol\":3799:3803  true */\n      0x01\n        /* \"ICO.sol\":3792:3803  return true */\n      swap1\n      pop\n        /* \"ICO.sol\":3475:3810  function transferFrom(address from,address to,uint tokens) public virtual override returns(bool success){... */\n      swap4\n      swap3\n      pop\n      pop\n      pop\n      jump\t// out\n        /* \"ICO.sol\":2353:2741  function transfer(address to,uint tokens) public virtual override returns (bool success){... */\n    tag_212:\n        /* \"ICO.sol\":2428:2440  bool success */\n      0x00\n        /* \"ICO.sol\":2482:2488  tokens */\n      dup2\n        /* \"ICO.sol\":2460:2468  balances */\n      0x04\n        /* \"ICO.sol\":2460:2480  balances[msg.sender] */\n      0x00\n        /* \"ICO.sol\":2469:2479  msg.sender */\n      caller\n        /* \"ICO.sol\":2460:2480  balances[msg.sender] */\n      0xffffffffffffffffffffffffffffffffffffffff\n      and\n      0xffffffffffffffffffffffffffffffffffffffff\n      and\n      dup2\n      mstore\n      0x20\n      add\n      swap1\n      dup2\n      mstore\n      0x20\n      add\n      0x00\n      keccak256\n      sload\n        /* \"ICO.sol\":2460:2488  balances[msg.sender]>=tokens */\n      lt\n      iszero\n        /* \"ICO.sol\":2452:2512  require(balances[msg.sender]>=tokens,\"Insufficient balance\") */\n      tag_243\n      jumpi\n      mload(0x40)\n      0x08c379a000000000000000000000000000000000000000000000000000000000\n      dup2\n      mstore\n      0x04\n      add\n      tag_244\n      swap1\n      tag_149\n      jump\t// in\n    tag_244:\n      mload(0x40)\n      dup1\n      swap2\n      sub\n      swap1\n      revert\n    tag_243:\n        /* \"ICO.sol\":2536:2542  tokens */\n      dup2\n        /* \"ICO.sol\":2522:2530  balances */\n      0x04\n        /* \"ICO.sol\":2522:2534  balances[to] */\n      0x00\n        /* \"ICO.sol\":2531:2533  to */\n      dup6\n        /* \"ICO.sol\":2522:2534  balances[to] */\n      0xffffffffffffffffffffffffffffffffffffffff\n      and\n      0xffffffffffffffffffffffffffffffffffffffff\n      and\n      dup2\n      mstore\n      0x20\n      add\n      swap1\n      dup2\n      mstore\n      0x20\n      add\n      0x00\n      keccak256\n      0x00\n        /* \"ICO.sol\":2522:2542  balances[to]+=tokens */\n      dup3\n      dup3\n      sload\n      tag_245\n      swap2\n      swap1\n      tag_226\n      jump\t// in\n    tag_245:\n      swap3\n      pop\n      pop\n      dup2\n      swap1\n      sstore\n      pop\n        /* \"ICO.sol\":2610:2616  tokens */\n      dup2\n        /* \"ICO.sol\":2588:2596  balances */\n      0x04\n        /* \"ICO.sol\":2588:2608  balances[msg.sender] */\n      0x00\n        /* \"ICO.sol\":2597:2607  msg.sender */\n      caller\n        /* \"ICO.sol\":2588:2608  balances[msg.sender] */\n      0xffffffffffffffffffffffffffffffffffffffff\n      and\n      0xffffffffffffffffffffffffffffffffffffffff\n      and\n      dup2\n      mstore\n      0x20\n      add\n      swap1\n      dup2\n      mstore\n      0x20\n      add\n      0x00\n      keccak256\n      0x00\n        /* \"ICO.sol\":2588:2616  balances[msg.sender]-=tokens */\n      dup3\n      dup3\n      sload\n      tag_246\n      swap2\n      swap1\n      tag_232\n      jump\t// in\n    tag_246:\n      swap3\n      pop\n      pop\n      dup2\n      swap1\n      sstore\n      pop\n        /* \"ICO.sol\":2703:2705  to */\n      dup3\n        /* \"ICO.sol\":2683:2713  Transfer(msg.sender,to,tokens) */\n      0xffffffffffffffffffffffffffffffffffffffff\n      and\n        /* \"ICO.sol\":2692:2702  msg.sender */\n      caller\n        /* \"ICO.sol\":2683:2713  Transfer(msg.sender,to,tokens) */\n      0xffffffffffffffffffffffffffffffffffffffff\n      and\n      0xddf252ad1be2c89b69c2b068fc378daa952ba7f163c4a11628f55a4df523b3ef\n        /* \"ICO.sol\":2706:2712  tokens */\n      dup5\n        /* \"ICO.sol\":2683:2713  Transfer(msg.sender,to,tokens) */\n      mload(0x40)\n      tag_247\n      swap2\n      swap1\n      tag_43\n      jump\t// in\n    tag_247:\n      mload(0x40)\n      dup1\n      swap2\n      sub\n      swap1\n      log3\n        /* \"ICO.sol\":2730:2734  true */\n      0x01\n        /* \"ICO.sol\":2723:2734  return true */\n      swap1\n      pop\n        /* \"ICO.sol\":2353:2741  function transfer(address to,uint tokens) public virtual override returns (bool success){... */\n      swap3\n      swap2\n      pop\n      pop\n      jump\t// out\n        /* \"#utility.yul\":7:146   */\n    tag_249:\n        /* \"#utility.yul\":53:58   */\n      0x00\n        /* \"#utility.yul\":91:97   */\n      dup2\n        /* \"#utility.yul\":78:98   */\n      calldataload\n        /* \"#utility.yul\":69:98   */\n      swap1\n      pop\n        /* \"#utility.yul\":107:140   */\n      tag_251\n        /* \"#utility.yul\":134:139   */\n      dup2\n        /* \"#utility.yul\":107:140   */\n      tag_252\n      jump\t// in\n    tag_251:\n        /* \"#utility.yul\":7:146   */\n      swap3\n      swap2\n      pop\n      pop\n      jump\t// out\n        /* \"#utility.yul\":152:307   */\n    tag_253:\n        /* \"#utility.yul\":206:211   */\n      0x00\n        /* \"#utility.yul\":244:250   */\n      dup2\n        /* \"#utility.yul\":231:251   */\n      calldataload\n        /* \"#utility.yul\":222:251   */\n      swap1\n      pop\n        /* \"#utility.yul\":260:301   */\n      tag_255\n        /* \"#utility.yul\":295:300   */\n      dup2\n        /* \"#utility.yul\":260:301   */\n      tag_256\n      jump\t// in\n    tag_255:\n        /* \"#utility.yul\":152:307   */\n      swap3\n      swap2\n      pop\n      pop\n      jump\t// out\n        /* \"#utility.yul\":313:452   */\n    tag_257:\n        /* \"#utility.yul\":359:364   */\n      0x00\n        /* \"#utility.yul\":397:403   */\n      dup2\n        /* \"#utility.yul\":384:404   */\n      calldataload\n        /* \"#utility.yul\":375:404   */\n      swap1\n      pop\n        /* \"#utility.yul\":413:446   */\n      tag_259\n        /* \"#utility.yul\":440:445   */\n      dup2\n        /* \"#utility.yul\":413:446   */\n      tag_260\n      jump\t// in\n    tag_259:\n        /* \"#utility.yul\":313:452   */\n      swap3\n      swap2\n      pop\n      pop\n      jump\t// out\n        /* \"#utility.yul\":458:787   */\n    tag_66:\n        /* \"#utility.yul\":517:523   */\n      0x00\n        /* \"#utility.yul\":566:568   */\n      0x20\n        /* \"#utility.yul\":554:563   */\n      dup3\n        /* \"#utility.yul\":545:552   */\n      dup5\n        /* \"#utility.yul\":541:564   */\n      sub\n        /* \"#utility.yul\":537:569   */\n      slt\n        /* \"#utility.yul\":534:653   */\n      iszero\n      tag_262\n      jumpi\n        /* \"#utility.yul\":572:651   */\n      tag_263\n      tag_264\n      jump\t// in\n    tag_263:\n        /* \"#utility.yul\":534:653   */\n    tag_262:\n        /* \"#utility.yul\":692:693   */\n      0x00\n        /* \"#utility.yul\":717:770   */\n      tag_265\n        /* \"#utility.yul\":762:769   */\n      dup5\n        /* \"#utility.yul\":753:759   */\n      dup3\n        /* \"#utility.yul\":742:751   */\n      dup6\n        /* \"#utility.yul\":738:760   */\n      add\n        /* \"#utility.yul\":717:770   */\n      tag_249\n      jump\t// in\n    tag_265:\n        /* \"#utility.yul\":707:770   */\n      swap2\n      pop\n        /* \"#utility.yul\":663:780   */\n      pop\n        /* \"#utility.yul\":458:787   */\n      swap3\n      swap2\n      pop\n      pop\n      jump\t// out\n        /* \"#utility.yul\":793:1138   */\n    tag_96:\n        /* \"#utility.yul\":860:866   */\n      0x00\n        /* \"#utility.yul\":909:911   */\n      0x20\n        /* \"#utility.yul\":897:906   */\n      dup3\n        /* \"#utility.yul\":888:895   */\n      dup5\n        /* \"#utility.yul\":884:907   */\n      sub\n        /* \"#utility.yul\":880:912   */\n      slt\n        /* \"#utility.yul\":877:996   */\n      iszero\n      tag_267\n      jumpi\n        /* \"#utility.yul\":915:994   */\n      tag_268\n      tag_264\n      jump\t// in\n    tag_268:\n        /* \"#utility.yul\":877:996   */\n    tag_267:\n        /* \"#utility.yul\":1035:1036   */\n      0x00\n        /* \"#utility.yul\":1060:1121   */\n      tag_269\n        /* \"#utility.yul\":1113:1120   */\n      dup5\n        /* \"#utility.yul\":1104:1110   */\n      dup3\n        /* \"#utility.yul\":1093:1102   */\n      dup6\n        /* \"#utility.yul\":1089:1111   */\n      add\n        /* \"#utility.yul\":1060:1121   */\n      tag_253\n      jump\t// in\n    tag_269:\n        /* \"#utility.yul\":1050:1121   */\n      swap2\n      pop\n        /* \"#utility.yul\":1006:1131   */\n      pop\n        /* \"#utility.yul\":793:1138   */\n      swap3\n      swap2\n      pop\n      pop\n      jump\t// out\n        /* \"#utility.yul\":1144:1618   */\n    tag_133:\n        /* \"#utility.yul\":1212:1218   */\n      0x00\n        /* \"#utility.yul\":1220:1226   */\n      dup1\n        /* \"#utility.yul\":1269:1271   */\n      0x40\n        /* \"#utility.yul\":1257:1266   */\n      dup4\n        /* \"#utility.yul\":1248:1255   */\n      dup6\n        /* \"#utility.yul\":1244:1267   */\n      sub\n        /* \"#utility.yul\":1240:1272   */\n      slt\n        /* \"#utility.yul\":1237:1356   */\n      iszero\n      tag_271\n      jumpi\n        /* \"#utility.yul\":1275:1354   */\n      tag_272\n      tag_264\n      jump\t// in\n    tag_272:\n        /* \"#utility.yul\":1237:1356   */\n    tag_271:\n        /* \"#utility.yul\":1395:1396   */\n      0x00\n        /* \"#utility.yul\":1420:1473   */\n      tag_273\n        /* \"#utility.yul\":1465:1472   */\n      dup6\n        /* \"#utility.yul\":1456:1462   */\n      dup3\n        /* \"#utility.yul\":1445:1454   */\n      dup7\n        /* \"#utility.yul\":1441:1463   */\n      add\n        /* \"#utility.yul\":1420:1473   */\n      tag_249\n      jump\t// in\n    tag_273:\n        /* \"#utility.yul\":1410:1473   */\n      swap3\n      pop\n        /* \"#utility.yul\":1366:1483   */\n      pop\n        /* \"#utility.yul\":1522:1524   */\n      0x20\n        /* \"#utility.yul\":1548:1601   */\n      tag_274\n        /* \"#utility.yul\":1593:1600   */\n      dup6\n        /* \"#utility.yul\":1584:1590   */\n      dup3\n        /* \"#utility.yul\":1573:1582   */\n      dup7\n        /* \"#utility.yul\":1569:1591   */\n      add\n        /* \"#utility.yul\":1548:1601   */\n      tag_249\n      jump\t// in\n    tag_274:\n        /* \"#utility.yul\":1538:1601   */\n      swap2\n      pop\n        /* \"#utility.yul\":1493:1611   */\n      pop\n        /* \"#utility.yul\":1144:1618   */\n      swap3\n      pop\n      swap3\n      swap1\n      pop\n      jump\t// out\n        /* \"#utility.yul\":1624:2243   */\n    tag_60:\n        /* \"#utility.yul\":1701:1707   */\n      0x00\n        /* \"#utility.yul\":1709:1715   */\n      dup1\n        /* \"#utility.yul\":1717:1723   */\n      0x00\n        /* \"#utility.yul\":1766:1768   */\n      0x60\n        /* \"#utility.yul\":1754:1763   */\n      dup5\n        /* \"#utility.yul\":1745:1752   */\n      dup7\n        /* \"#utility.yul\":1741:1764   */\n      sub\n        /* \"#utility.yul\":1737:1769   */\n      slt\n        /* \"#utility.yul\":1734:1853   */\n      iszero\n      tag_276\n      jumpi\n        /* \"#utility.yul\":1772:1851   */\n      tag_277\n      tag_264\n      jump\t// in\n    tag_277:\n        /* \"#utility.yul\":1734:1853   */\n    tag_276:\n        /* \"#utility.yul\":1892:1893   */\n      0x00\n        /* \"#utility.yul\":1917:1970   */\n      tag_278\n        /* \"#utility.yul\":1962:1969   */\n      dup7\n        /* \"#utility.yul\":1953:1959   */\n      dup3\n        /* \"#utility.yul\":1942:1951   */\n      dup8\n        /* \"#utility.yul\":1938:1960   */\n      add\n        /* \"#utility.yul\":1917:1970   */\n      tag_249\n      jump\t// in\n    tag_278:\n        /* \"#utility.yul\":1907:1970   */\n      swap4\n      pop\n        /* \"#utility.yul\":1863:1980   */\n      pop\n        /* \"#utility.yul\":2019:2021   */\n      0x20\n        /* \"#utility.yul\":2045:2098   */\n      tag_279\n        /* \"#utility.yul\":2090:2097   */\n      dup7\n        /* \"#utility.yul\":2081:2087   */\n      dup3\n        /* \"#utility.yul\":2070:2079   */\n      dup8\n        /* \"#utility.yul\":2066:2088   */\n      add\n        /* \"#utility.yul\":2045:2098   */\n      tag_249\n      jump\t// in\n    tag_279:\n        /* \"#utility.yul\":2035:2098   */\n      swap3\n      pop\n        /* \"#utility.yul\":1990:2108   */\n      pop\n        /* \"#utility.yul\":2147:2149   */\n      0x40\n        /* \"#utility.yul\":2173:2226   */\n      tag_280\n        /* \"#utility.yul\":2218:2225   */\n      dup7\n        /* \"#utility.yul\":2209:2215   */\n      dup3\n        /* \"#utility.yul\":2198:2207   */\n      dup8\n        /* \"#utility.yul\":2194:2216   */\n      add\n        /* \"#utility.yul\":2173:2226   */\n      tag_257\n      jump\t// in\n    tag_280:\n        /* \"#utility.yul\":2163:2226   */\n      swap2\n      pop\n        /* \"#utility.yul\":2118:2236   */\n      pop\n        /* \"#utility.yul\":1624:2243   */\n      swap3\n      pop\n      swap3\n      pop\n      swap3\n      jump\t// out\n        /* \"#utility.yul\":2249:2723   */\n    tag_35:\n        /* \"#utility.yul\":2317:2323   */\n      0x00\n        /* \"#utility.yul\":2325:2331   */\n      dup1\n        /* \"#utility.yul\":2374:2376   */\n      0x40\n        /* \"#utility.yul\":2362:2371   */\n      dup4\n        /* \"#utility.yul\":2353:2360   */\n      dup6\n        /* \"#utility.yul\":2349:2372   */\n      sub\n        /* \"#utility.yul\":2345:2377   */\n      slt\n        /* \"#utility.yul\":2342:2461   */\n      iszero\n      tag_282\n      jumpi\n        /* \"#utility.yul\":2380:2459   */\n      tag_283\n      tag_264\n      jump\t// in\n    tag_283:\n        /* \"#utility.yul\":2342:2461   */\n    tag_282:\n        /* \"#utility.yul\":2500:2501   */\n      0x00\n        /* \"#utility.yul\":2525:2578   */\n      tag_284\n        /* \"#utility.yul\":2570:2577   */\n      dup6\n        /* \"#utility.yul\":2561:2567   */\n      dup3\n        /* \"#utility.yul\":2550:2559   */\n      dup7\n        /* \"#utility.yul\":2546:2568   */\n      add\n        /* \"#utility.yul\":2525:2578   */\n      tag_249\n      jump\t// in\n    tag_284:\n        /* \"#utility.yul\":2515:2578   */\n      swap3\n      pop\n        /* \"#utility.yul\":2471:2588   */\n      pop\n        /* \"#utility.yul\":2627:2629   */\n      0x20\n        /* \"#utility.yul\":2653:2706   */\n      tag_285\n        /* \"#utility.yul\":2698:2705   */\n      dup6\n        /* \"#utility.yul\":2689:2695   */\n      dup3\n        /* \"#utility.yul\":2678:2687   */\n      dup7\n        /* \"#utility.yul\":2674:2696   */\n      add\n        /* \"#utility.yul\":2653:2706   */\n      tag_257\n      jump\t// in\n    tag_285:\n        /* \"#utility.yul\":2643:2706   */\n      swap2\n      pop\n        /* \"#utility.yul\":2598:2716   */\n      pop\n        /* \"#utility.yul\":2249:2723   */\n      swap3\n      pop\n      swap3\n      swap1\n      pop\n      jump\t// out\n        /* \"#utility.yul\":2729:2871   */\n    tag_286:\n        /* \"#utility.yul\":2832:2864   */\n      tag_288\n        /* \"#utility.yul\":2858:2863   */\n      dup2\n        /* \"#utility.yul\":2832:2864   */\n      tag_289\n      jump\t// in\n    tag_288:\n        /* \"#utility.yul\":2827:2830   */\n      dup3\n        /* \"#utility.yul\":2820:2865   */\n      mstore\n        /* \"#utility.yul\":2729:2871   */\n      pop\n      pop\n      jump\t// out\n        /* \"#utility.yul\":2877:2995   */\n    tag_290:\n        /* \"#utility.yul\":2964:2988   */\n      tag_292\n        /* \"#utility.yul\":2982:2987   */\n      dup2\n        /* \"#utility.yul\":2964:2988   */\n      tag_293\n      jump\t// in\n    tag_292:\n        /* \"#utility.yul\":2959:2962   */\n      dup3\n        /* \"#utility.yul\":2952:2989   */\n      mstore\n        /* \"#utility.yul\":2877:2995   */\n      pop\n      pop\n      jump\t// out\n        /* \"#utility.yul\":3001:3110   */\n    tag_294:\n        /* \"#utility.yul\":3082:3103   */\n      tag_296\n        /* \"#utility.yul\":3097:3102   */\n      dup2\n        /* \"#utility.yul\":3082:3103   */\n      tag_297\n      jump\t// in\n    tag_296:\n        /* \"#utility.yul\":3077:3080   */\n      dup3\n        /* \"#utility.yul\":3070:3104   */\n      mstore\n        /* \"#utility.yul\":3001:3110   */\n      pop\n      pop\n      jump\t// out\n        /* \"#utility.yul\":3116:3261   */\n    tag_298:\n        /* \"#utility.yul\":3210:3254   */\n      tag_300\n        /* \"#utility.yul\":3248:3253   */\n      dup2\n        /* \"#utility.yul\":3210:3254   */\n      tag_301\n      jump\t// in\n    tag_300:\n        /* \"#utility.yul\":3205:3208   */\n      dup3\n        /* \"#utility.yul\":3198:3255   */\n      mstore\n        /* \"#utility.yul\":3116:3261   */\n      pop\n      pop\n      jump\t// out\n        /* \"#utility.yul\":3267:3631   */\n    tag_302:\n        /* \"#utility.yul\":3355:3358   */\n      0x00\n        /* \"#utility.yul\":3383:3422   */\n      tag_304\n        /* \"#utility.yul\":3416:3421   */\n      dup3\n        /* \"#utility.yul\":3383:3422   */\n      tag_305\n      jump\t// in\n    tag_304:\n        /* \"#utility.yul\":3438:3509   */\n      tag_306\n        /* \"#utility.yul\":3502:3508   */\n      dup2\n        /* \"#utility.yul\":3497:3500   */\n      dup6\n        /* \"#utility.yul\":3438:3509   */\n      tag_307\n      jump\t// in\n    tag_306:\n        /* \"#utility.yul\":3431:3509   */\n      swap4\n      pop\n        /* \"#utility.yul\":3518:3570   */\n      tag_308\n        /* \"#utility.yul\":3563:3569   */\n      dup2\n        /* \"#utility.yul\":3558:3561   */\n      dup6\n        /* \"#utility.yul\":3551:3555   */\n      0x20\n        /* \"#utility.yul\":3544:3549   */\n      dup7\n        /* \"#utility.yul\":3540:3556   */\n      add\n        /* \"#utility.yul\":3518:3570   */\n      tag_309\n      jump\t// in\n    tag_308:\n        /* \"#utility.yul\":3595:3624   */\n      tag_310\n        /* \"#utility.yul\":3617:3623   */\n      dup2\n        /* \"#utility.yul\":3595:3624   */\n      tag_311\n      jump\t// in\n    tag_310:\n        /* \"#utility.yul\":3590:3593   */\n      dup5\n        /* \"#utility.yul\":3586:3625   */\n      add\n        /* \"#utility.yul\":3579:3625   */\n      swap2\n      pop\n        /* \"#utility.yul\":3359:3631   */\n      pop\n        /* \"#utility.yul\":3267:3631   */\n      swap3\n      swap2\n      pop\n      pop\n      jump\t// out\n        /* \"#utility.yul\":3637:4003   */\n    tag_312:\n        /* \"#utility.yul\":3779:3782   */\n      0x00\n        /* \"#utility.yul\":3800:3867   */\n      tag_314\n        /* \"#utility.yul\":3864:3866   */\n      0x14\n        /* \"#utility.yul\":3859:3862   */\n      dup4\n        /* \"#utility.yul\":3800:3867   */\n      tag_307\n      jump\t// in\n    tag_314:\n        /* \"#utility.yul\":3793:3867   */\n      swap2\n      pop\n        /* \"#utility.yul\":3876:3969   */\n      tag_315\n        /* \"#utility.yul\":3965:3968   */\n      dup3\n        /* \"#utility.yul\":3876:3969   */\n      tag_316\n      jump\t// in\n    tag_315:\n        /* \"#utility.yul\":3994:3996   */\n      0x20\n        /* \"#utility.yul\":3989:3992   */\n      dup3\n        /* \"#utility.yul\":3985:3997   */\n      add\n        /* \"#utility.yul\":3978:3997   */\n      swap1\n      pop\n        /* \"#utility.yul\":3637:4003   */\n      swap2\n      swap1\n      pop\n      jump\t// out\n        /* \"#utility.yul\":4009:4375   */\n    tag_317:\n        /* \"#utility.yul\":4151:4154   */\n      0x00\n        /* \"#utility.yul\":4172:4239   */\n      tag_319\n        /* \"#utility.yul\":4236:4238   */\n      0x14\n        /* \"#utility.yul\":4231:4234   */\n      dup4\n        /* \"#utility.yul\":4172:4239   */\n      tag_307\n      jump\t// in\n    tag_319:\n        /* \"#utility.yul\":4165:4239   */\n      swap2\n      pop\n        /* \"#utility.yul\":4248:4341   */\n      tag_320\n        /* \"#utility.yul\":4337:4340   */\n      dup3\n        /* \"#utility.yul\":4248:4341   */\n      tag_321\n      jump\t// in\n    tag_320:\n        /* \"#utility.yul\":4366:4368   */\n      0x20\n        /* \"#utility.yul\":4361:4364   */\n      dup3\n        /* \"#utility.yul\":4357:4369   */\n      add\n        /* \"#utility.yul\":4350:4369   */\n      swap1\n      pop\n        /* \"#utility.yul\":4009:4375   */\n      swap2\n      swap1\n      pop\n      jump\t// out\n        /* \"#utility.yul\":4381:4499   */\n    tag_322:\n        /* \"#utility.yul\":4468:4492   */\n      tag_324\n        /* \"#utility.yul\":4486:4491   */\n      dup2\n        /* \"#utility.yul\":4468:4492   */\n      tag_325\n      jump\t// in\n    tag_324:\n        /* \"#utility.yul\":4463:4466   */\n      dup3\n        /* \"#utility.yul\":4456:4493   */\n      mstore\n        /* \"#utility.yul\":4381:4499   */\n      pop\n      pop\n      jump\t// out\n        /* \"#utility.yul\":4505:4727   */\n    tag_85:\n        /* \"#utility.yul\":4598:4602   */\n      0x00\n        /* \"#utility.yul\":4636:4638   */\n      0x20\n        /* \"#utility.yul\":4625:4634   */\n      dup3\n        /* \"#utility.yul\":4621:4639   */\n      add\n        /* \"#utility.yul\":4613:4639   */\n      swap1\n      pop\n        /* \"#utility.yul\":4649:4720   */\n      tag_327\n        /* \"#utility.yul\":4717:4718   */\n      0x00\n        /* \"#utility.yul\":4706:4715   */\n      dup4\n        /* \"#utility.yul\":4702:4719   */\n      add\n        /* \"#utility.yul\":4693:4699   */\n      dup5\n        /* \"#utility.yul\":4649:4720   */\n      tag_290\n      jump\t// in\n    tag_327:\n        /* \"#utility.yul\":4505:4727   */\n      swap3\n      swap2\n      pop\n      pop\n      jump\t// out\n        /* \"#utility.yul\":4733:4987   */\n    tag_129:\n        /* \"#utility.yul\":4842:4846   */\n      0x00\n        /* \"#utility.yul\":4880:4882   */\n      0x20\n        /* \"#utility.yul\":4869:4878   */\n      dup3\n        /* \"#utility.yul\":4865:4883   */\n      add\n        /* \"#utility.yul\":4857:4883   */\n      swap1\n      pop\n        /* \"#utility.yul\":4893:4980   */\n      tag_329\n        /* \"#utility.yul\":4977:4978   */\n      0x00\n        /* \"#utility.yul\":4966:4975   */\n      dup4\n        /* \"#utility.yul\":4962:4979   */\n      add\n        /* \"#utility.yul\":4953:4959   */\n      dup5\n        /* \"#utility.yul\":4893:4980   */\n      tag_286\n      jump\t// in\n    tag_329:\n        /* \"#utility.yul\":4733:4987   */\n      swap3\n      swap2\n      pop\n      pop\n      jump\t// out\n        /* \"#utility.yul\":4993:5203   */\n    tag_38:\n        /* \"#utility.yul\":5080:5084   */\n      0x00\n        /* \"#utility.yul\":5118:5120   */\n      0x20\n        /* \"#utility.yul\":5107:5116   */\n      dup3\n        /* \"#utility.yul\":5103:5121   */\n      add\n        /* \"#utility.yul\":5095:5121   */\n      swap1\n      pop\n        /* \"#utility.yul\":5131:5196   */\n      tag_331\n        /* \"#utility.yul\":5193:5194   */\n      0x00\n        /* \"#utility.yul\":5182:5191   */\n      dup4\n        /* \"#utility.yul\":5178:5195   */\n      add\n        /* \"#utility.yul\":5169:5175   */\n      dup5\n        /* \"#utility.yul\":5131:5196   */\n      tag_294\n      jump\t// in\n    tag_331:\n        /* \"#utility.yul\":4993:5203   */\n      swap3\n      swap2\n      pop\n      pop\n      jump\t// out\n        /* \"#utility.yul\":5209:5445   */\n    tag_48:\n        /* \"#utility.yul\":5309:5313   */\n      0x00\n        /* \"#utility.yul\":5347:5349   */\n      0x20\n        /* \"#utility.yul\":5336:5345   */\n      dup3\n        /* \"#utility.yul\":5332:5350   */\n      add\n        /* \"#utility.yul\":5324:5350   */\n      swap1\n      pop\n        /* \"#utility.yul\":5360:5438   */\n      tag_333\n        /* \"#utility.yul\":5435:5436   */\n      0x00\n        /* \"#utility.yul\":5424:5433   */\n      dup4\n        /* \"#utility.yul\":5420:5437   */\n      add\n        /* \"#utility.yul\":5411:5417   */\n      dup5\n        /* \"#utility.yul\":5360:5438   */\n      tag_298\n      jump\t// in\n    tag_333:\n        /* \"#utility.yul\":5209:5445   */\n      swap3\n      swap2\n      pop\n      pop\n      jump\t// out\n        /* \"#utility.yul\":5451:5764   */\n    tag_107:\n        /* \"#utility.yul\":5564:5568   */\n      0x00\n        /* \"#utility.yul\":5602:5604   */\n      0x20\n        /* \"#utility.yul\":5591:5600   */\n      dup3\n        /* \"#utility.yul\":5587:5605   */\n      add\n        /* \"#utility.yul\":5579:5605   */\n      swap1\n      pop\n        /* \"#utility.yul\":5651:5660   */\n      dup2\n        /* \"#utility.yul\":5645:5649   */\n      dup2\n        /* \"#utility.yul\":5641:5661   */\n      sub\n        /* \"#utility.yul\":5637:5638   */\n      0x00\n        /* \"#utility.yul\":5626:5635   */\n      dup4\n        /* \"#utility.yul\":5622:5639   */\n      add\n        /* \"#utility.yul\":5615:5662   */\n      mstore\n        /* \"#utility.yul\":5679:5757   */\n      tag_335\n        /* \"#utility.yul\":5752:5756   */\n      dup2\n        /* \"#utility.yul\":5743:5749   */\n      dup5\n        /* \"#utility.yul\":5679:5757   */\n      tag_302\n      jump\t// in\n    tag_335:\n        /* \"#utility.yul\":5671:5757   */\n      swap1\n      pop\n        /* \"#utility.yul\":5451:5764   */\n      swap3\n      swap2\n      pop\n      pop\n      jump\t// out\n        /* \"#utility.yul\":5770:6189   */\n    tag_149:\n        /* \"#utility.yul\":5936:5940   */\n      0x00\n        /* \"#utility.yul\":5974:5976   */\n      0x20\n        /* \"#utility.yul\":5963:5972   */\n      dup3\n        /* \"#utility.yul\":5959:5977   */\n      add\n        /* \"#utility.yul\":5951:5977   */\n      swap1\n      pop\n        /* \"#utility.yul\":6023:6032   */\n      dup2\n        /* \"#utility.yul\":6017:6021   */\n      dup2\n        /* \"#utility.yul\":6013:6033   */\n      sub\n        /* \"#utility.yul\":6009:6010   */\n      0x00\n        /* \"#utility.yul\":5998:6007   */\n      dup4\n        /* \"#utility.yul\":5994:6011   */\n      add\n        /* \"#utility.yul\":5987:6034   */\n      mstore\n        /* \"#utility.yul\":6051:6182   */\n      tag_337\n        /* \"#utility.yul\":6177:6181   */\n      dup2\n        /* \"#utility.yul\":6051:6182   */\n      tag_312\n      jump\t// in\n    tag_337:\n        /* \"#utility.yul\":6043:6182   */\n      swap1\n      pop\n        /* \"#utility.yul\":5770:6189   */\n      swap2\n      swap1\n      pop\n      jump\t// out\n        /* \"#utility.yul\":6195:6614   */\n    tag_239:\n        /* \"#utility.yul\":6361:6365   */\n      0x00\n        /* \"#utility.yul\":6399:6401   */\n      0x20\n        /* \"#utility.yul\":6388:6397   */\n      dup3\n        /* \"#utility.yul\":6384:6402   */\n      add\n        /* \"#utility.yul\":6376:6402   */\n      swap1\n      pop\n        /* \"#utility.yul\":6448:6457   */\n      dup2\n        /* \"#utility.yul\":6442:6446   */\n      dup2\n        /* \"#utility.yul\":6438:6458   */\n      sub\n        /* \"#utility.yul\":6434:6435   */\n      0x00\n        /* \"#utility.yul\":6423:6432   */\n      dup4\n        /* \"#utility.yul\":6419:6436   */\n      add\n        /* \"#utility.yul\":6412:6459   */\n      mstore\n        /* \"#utility.yul\":6476:6607   */\n      tag_339\n        /* \"#utility.yul\":6602:6606   */\n      dup2\n        /* \"#utility.yul\":6476:6607   */\n      tag_317\n      jump\t// in\n    tag_339:\n        /* \"#utility.yul\":6468:6607   */\n      swap1\n      pop\n        /* \"#utility.yul\":6195:6614   */\n      swap2\n      swap1\n      pop\n      jump\t// out\n        /* \"#utility.yul\":6620:6842   */\n    tag_43:\n        /* \"#utility.yul\":6713:6717   */\n      0x00\n        /* \"#utility.yul\":6751:6753   */\n      0x20\n        /* \"#utility.yul\":6740:6749   */\n      dup3\n        /* \"#utility.yul\":6736:6754   */\n      add\n        /* \"#utility.yul\":6728:6754   */\n      swap1\n      pop\n        /* \"#utility.yul\":6764:6835   */\n      tag_341\n        /* \"#utility.yul\":6832:6833   */\n      0x00\n        /* \"#utility.yul\":6821:6830   */\n      dup4\n        /* \"#utility.yul\":6817:6834   */\n      add\n        /* \"#utility.yul\":6808:6814   */\n      dup5\n        /* \"#utility.yul\":6764:6835   */\n      tag_322\n      jump\t// in\n    tag_341:\n        /* \"#utility.yul\":6620:6842   */\n      swap3\n      swap2\n      pop\n      pop\n      jump\t// out\n        /* \"#utility.yul\":6929:7028   */\n    tag_305:\n        /* \"#utility.yul\":6981:6987   */\n      0x00\n        /* \"#utility.yul\":7015:7020   */\n      dup2\n        /* \"#utility.yul\":7009:7021   */\n      mload\n        /* \"#utility.yul\":6999:7021   */\n      swap1\n      pop\n        /* \"#utility.yul\":6929:7028   */\n      swap2\n      swap1\n      pop\n      jump\t// out\n        /* \"#utility.yul\":7034:7203   */\n    tag_307:\n        /* \"#utility.yul\":7118:7129   */\n      0x00\n        /* \"#utility.yul\":7152:7158   */\n      dup3\n        /* \"#utility.yul\":7147:7150   */\n      dup3\n        /* \"#utility.yul\":7140:7159   */\n      mstore\n        /* \"#utility.yul\":7192:7196   */\n      0x20\n        /* \"#utility.yul\":7187:7190   */\n      dup3\n        /* \"#utility.yul\":7183:7197   */\n      add\n        /* \"#utility.yul\":7168:7197   */\n      swap1\n      pop\n        /* \"#utility.yul\":7034:7203   */\n      swap3\n      swap2\n      pop\n      pop\n      jump\t// out\n        /* \"#utility.yul\":7209:7514   */\n    tag_226:\n        /* \"#utility.yul\":7249:7252   */\n      0x00\n        /* \"#utility.yul\":7268:7288   */\n      tag_347\n        /* \"#utility.yul\":7286:7287   */\n      dup3\n        /* \"#utility.yul\":7268:7288   */\n      tag_325\n      jump\t// in\n    tag_347:\n        /* \"#utility.yul\":7263:7288   */\n      swap2\n      pop\n        /* \"#utility.yul\":7302:7322   */\n      tag_348\n        /* \"#utility.yul\":7320:7321   */\n      dup4\n        /* \"#utility.yul\":7302:7322   */\n      tag_325\n      jump\t// in\n    tag_348:\n        /* \"#utility.yul\":7297:7322   */\n      swap3\n      pop\n        /* \"#utility.yul\":7456:7457   */\n      dup3\n        /* \"#utility.yul\":7388:7454   */\n      0xffffffffffffffffffffffffffffffffffffffffffffffffffffffffffffffff\n        /* \"#utility.yul\":7384:7458   */\n      sub\n        /* \"#utility.yul\":7381:7382   */\n      dup3\n        /* \"#utility.yul\":7378:7459   */\n      gt\n        /* \"#utility.yul\":7375:7482   */\n      iszero\n      tag_349\n      jumpi\n        /* \"#utility.yul\":7462:7480   */\n      tag_350\n      tag_351\n      jump\t// in\n    tag_350:\n        /* \"#utility.yul\":7375:7482   */\n    tag_349:\n        /* \"#utility.yul\":7506:7507   */\n      dup3\n        /* \"#utility.yul\":7503:7504   */\n      dup3\n        /* \"#utility.yul\":7499:7508   */\n      add\n        /* \"#utility.yul\":7492:7508   */\n      swap1\n      pop\n        /* \"#utility.yul\":7209:7514   */\n      swap3\n      swap2\n      pop\n      pop\n      jump\t// out\n        /* \"#utility.yul\":7520:7705   */\n    tag_229:\n        /* \"#utility.yul\":7560:7561   */\n      0x00\n        /* \"#utility.yul\":7577:7597   */\n      tag_353\n        /* \"#utility.yul\":7595:7596   */\n      dup3\n        /* \"#utility.yul\":7577:7597   */\n      tag_325\n      jump\t// in\n    tag_353:\n        /* \"#utility.yul\":7572:7597   */\n      swap2\n      pop\n        /* \"#utility.yul\":7611:7631   */\n      tag_354\n        /* \"#utility.yul\":7629:7630   */\n      dup4\n        /* \"#utility.yul\":7611:7631   */\n      tag_325\n      jump\t// in\n    tag_354:\n        /* \"#utility.yul\":7606:7631   */\n      swap3\n      pop\n        /* \"#utility.yul\":7650:7651   */\n      dup3\n        /* \"#utility.yul\":7640:7675   */\n      tag_355\n      jumpi\n        /* \"#utility.yul\":7655:7673   */\n      tag_356\n      tag_357\n      jump\t// in\n    tag_356:\n        /* \"#utility.yul\":7640:7675   */\n    tag_355:\n        /* \"#utility.yul\":7697:7698   */\n      dup3\n        /* \"#utility.yul\":7694:7695   */\n      dup3\n        /* \"#utility.yul\":7690:7699   */\n      div\n        /* \"#utility.yul\":7685:7699   */\n      swap1\n      pop\n        /* \"#utility.yul\":7520:7705   */\n      swap3\n      swap2\n      pop\n      pop\n      jump\t// out\n        /* \"#utility.yul\":7711:7902   */\n    tag_232:\n        /* \"#utility.yul\":7751:7755   */\n      0x00\n        /* \"#utility.yul\":7771:7791   */\n      tag_359\n        /* \"#utility.yul\":7789:7790   */\n      dup3\n        /* \"#utility.yul\":7771:7791   */\n      tag_325\n      jump\t// in\n    tag_359:\n        /* \"#utility.yul\":7766:7791   */\n      swap2\n      pop\n        /* \"#utility.yul\":7805:7825   */\n      tag_360\n        /* \"#utility.yul\":7823:7824   */\n      dup4\n        /* \"#utility.yul\":7805:7825   */\n      tag_325\n      jump\t// in\n    tag_360:\n        /* \"#utility.yul\":7800:7825   */\n      swap3\n      pop\n        /* \"#utility.yul\":7844:7845   */\n      dup3\n        /* \"#utility.yul\":7841:7842   */\n      dup3\n        /* \"#utility.yul\":7838:7846   */\n      lt\n        /* \"#utility.yul\":7835:7869   */\n      iszero\n      tag_361\n      jumpi\n        /* \"#utility.yul\":7849:7867   */\n      tag_362\n      tag_351\n      jump\t// in\n    tag_362:\n        /* \"#utility.yul\":7835:7869   */\n    tag_361:\n        /* \"#utility.yul\":7894:7895   */\n      dup3\n        /* \"#utility.yul\":7891:7892   */\n      dup3\n        /* \"#utility.yul\":7887:7896   */\n      sub\n        /* \"#utility.yul\":7879:7896   */\n      swap1\n      pop\n        /* \"#utility.yul\":7711:7902   */\n      swap3\n      swap2\n      pop\n      pop\n      jump\t// out\n        /* \"#utility.yul\":7908:8004   */\n    tag_293:\n        /* \"#utility.yul\":7945:7952   */\n      0x00\n        /* \"#utility.yul\":7974:7998   */\n      tag_364\n        /* \"#utility.yul\":7992:7997   */\n      dup3\n        /* \"#utility.yul\":7974:7998   */\n      tag_365\n      jump\t// in\n    tag_364:\n        /* \"#utility.yul\":7963:7998   */\n      swap1\n      pop\n        /* \"#utility.yul\":7908:8004   */\n      swap2\n      swap1\n      pop\n      jump\t// out\n        /* \"#utility.yul\":8010:8114   */\n    tag_289:\n        /* \"#utility.yul\":8055:8062   */\n      0x00\n        /* \"#utility.yul\":8084:8108   */\n      tag_367\n        /* \"#utility.yul\":8102:8107   */\n      dup3\n        /* \"#utility.yul\":8084:8108   */\n      tag_365\n      jump\t// in\n    tag_367:\n        /* \"#utility.yul\":8073:8108   */\n      swap1\n      pop\n        /* \"#utility.yul\":8010:8114   */\n      swap2\n      swap1\n      pop\n      jump\t// out\n        /* \"#utility.yul\":8120:8210   */\n    tag_297:\n        /* \"#utility.yul\":8154:8161   */\n      0x00\n        /* \"#utility.yul\":8197:8202   */\n      dup2\n        /* \"#utility.yul\":8190:8203   */\n      iszero\n        /* \"#utility.yul\":8183:8204   */\n      iszero\n        /* \"#utility.yul\":8172:8204   */\n      swap1\n      pop\n        /* \"#utility.yul\":8120:8210   */\n      swap2\n      swap1\n      pop\n      jump\t// out\n        /* \"#utility.yul\":8216:8345   */\n    tag_369:\n        /* \"#utility.yul\":8262:8269   */\n      0x00\n        /* \"#utility.yul\":8291:8296   */\n      dup2\n        /* \"#utility.yul\":8280:8296   */\n      swap1\n      pop\n        /* \"#utility.yul\":8297:8339   */\n      tag_371\n        /* \"#utility.yul\":8333:8338   */\n      dup3\n        /* \"#utility.yul\":8297:8339   */\n      tag_372\n      jump\t// in\n    tag_371:\n        /* \"#utility.yul\":8216:8345   */\n      swap2\n      swap1\n      pop\n      jump\t// out\n        /* \"#utility.yul\":8351:8477   */\n    tag_365:\n        /* \"#utility.yul\":8388:8395   */\n      0x00\n        /* \"#utility.yul\":8428:8470   */\n      0xffffffffffffffffffffffffffffffffffffffff\n        /* \"#utility.yul\":8421:8426   */\n      dup3\n        /* \"#utility.yul\":8417:8471   */\n      and\n        /* \"#utility.yul\":8406:8471   */\n      swap1\n      pop\n        /* \"#utility.yul\":8351:8477   */\n      swap2\n      swap1\n      pop\n      jump\t// out\n        /* \"#utility.yul\":8483:8560   */\n    tag_325:\n        /* \"#utility.yul\":8520:8527   */\n      0x00\n        /* \"#utility.yul\":8549:8554   */\n      dup2\n        /* \"#utility.yul\":8538:8554   */\n      swap1\n      pop\n        /* \"#utility.yul\":8483:8560   */\n      swap2\n      swap1\n      pop\n      jump\t// out\n        /* \"#utility.yul\":8566:8695   */\n    tag_301:\n        /* \"#utility.yul\":8623:8632   */\n      0x00\n        /* \"#utility.yul\":8656:8689   */\n      tag_376\n        /* \"#utility.yul\":8683:8688   */\n      dup3\n        /* \"#utility.yul\":8656:8689   */\n      tag_369\n      jump\t// in\n    tag_376:\n        /* \"#utility.yul\":8643:8689   */\n      swap1\n      pop\n        /* \"#utility.yul\":8566:8695   */\n      swap2\n      swap1\n      pop\n      jump\t// out\n        /* \"#utility.yul\":8701:9008   */\n    tag_309:\n        /* \"#utility.yul\":8769:8770   */\n      0x00\n        /* \"#utility.yul\":8779:8892   */\n    tag_378:\n        /* \"#utility.yul\":8793:8799   */\n      dup4\n        /* \"#utility.yul\":8790:8791   */\n      dup2\n        /* \"#utility.yul\":8787:8800   */\n      lt\n        /* \"#utility.yul\":8779:8892   */\n      iszero\n      tag_380\n      jumpi\n        /* \"#utility.yul\":8878:8879   */\n      dup1\n        /* \"#utility.yul\":8873:8876   */\n      dup3\n        /* \"#utility.yul\":8869:8880   */\n      add\n        /* \"#utility.yul\":8863:8881   */\n      mload\n        /* \"#utility.yul\":8859:8860   */\n      dup2\n        /* \"#utility.yul\":8854:8857   */\n      dup5\n        /* \"#utility.yul\":8850:8861   */\n      add\n        /* \"#utility.yul\":8843:8882   */\n      mstore\n        /* \"#utility.yul\":8815:8817   */\n      0x20\n        /* \"#utility.yul\":8812:8813   */\n      dup2\n        /* \"#utility.yul\":8808:8818   */\n      add\n        /* \"#utility.yul\":8803:8818   */\n      swap1\n      pop\n        /* \"#utility.yul\":8779:8892   */\n      jump(tag_378)\n    tag_380:\n        /* \"#utility.yul\":8910:8916   */\n      dup4\n        /* \"#utility.yul\":8907:8908   */\n      dup2\n        /* \"#utility.yul\":8904:8917   */\n      gt\n        /* \"#utility.yul\":8901:9002   */\n      iszero\n      tag_381\n      jumpi\n        /* \"#utility.yul\":8990:8991   */\n      0x00\n        /* \"#utility.yul\":8981:8987   */\n      dup5\n        /* \"#utility.yul\":8976:8979   */\n      dup5\n        /* \"#utility.yul\":8972:8988   */\n      add\n        /* \"#utility.yul\":8965:8992   */\n      mstore\n        /* \"#utility.yul\":8901:9002   */\n    tag_381:\n        /* \"#utility.yul\":8750:9008   */\n      pop\n        /* \"#utility.yul\":8701:9008   */\n      pop\n      pop\n      pop\n      jump\t// out\n        /* \"#utility.yul\":9014:9334   */\n    tag_196:\n        /* \"#utility.yul\":9058:9064   */\n      0x00\n        /* \"#utility.yul\":9095:9096   */\n      0x02\n        /* \"#utility.yul\":9089:9093   */\n      dup3\n        /* \"#utility.yul\":9085:9097   */\n      div\n        /* \"#utility.yul\":9075:9097   */\n      swap1\n      pop\n        /* \"#utility.yul\":9142:9143   */\n      0x01\n        /* \"#utility.yul\":9136:9140   */\n      dup3\n        /* \"#utility.yul\":9132:9144   */\n      and\n        /* \"#utility.yul\":9163:9181   */\n      dup1\n        /* \"#utility.yul\":9153:9234   */\n      tag_383\n      jumpi\n        /* \"#utility.yul\":9219:9223   */\n      0x7f\n        /* \"#utility.yul\":9211:9217   */\n      dup3\n        /* \"#utility.yul\":9207:9224   */\n      and\n        /* \"#utility.yul\":9197:9224   */\n      swap2\n      pop\n        /* \"#utility.yul\":9153:9234   */\n    tag_383:\n        /* \"#utility.yul\":9281:9283   */\n      0x20\n        /* \"#utility.yul\":9273:9279   */\n      dup3\n        /* \"#utility.yul\":9270:9284   */\n      lt\n        /* \"#utility.yul\":9250:9268   */\n      dup2\n        /* \"#utility.yul\":9247:9285   */\n      eq\n        /* \"#utility.yul\":9244:9328   */\n      iszero\n      tag_384\n      jumpi\n        /* \"#utility.yul\":9300:9318   */\n      tag_385\n      tag_386\n      jump\t// in\n    tag_385:\n        /* \"#utility.yul\":9244:9328   */\n    tag_384:\n        /* \"#utility.yul\":9065:9334   */\n      pop\n        /* \"#utility.yul\":9014:9334   */\n      swap2\n      swap1\n      pop\n      jump\t// out\n        /* \"#utility.yul\":9340:9520   */\n    tag_351:\n        /* \"#utility.yul\":9388:9465   */\n      0x4e487b7100000000000000000000000000000000000000000000000000000000\n        /* \"#utility.yul\":9385:9386   */\n      0x00\n        /* \"#utility.yul\":9378:9466   */\n      mstore\n        /* \"#utility.yul\":9485:9489   */\n      0x11\n        /* \"#utility.yul\":9482:9483   */\n      0x04\n        /* \"#utility.yul\":9475:9490   */\n      mstore\n        /* \"#utility.yul\":9509:9513   */\n      0x24\n        /* \"#utility.yul\":9506:9507   */\n      0x00\n        /* \"#utility.yul\":9499:9514   */\n      revert\n        /* \"#utility.yul\":9526:9706   */\n    tag_357:\n        /* \"#utility.yul\":9574:9651   */\n      0x4e487b7100000000000000000000000000000000000000000000000000000000\n        /* \"#utility.yul\":9571:9572   */\n      0x00\n        /* \"#utility.yul\":9564:9652   */\n      mstore\n        /* \"#utility.yul\":9671:9675   */\n      0x12\n        /* \"#utility.yul\":9668:9669   */\n      0x04\n        /* \"#utility.yul\":9661:9676   */\n      mstore\n        /* \"#utility.yul\":9695:9699   */\n      0x24\n        /* \"#utility.yul\":9692:9693   */\n      0x00\n        /* \"#utility.yul\":9685:9700   */\n      revert\n        /* \"#utility.yul\":9712:9892   */\n    tag_144:\n        /* \"#utility.yul\":9760:9837   */\n      0x4e487b7100000000000000000000000000000000000000000000000000000000\n        /* \"#utility.yul\":9757:9758   */\n      0x00\n        /* \"#utility.yul\":9750:9838   */\n      mstore\n        /* \"#utility.yul\":9857:9861   */\n      0x21\n        /* \"#utility.yul\":9854:9855   */\n      0x04\n        /* \"#utility.yul\":9847:9862   */\n      mstore\n        /* \"#utility.yul\":9881:9885   */\n      0x24\n        /* \"#utility.yul\":9878:9879   */\n      0x00\n        /* \"#utility.yul\":9871:9886   */\n      revert\n        /* \"#utility.yul\":9898:10078   */\n    tag_386:\n        /* \"#utility.yul\":9946:10023   */\n      0x4e487b7100000000000000000000000000000000000000000000000000000000\n        /* \"#utility.yul\":9943:9944   */\n      0x00\n        /* \"#utility.yul\":9936:10024   */\n      mstore\n        /* \"#utility.yul\":10043:10047   */\n      0x22\n        /* \"#utility.yul\":10040:10041   */\n      0x04\n        /* \"#utility.yul\":10033:10048   */\n      mstore\n        /* \"#utility.yul\":10067:10071   */\n      0x24\n        /* \"#utility.yul\":10064:10065   */\n      0x00\n        /* \"#utility.yul\":10057:10072   */\n      revert\n        /* \"#utility.yul\":10207:10324   */\n    tag_264:\n        /* \"#utility.yul\":10316:10317   */\n      0x00\n        /* \"#utility.yul\":10313:10314   */\n      dup1\n        /* \"#utility.yul\":10306:10318   */\n      revert\n        /* \"#utility.yul\":10330:10432   */\n    tag_311:\n        /* \"#utility.yul\":10371:10377   */\n      0x00\n        /* \"#utility.yul\":10422:10424   */\n      0x1f\n        /* \"#utility.yul\":10418:10425   */\n      not\n        /* \"#utility.yul\":10413:10415   */\n      0x1f\n        /* \"#utility.yul\":10406:10411   */\n      dup4\n        /* \"#utility.yul\":10402:10416   */\n      add\n        /* \"#utility.yul\":10398:10426   */\n      and\n        /* \"#utility.yul\":10388:10426   */\n      swap1\n      pop\n        /* \"#utility.yul\":10330:10432   */\n      swap2\n      swap1\n      pop\n      jump\t// out\n        /* \"#utility.yul\":10438:10608   */\n    tag_316:\n        /* \"#utility.yul\":10578:10600   */\n      0x496e73756666696369656e742062616c616e6365000000000000000000000000\n        /* \"#utility.yul\":10574:10575   */\n      0x00\n        /* \"#utility.yul\":10566:10572   */\n      dup3\n        /* \"#utility.yul\":10562:10576   */\n      add\n        /* \"#utility.yul\":10555:10601   */\n      mstore\n        /* \"#utility.yul\":10438:10608   */\n      pop\n      jump\t// out\n        /* \"#utility.yul\":10614:10784   */\n    tag_321:\n        /* \"#utility.yul\":10754:10776   */\n      0x496e73756666696369656e742042616c616e6365000000000000000000000000\n        /* \"#utility.yul\":10750:10751   */\n      0x00\n        /* \"#utility.yul\":10742:10748   */\n      dup3\n        /* \"#utility.yul\":10738:10752   */\n      add\n        /* \"#utility.yul\":10731:10777   */\n      mstore\n        /* \"#utility.yul\":10614:10784   */\n      pop\n      jump\t// out\n        /* \"#utility.yul\":10790:10904   */\n    tag_372:\n        /* \"#utility.yul\":10872:10873   */\n      0x04\n        /* \"#utility.yul\":10865:10870   */\n      dup2\n        /* \"#utility.yul\":10862:10874   */\n      lt\n        /* \"#utility.yul\":10852:10898   */\n      tag_398\n      jumpi\n        /* \"#utility.yul\":10878:10896   */\n      tag_399\n      tag_144\n      jump\t// in\n    tag_399:\n        /* \"#utility.yul\":10852:10898   */\n    tag_398:\n        /* \"#utility.yul\":10790:10904   */\n      pop\n      jump\t// out\n        /* \"#utility.yul\":10910:11032   */\n    tag_252:\n        /* \"#utility.yul\":10983:11007   */\n      tag_401\n        /* \"#utility.yul\":11001:11006   */\n      dup2\n        /* \"#utility.yul\":10983:11007   */\n      tag_293\n      jump\t// in\n    tag_401:\n        /* \"#utility.yul\":10976:10981   */\n      dup2\n        /* \"#utility.yul\":10973:11008   */\n      eq\n        /* \"#utility.yul\":10963:11026   */\n      tag_402\n      jumpi\n        /* \"#utility.yul\":11022:11023   */\n      0x00\n        /* \"#utility.yul\":11019:11020   */\n      dup1\n        /* \"#utility.yul\":11012:11024   */\n      revert\n        /* \"#utility.yul\":10963:11026   */\n    tag_402:\n        /* \"#utility.yul\":10910:11032   */\n      pop\n      jump\t// out\n        /* \"#utility.yul\":11038:11176   */\n    tag_256:\n        /* \"#utility.yul\":11119:11151   */\n      tag_404\n        /* \"#utility.yul\":11145:11150   */\n      dup2\n        /* \"#utility.yul\":11119:11151   */\n      tag_289\n      jump\t// in\n    tag_404:\n        /* \"#utility.yul\":11112:11117   */\n      dup2\n        /* \"#utility.yul\":11109:11152   */\n      eq\n        /* \"#utility.yul\":11099:11170   */\n      tag_405\n      jumpi\n        /* \"#utility.yul\":11166:11167   */\n      0x00\n        /* \"#utility.yul\":11163:11164   */\n      dup1\n        /* \"#utility.yul\":11156:11168   */\n      revert\n        /* \"#utility.yul\":11099:11170   */\n    tag_405:\n        /* \"#utility.yul\":11038:11176   */\n      pop\n      jump\t// out\n        /* \"#utility.yul\":11182:11304   */\n    tag_260:\n        /* \"#utility.yul\":11255:11279   */\n      tag_407\n        /* \"#utility.yul\":11273:11278   */\n      dup2\n        /* \"#utility.yul\":11255:11279   */\n      tag_325\n      jump\t// in\n    tag_407:\n        /* \"#utility.yul\":11248:11253   */\n      dup2\n        /* \"#utility.yul\":11245:11280   */\n      eq\n        /* \"#utility.yul\":11235:11298   */\n      tag_408\n      jumpi\n        /* \"#utility.yul\":11294:11295   */\n      0x00\n        /* \"#utility.yul\":11291:11292   */\n      dup1\n        /* \"#utility.yul\":11284:11296   */\n      revert\n        /* \"#utility.yul\":11235:11298   */\n    tag_408:\n        /* \"#utility.yul\":11182:11304   */\n      pop\n      jump\t// out\n\n    auxdata: 0xa2646970667358221220ca34324e8c0ef39b4197e86aab438b8d50e4f1a7526920ab271ac24cada7a4dd64736f6c63430008070033\n}\n",
				"bytecode": {
					"linkReferences": {},
					"object": "60806040526040518060400160405280600581526020017f426c6f636b0000000000000000000000000000000000000000000000000000008152506001908051906020019062000051929190620002e6565b506040518060400160405280600381526020017f424c4b0000000000000000000000000000000000000000000000000000000000815250600290805190602001906200009f929190620002e6565b506040518060400160405280600181526020017f300000000000000000000000000000000000000000000000000000000000000081525060069080519060200190620000ed929190620002e6565b5042600955610e1042620001029190620003df565b600a5567016345785d8a0000600b55610e10600a54620001239190620003df565b600c5567016345785d8a0000600d55678ac7230489e80000600e55681043561a8829300000600f553480156200015857600080fd5b5060405162001f2e38038062001f2e83398181016040528101906200017e9190620003ad565b620186a0600381905550336000806101000a81548173ffffffffffffffffffffffffffffffffffffffff021916908373ffffffffffffffffffffffffffffffffffffffff160217905550600354600460008060009054906101000a900473ffffffffffffffffffffffffffffffffffffffff1673ffffffffffffffffffffffffffffffffffffffff1673ffffffffffffffffffffffffffffffffffffffff1681526020019081526020016000208190555080600860006101000a81548173ffffffffffffffffffffffffffffffffffffffff021916908373ffffffffffffffffffffffffffffffffffffffff16021790555033600760006101000a81548173ffffffffffffffffffffffffffffffffffffffff021916908373ffffffffffffffffffffffffffffffffffffffff1602179055506000601160006101000a81548160ff02191690836003811115620002da57620002d9620004df565b5b0217905550506200055c565b828054620002f4906200047a565b90600052602060002090601f01602090048101928262000318576000855562000364565b82601f106200033357805160ff191683800117855562000364565b8280016001018555821562000364579182015b828111156200036357825182559160200191906001019062000346565b5b50905062000373919062000377565b5090565b5b808211156200039257600081600090555060010162000378565b5090565b600081519050620003a78162000542565b92915050565b600060208284031215620003c657620003c56200053d565b5b6000620003d68482850162000396565b91505092915050565b6000620003ec8262000470565b9150620003f98362000470565b9250827fffffffffffffffffffffffffffffffffffffffffffffffffffffffffffffffff03821115620004315762000430620004b0565b5b828201905092915050565b6000620004498262000450565b9050919050565b600073ffffffffffffffffffffffffffffffffffffffff82169050919050565b6000819050919050565b600060028204905060018216806200049357607f821691505b60208210811415620004aa57620004a96200050e565b5b50919050565b7f4e487b7100000000000000000000000000000000000000000000000000000000600052601160045260246000fd5b7f4e487b7100000000000000000000000000000000000000000000000000000000600052602160045260246000fd5b7f4e487b7100000000000000000000000000000000000000000000000000000000600052602260045260246000fd5b600080fd5b6200054d816200043c565b81146200055957600080fd5b50565b6119c2806200056c6000396000f3fe60806040526004361061014b5760003560e01c80634d853ee5116100b6578063a9059cbb1161006f578063a9059cbb14610474578063b8a4825f146104b1578063c59ee1dc146104dc578063d0e30db014610507578063dd62ed3e14610532578063e8b5e51f1461056f5761014b565b80634d853ee5146103765780635ed7ca5b146103a15780636d58c88f146103b857806370a08231146103e157806376809ce31461041e5780637ff9b596146104495761014b565b806323b872dd1161010857806323b872dd1461025057806327e235e31461028d578063355274ea146102ca5780633a2c7a37146102f557806344df8e7014610320578063481c6a751461034b5761014b565b8063046f7da214610150578063095ea7b31461016757806318160ddd146101a45780631865c57d146101cf5780631a861d26146101fa5780631fd8088d14610225575b600080fd5b34801561015c57600080fd5b5061016561058d565b005b34801561017357600080fd5b5061018e60048036038101906101899190611461565b610614565b60405161019b91906115a1565b60405180910390f35b3480156101b057600080fd5b506101b9610794565b6040516101c69190611639565b60405180910390f35b3480156101db57600080fd5b506101e461079a565b6040516101f191906115bc565b60405180910390f35b34801561020657600080fd5b5061020f61081c565b60405161021c9190611639565b60405180910390f35b34801561023157600080fd5b5061023a610822565b6040516102479190611639565b60405180910390f35b34801561025c57600080fd5b506102776004803603810190610272919061140e565b610828565b60405161028491906115a1565b60405180910390f35b34801561029957600080fd5b506102b460048036038101906102af9190611374565b6108c1565b6040516102c19190611639565b60405180910390f35b3480156102d657600080fd5b506102df6108d9565b6040516102ec9190611639565b60405180910390f35b34801561030157600080fd5b5061030a6108df565b60405161031791906115bc565b60405180910390f35b34801561032c57600080fd5b506103356108f2565b60405161034291906115a1565b60405180910390f35b34801561035757600080fd5b50610360610a2c565b60405161036d919061156b565b60405180910390f35b34801561038257600080fd5b5061038b610a52565b604051610398919061156b565b60405180910390f35b3480156103ad57600080fd5b506103b6610a76565b005b3480156103c457600080fd5b506103df60048036038101906103da91906113a1565b610afd565b005b3480156103ed57600080fd5b5061040860048036038101906104039190611374565b610b9b565b6040516104159190611639565b60405180910390f35b34801561042a57600080fd5b50610433610be4565b60405161044091906115d7565b60405180910390f35b34801561045557600080fd5b5061045e610c72565b60405161046b9190611639565b60405180910390f35b34801561048057600080fd5b5061049b60048036038101906104969190611461565b610c78565b6040516104a891906115a1565b60405180910390f35b3480156104bd57600080fd5b506104c6610d0f565b6040516104d39190611639565b60405180910390f35b3480156104e857600080fd5b506104f1610d15565b6040516104fe9190611639565b60405180910390f35b34801561051357600080fd5b5061051c610d1b565b6040516105299190611586565b60405180910390f35b34801561053e57600080fd5b50610559600480360381019061055491906113ce565b610d41565b6040516105669190611639565b60405180910390f35b610577610dc8565b60405161058491906115a1565b60405180910390f35b600760009054906101000a900473ffffffffffffffffffffffffffffffffffffffff1673ffffffffffffffffffffffffffffffffffffffff163373ffffffffffffffffffffffffffffffffffffffff16146105e757600080fd5b6001601160006101000a81548160ff0219169083600381111561060d5761060c61186d565b5b0217905550565b600080821161062257600080fd5b81600460003373ffffffffffffffffffffffffffffffffffffffff1673ffffffffffffffffffffffffffffffffffffffff1681526020019081526020016000205410156106a4576040517f08c379a000000000000000000000000000000000000000000000000000000000815260040161069b906115f9565b60405180910390fd5b81600560003373ffffffffffffffffffffffffffffffffffffffff1673ffffffffffffffffffffffffffffffffffffffff16815260200190815260200160002060008573ffffffffffffffffffffffffffffffffffffffff1673ffffffffffffffffffffffffffffffffffffffff168152602001908152602001600020819055508273ffffffffffffffffffffffffffffffffffffffff163373ffffffffffffffffffffffffffffffffffffffff167f8c5be1e5ebec7d5bd14f71427d1e84f3dd0314c0f7b2291e5b200ac8c7c3b925846040516107829190611639565b60405180910390a36001905092915050565b60035481565b60006003808111156107af576107ae61186d565b5b601160009054906101000a900460ff1660038111156107d1576107d061186d565b5b14156107e05760039050610819565b60095442101580156107f45750600a544211155b156108025760019050610819565b60095442116108145760009050610819565b600290505b90565b600e5481565b600d5481565b600061083261079a565b601160006101000a81548160ff021916908360038111156108565761085561186d565b5b02179055506002600381111561086f5761086e61186d565b5b601160009054906101000a900460ff1660038111156108915761089061186d565b5b1461089b57600080fd5b600c544210156108aa57600080fd5b6108b5848484610fd2565b50600190509392505050565b60046020528060005260406000206000915090505481565b600f5481565b601160009054906101000a900460ff1681565b6000600760009054906101000a900473ffffffffffffffffffffffffffffffffffffffff1673ffffffffffffffffffffffffffffffffffffffff163373ffffffffffffffffffffffffffffffffffffffff161461094e57600080fd5b61095661079a565b601160006101000a81548160ff0219169083600381111561097a5761097961186d565b5b0217905550600260038111156109935761099261186d565b5b601160009054906101000a900460ff1660038111156109b5576109b461186d565b5b146109bf57600080fd5b6000600460008060009054906101000a900473ffffffffffffffffffffffffffffffffffffffff1673ffffffffffffffffffffffffffffffffffffffff1673ffffffffffffffffffffffffffffffffffffffff168152602001908152602001600020819055506001905090565b600760009054906101000a900473ffffffffffffffffffffffffffffffffffffffff1681565b60008054906101000a900473ffffffffffffffffffffffffffffffffffffffff1681565b600760009054906101000a900473ffffffffffffffffffffffffffffffffffffffff1673ffffffffffffffffffffffffffffffffffffffff163373ffffffffffffffffffffffffffffffffffffffff1614610ad057600080fd5b6003601160006101000a81548160ff02191690836003811115610af657610af561186d565b5b0217905550565b600760009054906101000a900473ffffffffffffffffffffffffffffffffffffffff1673ffffffffffffffffffffffffffffffffffffffff163373ffffffffffffffffffffffffffffffffffffffff1614610b5757600080fd5b80600860006101000a81548173ffffffffffffffffffffffffffffffffffffffff021916908373ffffffffffffffffffffffffffffffffffffffff16021790555050565b6000600460008373ffffffffffffffffffffffffffffffffffffffff1673ffffffffffffffffffffffffffffffffffffffff168152602001908152602001600020549050919050565b60068054610bf1906117dd565b80601f0160208091040260200160405190810160405280929190818152602001828054610c1d906117dd565b8015610c6a5780601f10610c3f57610100808354040283529160200191610c6a565b820191906000526020600020905b815481529060010190602001808311610c4d57829003601f168201915b505050505081565b600b5481565b6000610c8261079a565b601160006101000a81548160ff02191690836003811115610ca657610ca561186d565b5b021790555060026003811115610cbf57610cbe61186d565b5b601160009054906101000a900460ff166003811115610ce157610ce061186d565b5b14610ceb57600080fd5b600c54421015610cfa57600080fd5b610d048383611196565b506001905092915050565b600c5481565b60105481565b600860009054906101000a900473ffffffffffffffffffffffffffffffffffffffff1681565b6000600560008473ffffffffffffffffffffffffffffffffffffffff1673ffffffffffffffffffffffffffffffffffffffff16815260200190815260200160002060008373ffffffffffffffffffffffffffffffffffffffff1673ffffffffffffffffffffffffffffffffffffffff16815260200190815260200160002054905092915050565b6000610dd261079a565b601160006101000a81548160ff02191690836003811115610df657610df561186d565b5b021790555060016003811115610e0f57610e0e61186d565b5b601160009054906101000a900460ff166003811115610e3157610e3061186d565b5b14610e3b57600080fd5b600d543410158015610e4f5750600e543411155b610e5857600080fd5b3460106000828254610e6a9190611670565b92505081905550600f546010541115610e8257600080fd5b6000600b5434610e9291906116c6565b905080600460003373ffffffffffffffffffffffffffffffffffffffff1673ffffffffffffffffffffffffffffffffffffffff1681526020019081526020016000206000828254610ee39190611670565b9250508190555080600460008060009054906101000a900473ffffffffffffffffffffffffffffffffffffffff1673ffffffffffffffffffffffffffffffffffffffff1673ffffffffffffffffffffffffffffffffffffffff1681526020019081526020016000206000828254610f5a91906116f7565b92505081905550600860009054906101000a900473ffffffffffffffffffffffffffffffffffffffff1673ffffffffffffffffffffffffffffffffffffffff166108fc349081150290604051600060405180830381858888f19350505050158015610fc9573d6000803e3d6000fd5b50600191505090565b600081600560008673ffffffffffffffffffffffffffffffffffffffff1673ffffffffffffffffffffffffffffffffffffffff16815260200190815260200160002060008573ffffffffffffffffffffffffffffffffffffffff1673ffffffffffffffffffffffffffffffffffffffff16815260200190815260200160002054101561105d57600080fd5b81600460008673ffffffffffffffffffffffffffffffffffffffff1673ffffffffffffffffffffffffffffffffffffffff1681526020019081526020016000205410156110df576040517f08c379a00000000000000000000000000000000000000000000000000000000081526004016110d690611619565b60405180910390fd5b81600460008573ffffffffffffffffffffffffffffffffffffffff1673ffffffffffffffffffffffffffffffffffffffff168152602001908152602001600020600082825461112e9190611670565b9250508190555081600460008673ffffffffffffffffffffffffffffffffffffffff1673ffffffffffffffffffffffffffffffffffffffff168152602001908152602001600020600082825461118491906116f7565b92505081905550600190509392505050565b600081600460003373ffffffffffffffffffffffffffffffffffffffff1673ffffffffffffffffffffffffffffffffffffffff16815260200190815260200160002054101561121a576040517f08c379a0000000000000000000000000000000000000000000000000000000008152600401611211906115f9565b60405180910390fd5b81600460008573ffffffffffffffffffffffffffffffffffffffff1673ffffffffffffffffffffffffffffffffffffffff16815260200190815260200160002060008282546112699190611670565b9250508190555081600460003373ffffffffffffffffffffffffffffffffffffffff1673ffffffffffffffffffffffffffffffffffffffff16815260200190815260200160002060008282546112bf91906116f7565b925050819055508273ffffffffffffffffffffffffffffffffffffffff163373ffffffffffffffffffffffffffffffffffffffff167fddf252ad1be2c89b69c2b068fc378daa952ba7f163c4a11628f55a4df523b3ef846040516113239190611639565b60405180910390a36001905092915050565b60008135905061134481611947565b92915050565b6000813590506113598161195e565b92915050565b60008135905061136e81611975565b92915050565b60006020828403121561138a576113896118cb565b5b600061139884828501611335565b91505092915050565b6000602082840312156113b7576113b66118cb565b5b60006113c58482850161134a565b91505092915050565b600080604083850312156113e5576113e46118cb565b5b60006113f385828601611335565b925050602061140485828601611335565b9150509250929050565b600080600060608486031215611427576114266118cb565b5b600061143586828701611335565b935050602061144686828701611335565b92505060406114578682870161135f565b9150509250925092565b60008060408385031215611478576114776118cb565b5b600061148685828601611335565b92505060206114978582860161135f565b9150509250929050565b6114aa8161173d565b82525050565b6114b98161172b565b82525050565b6114c88161174f565b82525050565b6114d781611798565b82525050565b60006114e882611654565b6114f2818561165f565b93506115028185602086016117aa565b61150b816118d0565b840191505092915050565b600061152360148361165f565b915061152e826118e1565b602082019050919050565b600061154660148361165f565b91506115518261190a565b602082019050919050565b6115658161178e565b82525050565b600060208201905061158060008301846114b0565b92915050565b600060208201905061159b60008301846114a1565b92915050565b60006020820190506115b660008301846114bf565b92915050565b60006020820190506115d160008301846114ce565b92915050565b600060208201905081810360008301526115f181846114dd565b905092915050565b6000602082019050818103600083015261161281611516565b9050919050565b6000602082019050818103600083015261163281611539565b9050919050565b600060208201905061164e600083018461155c565b92915050565b600081519050919050565b600082825260208201905092915050565b600061167b8261178e565b91506116868361178e565b9250827fffffffffffffffffffffffffffffffffffffffffffffffffffffffffffffffff038211156116bb576116ba61180f565b5b828201905092915050565b60006116d18261178e565b91506116dc8361178e565b9250826116ec576116eb61183e565b5b828204905092915050565b60006117028261178e565b915061170d8361178e565b9250828210156117205761171f61180f565b5b828203905092915050565b60006117368261176e565b9050919050565b60006117488261176e565b9050919050565b60008115159050919050565b600081905061176982611933565b919050565b600073ffffffffffffffffffffffffffffffffffffffff82169050919050565b6000819050919050565b60006117a38261175b565b9050919050565b60005b838110156117c85780820151818401526020810190506117ad565b838111156117d7576000848401525b50505050565b600060028204905060018216806117f557607f821691505b602082108114156118095761180861189c565b5b50919050565b7f4e487b7100000000000000000000000000000000000000000000000000000000600052601160045260246000fd5b7f4e487b7100000000000000000000000000000000000000000000000000000000600052601260045260246000fd5b7f4e487b7100000000000000000000000000000000000000000000000000000000600052602160045260246000fd5b7f4e487b7100000000000000000000000000000000000000000000000000000000600052602260045260246000fd5b600080fd5b6000601f19601f8301169050919050565b7f496e73756666696369656e742062616c616e6365000000000000000000000000600082015250565b7f496e73756666696369656e742042616c616e6365000000000000000000000000600082015250565b600481106119445761194361186d565b5b50565b6119508161172b565b811461195b57600080fd5b50565b6119678161173d565b811461197257600080fd5b50565b61197e8161178e565b811461198957600080fd5b5056fea2646970667358221220ca34324e8c0ef39b4197e86aab438b8d50e4f1a7526920ab271ac24cada7a4dd64736f6c63430008070033",
					"opcodes": "PUSH1 0x80 PUSH1 0x40 MSTORE PUSH1 0x40 MLOAD DUP1 PUSH1 0x40 ADD PUSH1 0x40 MSTORE DUP1 PUSH1 0x5 DUP2 MSTORE PUSH1 0x20 ADD PUSH32 0x426C6F636B000000000000000000000000000000000000000000000000000000 DUP2 MSTORE POP PUSH1 0x1 SWAP1 DUP1 MLOAD SWAP1 PUSH1 0x20 ADD SWAP1 PUSH3 0x51 SWAP3 SWAP2 SWAP1 PUSH3 0x2E6 JUMP JUMPDEST POP PUSH1 0x40 MLOAD DUP1 PUSH1 0x40 ADD PUSH1 0x40 MSTORE DUP1 PUSH1 0x3 DUP2 MSTORE PUSH1 0x20 ADD PUSH32 0x424C4B0000000000000000000000000000000000000000000000000000000000 DUP2 MSTORE POP PUSH1 0x2 SWAP1 DUP1 MLOAD SWAP1 PUSH1 0x20 ADD SWAP1 PUSH3 0x9F SWAP3 SWAP2 SWAP1 PUSH3 0x2E6 JUMP JUMPDEST POP PUSH1 0x40 MLOAD DUP1 PUSH1 0x40 ADD PUSH1 0x40 MSTORE DUP1 PUSH1 0x1 DUP2 MSTORE PUSH1 0x20 ADD PUSH32 0x3000000000000000000000000000000000000000000000000000000000000000 DUP2 MSTORE POP PUSH1 0x6 SWAP1 DUP1 MLOAD SWAP1 PUSH1 0x20 ADD SWAP1 PUSH3 0xED SWAP3 SWAP2 SWAP1 PUSH3 0x2E6 JUMP JUMPDEST POP TIMESTAMP PUSH1 0x9 SSTORE PUSH2 0xE10 TIMESTAMP PUSH3 0x102 SWAP2 SWAP1 PUSH3 0x3DF JUMP JUMPDEST PUSH1 0xA SSTORE PUSH8 0x16345785D8A0000 PUSH1 0xB SSTORE PUSH2 0xE10 PUSH1 0xA SLOAD PUSH3 0x123 SWAP2 SWAP1 PUSH3 0x3DF JUMP JUMPDEST PUSH1 0xC SSTORE PUSH8 0x16345785D8A0000 PUSH1 0xD SSTORE PUSH8 0x8AC7230489E80000 PUSH1 0xE SSTORE PUSH9 0x1043561A8829300000 PUSH1 0xF SSTORE CALLVALUE DUP1 ISZERO PUSH3 0x158 JUMPI PUSH1 0x0 DUP1 REVERT JUMPDEST POP PUSH1 0x40 MLOAD PUSH3 0x1F2E CODESIZE SUB DUP1 PUSH3 0x1F2E DUP4 CODECOPY DUP2 DUP2 ADD PUSH1 0x40 MSTORE DUP2 ADD SWAP1 PUSH3 0x17E SWAP2 SWAP1 PUSH3 0x3AD JUMP JUMPDEST PUSH3 0x186A0 PUSH1 0x3 DUP2 SWAP1 SSTORE POP CALLER PUSH1 0x0 DUP1 PUSH2 0x100 EXP DUP2 SLOAD DUP2 PUSH20 0xFFFFFFFFFFFFFFFFFFFFFFFFFFFFFFFFFFFFFFFF MUL NOT AND SWAP1 DUP4 PUSH20 0xFFFFFFFFFFFFFFFFFFFFFFFFFFFFFFFFFFFFFFFF AND MUL OR SWAP1 SSTORE POP PUSH1 0x3 SLOAD PUSH1 0x4 PUSH1 0x0 DUP1 PUSH1 0x0 SWAP1 SLOAD SWAP1 PUSH2 0x100 EXP SWAP1 DIV PUSH20 0xFFFFFFFFFFFFFFFFFFFFFFFFFFFFFFFFFFFFFFFF AND PUSH20 0xFFFFFFFFFFFFFFFFFFFFFFFFFFFFFFFFFFFFFFFF AND PUSH20 0xFFFFFFFFFFFFFFFFFFFFFFFFFFFFFFFFFFFFFFFF AND DUP2 MSTORE PUSH1 0x20 ADD SWAP1 DUP2 MSTORE PUSH1 0x20 ADD PUSH1 0x0 KECCAK256 DUP2 SWAP1 SSTORE POP DUP1 PUSH1 0x8 PUSH1 0x0 PUSH2 0x100 EXP DUP2 SLOAD DUP2 PUSH20 0xFFFFFFFFFFFFFFFFFFFFFFFFFFFFFFFFFFFFFFFF MUL NOT AND SWAP1 DUP4 PUSH20 0xFFFFFFFFFFFFFFFFFFFFFFFFFFFFFFFFFFFFFFFF AND MUL OR SWAP1 SSTORE POP CALLER PUSH1 0x7 PUSH1 0x0 PUSH2 0x100 EXP DUP2 SLOAD DUP2 PUSH20 0xFFFFFFFFFFFFFFFFFFFFFFFFFFFFFFFFFFFFFFFF MUL NOT AND SWAP1 DUP4 PUSH20 0xFFFFFFFFFFFFFFFFFFFFFFFFFFFFFFFFFFFFFFFF AND MUL OR SWAP1 SSTORE POP PUSH1 0x0 PUSH1 0x11 PUSH1 0x0 PUSH2 0x100 EXP DUP2 SLOAD DUP2 PUSH1 0xFF MUL NOT AND SWAP1 DUP4 PUSH1 0x3 DUP2 GT ISZERO PUSH3 0x2DA JUMPI PUSH3 0x2D9 PUSH3 0x4DF JUMP JUMPDEST JUMPDEST MUL OR SWAP1 SSTORE POP POP PUSH3 0x55C JUMP JUMPDEST DUP3 DUP1 SLOAD PUSH3 0x2F4 SWAP1 PUSH3 0x47A JUMP JUMPDEST SWAP1 PUSH1 0x0 MSTORE PUSH1 0x20 PUSH1 0x0 KECCAK256 SWAP1 PUSH1 0x1F ADD PUSH1 0x20 SWAP1 DIV DUP2 ADD SWAP3 DUP3 PUSH3 0x318 JUMPI PUSH1 0x0 DUP6 SSTORE PUSH3 0x364 JUMP JUMPDEST DUP3 PUSH1 0x1F LT PUSH3 0x333 JUMPI DUP1 MLOAD PUSH1 0xFF NOT AND DUP4 DUP1 ADD OR DUP6 SSTORE PUSH3 0x364 JUMP JUMPDEST DUP3 DUP1 ADD PUSH1 0x1 ADD DUP6 SSTORE DUP3 ISZERO PUSH3 0x364 JUMPI SWAP2 DUP3 ADD JUMPDEST DUP3 DUP2 GT ISZERO PUSH3 0x363 JUMPI DUP3 MLOAD DUP3 SSTORE SWAP2 PUSH1 0x20 ADD SWAP2 SWAP1 PUSH1 0x1 ADD SWAP1 PUSH3 0x346 JUMP JUMPDEST JUMPDEST POP SWAP1 POP PUSH3 0x373 SWAP2 SWAP1 PUSH3 0x377 JUMP JUMPDEST POP SWAP1 JUMP JUMPDEST JUMPDEST DUP1 DUP3 GT ISZERO PUSH3 0x392 JUMPI PUSH1 0x0 DUP2 PUSH1 0x0 SWAP1 SSTORE POP PUSH1 0x1 ADD PUSH3 0x378 JUMP JUMPDEST POP SWAP1 JUMP JUMPDEST PUSH1 0x0 DUP2 MLOAD SWAP1 POP PUSH3 0x3A7 DUP2 PUSH3 0x542 JUMP JUMPDEST SWAP3 SWAP2 POP POP JUMP JUMPDEST PUSH1 0x0 PUSH1 0x20 DUP3 DUP5 SUB SLT ISZERO PUSH3 0x3C6 JUMPI PUSH3 0x3C5 PUSH3 0x53D JUMP JUMPDEST JUMPDEST PUSH1 0x0 PUSH3 0x3D6 DUP5 DUP3 DUP6 ADD PUSH3 0x396 JUMP JUMPDEST SWAP2 POP POP SWAP3 SWAP2 POP POP JUMP JUMPDEST PUSH1 0x0 PUSH3 0x3EC DUP3 PUSH3 0x470 JUMP JUMPDEST SWAP2 POP PUSH3 0x3F9 DUP4 PUSH3 0x470 JUMP JUMPDEST SWAP3 POP DUP3 PUSH32 0xFFFFFFFFFFFFFFFFFFFFFFFFFFFFFFFFFFFFFFFFFFFFFFFFFFFFFFFFFFFFFFFF SUB DUP3 GT ISZERO PUSH3 0x431 JUMPI PUSH3 0x430 PUSH3 0x4B0 JUMP JUMPDEST JUMPDEST DUP3 DUP3 ADD SWAP1 POP SWAP3 SWAP2 POP POP JUMP JUMPDEST PUSH1 0x0 PUSH3 0x449 DUP3 PUSH3 0x450 JUMP JUMPDEST SWAP1 POP SWAP2 SWAP1 POP JUMP JUMPDEST PUSH1 0x0 PUSH20 0xFFFFFFFFFFFFFFFFFFFFFFFFFFFFFFFFFFFFFFFF DUP3 AND SWAP1 POP SWAP2 SWAP1 POP JUMP JUMPDEST PUSH1 0x0 DUP2 SWAP1 POP SWAP2 SWAP1 POP JUMP JUMPDEST PUSH1 0x0 PUSH1 0x2 DUP3 DIV SWAP1 POP PUSH1 0x1 DUP3 AND DUP1 PUSH3 0x493 JUMPI PUSH1 0x7F DUP3 AND SWAP2 POP JUMPDEST PUSH1 0x20 DUP3 LT DUP2 EQ ISZERO PUSH3 0x4AA JUMPI PUSH3 0x4A9 PUSH3 0x50E JUMP JUMPDEST JUMPDEST POP SWAP2 SWAP1 POP JUMP JUMPDEST PUSH32 0x4E487B7100000000000000000000000000000000000000000000000000000000 PUSH1 0x0 MSTORE PUSH1 0x11 PUSH1 0x4 MSTORE PUSH1 0x24 PUSH1 0x0 REVERT JUMPDEST PUSH32 0x4E487B7100000000000000000000000000000000000000000000000000000000 PUSH1 0x0 MSTORE PUSH1 0x21 PUSH1 0x4 MSTORE PUSH1 0x24 PUSH1 0x0 REVERT JUMPDEST PUSH32 0x4E487B7100000000000000000000000000000000000000000000000000000000 PUSH1 0x0 MSTORE PUSH1 0x22 PUSH1 0x4 MSTORE PUSH1 0x24 PUSH1 0x0 REVERT JUMPDEST PUSH1 0x0 DUP1 REVERT JUMPDEST PUSH3 0x54D DUP2 PUSH3 0x43C JUMP JUMPDEST DUP2 EQ PUSH3 0x559 JUMPI PUSH1 0x0 DUP1 REVERT JUMPDEST POP JUMP JUMPDEST PUSH2 0x19C2 DUP1 PUSH3 0x56C PUSH1 0x0 CODECOPY PUSH1 0x0 RETURN INVALID PUSH1 0x80 PUSH1 0x40 MSTORE PUSH1 0x4 CALLDATASIZE LT PUSH2 0x14B JUMPI PUSH1 0x0 CALLDATALOAD PUSH1 0xE0 SHR DUP1 PUSH4 0x4D853EE5 GT PUSH2 0xB6 JUMPI DUP1 PUSH4 0xA9059CBB GT PUSH2 0x6F JUMPI DUP1 PUSH4 0xA9059CBB EQ PUSH2 0x474 JUMPI DUP1 PUSH4 0xB8A4825F EQ PUSH2 0x4B1 JUMPI DUP1 PUSH4 0xC59EE1DC EQ PUSH2 0x4DC JUMPI DUP1 PUSH4 0xD0E30DB0 EQ PUSH2 0x507 JUMPI DUP1 PUSH4 0xDD62ED3E EQ PUSH2 0x532 JUMPI DUP1 PUSH4 0xE8B5E51F EQ PUSH2 0x56F JUMPI PUSH2 0x14B JUMP JUMPDEST DUP1 PUSH4 0x4D853EE5 EQ PUSH2 0x376 JUMPI DUP1 PUSH4 0x5ED7CA5B EQ PUSH2 0x3A1 JUMPI DUP1 PUSH4 0x6D58C88F EQ PUSH2 0x3B8 JUMPI DUP1 PUSH4 0x70A08231 EQ PUSH2 0x3E1 JUMPI DUP1 PUSH4 0x76809CE3 EQ PUSH2 0x41E JUMPI DUP1 PUSH4 0x7FF9B596 EQ PUSH2 0x449 JUMPI PUSH2 0x14B JUMP JUMPDEST DUP1 PUSH4 0x23B872DD GT PUSH2 0x108 JUMPI DUP1 PUSH4 0x23B872DD EQ PUSH2 0x250 JUMPI DUP1 PUSH4 0x27E235E3 EQ PUSH2 0x28D JUMPI DUP1 PUSH4 0x355274EA EQ PUSH2 0x2CA JUMPI DUP1 PUSH4 0x3A2C7A37 EQ PUSH2 0x2F5 JUMPI DUP1 PUSH4 0x44DF8E70 EQ PUSH2 0x320 JUMPI DUP1 PUSH4 0x481C6A75 EQ PUSH2 0x34B JUMPI PUSH2 0x14B JUMP JUMPDEST DUP1 PUSH4 0x46F7DA2 EQ PUSH2 0x150 JUMPI DUP1 PUSH4 0x95EA7B3 EQ PUSH2 0x167 JUMPI DUP1 PUSH4 0x18160DDD EQ PUSH2 0x1A4 JUMPI DUP1 PUSH4 0x1865C57D EQ PUSH2 0x1CF JUMPI DUP1 PUSH4 0x1A861D26 EQ PUSH2 0x1FA JUMPI DUP1 PUSH4 0x1FD8088D EQ PUSH2 0x225 JUMPI JUMPDEST PUSH1 0x0 DUP1 REVERT JUMPDEST CALLVALUE DUP1 ISZERO PUSH2 0x15C JUMPI PUSH1 0x0 DUP1 REVERT JUMPDEST POP PUSH2 0x165 PUSH2 0x58D JUMP JUMPDEST STOP JUMPDEST CALLVALUE DUP1 ISZERO PUSH2 0x173 JUMPI PUSH1 0x0 DUP1 REVERT JUMPDEST POP PUSH2 0x18E PUSH1 0x4 DUP1 CALLDATASIZE SUB DUP2 ADD SWAP1 PUSH2 0x189 SWAP2 SWAP1 PUSH2 0x1461 JUMP JUMPDEST PUSH2 0x614 JUMP JUMPDEST PUSH1 0x40 MLOAD PUSH2 0x19B SWAP2 SWAP1 PUSH2 0x15A1 JUMP JUMPDEST PUSH1 0x40 MLOAD DUP1 SWAP2 SUB SWAP1 RETURN JUMPDEST CALLVALUE DUP1 ISZERO PUSH2 0x1B0 JUMPI PUSH1 0x0 DUP1 REVERT JUMPDEST POP PUSH2 0x1B9 PUSH2 0x794 JUMP JUMPDEST PUSH1 0x40 MLOAD PUSH2 0x1C6 SWAP2 SWAP1 PUSH2 0x1639 JUMP JUMPDEST PUSH1 0x40 MLOAD DUP1 SWAP2 SUB SWAP1 RETURN JUMPDEST CALLVALUE DUP1 ISZERO PUSH2 0x1DB JUMPI PUSH1 0x0 DUP1 REVERT JUMPDEST POP PUSH2 0x1E4 PUSH2 0x79A JUMP JUMPDEST PUSH1 0x40 MLOAD PUSH2 0x1F1 SWAP2 SWAP1 PUSH2 0x15BC JUMP JUMPDEST PUSH1 0x40 MLOAD DUP1 SWAP2 SUB SWAP1 RETURN JUMPDEST CALLVALUE DUP1 ISZERO PUSH2 0x206 JUMPI PUSH1 0x0 DUP1 REVERT JUMPDEST POP PUSH2 0x20F PUSH2 0x81C JUMP JUMPDEST PUSH1 0x40 MLOAD PUSH2 0x21C SWAP2 SWAP1 PUSH2 0x1639 JUMP JUMPDEST PUSH1 0x40 MLOAD DUP1 SWAP2 SUB SWAP1 RETURN JUMPDEST CALLVALUE DUP1 ISZERO PUSH2 0x231 JUMPI PUSH1 0x0 DUP1 REVERT JUMPDEST POP PUSH2 0x23A PUSH2 0x822 JUMP JUMPDEST PUSH1 0x40 MLOAD PUSH2 0x247 SWAP2 SWAP1 PUSH2 0x1639 JUMP JUMPDEST PUSH1 0x40 MLOAD DUP1 SWAP2 SUB SWAP1 RETURN JUMPDEST CALLVALUE DUP1 ISZERO PUSH2 0x25C JUMPI PUSH1 0x0 DUP1 REVERT JUMPDEST POP PUSH2 0x277 PUSH1 0x4 DUP1 CALLDATASIZE SUB DUP2 ADD SWAP1 PUSH2 0x272 SWAP2 SWAP1 PUSH2 0x140E JUMP JUMPDEST PUSH2 0x828 JUMP JUMPDEST PUSH1 0x40 MLOAD PUSH2 0x284 SWAP2 SWAP1 PUSH2 0x15A1 JUMP JUMPDEST PUSH1 0x40 MLOAD DUP1 SWAP2 SUB SWAP1 RETURN JUMPDEST CALLVALUE DUP1 ISZERO PUSH2 0x299 JUMPI PUSH1 0x0 DUP1 REVERT JUMPDEST POP PUSH2 0x2B4 PUSH1 0x4 DUP1 CALLDATASIZE SUB DUP2 ADD SWAP1 PUSH2 0x2AF SWAP2 SWAP1 PUSH2 0x1374 JUMP JUMPDEST PUSH2 0x8C1 JUMP JUMPDEST PUSH1 0x40 MLOAD PUSH2 0x2C1 SWAP2 SWAP1 PUSH2 0x1639 JUMP JUMPDEST PUSH1 0x40 MLOAD DUP1 SWAP2 SUB SWAP1 RETURN JUMPDEST CALLVALUE DUP1 ISZERO PUSH2 0x2D6 JUMPI PUSH1 0x0 DUP1 REVERT JUMPDEST POP PUSH2 0x2DF PUSH2 0x8D9 JUMP JUMPDEST PUSH1 0x40 MLOAD PUSH2 0x2EC SWAP2 SWAP1 PUSH2 0x1639 JUMP JUMPDEST PUSH1 0x40 MLOAD DUP1 SWAP2 SUB SWAP1 RETURN JUMPDEST CALLVALUE DUP1 ISZERO PUSH2 0x301 JUMPI PUSH1 0x0 DUP1 REVERT JUMPDEST POP PUSH2 0x30A PUSH2 0x8DF JUMP JUMPDEST PUSH1 0x40 MLOAD PUSH2 0x317 SWAP2 SWAP1 PUSH2 0x15BC JUMP JUMPDEST PUSH1 0x40 MLOAD DUP1 SWAP2 SUB SWAP1 RETURN JUMPDEST CALLVALUE DUP1 ISZERO PUSH2 0x32C JUMPI PUSH1 0x0 DUP1 REVERT JUMPDEST POP PUSH2 0x335 PUSH2 0x8F2 JUMP JUMPDEST PUSH1 0x40 MLOAD PUSH2 0x342 SWAP2 SWAP1 PUSH2 0x15A1 JUMP JUMPDEST PUSH1 0x40 MLOAD DUP1 SWAP2 SUB SWAP1 RETURN JUMPDEST CALLVALUE DUP1 ISZERO PUSH2 0x357 JUMPI PUSH1 0x0 DUP1 REVERT JUMPDEST POP PUSH2 0x360 PUSH2 0xA2C JUMP JUMPDEST PUSH1 0x40 MLOAD PUSH2 0x36D SWAP2 SWAP1 PUSH2 0x156B JUMP JUMPDEST PUSH1 0x40 MLOAD DUP1 SWAP2 SUB SWAP1 RETURN JUMPDEST CALLVALUE DUP1 ISZERO PUSH2 0x382 JUMPI PUSH1 0x0 DUP1 REVERT JUMPDEST POP PUSH2 0x38B PUSH2 0xA52 JUMP JUMPDEST PUSH1 0x40 MLOAD PUSH2 0x398 SWAP2 SWAP1 PUSH2 0x156B JUMP JUMPDEST PUSH1 0x40 MLOAD DUP1 SWAP2 SUB SWAP1 RETURN JUMPDEST CALLVALUE DUP1 ISZERO PUSH2 0x3AD JUMPI PUSH1 0x0 DUP1 REVERT JUMPDEST POP PUSH2 0x3B6 PUSH2 0xA76 JUMP JUMPDEST STOP JUMPDEST CALLVALUE DUP1 ISZERO PUSH2 0x3C4 JUMPI PUSH1 0x0 DUP1 REVERT JUMPDEST POP PUSH2 0x3DF PUSH1 0x4 DUP1 CALLDATASIZE SUB DUP2 ADD SWAP1 PUSH2 0x3DA SWAP2 SWAP1 PUSH2 0x13A1 JUMP JUMPDEST PUSH2 0xAFD JUMP JUMPDEST STOP JUMPDEST CALLVALUE DUP1 ISZERO PUSH2 0x3ED JUMPI PUSH1 0x0 DUP1 REVERT JUMPDEST POP PUSH2 0x408 PUSH1 0x4 DUP1 CALLDATASIZE SUB DUP2 ADD SWAP1 PUSH2 0x403 SWAP2 SWAP1 PUSH2 0x1374 JUMP JUMPDEST PUSH2 0xB9B JUMP JUMPDEST PUSH1 0x40 MLOAD PUSH2 0x415 SWAP2 SWAP1 PUSH2 0x1639 JUMP JUMPDEST PUSH1 0x40 MLOAD DUP1 SWAP2 SUB SWAP1 RETURN JUMPDEST CALLVALUE DUP1 ISZERO PUSH2 0x42A JUMPI PUSH1 0x0 DUP1 REVERT JUMPDEST POP PUSH2 0x433 PUSH2 0xBE4 JUMP JUMPDEST PUSH1 0x40 MLOAD PUSH2 0x440 SWAP2 SWAP1 PUSH2 0x15D7 JUMP JUMPDEST PUSH1 0x40 MLOAD DUP1 SWAP2 SUB SWAP1 RETURN JUMPDEST CALLVALUE DUP1 ISZERO PUSH2 0x455 JUMPI PUSH1 0x0 DUP1 REVERT JUMPDEST POP PUSH2 0x45E PUSH2 0xC72 JUMP JUMPDEST PUSH1 0x40 MLOAD PUSH2 0x46B SWAP2 SWAP1 PUSH2 0x1639 JUMP JUMPDEST PUSH1 0x40 MLOAD DUP1 SWAP2 SUB SWAP1 RETURN JUMPDEST CALLVALUE DUP1 ISZERO PUSH2 0x480 JUMPI PUSH1 0x0 DUP1 REVERT JUMPDEST POP PUSH2 0x49B PUSH1 0x4 DUP1 CALLDATASIZE SUB DUP2 ADD SWAP1 PUSH2 0x496 SWAP2 SWAP1 PUSH2 0x1461 JUMP JUMPDEST PUSH2 0xC78 JUMP JUMPDEST PUSH1 0x40 MLOAD PUSH2 0x4A8 SWAP2 SWAP1 PUSH2 0x15A1 JUMP JUMPDEST PUSH1 0x40 MLOAD DUP1 SWAP2 SUB SWAP1 RETURN JUMPDEST CALLVALUE DUP1 ISZERO PUSH2 0x4BD JUMPI PUSH1 0x0 DUP1 REVERT JUMPDEST POP PUSH2 0x4C6 PUSH2 0xD0F JUMP JUMPDEST PUSH1 0x40 MLOAD PUSH2 0x4D3 SWAP2 SWAP1 PUSH2 0x1639 JUMP JUMPDEST PUSH1 0x40 MLOAD DUP1 SWAP2 SUB SWAP1 RETURN JUMPDEST CALLVALUE DUP1 ISZERO PUSH2 0x4E8 JUMPI PUSH1 0x0 DUP1 REVERT JUMPDEST POP PUSH2 0x4F1 PUSH2 0xD15 JUMP JUMPDEST PUSH1 0x40 MLOAD PUSH2 0x4FE SWAP2 SWAP1 PUSH2 0x1639 JUMP JUMPDEST PUSH1 0x40 MLOAD DUP1 SWAP2 SUB SWAP1 RETURN JUMPDEST CALLVALUE DUP1 ISZERO PUSH2 0x513 JUMPI PUSH1 0x0 DUP1 REVERT JUMPDEST POP PUSH2 0x51C PUSH2 0xD1B JUMP JUMPDEST PUSH1 0x40 MLOAD PUSH2 0x529 SWAP2 SWAP1 PUSH2 0x1586 JUMP JUMPDEST PUSH1 0x40 MLOAD DUP1 SWAP2 SUB SWAP1 RETURN JUMPDEST CALLVALUE DUP1 ISZERO PUSH2 0x53E JUMPI PUSH1 0x0 DUP1 REVERT JUMPDEST POP PUSH2 0x559 PUSH1 0x4 DUP1 CALLDATASIZE SUB DUP2 ADD SWAP1 PUSH2 0x554 SWAP2 SWAP1 PUSH2 0x13CE JUMP JUMPDEST PUSH2 0xD41 JUMP JUMPDEST PUSH1 0x40 MLOAD PUSH2 0x566 SWAP2 SWAP1 PUSH2 0x1639 JUMP JUMPDEST PUSH1 0x40 MLOAD DUP1 SWAP2 SUB SWAP1 RETURN JUMPDEST PUSH2 0x577 PUSH2 0xDC8 JUMP JUMPDEST PUSH1 0x40 MLOAD PUSH2 0x584 SWAP2 SWAP1 PUSH2 0x15A1 JUMP JUMPDEST PUSH1 0x40 MLOAD DUP1 SWAP2 SUB SWAP1 RETURN JUMPDEST PUSH1 0x7 PUSH1 0x0 SWAP1 SLOAD SWAP1 PUSH2 0x100 EXP SWAP1 DIV PUSH20 0xFFFFFFFFFFFFFFFFFFFFFFFFFFFFFFFFFFFFFFFF AND PUSH20 0xFFFFFFFFFFFFFFFFFFFFFFFFFFFFFFFFFFFFFFFF AND CALLER PUSH20 0xFFFFFFFFFFFFFFFFFFFFFFFFFFFFFFFFFFFFFFFF AND EQ PUSH2 0x5E7 JUMPI PUSH1 0x0 DUP1 REVERT JUMPDEST PUSH1 0x1 PUSH1 0x11 PUSH1 0x0 PUSH2 0x100 EXP DUP2 SLOAD DUP2 PUSH1 0xFF MUL NOT AND SWAP1 DUP4 PUSH1 0x3 DUP2 GT ISZERO PUSH2 0x60D JUMPI PUSH2 0x60C PUSH2 0x186D JUMP JUMPDEST JUMPDEST MUL OR SWAP1 SSTORE POP JUMP JUMPDEST PUSH1 0x0 DUP1 DUP3 GT PUSH2 0x622 JUMPI PUSH1 0x0 DUP1 REVERT JUMPDEST DUP2 PUSH1 0x4 PUSH1 0x0 CALLER PUSH20 0xFFFFFFFFFFFFFFFFFFFFFFFFFFFFFFFFFFFFFFFF AND PUSH20 0xFFFFFFFFFFFFFFFFFFFFFFFFFFFFFFFFFFFFFFFF AND DUP2 MSTORE PUSH1 0x20 ADD SWAP1 DUP2 MSTORE PUSH1 0x20 ADD PUSH1 0x0 KECCAK256 SLOAD LT ISZERO PUSH2 0x6A4 JUMPI PUSH1 0x40 MLOAD PUSH32 0x8C379A000000000000000000000000000000000000000000000000000000000 DUP2 MSTORE PUSH1 0x4 ADD PUSH2 0x69B SWAP1 PUSH2 0x15F9 JUMP JUMPDEST PUSH1 0x40 MLOAD DUP1 SWAP2 SUB SWAP1 REVERT JUMPDEST DUP2 PUSH1 0x5 PUSH1 0x0 CALLER PUSH20 0xFFFFFFFFFFFFFFFFFFFFFFFFFFFFFFFFFFFFFFFF AND PUSH20 0xFFFFFFFFFFFFFFFFFFFFFFFFFFFFFFFFFFFFFFFF AND DUP2 MSTORE PUSH1 0x20 ADD SWAP1 DUP2 MSTORE PUSH1 0x20 ADD PUSH1 0x0 KECCAK256 PUSH1 0x0 DUP6 PUSH20 0xFFFFFFFFFFFFFFFFFFFFFFFFFFFFFFFFFFFFFFFF AND PUSH20 0xFFFFFFFFFFFFFFFFFFFFFFFFFFFFFFFFFFFFFFFF AND DUP2 MSTORE PUSH1 0x20 ADD SWAP1 DUP2 MSTORE PUSH1 0x20 ADD PUSH1 0x0 KECCAK256 DUP2 SWAP1 SSTORE POP DUP3 PUSH20 0xFFFFFFFFFFFFFFFFFFFFFFFFFFFFFFFFFFFFFFFF AND CALLER PUSH20 0xFFFFFFFFFFFFFFFFFFFFFFFFFFFFFFFFFFFFFFFF AND PUSH32 0x8C5BE1E5EBEC7D5BD14F71427D1E84F3DD0314C0F7B2291E5B200AC8C7C3B925 DUP5 PUSH1 0x40 MLOAD PUSH2 0x782 SWAP2 SWAP1 PUSH2 0x1639 JUMP JUMPDEST PUSH1 0x40 MLOAD DUP1 SWAP2 SUB SWAP1 LOG3 PUSH1 0x1 SWAP1 POP SWAP3 SWAP2 POP POP JUMP JUMPDEST PUSH1 0x3 SLOAD DUP2 JUMP JUMPDEST PUSH1 0x0 PUSH1 0x3 DUP1 DUP2 GT ISZERO PUSH2 0x7AF JUMPI PUSH2 0x7AE PUSH2 0x186D JUMP JUMPDEST JUMPDEST PUSH1 0x11 PUSH1 0x0 SWAP1 SLOAD SWAP1 PUSH2 0x100 EXP SWAP1 DIV PUSH1 0xFF AND PUSH1 0x3 DUP2 GT ISZERO PUSH2 0x7D1 JUMPI PUSH2 0x7D0 PUSH2 0x186D JUMP JUMPDEST JUMPDEST EQ ISZERO PUSH2 0x7E0 JUMPI PUSH1 0x3 SWAP1 POP PUSH2 0x819 JUMP JUMPDEST PUSH1 0x9 SLOAD TIMESTAMP LT ISZERO DUP1 ISZERO PUSH2 0x7F4 JUMPI POP PUSH1 0xA SLOAD TIMESTAMP GT ISZERO JUMPDEST ISZERO PUSH2 0x802 JUMPI PUSH1 0x1 SWAP1 POP PUSH2 0x819 JUMP JUMPDEST PUSH1 0x9 SLOAD TIMESTAMP GT PUSH2 0x814 JUMPI PUSH1 0x0 SWAP1 POP PUSH2 0x819 JUMP JUMPDEST PUSH1 0x2 SWAP1 POP JUMPDEST SWAP1 JUMP JUMPDEST PUSH1 0xE SLOAD DUP2 JUMP JUMPDEST PUSH1 0xD SLOAD DUP2 JUMP JUMPDEST PUSH1 0x0 PUSH2 0x832 PUSH2 0x79A JUMP JUMPDEST PUSH1 0x11 PUSH1 0x0 PUSH2 0x100 EXP DUP2 SLOAD DUP2 PUSH1 0xFF MUL NOT AND SWAP1 DUP4 PUSH1 0x3 DUP2 GT ISZERO PUSH2 0x856 JUMPI PUSH2 0x855 PUSH2 0x186D JUMP JUMPDEST JUMPDEST MUL OR SWAP1 SSTORE POP PUSH1 0x2 PUSH1 0x3 DUP2 GT ISZERO PUSH2 0x86F JUMPI PUSH2 0x86E PUSH2 0x186D JUMP JUMPDEST JUMPDEST PUSH1 0x11 PUSH1 0x0 SWAP1 SLOAD SWAP1 PUSH2 0x100 EXP SWAP1 DIV PUSH1 0xFF AND PUSH1 0x3 DUP2 GT ISZERO PUSH2 0x891 JUMPI PUSH2 0x890 PUSH2 0x186D JUMP JUMPDEST JUMPDEST EQ PUSH2 0x89B JUMPI PUSH1 0x0 DUP1 REVERT JUMPDEST PUSH1 0xC SLOAD TIMESTAMP LT ISZERO PUSH2 0x8AA JUMPI PUSH1 0x0 DUP1 REVERT JUMPDEST PUSH2 0x8B5 DUP5 DUP5 DUP5 PUSH2 0xFD2 JUMP JUMPDEST POP PUSH1 0x1 SWAP1 POP SWAP4 SWAP3 POP POP POP JUMP JUMPDEST PUSH1 0x4 PUSH1 0x20 MSTORE DUP1 PUSH1 0x0 MSTORE PUSH1 0x40 PUSH1 0x0 KECCAK256 PUSH1 0x0 SWAP2 POP SWAP1 POP SLOAD DUP2 JUMP JUMPDEST PUSH1 0xF SLOAD DUP2 JUMP JUMPDEST PUSH1 0x11 PUSH1 0x0 SWAP1 SLOAD SWAP1 PUSH2 0x100 EXP SWAP1 DIV PUSH1 0xFF AND DUP2 JUMP JUMPDEST PUSH1 0x0 PUSH1 0x7 PUSH1 0x0 SWAP1 SLOAD SWAP1 PUSH2 0x100 EXP SWAP1 DIV PUSH20 0xFFFFFFFFFFFFFFFFFFFFFFFFFFFFFFFFFFFFFFFF AND PUSH20 0xFFFFFFFFFFFFFFFFFFFFFFFFFFFFFFFFFFFFFFFF AND CALLER PUSH20 0xFFFFFFFFFFFFFFFFFFFFFFFFFFFFFFFFFFFFFFFF AND EQ PUSH2 0x94E JUMPI PUSH1 0x0 DUP1 REVERT JUMPDEST PUSH2 0x956 PUSH2 0x79A JUMP JUMPDEST PUSH1 0x11 PUSH1 0x0 PUSH2 0x100 EXP DUP2 SLOAD DUP2 PUSH1 0xFF MUL NOT AND SWAP1 DUP4 PUSH1 0x3 DUP2 GT ISZERO PUSH2 0x97A JUMPI PUSH2 0x979 PUSH2 0x186D JUMP JUMPDEST JUMPDEST MUL OR SWAP1 SSTORE POP PUSH1 0x2 PUSH1 0x3 DUP2 GT ISZERO PUSH2 0x993 JUMPI PUSH2 0x992 PUSH2 0x186D JUMP JUMPDEST JUMPDEST PUSH1 0x11 PUSH1 0x0 SWAP1 SLOAD SWAP1 PUSH2 0x100 EXP SWAP1 DIV PUSH1 0xFF AND PUSH1 0x3 DUP2 GT ISZERO PUSH2 0x9B5 JUMPI PUSH2 0x9B4 PUSH2 0x186D JUMP JUMPDEST JUMPDEST EQ PUSH2 0x9BF JUMPI PUSH1 0x0 DUP1 REVERT JUMPDEST PUSH1 0x0 PUSH1 0x4 PUSH1 0x0 DUP1 PUSH1 0x0 SWAP1 SLOAD SWAP1 PUSH2 0x100 EXP SWAP1 DIV PUSH20 0xFFFFFFFFFFFFFFFFFFFFFFFFFFFFFFFFFFFFFFFF AND PUSH20 0xFFFFFFFFFFFFFFFFFFFFFFFFFFFFFFFFFFFFFFFF AND PUSH20 0xFFFFFFFFFFFFFFFFFFFFFFFFFFFFFFFFFFFFFFFF AND DUP2 MSTORE PUSH1 0x20 ADD SWAP1 DUP2 MSTORE PUSH1 0x20 ADD PUSH1 0x0 KECCAK256 DUP2 SWAP1 SSTORE POP PUSH1 0x1 SWAP1 POP SWAP1 JUMP JUMPDEST PUSH1 0x7 PUSH1 0x0 SWAP1 SLOAD SWAP1 PUSH2 0x100 EXP SWAP1 DIV PUSH20 0xFFFFFFFFFFFFFFFFFFFFFFFFFFFFFFFFFFFFFFFF AND DUP2 JUMP JUMPDEST PUSH1 0x0 DUP1 SLOAD SWAP1 PUSH2 0x100 EXP SWAP1 DIV PUSH20 0xFFFFFFFFFFFFFFFFFFFFFFFFFFFFFFFFFFFFFFFF AND DUP2 JUMP JUMPDEST PUSH1 0x7 PUSH1 0x0 SWAP1 SLOAD SWAP1 PUSH2 0x100 EXP SWAP1 DIV PUSH20 0xFFFFFFFFFFFFFFFFFFFFFFFFFFFFFFFFFFFFFFFF AND PUSH20 0xFFFFFFFFFFFFFFFFFFFFFFFFFFFFFFFFFFFFFFFF AND CALLER PUSH20 0xFFFFFFFFFFFFFFFFFFFFFFFFFFFFFFFFFFFFFFFF AND EQ PUSH2 0xAD0 JUMPI PUSH1 0x0 DUP1 REVERT JUMPDEST PUSH1 0x3 PUSH1 0x11 PUSH1 0x0 PUSH2 0x100 EXP DUP2 SLOAD DUP2 PUSH1 0xFF MUL NOT AND SWAP1 DUP4 PUSH1 0x3 DUP2 GT ISZERO PUSH2 0xAF6 JUMPI PUSH2 0xAF5 PUSH2 0x186D JUMP JUMPDEST JUMPDEST MUL OR SWAP1 SSTORE POP JUMP JUMPDEST PUSH1 0x7 PUSH1 0x0 SWAP1 SLOAD SWAP1 PUSH2 0x100 EXP SWAP1 DIV PUSH20 0xFFFFFFFFFFFFFFFFFFFFFFFFFFFFFFFFFFFFFFFF AND PUSH20 0xFFFFFFFFFFFFFFFFFFFFFFFFFFFFFFFFFFFFFFFF AND CALLER PUSH20 0xFFFFFFFFFFFFFFFFFFFFFFFFFFFFFFFFFFFFFFFF AND EQ PUSH2 0xB57 JUMPI PUSH1 0x0 DUP1 REVERT JUMPDEST DUP1 PUSH1 0x8 PUSH1 0x0 PUSH2 0x100 EXP DUP2 SLOAD DUP2 PUSH20 0xFFFFFFFFFFFFFFFFFFFFFFFFFFFFFFFFFFFFFFFF MUL NOT AND SWAP1 DUP4 PUSH20 0xFFFFFFFFFFFFFFFFFFFFFFFFFFFFFFFFFFFFFFFF AND MUL OR SWAP1 SSTORE POP POP JUMP JUMPDEST PUSH1 0x0 PUSH1 0x4 PUSH1 0x0 DUP4 PUSH20 0xFFFFFFFFFFFFFFFFFFFFFFFFFFFFFFFFFFFFFFFF AND PUSH20 0xFFFFFFFFFFFFFFFFFFFFFFFFFFFFFFFFFFFFFFFF AND DUP2 MSTORE PUSH1 0x20 ADD SWAP1 DUP2 MSTORE PUSH1 0x20 ADD PUSH1 0x0 KECCAK256 SLOAD SWAP1 POP SWAP2 SWAP1 POP JUMP JUMPDEST PUSH1 0x6 DUP1 SLOAD PUSH2 0xBF1 SWAP1 PUSH2 0x17DD JUMP JUMPDEST DUP1 PUSH1 0x1F ADD PUSH1 0x20 DUP1 SWAP2 DIV MUL PUSH1 0x20 ADD PUSH1 0x40 MLOAD SWAP1 DUP2 ADD PUSH1 0x40 MSTORE DUP1 SWAP3 SWAP2 SWAP1 DUP2 DUP2 MSTORE PUSH1 0x20 ADD DUP3 DUP1 SLOAD PUSH2 0xC1D SWAP1 PUSH2 0x17DD JUMP JUMPDEST DUP1 ISZERO PUSH2 0xC6A JUMPI DUP1 PUSH1 0x1F LT PUSH2 0xC3F JUMPI PUSH2 0x100 DUP1 DUP4 SLOAD DIV MUL DUP4 MSTORE SWAP2 PUSH1 0x20 ADD SWAP2 PUSH2 0xC6A JUMP JUMPDEST DUP3 ADD SWAP2 SWAP1 PUSH1 0x0 MSTORE PUSH1 0x20 PUSH1 0x0 KECCAK256 SWAP1 JUMPDEST DUP2 SLOAD DUP2 MSTORE SWAP1 PUSH1 0x1 ADD SWAP1 PUSH1 0x20 ADD DUP1 DUP4 GT PUSH2 0xC4D JUMPI DUP3 SWAP1 SUB PUSH1 0x1F AND DUP3 ADD SWAP2 JUMPDEST POP POP POP POP POP DUP2 JUMP JUMPDEST PUSH1 0xB SLOAD DUP2 JUMP JUMPDEST PUSH1 0x0 PUSH2 0xC82 PUSH2 0x79A JUMP JUMPDEST PUSH1 0x11 PUSH1 0x0 PUSH2 0x100 EXP DUP2 SLOAD DUP2 PUSH1 0xFF MUL NOT AND SWAP1 DUP4 PUSH1 0x3 DUP2 GT ISZERO PUSH2 0xCA6 JUMPI PUSH2 0xCA5 PUSH2 0x186D JUMP JUMPDEST JUMPDEST MUL OR SWAP1 SSTORE POP PUSH1 0x2 PUSH1 0x3 DUP2 GT ISZERO PUSH2 0xCBF JUMPI PUSH2 0xCBE PUSH2 0x186D JUMP JUMPDEST JUMPDEST PUSH1 0x11 PUSH1 0x0 SWAP1 SLOAD SWAP1 PUSH2 0x100 EXP SWAP1 DIV PUSH1 0xFF AND PUSH1 0x3 DUP2 GT ISZERO PUSH2 0xCE1 JUMPI PUSH2 0xCE0 PUSH2 0x186D JUMP JUMPDEST JUMPDEST EQ PUSH2 0xCEB JUMPI PUSH1 0x0 DUP1 REVERT JUMPDEST PUSH1 0xC SLOAD TIMESTAMP LT ISZERO PUSH2 0xCFA JUMPI PUSH1 0x0 DUP1 REVERT JUMPDEST PUSH2 0xD04 DUP4 DUP4 PUSH2 0x1196 JUMP JUMPDEST POP PUSH1 0x1 SWAP1 POP SWAP3 SWAP2 POP POP JUMP JUMPDEST PUSH1 0xC SLOAD DUP2 JUMP JUMPDEST PUSH1 0x10 SLOAD DUP2 JUMP JUMPDEST PUSH1 0x8 PUSH1 0x0 SWAP1 SLOAD SWAP1 PUSH2 0x100 EXP SWAP1 DIV PUSH20 0xFFFFFFFFFFFFFFFFFFFFFFFFFFFFFFFFFFFFFFFF AND DUP2 JUMP JUMPDEST PUSH1 0x0 PUSH1 0x5 PUSH1 0x0 DUP5 PUSH20 0xFFFFFFFFFFFFFFFFFFFFFFFFFFFFFFFFFFFFFFFF AND PUSH20 0xFFFFFFFFFFFFFFFFFFFFFFFFFFFFFFFFFFFFFFFF AND DUP2 MSTORE PUSH1 0x20 ADD SWAP1 DUP2 MSTORE PUSH1 0x20 ADD PUSH1 0x0 KECCAK256 PUSH1 0x0 DUP4 PUSH20 0xFFFFFFFFFFFFFFFFFFFFFFFFFFFFFFFFFFFFFFFF AND PUSH20 0xFFFFFFFFFFFFFFFFFFFFFFFFFFFFFFFFFFFFFFFF AND DUP2 MSTORE PUSH1 0x20 ADD SWAP1 DUP2 MSTORE PUSH1 0x20 ADD PUSH1 0x0 KECCAK256 SLOAD SWAP1 POP SWAP3 SWAP2 POP POP JUMP JUMPDEST PUSH1 0x0 PUSH2 0xDD2 PUSH2 0x79A JUMP JUMPDEST PUSH1 0x11 PUSH1 0x0 PUSH2 0x100 EXP DUP2 SLOAD DUP2 PUSH1 0xFF MUL NOT AND SWAP1 DUP4 PUSH1 0x3 DUP2 GT ISZERO PUSH2 0xDF6 JUMPI PUSH2 0xDF5 PUSH2 0x186D JUMP JUMPDEST JUMPDEST MUL OR SWAP1 SSTORE POP PUSH1 0x1 PUSH1 0x3 DUP2 GT ISZERO PUSH2 0xE0F JUMPI PUSH2 0xE0E PUSH2 0x186D JUMP JUMPDEST JUMPDEST PUSH1 0x11 PUSH1 0x0 SWAP1 SLOAD SWAP1 PUSH2 0x100 EXP SWAP1 DIV PUSH1 0xFF AND PUSH1 0x3 DUP2 GT ISZERO PUSH2 0xE31 JUMPI PUSH2 0xE30 PUSH2 0x186D JUMP JUMPDEST JUMPDEST EQ PUSH2 0xE3B JUMPI PUSH1 0x0 DUP1 REVERT JUMPDEST PUSH1 0xD SLOAD CALLVALUE LT ISZERO DUP1 ISZERO PUSH2 0xE4F JUMPI POP PUSH1 0xE SLOAD CALLVALUE GT ISZERO JUMPDEST PUSH2 0xE58 JUMPI PUSH1 0x0 DUP1 REVERT JUMPDEST CALLVALUE PUSH1 0x10 PUSH1 0x0 DUP3 DUP3 SLOAD PUSH2 0xE6A SWAP2 SWAP1 PUSH2 0x1670 JUMP JUMPDEST SWAP3 POP POP DUP2 SWAP1 SSTORE POP PUSH1 0xF SLOAD PUSH1 0x10 SLOAD GT ISZERO PUSH2 0xE82 JUMPI PUSH1 0x0 DUP1 REVERT JUMPDEST PUSH1 0x0 PUSH1 0xB SLOAD CALLVALUE PUSH2 0xE92 SWAP2 SWAP1 PUSH2 0x16C6 JUMP JUMPDEST SWAP1 POP DUP1 PUSH1 0x4 PUSH1 0x0 CALLER PUSH20 0xFFFFFFFFFFFFFFFFFFFFFFFFFFFFFFFFFFFFFFFF AND PUSH20 0xFFFFFFFFFFFFFFFFFFFFFFFFFFFFFFFFFFFFFFFF AND DUP2 MSTORE PUSH1 0x20 ADD SWAP1 DUP2 MSTORE PUSH1 0x20 ADD PUSH1 0x0 KECCAK256 PUSH1 0x0 DUP3 DUP3 SLOAD PUSH2 0xEE3 SWAP2 SWAP1 PUSH2 0x1670 JUMP JUMPDEST SWAP3 POP POP DUP2 SWAP1 SSTORE POP DUP1 PUSH1 0x4 PUSH1 0x0 DUP1 PUSH1 0x0 SWAP1 SLOAD SWAP1 PUSH2 0x100 EXP SWAP1 DIV PUSH20 0xFFFFFFFFFFFFFFFFFFFFFFFFFFFFFFFFFFFFFFFF AND PUSH20 0xFFFFFFFFFFFFFFFFFFFFFFFFFFFFFFFFFFFFFFFF AND PUSH20 0xFFFFFFFFFFFFFFFFFFFFFFFFFFFFFFFFFFFFFFFF AND DUP2 MSTORE PUSH1 0x20 ADD SWAP1 DUP2 MSTORE PUSH1 0x20 ADD PUSH1 0x0 KECCAK256 PUSH1 0x0 DUP3 DUP3 SLOAD PUSH2 0xF5A SWAP2 SWAP1 PUSH2 0x16F7 JUMP JUMPDEST SWAP3 POP POP DUP2 SWAP1 SSTORE POP PUSH1 0x8 PUSH1 0x0 SWAP1 SLOAD SWAP1 PUSH2 0x100 EXP SWAP1 DIV PUSH20 0xFFFFFFFFFFFFFFFFFFFFFFFFFFFFFFFFFFFFFFFF AND PUSH20 0xFFFFFFFFFFFFFFFFFFFFFFFFFFFFFFFFFFFFFFFF AND PUSH2 0x8FC CALLVALUE SWAP1 DUP2 ISZERO MUL SWAP1 PUSH1 0x40 MLOAD PUSH1 0x0 PUSH1 0x40 MLOAD DUP1 DUP4 SUB DUP2 DUP6 DUP9 DUP9 CALL SWAP4 POP POP POP POP ISZERO DUP1 ISZERO PUSH2 0xFC9 JUMPI RETURNDATASIZE PUSH1 0x0 DUP1 RETURNDATACOPY RETURNDATASIZE PUSH1 0x0 REVERT JUMPDEST POP PUSH1 0x1 SWAP2 POP POP SWAP1 JUMP JUMPDEST PUSH1 0x0 DUP2 PUSH1 0x5 PUSH1 0x0 DUP7 PUSH20 0xFFFFFFFFFFFFFFFFFFFFFFFFFFFFFFFFFFFFFFFF AND PUSH20 0xFFFFFFFFFFFFFFFFFFFFFFFFFFFFFFFFFFFFFFFF AND DUP2 MSTORE PUSH1 0x20 ADD SWAP1 DUP2 MSTORE PUSH1 0x20 ADD PUSH1 0x0 KECCAK256 PUSH1 0x0 DUP6 PUSH20 0xFFFFFFFFFFFFFFFFFFFFFFFFFFFFFFFFFFFFFFFF AND PUSH20 0xFFFFFFFFFFFFFFFFFFFFFFFFFFFFFFFFFFFFFFFF AND DUP2 MSTORE PUSH1 0x20 ADD SWAP1 DUP2 MSTORE PUSH1 0x20 ADD PUSH1 0x0 KECCAK256 SLOAD LT ISZERO PUSH2 0x105D JUMPI PUSH1 0x0 DUP1 REVERT JUMPDEST DUP2 PUSH1 0x4 PUSH1 0x0 DUP7 PUSH20 0xFFFFFFFFFFFFFFFFFFFFFFFFFFFFFFFFFFFFFFFF AND PUSH20 0xFFFFFFFFFFFFFFFFFFFFFFFFFFFFFFFFFFFFFFFF AND DUP2 MSTORE PUSH1 0x20 ADD SWAP1 DUP2 MSTORE PUSH1 0x20 ADD PUSH1 0x0 KECCAK256 SLOAD LT ISZERO PUSH2 0x10DF JUMPI PUSH1 0x40 MLOAD PUSH32 0x8C379A000000000000000000000000000000000000000000000000000000000 DUP2 MSTORE PUSH1 0x4 ADD PUSH2 0x10D6 SWAP1 PUSH2 0x1619 JUMP JUMPDEST PUSH1 0x40 MLOAD DUP1 SWAP2 SUB SWAP1 REVERT JUMPDEST DUP2 PUSH1 0x4 PUSH1 0x0 DUP6 PUSH20 0xFFFFFFFFFFFFFFFFFFFFFFFFFFFFFFFFFFFFFFFF AND PUSH20 0xFFFFFFFFFFFFFFFFFFFFFFFFFFFFFFFFFFFFFFFF AND DUP2 MSTORE PUSH1 0x20 ADD SWAP1 DUP2 MSTORE PUSH1 0x20 ADD PUSH1 0x0 KECCAK256 PUSH1 0x0 DUP3 DUP3 SLOAD PUSH2 0x112E SWAP2 SWAP1 PUSH2 0x1670 JUMP JUMPDEST SWAP3 POP POP DUP2 SWAP1 SSTORE POP DUP2 PUSH1 0x4 PUSH1 0x0 DUP7 PUSH20 0xFFFFFFFFFFFFFFFFFFFFFFFFFFFFFFFFFFFFFFFF AND PUSH20 0xFFFFFFFFFFFFFFFFFFFFFFFFFFFFFFFFFFFFFFFF AND DUP2 MSTORE PUSH1 0x20 ADD SWAP1 DUP2 MSTORE PUSH1 0x20 ADD PUSH1 0x0 KECCAK256 PUSH1 0x0 DUP3 DUP3 SLOAD PUSH2 0x1184 SWAP2 SWAP1 PUSH2 0x16F7 JUMP JUMPDEST SWAP3 POP POP DUP2 SWAP1 SSTORE POP PUSH1 0x1 SWAP1 POP SWAP4 SWAP3 POP POP POP JUMP JUMPDEST PUSH1 0x0 DUP2 PUSH1 0x4 PUSH1 0x0 CALLER PUSH20 0xFFFFFFFFFFFFFFFFFFFFFFFFFFFFFFFFFFFFFFFF AND PUSH20 0xFFFFFFFFFFFFFFFFFFFFFFFFFFFFFFFFFFFFFFFF AND DUP2 MSTORE PUSH1 0x20 ADD SWAP1 DUP2 MSTORE PUSH1 0x20 ADD PUSH1 0x0 KECCAK256 SLOAD LT ISZERO PUSH2 0x121A JUMPI PUSH1 0x40 MLOAD PUSH32 0x8C379A000000000000000000000000000000000000000000000000000000000 DUP2 MSTORE PUSH1 0x4 ADD PUSH2 0x1211 SWAP1 PUSH2 0x15F9 JUMP JUMPDEST PUSH1 0x40 MLOAD DUP1 SWAP2 SUB SWAP1 REVERT JUMPDEST DUP2 PUSH1 0x4 PUSH1 0x0 DUP6 PUSH20 0xFFFFFFFFFFFFFFFFFFFFFFFFFFFFFFFFFFFFFFFF AND PUSH20 0xFFFFFFFFFFFFFFFFFFFFFFFFFFFFFFFFFFFFFFFF AND DUP2 MSTORE PUSH1 0x20 ADD SWAP1 DUP2 MSTORE PUSH1 0x20 ADD PUSH1 0x0 KECCAK256 PUSH1 0x0 DUP3 DUP3 SLOAD PUSH2 0x1269 SWAP2 SWAP1 PUSH2 0x1670 JUMP JUMPDEST SWAP3 POP POP DUP2 SWAP1 SSTORE POP DUP2 PUSH1 0x4 PUSH1 0x0 CALLER PUSH20 0xFFFFFFFFFFFFFFFFFFFFFFFFFFFFFFFFFFFFFFFF AND PUSH20 0xFFFFFFFFFFFFFFFFFFFFFFFFFFFFFFFFFFFFFFFF AND DUP2 MSTORE PUSH1 0x20 ADD SWAP1 DUP2 MSTORE PUSH1 0x20 ADD PUSH1 0x0 KECCAK256 PUSH1 0x0 DUP3 DUP3 SLOAD PUSH2 0x12BF SWAP2 SWAP1 PUSH2 0x16F7 JUMP JUMPDEST SWAP3 POP POP DUP2 SWAP1 SSTORE POP DUP3 PUSH20 0xFFFFFFFFFFFFFFFFFFFFFFFFFFFFFFFFFFFFFFFF AND CALLER PUSH20 0xFFFFFFFFFFFFFFFFFFFFFFFFFFFFFFFFFFFFFFFF AND PUSH32 0xDDF252AD1BE2C89B69C2B068FC378DAA952BA7F163C4A11628F55A4DF523B3EF DUP5 PUSH1 0x40 MLOAD PUSH2 0x1323 SWAP2 SWAP1 PUSH2 0x1639 JUMP JUMPDEST PUSH1 0x40 MLOAD DUP1 SWAP2 SUB SWAP1 LOG3 PUSH1 0x1 SWAP1 POP SWAP3 SWAP2 POP POP JUMP JUMPDEST PUSH1 0x0 DUP2 CALLDATALOAD SWAP1 POP PUSH2 0x1344 DUP2 PUSH2 0x1947 JUMP JUMPDEST SWAP3 SWAP2 POP POP JUMP JUMPDEST PUSH1 0x0 DUP2 CALLDATALOAD SWAP1 POP PUSH2 0x1359 DUP2 PUSH2 0x195E JUMP JUMPDEST SWAP3 SWAP2 POP POP JUMP JUMPDEST PUSH1 0x0 DUP2 CALLDATALOAD SWAP1 POP PUSH2 0x136E DUP2 PUSH2 0x1975 JUMP JUMPDEST SWAP3 SWAP2 POP POP JUMP JUMPDEST PUSH1 0x0 PUSH1 0x20 DUP3 DUP5 SUB SLT ISZERO PUSH2 0x138A JUMPI PUSH2 0x1389 PUSH2 0x18CB JUMP JUMPDEST JUMPDEST PUSH1 0x0 PUSH2 0x1398 DUP5 DUP3 DUP6 ADD PUSH2 0x1335 JUMP JUMPDEST SWAP2 POP POP SWAP3 SWAP2 POP POP JUMP JUMPDEST PUSH1 0x0 PUSH1 0x20 DUP3 DUP5 SUB SLT ISZERO PUSH2 0x13B7 JUMPI PUSH2 0x13B6 PUSH2 0x18CB JUMP JUMPDEST JUMPDEST PUSH1 0x0 PUSH2 0x13C5 DUP5 DUP3 DUP6 ADD PUSH2 0x134A JUMP JUMPDEST SWAP2 POP POP SWAP3 SWAP2 POP POP JUMP JUMPDEST PUSH1 0x0 DUP1 PUSH1 0x40 DUP4 DUP6 SUB SLT ISZERO PUSH2 0x13E5 JUMPI PUSH2 0x13E4 PUSH2 0x18CB JUMP JUMPDEST JUMPDEST PUSH1 0x0 PUSH2 0x13F3 DUP6 DUP3 DUP7 ADD PUSH2 0x1335 JUMP JUMPDEST SWAP3 POP POP PUSH1 0x20 PUSH2 0x1404 DUP6 DUP3 DUP7 ADD PUSH2 0x1335 JUMP JUMPDEST SWAP2 POP POP SWAP3 POP SWAP3 SWAP1 POP JUMP JUMPDEST PUSH1 0x0 DUP1 PUSH1 0x0 PUSH1 0x60 DUP5 DUP7 SUB SLT ISZERO PUSH2 0x1427 JUMPI PUSH2 0x1426 PUSH2 0x18CB JUMP JUMPDEST JUMPDEST PUSH1 0x0 PUSH2 0x1435 DUP7 DUP3 DUP8 ADD PUSH2 0x1335 JUMP JUMPDEST SWAP4 POP POP PUSH1 0x20 PUSH2 0x1446 DUP7 DUP3 DUP8 ADD PUSH2 0x1335 JUMP JUMPDEST SWAP3 POP POP PUSH1 0x40 PUSH2 0x1457 DUP7 DUP3 DUP8 ADD PUSH2 0x135F JUMP JUMPDEST SWAP2 POP POP SWAP3 POP SWAP3 POP SWAP3 JUMP JUMPDEST PUSH1 0x0 DUP1 PUSH1 0x40 DUP4 DUP6 SUB SLT ISZERO PUSH2 0x1478 JUMPI PUSH2 0x1477 PUSH2 0x18CB JUMP JUMPDEST JUMPDEST PUSH1 0x0 PUSH2 0x1486 DUP6 DUP3 DUP7 ADD PUSH2 0x1335 JUMP JUMPDEST SWAP3 POP POP PUSH1 0x20 PUSH2 0x1497 DUP6 DUP3 DUP7 ADD PUSH2 0x135F JUMP JUMPDEST SWAP2 POP POP SWAP3 POP SWAP3 SWAP1 POP JUMP JUMPDEST PUSH2 0x14AA DUP2 PUSH2 0x173D JUMP JUMPDEST DUP3 MSTORE POP POP JUMP JUMPDEST PUSH2 0x14B9 DUP2 PUSH2 0x172B JUMP JUMPDEST DUP3 MSTORE POP POP JUMP JUMPDEST PUSH2 0x14C8 DUP2 PUSH2 0x174F JUMP JUMPDEST DUP3 MSTORE POP POP JUMP JUMPDEST PUSH2 0x14D7 DUP2 PUSH2 0x1798 JUMP JUMPDEST DUP3 MSTORE POP POP JUMP JUMPDEST PUSH1 0x0 PUSH2 0x14E8 DUP3 PUSH2 0x1654 JUMP JUMPDEST PUSH2 0x14F2 DUP2 DUP6 PUSH2 0x165F JUMP JUMPDEST SWAP4 POP PUSH2 0x1502 DUP2 DUP6 PUSH1 0x20 DUP7 ADD PUSH2 0x17AA JUMP JUMPDEST PUSH2 0x150B DUP2 PUSH2 0x18D0 JUMP JUMPDEST DUP5 ADD SWAP2 POP POP SWAP3 SWAP2 POP POP JUMP JUMPDEST PUSH1 0x0 PUSH2 0x1523 PUSH1 0x14 DUP4 PUSH2 0x165F JUMP JUMPDEST SWAP2 POP PUSH2 0x152E DUP3 PUSH2 0x18E1 JUMP JUMPDEST PUSH1 0x20 DUP3 ADD SWAP1 POP SWAP2 SWAP1 POP JUMP JUMPDEST PUSH1 0x0 PUSH2 0x1546 PUSH1 0x14 DUP4 PUSH2 0x165F JUMP JUMPDEST SWAP2 POP PUSH2 0x1551 DUP3 PUSH2 0x190A JUMP JUMPDEST PUSH1 0x20 DUP3 ADD SWAP1 POP SWAP2 SWAP1 POP JUMP JUMPDEST PUSH2 0x1565 DUP2 PUSH2 0x178E JUMP JUMPDEST DUP3 MSTORE POP POP JUMP JUMPDEST PUSH1 0x0 PUSH1 0x20 DUP3 ADD SWAP1 POP PUSH2 0x1580 PUSH1 0x0 DUP4 ADD DUP5 PUSH2 0x14B0 JUMP JUMPDEST SWAP3 SWAP2 POP POP JUMP JUMPDEST PUSH1 0x0 PUSH1 0x20 DUP3 ADD SWAP1 POP PUSH2 0x159B PUSH1 0x0 DUP4 ADD DUP5 PUSH2 0x14A1 JUMP JUMPDEST SWAP3 SWAP2 POP POP JUMP JUMPDEST PUSH1 0x0 PUSH1 0x20 DUP3 ADD SWAP1 POP PUSH2 0x15B6 PUSH1 0x0 DUP4 ADD DUP5 PUSH2 0x14BF JUMP JUMPDEST SWAP3 SWAP2 POP POP JUMP JUMPDEST PUSH1 0x0 PUSH1 0x20 DUP3 ADD SWAP1 POP PUSH2 0x15D1 PUSH1 0x0 DUP4 ADD DUP5 PUSH2 0x14CE JUMP JUMPDEST SWAP3 SWAP2 POP POP JUMP JUMPDEST PUSH1 0x0 PUSH1 0x20 DUP3 ADD SWAP1 POP DUP2 DUP2 SUB PUSH1 0x0 DUP4 ADD MSTORE PUSH2 0x15F1 DUP2 DUP5 PUSH2 0x14DD JUMP JUMPDEST SWAP1 POP SWAP3 SWAP2 POP POP JUMP JUMPDEST PUSH1 0x0 PUSH1 0x20 DUP3 ADD SWAP1 POP DUP2 DUP2 SUB PUSH1 0x0 DUP4 ADD MSTORE PUSH2 0x1612 DUP2 PUSH2 0x1516 JUMP JUMPDEST SWAP1 POP SWAP2 SWAP1 POP JUMP JUMPDEST PUSH1 0x0 PUSH1 0x20 DUP3 ADD SWAP1 POP DUP2 DUP2 SUB PUSH1 0x0 DUP4 ADD MSTORE PUSH2 0x1632 DUP2 PUSH2 0x1539 JUMP JUMPDEST SWAP1 POP SWAP2 SWAP1 POP JUMP JUMPDEST PUSH1 0x0 PUSH1 0x20 DUP3 ADD SWAP1 POP PUSH2 0x164E PUSH1 0x0 DUP4 ADD DUP5 PUSH2 0x155C JUMP JUMPDEST SWAP3 SWAP2 POP POP JUMP JUMPDEST PUSH1 0x0 DUP2 MLOAD SWAP1 POP SWAP2 SWAP1 POP JUMP JUMPDEST PUSH1 0x0 DUP3 DUP3 MSTORE PUSH1 0x20 DUP3 ADD SWAP1 POP SWAP3 SWAP2 POP POP JUMP JUMPDEST PUSH1 0x0 PUSH2 0x167B DUP3 PUSH2 0x178E JUMP JUMPDEST SWAP2 POP PUSH2 0x1686 DUP4 PUSH2 0x178E JUMP JUMPDEST SWAP3 POP DUP3 PUSH32 0xFFFFFFFFFFFFFFFFFFFFFFFFFFFFFFFFFFFFFFFFFFFFFFFFFFFFFFFFFFFFFFFF SUB DUP3 GT ISZERO PUSH2 0x16BB JUMPI PUSH2 0x16BA PUSH2 0x180F JUMP JUMPDEST JUMPDEST DUP3 DUP3 ADD SWAP1 POP SWAP3 SWAP2 POP POP JUMP JUMPDEST PUSH1 0x0 PUSH2 0x16D1 DUP3 PUSH2 0x178E JUMP JUMPDEST SWAP2 POP PUSH2 0x16DC DUP4 PUSH2 0x178E JUMP JUMPDEST SWAP3 POP DUP3 PUSH2 0x16EC JUMPI PUSH2 0x16EB PUSH2 0x183E JUMP JUMPDEST JUMPDEST DUP3 DUP3 DIV SWAP1 POP SWAP3 SWAP2 POP POP JUMP JUMPDEST PUSH1 0x0 PUSH2 0x1702 DUP3 PUSH2 0x178E JUMP JUMPDEST SWAP2 POP PUSH2 0x170D DUP4 PUSH2 0x178E JUMP JUMPDEST SWAP3 POP DUP3 DUP3 LT ISZERO PUSH2 0x1720 JUMPI PUSH2 0x171F PUSH2 0x180F JUMP JUMPDEST JUMPDEST DUP3 DUP3 SUB SWAP1 POP SWAP3 SWAP2 POP POP JUMP JUMPDEST PUSH1 0x0 PUSH2 0x1736 DUP3 PUSH2 0x176E JUMP JUMPDEST SWAP1 POP SWAP2 SWAP1 POP JUMP JUMPDEST PUSH1 0x0 PUSH2 0x1748 DUP3 PUSH2 0x176E JUMP JUMPDEST SWAP1 POP SWAP2 SWAP1 POP JUMP JUMPDEST PUSH1 0x0 DUP2 ISZERO ISZERO SWAP1 POP SWAP2 SWAP1 POP JUMP JUMPDEST PUSH1 0x0 DUP2 SWAP1 POP PUSH2 0x1769 DUP3 PUSH2 0x1933 JUMP JUMPDEST SWAP2 SWAP1 POP JUMP JUMPDEST PUSH1 0x0 PUSH20 0xFFFFFFFFFFFFFFFFFFFFFFFFFFFFFFFFFFFFFFFF DUP3 AND SWAP1 POP SWAP2 SWAP1 POP JUMP JUMPDEST PUSH1 0x0 DUP2 SWAP1 POP SWAP2 SWAP1 POP JUMP JUMPDEST PUSH1 0x0 PUSH2 0x17A3 DUP3 PUSH2 0x175B JUMP JUMPDEST SWAP1 POP SWAP2 SWAP1 POP JUMP JUMPDEST PUSH1 0x0 JUMPDEST DUP4 DUP2 LT ISZERO PUSH2 0x17C8 JUMPI DUP1 DUP3 ADD MLOAD DUP2 DUP5 ADD MSTORE PUSH1 0x20 DUP2 ADD SWAP1 POP PUSH2 0x17AD JUMP JUMPDEST DUP4 DUP2 GT ISZERO PUSH2 0x17D7 JUMPI PUSH1 0x0 DUP5 DUP5 ADD MSTORE JUMPDEST POP POP POP POP JUMP JUMPDEST PUSH1 0x0 PUSH1 0x2 DUP3 DIV SWAP1 POP PUSH1 0x1 DUP3 AND DUP1 PUSH2 0x17F5 JUMPI PUSH1 0x7F DUP3 AND SWAP2 POP JUMPDEST PUSH1 0x20 DUP3 LT DUP2 EQ ISZERO PUSH2 0x1809 JUMPI PUSH2 0x1808 PUSH2 0x189C JUMP JUMPDEST JUMPDEST POP SWAP2 SWAP1 POP JUMP JUMPDEST PUSH32 0x4E487B7100000000000000000000000000000000000000000000000000000000 PUSH1 0x0 MSTORE PUSH1 0x11 PUSH1 0x4 MSTORE PUSH1 0x24 PUSH1 0x0 REVERT JUMPDEST PUSH32 0x4E487B7100000000000000000000000000000000000000000000000000000000 PUSH1 0x0 MSTORE PUSH1 0x12 PUSH1 0x4 MSTORE PUSH1 0x24 PUSH1 0x0 REVERT JUMPDEST PUSH32 0x4E487B7100000000000000000000000000000000000000000000000000000000 PUSH1 0x0 MSTORE PUSH1 0x21 PUSH1 0x4 MSTORE PUSH1 0x24 PUSH1 0x0 REVERT JUMPDEST PUSH32 0x4E487B7100000000000000000000000000000000000000000000000000000000 PUSH1 0x0 MSTORE PUSH1 0x22 PUSH1 0x4 MSTORE PUSH1 0x24 PUSH1 0x0 REVERT JUMPDEST PUSH1 0x0 DUP1 REVERT JUMPDEST PUSH1 0x0 PUSH1 0x1F NOT PUSH1 0x1F DUP4 ADD AND SWAP1 POP SWAP2 SWAP1 POP JUMP JUMPDEST PUSH32 0x496E73756666696369656E742062616C616E6365000000000000000000000000 PUSH1 0x0 DUP3 ADD MSTORE POP JUMP JUMPDEST PUSH32 0x496E73756666696369656E742042616C616E6365000000000000000000000000 PUSH1 0x0 DUP3 ADD MSTORE POP JUMP JUMPDEST PUSH1 0x4 DUP2 LT PUSH2 0x1944 JUMPI PUSH2 0x1943 PUSH2 0x186D JUMP JUMPDEST JUMPDEST POP JUMP JUMPDEST PUSH2 0x1950 DUP2 PUSH2 0x172B JUMP JUMPDEST DUP2 EQ PUSH2 0x195B JUMPI PUSH1 0x0 DUP1 REVERT JUMPDEST POP JUMP JUMPDEST PUSH2 0x1967 DUP2 PUSH2 0x173D JUMP JUMPDEST DUP2 EQ PUSH2 0x1972 JUMPI PUSH1 0x0 DUP1 REVERT JUMPDEST POP JUMP JUMPDEST PUSH2 0x197E DUP2 PUSH2 0x178E JUMP JUMPDEST DUP2 EQ PUSH2 0x1989 JUMPI PUSH1 0x0 DUP1 REVERT JUMPDEST POP JUMP INVALID LOG2 PUSH5 0x6970667358 0x22 SLT KECCAK256 0xCA CALLVALUE ORIGIN 0x4E DUP13 0xE RETURN SWAP12 COINBASE SWAP8 0xE8 PUSH11 0xAB438B8D50E4F1A7526920 0xAB 0x27 BYTE 0xC2 0x4C 0xAD 0xA7 LOG4 0xDD PUSH5 0x736F6C6343 STOP ADDMOD SMOD STOP CALLER "
				},
				"gasEstimates": {
					"creation": {
						"codeDepositCost": "1318800",
						"executionCost": "infinite",
						"totalCost": "infinite"
					},
					"external": {
						"ICOstate()": "2649",
						"allowance(address,address)": "infinite",
						"approve(address,uint256)": "infinite",
						"balanceOf(address)": "2930",
						"balances(address)": "2859",
						"burn()": "37565",
						"cap()": "2496",
						"changeDepositAddress(address)": "26959",
						"decimal()": "infinite",
						"deposit()": "2602",
						"founder()": "2534",
						"getState()": "9130",
						"halt()": "26646",
						"invest()": "infinite",
						"manager()": "2647",
						"maxLimit()": "2541",
						"minLimit()": "2563",
						"raisedAmount()": "2495",
						"resume()": "26625",
						"tokenPrice()": "2562",
						"tokenTradeTime()": "2473",
						"totalSupply()": "2497",
						"transfer(address,uint256)": "35786",
						"transferFrom(address,address,uint256)": "infinite"
					}
				},
				"methodIdentifiers": {
					"ICOstate()": "3a2c7a37",
					"allowance(address,address)": "dd62ed3e",
					"approve(address,uint256)": "095ea7b3",
					"balanceOf(address)": "70a08231",
					"balances(address)": "27e235e3",
					"burn()": "44df8e70",
					"cap()": "355274ea",
					"changeDepositAddress(address)": "6d58c88f",
					"decimal()": "76809ce3",
					"deposit()": "d0e30db0",
					"founder()": "4d853ee5",
					"getState()": "1865c57d",
					"halt()": "5ed7ca5b",
					"invest()": "e8b5e51f",
					"manager()": "481c6a75",
					"maxLimit()": "1a861d26",
					"minLimit()": "1fd8088d",
					"raisedAmount()": "c59ee1dc",
					"resume()": "046f7da2",
					"tokenPrice()": "7ff9b596",
					"tokenTradeTime()": "b8a4825f",
					"totalSupply()": "18160ddd",
					"transfer(address,uint256)": "a9059cbb",
					"transferFrom(address,address,uint256)": "23b872dd"
				}
			},
			"storageLayout": {
				"storage": [
					{
						"astId": 72,
						"contract": "ICO.sol:ICO",
						"label": "founder",
						"offset": 0,
						"slot": "0",
						"type": "t_address"
					},
					{
						"astId": 75,
						"contract": "ICO.sol:ICO",
						"label": "name",
						"offset": 0,
						"slot": "1",
						"type": "t_string_storage"
					},
					{
						"astId": 78,
						"contract": "ICO.sol:ICO",
						"label": "symbol",
						"offset": 0,
						"slot": "2",
						"type": "t_string_storage"
					},
					{
						"astId": 81,
						"contract": "ICO.sol:ICO",
						"label": "totalSupply",
						"offset": 0,
						"slot": "3",
						"type": "t_uint256"
					},
					{
						"astId": 85,
						"contract": "ICO.sol:ICO",
						"label": "balances",
						"offset": 0,
						"slot": "4",
						"type": "t_mapping(t_address,t_uint256)"
					},
					{
						"astId": 91,
						"contract": "ICO.sol:ICO",
						"label": "allowed",
						"offset": 0,
						"slot": "5",
						"type": "t_mapping(t_address,t_mapping(t_address,t_uint256))"
					},
					{
						"astId": 94,
						"contract": "ICO.sol:ICO",
						"label": "decimal",
						"offset": 0,
						"slot": "6",
						"type": "t_string_storage"
					},
					{
						"astId": 282,
						"contract": "ICO.sol:ICO",
						"label": "manager",
						"offset": 0,
						"slot": "7",
						"type": "t_address"
					},
					{
						"astId": 284,
						"contract": "ICO.sol:ICO",
						"label": "deposit",
						"offset": 0,
						"slot": "8",
						"type": "t_address_payable"
					},
					{
						"astId": 288,
						"contract": "ICO.sol:ICO",
						"label": "icoStart",
						"offset": 0,
						"slot": "9",
						"type": "t_uint256"
					},
					{
						"astId": 294,
						"contract": "ICO.sol:ICO",
						"label": "icoEnd",
						"offset": 0,
						"slot": "10",
						"type": "t_uint256"
					},
					{
						"astId": 297,
						"contract": "ICO.sol:ICO",
						"label": "tokenPrice",
						"offset": 0,
						"slot": "11",
						"type": "t_uint256"
					},
					{
						"astId": 302,
						"contract": "ICO.sol:ICO",
						"label": "tokenTradeTime",
						"offset": 0,
						"slot": "12",
						"type": "t_uint256"
					},
					{
						"astId": 305,
						"contract": "ICO.sol:ICO",
						"label": "minLimit",
						"offset": 0,
						"slot": "13",
						"type": "t_uint256"
					},
					{
						"astId": 308,
						"contract": "ICO.sol:ICO",
						"label": "maxLimit",
						"offset": 0,
						"slot": "14",
						"type": "t_uint256"
					},
					{
						"astId": 311,
						"contract": "ICO.sol:ICO",
						"label": "cap",
						"offset": 0,
						"slot": "15",
						"type": "t_uint256"
					},
					{
						"astId": 313,
						"contract": "ICO.sol:ICO",
						"label": "raisedAmount",
						"offset": 0,
						"slot": "16",
						"type": "t_uint256"
					},
					{
						"astId": 321,
						"contract": "ICO.sol:ICO",
						"label": "ICOstate",
						"offset": 0,
						"slot": "17",
						"type": "t_enum(State)318"
					}
				],
				"types": {
					"t_address": {
						"encoding": "inplace",
						"label": "address",
						"numberOfBytes": "20"
					},
					"t_address_payable": {
						"encoding": "inplace",
						"label": "address payable",
						"numberOfBytes": "20"
					},
					"t_enum(State)318": {
						"encoding": "inplace",
						"label": "enum ICO.State",
						"numberOfBytes": "1"
					},
					"t_mapping(t_address,t_mapping(t_address,t_uint256))": {
						"encoding": "mapping",
						"key": "t_address",
						"label": "mapping(address => mapping(address => uint256))",
						"numberOfBytes": "32",
						"value": "t_mapping(t_address,t_uint256)"
					},
					"t_mapping(t_address,t_uint256)": {
						"encoding": "mapping",
						"key": "t_address",
						"label": "mapping(address => uint256)",
						"numberOfBytes": "32",
						"value": "t_uint256"
					},
					"t_string_storage": {
						"encoding": "bytes",
						"label": "string",
						"numberOfBytes": "32"
					},
					"t_uint256": {
						"encoding": "inplace",
						"label": "uint256",
						"numberOfBytes": "32"
					}
				}
			},
			"userdoc": {
				"kind": "user",
				"methods": {},
				"version": 1
			}
		}
	}
}