{
	"require.sol": {
		"demo2": {
			"abi": [
				{
					"inputs": [
						{
							"internalType": "uint256",
							"name": "x",
							"type": "uint256"
						}
					],
					"name": "get",
					"outputs": [
						{
							"internalType": "string",
							"name": "",
							"type": "string"
						}
					],
					"stateMutability": "pure",
					"type": "function"
				}
			],
			"devdoc": {
				"kind": "dev",
				"methods": {},
				"version": 1
			},
			"evm": {
				"assembly": "    /* \"require.sol\":521:682  contract demo2{... */\n  mstore(0x40, 0x80)\n  callvalue\n  dup1\n  iszero\n  tag_1\n  jumpi\n  0x00\n  dup1\n  revert\ntag_1:\n  pop\n  dataSize(sub_0)\n  dup1\n  dataOffset(sub_0)\n  0x00\n  codecopy\n  0x00\n  return\nstop\n\nsub_0: assembly {\n        /* \"require.sol\":521:682  contract demo2{... */\n      mstore(0x40, 0x80)\n      callvalue\n      dup1\n      iszero\n      tag_1\n      jumpi\n      0x00\n      dup1\n      revert\n    tag_1:\n      pop\n      jumpi(tag_2, lt(calldatasize, 0x04))\n      shr(0xe0, calldataload(0x00))\n      dup1\n      0x9507d39a\n      eq\n      tag_3\n      jumpi\n    tag_2:\n      0x00\n      dup1\n      revert\n        /* \"require.sol\":542:680  function get(uint x) public pure returns (string memory){... */\n    tag_3:\n      tag_4\n      0x04\n      dup1\n      calldatasize\n      sub\n      dup2\n      add\n      swap1\n      tag_5\n      swap2\n      swap1\n      tag_6\n      jump\t// in\n    tag_5:\n      tag_7\n      jump\t// in\n    tag_4:\n      mload(0x40)\n      tag_8\n      swap2\n      swap1\n      tag_9\n      jump\t// in\n    tag_8:\n      mload(0x40)\n      dup1\n      swap2\n      sub\n      swap1\n      return\n    tag_7:\n        /* \"require.sol\":584:597  string memory */\n      0x60\n        /* \"require.sol\":622:623  0 */\n      0x00\n        /* \"require.sol\":619:620  2 */\n      0x02\n        /* \"require.sol\":617:618  x */\n      dup4\n        /* \"require.sol\":617:620  x/2 */\n      tag_11\n      swap2\n      swap1\n      tag_12\n      jump\t// in\n    tag_11:\n        /* \"require.sol\":617:623  x/2==0 */\n      eq\n        /* \"require.sol\":609:640  require(x/2==0,\"Number is Odd\") */\n      tag_13\n      jumpi\n      mload(0x40)\n      0x08c379a000000000000000000000000000000000000000000000000000000000\n      dup2\n      mstore\n      0x04\n      add\n      tag_14\n      swap1\n      tag_15\n      jump\t// in\n    tag_14:\n      mload(0x40)\n      dup1\n      swap2\n      sub\n      swap1\n      revert\n    tag_13:\n        /* \"require.sol\":650:673  return \"Number is Even\" */\n      mload(0x40)\n      dup1\n      0x40\n      add\n      0x40\n      mstore\n      dup1\n      0x0e\n      dup2\n      mstore\n      0x20\n      add\n      0x4e756d626572206973204576656e000000000000000000000000000000000000\n      dup2\n      mstore\n      pop\n      swap1\n      pop\n        /* \"require.sol\":542:680  function get(uint x) public pure returns (string memory){... */\n      swap2\n      swap1\n      pop\n      jump\t// out\n        /* \"#utility.yul\":7:146   */\n    tag_17:\n        /* \"#utility.yul\":53:58   */\n      0x00\n        /* \"#utility.yul\":91:97   */\n      dup2\n        /* \"#utility.yul\":78:98   */\n      calldataload\n        /* \"#utility.yul\":69:98   */\n      swap1\n      pop\n        /* \"#utility.yul\":107:140   */\n      tag_19\n        /* \"#utility.yul\":134:139   */\n      dup2\n        /* \"#utility.yul\":107:140   */\n      tag_20\n      jump\t// in\n    tag_19:\n        /* \"#utility.yul\":7:146   */\n      swap3\n      swap2\n      pop\n      pop\n      jump\t// out\n        /* \"#utility.yul\":152:481   */\n    tag_6:\n        /* \"#utility.yul\":211:217   */\n      0x00\n        /* \"#utility.yul\":260:262   */\n      0x20\n        /* \"#utility.yul\":248:257   */\n      dup3\n        /* \"#utility.yul\":239:246   */\n      dup5\n        /* \"#utility.yul\":235:258   */\n      sub\n        /* \"#utility.yul\":231:263   */\n      slt\n        /* \"#utility.yul\":228:347   */\n      iszero\n      tag_22\n      jumpi\n        /* \"#utility.yul\":266:345   */\n      tag_23\n      tag_24\n      jump\t// in\n    tag_23:\n        /* \"#utility.yul\":228:347   */\n    tag_22:\n        /* \"#utility.yul\":386:387   */\n      0x00\n        /* \"#utility.yul\":411:464   */\n      tag_25\n        /* \"#utility.yul\":456:463   */\n      dup5\n        /* \"#utility.yul\":447:453   */\n      dup3\n        /* \"#utility.yul\":436:445   */\n      dup6\n        /* \"#utility.yul\":432:454   */\n      add\n        /* \"#utility.yul\":411:464   */\n      tag_17\n      jump\t// in\n    tag_25:\n        /* \"#utility.yul\":401:464   */\n      swap2\n      pop\n        /* \"#utility.yul\":357:474   */\n      pop\n        /* \"#utility.yul\":152:481   */\n      swap3\n      swap2\n      pop\n      pop\n      jump\t// out\n        /* \"#utility.yul\":487:851   */\n    tag_26:\n        /* \"#utility.yul\":575:578   */\n      0x00\n        /* \"#utility.yul\":603:642   */\n      tag_28\n        /* \"#utility.yul\":636:641   */\n      dup3\n        /* \"#utility.yul\":603:642   */\n      tag_29\n      jump\t// in\n    tag_28:\n        /* \"#utility.yul\":658:729   */\n      tag_30\n        /* \"#utility.yul\":722:728   */\n      dup2\n        /* \"#utility.yul\":717:720   */\n      dup6\n        /* \"#utility.yul\":658:729   */\n      tag_31\n      jump\t// in\n    tag_30:\n        /* \"#utility.yul\":651:729   */\n      swap4\n      pop\n        /* \"#utility.yul\":738:790   */\n      tag_32\n        /* \"#utility.yul\":783:789   */\n      dup2\n        /* \"#utility.yul\":778:781   */\n      dup6\n        /* \"#utility.yul\":771:775   */\n      0x20\n        /* \"#utility.yul\":764:769   */\n      dup7\n        /* \"#utility.yul\":760:776   */\n      add\n        /* \"#utility.yul\":738:790   */\n      tag_33\n      jump\t// in\n    tag_32:\n        /* \"#utility.yul\":815:844   */\n      tag_34\n        /* \"#utility.yul\":837:843   */\n      dup2\n        /* \"#utility.yul\":815:844   */\n      tag_35\n      jump\t// in\n    tag_34:\n        /* \"#utility.yul\":810:813   */\n      dup5\n        /* \"#utility.yul\":806:845   */\n      add\n        /* \"#utility.yul\":799:845   */\n      swap2\n      pop\n        /* \"#utility.yul\":579:851   */\n      pop\n        /* \"#utility.yul\":487:851   */\n      swap3\n      swap2\n      pop\n      pop\n      jump\t// out\n        /* \"#utility.yul\":857:1223   */\n    tag_36:\n        /* \"#utility.yul\":999:1002   */\n      0x00\n        /* \"#utility.yul\":1020:1087   */\n      tag_38\n        /* \"#utility.yul\":1084:1086   */\n      0x0d\n        /* \"#utility.yul\":1079:1082   */\n      dup4\n        /* \"#utility.yul\":1020:1087   */\n      tag_31\n      jump\t// in\n    tag_38:\n        /* \"#utility.yul\":1013:1087   */\n      swap2\n      pop\n        /* \"#utility.yul\":1096:1189   */\n      tag_39\n        /* \"#utility.yul\":1185:1188   */\n      dup3\n        /* \"#utility.yul\":1096:1189   */\n      tag_40\n      jump\t// in\n    tag_39:\n        /* \"#utility.yul\":1214:1216   */\n      0x20\n        /* \"#utility.yul\":1209:1212   */\n      dup3\n        /* \"#utility.yul\":1205:1217   */\n      add\n        /* \"#utility.yul\":1198:1217   */\n      swap1\n      pop\n        /* \"#utility.yul\":857:1223   */\n      swap2\n      swap1\n      pop\n      jump\t// out\n        /* \"#utility.yul\":1229:1542   */\n    tag_9:\n        /* \"#utility.yul\":1342:1346   */\n      0x00\n        /* \"#utility.yul\":1380:1382   */\n      0x20\n        /* \"#utility.yul\":1369:1378   */\n      dup3\n        /* \"#utility.yul\":1365:1383   */\n      add\n        /* \"#utility.yul\":1357:1383   */\n      swap1\n      pop\n        /* \"#utility.yul\":1429:1438   */\n      dup2\n        /* \"#utility.yul\":1423:1427   */\n      dup2\n        /* \"#utility.yul\":1419:1439   */\n      sub\n        /* \"#utility.yul\":1415:1416   */\n      0x00\n        /* \"#utility.yul\":1404:1413   */\n      dup4\n        /* \"#utility.yul\":1400:1417   */\n      add\n        /* \"#utility.yul\":1393:1440   */\n      mstore\n        /* \"#utility.yul\":1457:1535   */\n      tag_42\n        /* \"#utility.yul\":1530:1534   */\n      dup2\n        /* \"#utility.yul\":1521:1527   */\n      dup5\n        /* \"#utility.yul\":1457:1535   */\n      tag_26\n      jump\t// in\n    tag_42:\n        /* \"#utility.yul\":1449:1535   */\n      swap1\n      pop\n        /* \"#utility.yul\":1229:1542   */\n      swap3\n      swap2\n      pop\n      pop\n      jump\t// out\n        /* \"#utility.yul\":1548:1967   */\n    tag_15:\n        /* \"#utility.yul\":1714:1718   */\n      0x00\n        /* \"#utility.yul\":1752:1754   */\n      0x20\n        /* \"#utility.yul\":1741:1750   */\n      dup3\n        /* \"#utility.yul\":1737:1755   */\n      add\n        /* \"#utility.yul\":1729:1755   */\n      swap1\n      pop\n        /* \"#utility.yul\":1801:1810   */\n      dup2\n        /* \"#utility.yul\":1795:1799   */\n      dup2\n        /* \"#utility.yul\":1791:1811   */\n      sub\n        /* \"#utility.yul\":1787:1788   */\n      0x00\n        /* \"#utility.yul\":1776:1785   */\n      dup4\n        /* \"#utility.yul\":1772:1789   */\n      add\n        /* \"#utility.yul\":1765:1812   */\n      mstore\n        /* \"#utility.yul\":1829:1960   */\n      tag_44\n        /* \"#utility.yul\":1955:1959   */\n      dup2\n        /* \"#utility.yul\":1829:1960   */\n      tag_36\n      jump\t// in\n    tag_44:\n        /* \"#utility.yul\":1821:1960   */\n      swap1\n      pop\n        /* \"#utility.yul\":1548:1967   */\n      swap2\n      swap1\n      pop\n      jump\t// out\n        /* \"#utility.yul\":2054:2153   */\n    tag_29:\n        /* \"#utility.yul\":2106:2112   */\n      0x00\n        /* \"#utility.yul\":2140:2145   */\n      dup2\n        /* \"#utility.yul\":2134:2146   */\n      mload\n        /* \"#utility.yul\":2124:2146   */\n      swap1\n      pop\n        /* \"#utility.yul\":2054:2153   */\n      swap2\n      swap1\n      pop\n      jump\t// out\n        /* \"#utility.yul\":2159:2328   */\n    tag_31:\n        /* \"#utility.yul\":2243:2254   */\n      0x00\n        /* \"#utility.yul\":2277:2283   */\n      dup3\n        /* \"#utility.yul\":2272:2275   */\n      dup3\n        /* \"#utility.yul\":2265:2284   */\n      mstore\n        /* \"#utility.yul\":2317:2321   */\n      0x20\n        /* \"#utility.yul\":2312:2315   */\n      dup3\n        /* \"#utility.yul\":2308:2322   */\n      add\n        /* \"#utility.yul\":2293:2322   */\n      swap1\n      pop\n        /* \"#utility.yul\":2159:2328   */\n      swap3\n      swap2\n      pop\n      pop\n      jump\t// out\n        /* \"#utility.yul\":2334:2519   */\n    tag_12:\n        /* \"#utility.yul\":2374:2375   */\n      0x00\n        /* \"#utility.yul\":2391:2411   */\n      tag_50\n        /* \"#utility.yul\":2409:2410   */\n      dup3\n        /* \"#utility.yul\":2391:2411   */\n      tag_51\n      jump\t// in\n    tag_50:\n        /* \"#utility.yul\":2386:2411   */\n      swap2\n      pop\n        /* \"#utility.yul\":2425:2445   */\n      tag_52\n        /* \"#utility.yul\":2443:2444   */\n      dup4\n        /* \"#utility.yul\":2425:2445   */\n      tag_51\n      jump\t// in\n    tag_52:\n        /* \"#utility.yul\":2420:2445   */\n      swap3\n      pop\n        /* \"#utility.yul\":2464:2465   */\n      dup3\n        /* \"#utility.yul\":2454:2489   */\n      tag_53\n      jumpi\n        /* \"#utility.yul\":2469:2487   */\n      tag_54\n      tag_55\n      jump\t// in\n    tag_54:\n        /* \"#utility.yul\":2454:2489   */\n    tag_53:\n        /* \"#utility.yul\":2511:2512   */\n      dup3\n        /* \"#utility.yul\":2508:2509   */\n      dup3\n        /* \"#utility.yul\":2504:2513   */\n      div\n        /* \"#utility.yul\":2499:2513   */\n      swap1\n      pop\n        /* \"#utility.yul\":2334:2519   */\n      swap3\n      swap2\n      pop\n      pop\n      jump\t// out\n        /* \"#utility.yul\":2525:2602   */\n    tag_51:\n        /* \"#utility.yul\":2562:2569   */\n      0x00\n        /* \"#utility.yul\":2591:2596   */\n      dup2\n        /* \"#utility.yul\":2580:2596   */\n      swap1\n      pop\n        /* \"#utility.yul\":2525:2602   */\n      swap2\n      swap1\n      pop\n      jump\t// out\n        /* \"#utility.yul\":2608:2915   */\n    tag_33:\n        /* \"#utility.yul\":2676:2677   */\n      0x00\n        /* \"#utility.yul\":2686:2799   */\n    tag_58:\n        /* \"#utility.yul\":2700:2706   */\n      dup4\n        /* \"#utility.yul\":2697:2698   */\n      dup2\n        /* \"#utility.yul\":2694:2707   */\n      lt\n        /* \"#utility.yul\":2686:2799   */\n      iszero\n      tag_60\n      jumpi\n        /* \"#utility.yul\":2785:2786   */\n      dup1\n        /* \"#utility.yul\":2780:2783   */\n      dup3\n        /* \"#utility.yul\":2776:2787   */\n      add\n        /* \"#utility.yul\":2770:2788   */\n      mload\n        /* \"#utility.yul\":2766:2767   */\n      dup2\n        /* \"#utility.yul\":2761:2764   */\n      dup5\n        /* \"#utility.yul\":2757:2768   */\n      add\n        /* \"#utility.yul\":2750:2789   */\n      mstore\n        /* \"#utility.yul\":2722:2724   */\n      0x20\n        /* \"#utility.yul\":2719:2720   */\n      dup2\n        /* \"#utility.yul\":2715:2725   */\n      add\n        /* \"#utility.yul\":2710:2725   */\n      swap1\n      pop\n        /* \"#utility.yul\":2686:2799   */\n      jump(tag_58)\n    tag_60:\n        /* \"#utility.yul\":2817:2823   */\n      dup4\n        /* \"#utility.yul\":2814:2815   */\n      dup2\n        /* \"#utility.yul\":2811:2824   */\n      gt\n        /* \"#utility.yul\":2808:2909   */\n      iszero\n      tag_61\n      jumpi\n        /* \"#utility.yul\":2897:2898   */\n      0x00\n        /* \"#utility.yul\":2888:2894   */\n      dup5\n        /* \"#utility.yul\":2883:2886   */\n      dup5\n        /* \"#utility.yul\":2879:2895   */\n      add\n        /* \"#utility.yul\":2872:2899   */\n      mstore\n        /* \"#utility.yul\":2808:2909   */\n    tag_61:\n        /* \"#utility.yul\":2657:2915   */\n      pop\n        /* \"#utility.yul\":2608:2915   */\n      pop\n      pop\n      pop\n      jump\t// out\n        /* \"#utility.yul\":3107:3287   */\n    tag_55:\n        /* \"#utility.yul\":3155:3232   */\n      0x4e487b7100000000000000000000000000000000000000000000000000000000\n        /* \"#utility.yul\":3152:3153   */\n      0x00\n        /* \"#utility.yul\":3145:3233   */\n      mstore\n        /* \"#utility.yul\":3252:3256   */\n      0x12\n        /* \"#utility.yul\":3249:3250   */\n      0x04\n        /* \"#utility.yul\":3242:3257   */\n      mstore\n        /* \"#utility.yul\":3276:3280   */\n      0x24\n        /* \"#utility.yul\":3273:3274   */\n      0x00\n        /* \"#utility.yul\":3266:3281   */\n      revert\n        /* \"#utility.yul\":3416:3533   */\n    tag_24:\n        /* \"#utility.yul\":3525:3526   */\n      0x00\n        /* \"#utility.yul\":3522:3523   */\n      dup1\n        /* \"#utility.yul\":3515:3527   */\n      revert\n        /* \"#utility.yul\":3539:3641   */\n    tag_35:\n        /* \"#utility.yul\":3580:3586   */\n      0x00\n        /* \"#utility.yul\":3631:3633   */\n      0x1f\n        /* \"#utility.yul\":3627:3634   */\n      not\n        /* \"#utility.yul\":3622:3624   */\n      0x1f\n        /* \"#utility.yul\":3615:3620   */\n      dup4\n        /* \"#utility.yul\":3611:3625   */\n      add\n        /* \"#utility.yul\":3607:3635   */\n      and\n        /* \"#utility.yul\":3597:3635   */\n      swap1\n      pop\n        /* \"#utility.yul\":3539:3641   */\n      swap2\n      swap1\n      pop\n      jump\t// out\n        /* \"#utility.yul\":3647:3810   */\n    tag_40:\n        /* \"#utility.yul\":3787:3802   */\n      0x4e756d626572206973204f646400000000000000000000000000000000000000\n        /* \"#utility.yul\":3783:3784   */\n      0x00\n        /* \"#utility.yul\":3775:3781   */\n      dup3\n        /* \"#utility.yul\":3771:3785   */\n      add\n        /* \"#utility.yul\":3764:3803   */\n      mstore\n        /* \"#utility.yul\":3647:3810   */\n      pop\n      jump\t// out\n        /* \"#utility.yul\":3816:3938   */\n    tag_20:\n        /* \"#utility.yul\":3889:3913   */\n      tag_71\n        /* \"#utility.yul\":3907:3912   */\n      dup2\n        /* \"#utility.yul\":3889:3913   */\n      tag_51\n      jump\t// in\n    tag_71:\n        /* \"#utility.yul\":3882:3887   */\n      dup2\n        /* \"#utility.yul\":3879:3914   */\n      eq\n        /* \"#utility.yul\":3869:3932   */\n      tag_72\n      jumpi\n        /* \"#utility.yul\":3928:3929   */\n      0x00\n        /* \"#utility.yul\":3925:3926   */\n      dup1\n        /* \"#utility.yul\":3918:3930   */\n      revert\n        /* \"#utility.yul\":3869:3932   */\n    tag_72:\n        /* \"#utility.yul\":3816:3938   */\n      pop\n      jump\t// out\n\n    auxdata: 0xa2646970667358221220c273d0e518f2b3060028e2e206236320a7237a343daf3e107aa82fed59f6d2a764736f6c63430008070033\n}\n",
				"bytecode": {
					"linkReferences": {},
					"object": "608060405234801561001057600080fd5b50610313806100206000396000f3fe608060405234801561001057600080fd5b506004361061002b5760003560e01c80639507d39a14610030575b600080fd5b61004a60048036038101906100459190610103565b610060565b604051610057919061018c565b60405180910390f35b6060600060028361007191906101ea565b146100b1576040517f08c379a00000000000000000000000000000000000000000000000000000000081526004016100a8906101ae565b60405180910390fd5b6040518060400160405280600e81526020017f4e756d626572206973204576656e0000000000000000000000000000000000008152509050919050565b6000813590506100fd816102c6565b92915050565b60006020828403121561011957610118610287565b5b6000610127848285016100ee565b91505092915050565b600061013b826101ce565b61014581856101d9565b9350610155818560208601610225565b61015e8161028c565b840191505092915050565b6000610176600d836101d9565b91506101818261029d565b602082019050919050565b600060208201905081810360008301526101a68184610130565b905092915050565b600060208201905081810360008301526101c781610169565b9050919050565b600081519050919050565b600082825260208201905092915050565b60006101f58261021b565b91506102008361021b565b9250826102105761020f610258565b5b828204905092915050565b6000819050919050565b60005b83811015610243578082015181840152602081019050610228565b83811115610252576000848401525b50505050565b7f4e487b7100000000000000000000000000000000000000000000000000000000600052601260045260246000fd5b600080fd5b6000601f19601f8301169050919050565b7f4e756d626572206973204f646400000000000000000000000000000000000000600082015250565b6102cf8161021b565b81146102da57600080fd5b5056fea2646970667358221220c273d0e518f2b3060028e2e206236320a7237a343daf3e107aa82fed59f6d2a764736f6c63430008070033",
					"opcodes": "PUSH1 0x80 PUSH1 0x40 MSTORE CALLVALUE DUP1 ISZERO PUSH2 0x10 JUMPI PUSH1 0x0 DUP1 REVERT JUMPDEST POP PUSH2 0x313 DUP1 PUSH2 0x20 PUSH1 0x0 CODECOPY PUSH1 0x0 RETURN INVALID PUSH1 0x80 PUSH1 0x40 MSTORE CALLVALUE DUP1 ISZERO PUSH2 0x10 JUMPI PUSH1 0x0 DUP1 REVERT JUMPDEST POP PUSH1 0x4 CALLDATASIZE LT PUSH2 0x2B JUMPI PUSH1 0x0 CALLDATALOAD PUSH1 0xE0 SHR DUP1 PUSH4 0x9507D39A EQ PUSH2 0x30 JUMPI JUMPDEST PUSH1 0x0 DUP1 REVERT JUMPDEST PUSH2 0x4A PUSH1 0x4 DUP1 CALLDATASIZE SUB DUP2 ADD SWAP1 PUSH2 0x45 SWAP2 SWAP1 PUSH2 0x103 JUMP JUMPDEST PUSH2 0x60 JUMP JUMPDEST PUSH1 0x40 MLOAD PUSH2 0x57 SWAP2 SWAP1 PUSH2 0x18C JUMP JUMPDEST PUSH1 0x40 MLOAD DUP1 SWAP2 SUB SWAP1 RETURN JUMPDEST PUSH1 0x60 PUSH1 0x0 PUSH1 0x2 DUP4 PUSH2 0x71 SWAP2 SWAP1 PUSH2 0x1EA JUMP JUMPDEST EQ PUSH2 0xB1 JUMPI PUSH1 0x40 MLOAD PUSH32 0x8C379A000000000000000000000000000000000000000000000000000000000 DUP2 MSTORE PUSH1 0x4 ADD PUSH2 0xA8 SWAP1 PUSH2 0x1AE JUMP JUMPDEST PUSH1 0x40 MLOAD DUP1 SWAP2 SUB SWAP1 REVERT JUMPDEST PUSH1 0x40 MLOAD DUP1 PUSH1 0x40 ADD PUSH1 0x40 MSTORE DUP1 PUSH1 0xE DUP2 MSTORE PUSH1 0x20 ADD PUSH32 0x4E756D626572206973204576656E000000000000000000000000000000000000 DUP2 MSTORE POP SWAP1 POP SWAP2 SWAP1 POP JUMP JUMPDEST PUSH1 0x0 DUP2 CALLDATALOAD SWAP1 POP PUSH2 0xFD DUP2 PUSH2 0x2C6 JUMP JUMPDEST SWAP3 SWAP2 POP POP JUMP JUMPDEST PUSH1 0x0 PUSH1 0x20 DUP3 DUP5 SUB SLT ISZERO PUSH2 0x119 JUMPI PUSH2 0x118 PUSH2 0x287 JUMP JUMPDEST JUMPDEST PUSH1 0x0 PUSH2 0x127 DUP5 DUP3 DUP6 ADD PUSH2 0xEE JUMP JUMPDEST SWAP2 POP POP SWAP3 SWAP2 POP POP JUMP JUMPDEST PUSH1 0x0 PUSH2 0x13B DUP3 PUSH2 0x1CE JUMP JUMPDEST PUSH2 0x145 DUP2 DUP6 PUSH2 0x1D9 JUMP JUMPDEST SWAP4 POP PUSH2 0x155 DUP2 DUP6 PUSH1 0x20 DUP7 ADD PUSH2 0x225 JUMP JUMPDEST PUSH2 0x15E DUP2 PUSH2 0x28C JUMP JUMPDEST DUP5 ADD SWAP2 POP POP SWAP3 SWAP2 POP POP JUMP JUMPDEST PUSH1 0x0 PUSH2 0x176 PUSH1 0xD DUP4 PUSH2 0x1D9 JUMP JUMPDEST SWAP2 POP PUSH2 0x181 DUP3 PUSH2 0x29D JUMP JUMPDEST PUSH1 0x20 DUP3 ADD SWAP1 POP SWAP2 SWAP1 POP JUMP JUMPDEST PUSH1 0x0 PUSH1 0x20 DUP3 ADD SWAP1 POP DUP2 DUP2 SUB PUSH1 0x0 DUP4 ADD MSTORE PUSH2 0x1A6 DUP2 DUP5 PUSH2 0x130 JUMP JUMPDEST SWAP1 POP SWAP3 SWAP2 POP POP JUMP JUMPDEST PUSH1 0x0 PUSH1 0x20 DUP3 ADD SWAP1 POP DUP2 DUP2 SUB PUSH1 0x0 DUP4 ADD MSTORE PUSH2 0x1C7 DUP2 PUSH2 0x169 JUMP JUMPDEST SWAP1 POP SWAP2 SWAP1 POP JUMP JUMPDEST PUSH1 0x0 DUP2 MLOAD SWAP1 POP SWAP2 SWAP1 POP JUMP JUMPDEST PUSH1 0x0 DUP3 DUP3 MSTORE PUSH1 0x20 DUP3 ADD SWAP1 POP SWAP3 SWAP2 POP POP JUMP JUMPDEST PUSH1 0x0 PUSH2 0x1F5 DUP3 PUSH2 0x21B JUMP JUMPDEST SWAP2 POP PUSH2 0x200 DUP4 PUSH2 0x21B JUMP JUMPDEST SWAP3 POP DUP3 PUSH2 0x210 JUMPI PUSH2 0x20F PUSH2 0x258 JUMP JUMPDEST JUMPDEST DUP3 DUP3 DIV SWAP1 POP SWAP3 SWAP2 POP POP JUMP JUMPDEST PUSH1 0x0 DUP2 SWAP1 POP SWAP2 SWAP1 POP JUMP JUMPDEST PUSH1 0x0 JUMPDEST DUP4 DUP2 LT ISZERO PUSH2 0x243 JUMPI DUP1 DUP3 ADD MLOAD DUP2 DUP5 ADD MSTORE PUSH1 0x20 DUP2 ADD SWAP1 POP PUSH2 0x228 JUMP JUMPDEST DUP4 DUP2 GT ISZERO PUSH2 0x252 JUMPI PUSH1 0x0 DUP5 DUP5 ADD MSTORE JUMPDEST POP POP POP POP JUMP JUMPDEST PUSH32 0x4E487B7100000000000000000000000000000000000000000000000000000000 PUSH1 0x0 MSTORE PUSH1 0x12 PUSH1 0x4 MSTORE PUSH1 0x24 PUSH1 0x0 REVERT JUMPDEST PUSH1 0x0 DUP1 REVERT JUMPDEST PUSH1 0x0 PUSH1 0x1F NOT PUSH1 0x1F DUP4 ADD AND SWAP1 POP SWAP2 SWAP1 POP JUMP JUMPDEST PUSH32 0x4E756D626572206973204F646400000000000000000000000000000000000000 PUSH1 0x0 DUP3 ADD MSTORE POP JUMP JUMPDEST PUSH2 0x2CF DUP2 PUSH2 0x21B JUMP JUMPDEST DUP2 EQ PUSH2 0x2DA JUMPI PUSH1 0x0 DUP1 REVERT JUMPDEST POP JUMP INVALID LOG2 PUSH5 0x6970667358 0x22 SLT KECCAK256 0xC2 PUSH20 0xD0E518F2B3060028E2E206236320A7237A343DAF RETURNDATACOPY LT PUSH27 0xA82FED59F6D2A764736F6C63430008070033000000000000000000 "
				},
				"gasEstimates": {
					"creation": {
						"codeDepositCost": "157400",
						"executionCost": "202",
						"totalCost": "157602"
					},
					"external": {
						"get(uint256)": "infinite"
					}
				},
				"methodIdentifiers": {
					"get(uint256)": "9507d39a"
				}
			},
			"storageLayout": {
				"storage": [],
				"types": null
			},
			"userdoc": {
				"kind": "user",
				"methods": {},
				"version": 1
			}
		}
	}
}