{
	"DesignPattern_FactoryPattern.sol": {
		"Company": {
			"abi": [
				{
					"inputs": [],
					"name": "createInstance",
					"outputs": [],
					"stateMutability": "nonpayable",
					"type": "function"
				},
				{
					"inputs": [
						{
							"internalType": "uint256",
							"name": "",
							"type": "uint256"
						}
					],
					"name": "employee",
					"outputs": [
						{
							"internalType": "contract Employee",
							"name": "",
							"type": "address"
						}
					],
					"stateMutability": "view",
					"type": "function"
				}
			],
			"devdoc": {
				"kind": "dev",
				"methods": {},
				"version": 1
			},
			"evm": {
				"assembly": "    /* \"DesignPattern_FactoryPattern.sol\":870:1008  contract Company{... */\n  mstore(0x40, 0x80)\n  callvalue\n  dup1\n  iszero\n  tag_1\n  jumpi\n  0x00\n  dup1\n  revert\ntag_1:\n  pop\n  dataSize(sub_0)\n  dup1\n  dataOffset(sub_0)\n  0x00\n  codecopy\n  0x00\n  return\nstop\n\nsub_0: assembly {\n        /* \"DesignPattern_FactoryPattern.sol\":870:1008  contract Company{... */\n      mstore(0x40, 0x80)\n      callvalue\n      dup1\n      iszero\n      tag_1\n      jumpi\n      0x00\n      dup1\n      revert\n    tag_1:\n      pop\n      jumpi(tag_2, lt(calldatasize, 0x04))\n      shr(0xe0, calldataload(0x00))\n      dup1\n      0x99b65f79\n      eq\n      tag_3\n      jumpi\n      dup1\n      0xad501467\n      eq\n      tag_4\n      jumpi\n    tag_2:\n      0x00\n      dup1\n      revert\n        /* \"DesignPattern_FactoryPattern.sol\":893:919  Employee[] public employee */\n    tag_3:\n      tag_5\n      0x04\n      dup1\n      calldatasize\n      sub\n      dup2\n      add\n      swap1\n      tag_6\n      swap2\n      swap1\n      tag_7\n      jump\t// in\n    tag_6:\n      tag_8\n      jump\t// in\n    tag_5:\n      mload(0x40)\n      tag_9\n      swap2\n      swap1\n      tag_10\n      jump\t// in\n    tag_9:\n      mload(0x40)\n      dup1\n      swap2\n      sub\n      swap1\n      return\n        /* \"DesignPattern_FactoryPattern.sol\":925:1006  function createInstance ()  public... */\n    tag_4:\n      tag_11\n      tag_12\n      jump\t// in\n    tag_11:\n      stop\n        /* \"DesignPattern_FactoryPattern.sol\":893:919  Employee[] public employee */\n    tag_8:\n      0x00\n      dup2\n      dup2\n      sload\n      dup2\n      lt\n      tag_13\n      jumpi\n      0x00\n      dup1\n      revert\n    tag_13:\n      swap1\n      0x00\n      mstore\n      keccak256(0x00, 0x20)\n      add\n      0x00\n      swap2\n      pop\n      sload\n      swap1\n      0x0100\n      exp\n      swap1\n      div\n      0xffffffffffffffffffffffffffffffffffffffff\n      and\n      dup2\n      jump\t// out\n        /* \"DesignPattern_FactoryPattern.sol\":925:1006  function createInstance ()  public... */\n    tag_12:\n        /* \"DesignPattern_FactoryPattern.sol\":970:978  employee */\n      0x00\n        /* \"DesignPattern_FactoryPattern.sol\":984:998  new Employee() */\n      mload(0x40)\n      tag_16\n      swap1\n      tag_17\n      jump\t// in\n    tag_16:\n      mload(0x40)\n      dup1\n      swap2\n      sub\n      swap1\n      0x00\n      create\n      dup1\n      iszero\n      dup1\n      iszero\n      tag_18\n      jumpi\n      returndatasize\n      0x00\n      dup1\n      returndatacopy\n      revert(0x00, returndatasize)\n    tag_18:\n      pop\n        /* \"DesignPattern_FactoryPattern.sol\":970:999  employee.push(new Employee()) */\n      swap1\n      dup1\n      0x01\n      dup2\n      sload\n      add\n      dup1\n      dup3\n      sstore\n      dup1\n      swap2\n      pop\n      pop\n      0x01\n      swap1\n      sub\n      swap1\n      0x00\n      mstore\n      keccak256(0x00, 0x20)\n      add\n      0x00\n      swap1\n      swap2\n      swap1\n      swap2\n      swap1\n      swap2\n      0x0100\n      exp\n      dup2\n      sload\n      dup2\n      0xffffffffffffffffffffffffffffffffffffffff\n      mul\n      not\n      and\n      swap1\n      dup4\n      0xffffffffffffffffffffffffffffffffffffffff\n      and\n      mul\n      or\n      swap1\n      sstore\n      pop\n        /* \"DesignPattern_FactoryPattern.sol\":925:1006  function createInstance ()  public... */\n      jump\t// out\n    tag_17:\n      dataSize(sub_0)\n      dup1\n      dataOffset(sub_0)\n      dup4\n      codecopy\n      add\n      swap1\n      jump\t// out\n        /* \"#utility.yul\":7:146   */\n    tag_21:\n        /* \"#utility.yul\":53:58   */\n      0x00\n        /* \"#utility.yul\":91:97   */\n      dup2\n        /* \"#utility.yul\":78:98   */\n      calldataload\n        /* \"#utility.yul\":69:98   */\n      swap1\n      pop\n        /* \"#utility.yul\":107:140   */\n      tag_23\n        /* \"#utility.yul\":134:139   */\n      dup2\n        /* \"#utility.yul\":107:140   */\n      tag_24\n      jump\t// in\n    tag_23:\n        /* \"#utility.yul\":7:146   */\n      swap3\n      swap2\n      pop\n      pop\n      jump\t// out\n        /* \"#utility.yul\":152:481   */\n    tag_7:\n        /* \"#utility.yul\":211:217   */\n      0x00\n        /* \"#utility.yul\":260:262   */\n      0x20\n        /* \"#utility.yul\":248:257   */\n      dup3\n        /* \"#utility.yul\":239:246   */\n      dup5\n        /* \"#utility.yul\":235:258   */\n      sub\n        /* \"#utility.yul\":231:263   */\n      slt\n        /* \"#utility.yul\":228:347   */\n      iszero\n      tag_26\n      jumpi\n        /* \"#utility.yul\":266:345   */\n      tag_27\n      tag_28\n      jump\t// in\n    tag_27:\n        /* \"#utility.yul\":228:347   */\n    tag_26:\n        /* \"#utility.yul\":386:387   */\n      0x00\n        /* \"#utility.yul\":411:464   */\n      tag_29\n        /* \"#utility.yul\":456:463   */\n      dup5\n        /* \"#utility.yul\":447:453   */\n      dup3\n        /* \"#utility.yul\":436:445   */\n      dup6\n        /* \"#utility.yul\":432:454   */\n      add\n        /* \"#utility.yul\":411:464   */\n      tag_21\n      jump\t// in\n    tag_29:\n        /* \"#utility.yul\":401:464   */\n      swap2\n      pop\n        /* \"#utility.yul\":357:474   */\n      pop\n        /* \"#utility.yul\":152:481   */\n      swap3\n      swap2\n      pop\n      pop\n      jump\t// out\n        /* \"#utility.yul\":487:648   */\n    tag_30:\n        /* \"#utility.yul\":589:641   */\n      tag_32\n        /* \"#utility.yul\":635:640   */\n      dup2\n        /* \"#utility.yul\":589:641   */\n      tag_33\n      jump\t// in\n    tag_32:\n        /* \"#utility.yul\":584:587   */\n      dup3\n        /* \"#utility.yul\":577:642   */\n      mstore\n        /* \"#utility.yul\":487:648   */\n      pop\n      pop\n      jump\t// out\n        /* \"#utility.yul\":654:906   */\n    tag_10:\n        /* \"#utility.yul\":762:766   */\n      0x00\n        /* \"#utility.yul\":800:802   */\n      0x20\n        /* \"#utility.yul\":789:798   */\n      dup3\n        /* \"#utility.yul\":785:803   */\n      add\n        /* \"#utility.yul\":777:803   */\n      swap1\n      pop\n        /* \"#utility.yul\":813:899   */\n      tag_35\n        /* \"#utility.yul\":896:897   */\n      0x00\n        /* \"#utility.yul\":885:894   */\n      dup4\n        /* \"#utility.yul\":881:898   */\n      add\n        /* \"#utility.yul\":872:878   */\n      dup5\n        /* \"#utility.yul\":813:899   */\n      tag_30\n      jump\t// in\n    tag_35:\n        /* \"#utility.yul\":654:906   */\n      swap3\n      swap2\n      pop\n      pop\n      jump\t// out\n        /* \"#utility.yul\":993:1119   */\n    tag_38:\n        /* \"#utility.yul\":1030:1037   */\n      0x00\n        /* \"#utility.yul\":1070:1112   */\n      0xffffffffffffffffffffffffffffffffffffffff\n        /* \"#utility.yul\":1063:1068   */\n      dup3\n        /* \"#utility.yul\":1059:1113   */\n      and\n        /* \"#utility.yul\":1048:1113   */\n      swap1\n      pop\n        /* \"#utility.yul\":993:1119   */\n      swap2\n      swap1\n      pop\n      jump\t// out\n        /* \"#utility.yul\":1125:1202   */\n    tag_40:\n        /* \"#utility.yul\":1162:1169   */\n      0x00\n        /* \"#utility.yul\":1191:1196   */\n      dup2\n        /* \"#utility.yul\":1180:1196   */\n      swap1\n      pop\n        /* \"#utility.yul\":1125:1202   */\n      swap2\n      swap1\n      pop\n      jump\t// out\n        /* \"#utility.yul\":1208:1349   */\n    tag_33:\n        /* \"#utility.yul\":1273:1282   */\n      0x00\n        /* \"#utility.yul\":1306:1343   */\n      tag_43\n        /* \"#utility.yul\":1337:1342   */\n      dup3\n        /* \"#utility.yul\":1306:1343   */\n      tag_44\n      jump\t// in\n    tag_43:\n        /* \"#utility.yul\":1293:1343   */\n      swap1\n      pop\n        /* \"#utility.yul\":1208:1349   */\n      swap2\n      swap1\n      pop\n      jump\t// out\n        /* \"#utility.yul\":1355:1481   */\n    tag_44:\n        /* \"#utility.yul\":1405:1414   */\n      0x00\n        /* \"#utility.yul\":1438:1475   */\n      tag_46\n        /* \"#utility.yul\":1469:1474   */\n      dup3\n        /* \"#utility.yul\":1438:1475   */\n      tag_47\n      jump\t// in\n    tag_46:\n        /* \"#utility.yul\":1425:1475   */\n      swap1\n      pop\n        /* \"#utility.yul\":1355:1481   */\n      swap2\n      swap1\n      pop\n      jump\t// out\n        /* \"#utility.yul\":1487:1600   */\n    tag_47:\n        /* \"#utility.yul\":1537:1546   */\n      0x00\n        /* \"#utility.yul\":1570:1594   */\n      tag_49\n        /* \"#utility.yul\":1588:1593   */\n      dup3\n        /* \"#utility.yul\":1570:1594   */\n      tag_38\n      jump\t// in\n    tag_49:\n        /* \"#utility.yul\":1557:1594   */\n      swap1\n      pop\n        /* \"#utility.yul\":1487:1600   */\n      swap2\n      swap1\n      pop\n      jump\t// out\n        /* \"#utility.yul\":1729:1846   */\n    tag_28:\n        /* \"#utility.yul\":1838:1839   */\n      0x00\n        /* \"#utility.yul\":1835:1836   */\n      dup1\n        /* \"#utility.yul\":1828:1840   */\n      revert\n        /* \"#utility.yul\":1852:1974   */\n    tag_24:\n        /* \"#utility.yul\":1925:1949   */\n      tag_54\n        /* \"#utility.yul\":1943:1948   */\n      dup2\n        /* \"#utility.yul\":1925:1949   */\n      tag_40\n      jump\t// in\n    tag_54:\n        /* \"#utility.yul\":1918:1923   */\n      dup2\n        /* \"#utility.yul\":1915:1950   */\n      eq\n        /* \"#utility.yul\":1905:1968   */\n      tag_55\n      jumpi\n        /* \"#utility.yul\":1964:1965   */\n      0x00\n        /* \"#utility.yul\":1961:1962   */\n      dup1\n        /* \"#utility.yul\":1954:1966   */\n      revert\n        /* \"#utility.yul\":1905:1968   */\n    tag_55:\n        /* \"#utility.yul\":1852:1974   */\n      pop\n      jump\t// out\n    stop\n\n    sub_0: assembly {\n            /* \"DesignPattern_FactoryPattern.sol\":1010:1031  contract Employee{... */\n          mstore(0x40, 0x80)\n          callvalue\n          dup1\n          iszero\n          tag_1\n          jumpi\n          0x00\n          dup1\n          revert\n        tag_1:\n          pop\n          dataSize(sub_0)\n          dup1\n          dataOffset(sub_0)\n          0x00\n          codecopy\n          0x00\n          return\n        stop\n\n        sub_0: assembly {\n                /* \"DesignPattern_FactoryPattern.sol\":1010:1031  contract Employee{... */\n              mstore(0x40, 0x80)\n              0x00\n              dup1\n              revert\n\n            auxdata: 0xa2646970667358221220e7dcbf45f6e13c105ca9fca28d0b74ab74b238e8b8d2e958f23d888b001916d664736f6c63430008070033\n        }\n    }\n\n    auxdata: 0xa2646970667358221220fee6ad3bc58b29fe2bb41923ef7b5bb76a4d3bded386877c3806fd794b25d9ae64736f6c63430008070033\n}\n",
				"bytecode": {
					"linkReferences": {},
					"object": "608060405234801561001057600080fd5b506102c7806100206000396000f3fe608060405234801561001057600080fd5b50600436106100365760003560e01c806399b65f791461003b578063ad5014671461006b575b600080fd5b61005560048036038101906100509190610162565b610075565b604051610062919061019e565b60405180910390f35b6100736100b4565b005b6000818154811061008557600080fd5b906000526020600020016000915054906101000a900473ffffffffffffffffffffffffffffffffffffffff1681565b60006040516100c290610141565b604051809103906000f0801580156100de573d6000803e3d6000fd5b509080600181540180825580915050600190039060005260206000200160009091909190916101000a81548173ffffffffffffffffffffffffffffffffffffffff021916908373ffffffffffffffffffffffffffffffffffffffff160217905550565b605c8061023683390190565b60008135905061015c8161021e565b92915050565b60006020828403121561017857610177610219565b5b60006101868482850161014d565b91505092915050565b610198816101e3565b82525050565b60006020820190506101b3600083018461018f565b92915050565b600073ffffffffffffffffffffffffffffffffffffffff82169050919050565b6000819050919050565b60006101ee826101f5565b9050919050565b600061020082610207565b9050919050565b6000610212826101b9565b9050919050565b600080fd5b610227816101d9565b811461023257600080fd5b5056fe6080604052348015600f57600080fd5b50603f80601d6000396000f3fe6080604052600080fdfea2646970667358221220e7dcbf45f6e13c105ca9fca28d0b74ab74b238e8b8d2e958f23d888b001916d664736f6c63430008070033a2646970667358221220fee6ad3bc58b29fe2bb41923ef7b5bb76a4d3bded386877c3806fd794b25d9ae64736f6c63430008070033",
					"opcodes": "PUSH1 0x80 PUSH1 0x40 MSTORE CALLVALUE DUP1 ISZERO PUSH2 0x10 JUMPI PUSH1 0x0 DUP1 REVERT JUMPDEST POP PUSH2 0x2C7 DUP1 PUSH2 0x20 PUSH1 0x0 CODECOPY PUSH1 0x0 RETURN INVALID PUSH1 0x80 PUSH1 0x40 MSTORE CALLVALUE DUP1 ISZERO PUSH2 0x10 JUMPI PUSH1 0x0 DUP1 REVERT JUMPDEST POP PUSH1 0x4 CALLDATASIZE LT PUSH2 0x36 JUMPI PUSH1 0x0 CALLDATALOAD PUSH1 0xE0 SHR DUP1 PUSH4 0x99B65F79 EQ PUSH2 0x3B JUMPI DUP1 PUSH4 0xAD501467 EQ PUSH2 0x6B JUMPI JUMPDEST PUSH1 0x0 DUP1 REVERT JUMPDEST PUSH2 0x55 PUSH1 0x4 DUP1 CALLDATASIZE SUB DUP2 ADD SWAP1 PUSH2 0x50 SWAP2 SWAP1 PUSH2 0x162 JUMP JUMPDEST PUSH2 0x75 JUMP JUMPDEST PUSH1 0x40 MLOAD PUSH2 0x62 SWAP2 SWAP1 PUSH2 0x19E JUMP JUMPDEST PUSH1 0x40 MLOAD DUP1 SWAP2 SUB SWAP1 RETURN JUMPDEST PUSH2 0x73 PUSH2 0xB4 JUMP JUMPDEST STOP JUMPDEST PUSH1 0x0 DUP2 DUP2 SLOAD DUP2 LT PUSH2 0x85 JUMPI PUSH1 0x0 DUP1 REVERT JUMPDEST SWAP1 PUSH1 0x0 MSTORE PUSH1 0x20 PUSH1 0x0 KECCAK256 ADD PUSH1 0x0 SWAP2 POP SLOAD SWAP1 PUSH2 0x100 EXP SWAP1 DIV PUSH20 0xFFFFFFFFFFFFFFFFFFFFFFFFFFFFFFFFFFFFFFFF AND DUP2 JUMP JUMPDEST PUSH1 0x0 PUSH1 0x40 MLOAD PUSH2 0xC2 SWAP1 PUSH2 0x141 JUMP JUMPDEST PUSH1 0x40 MLOAD DUP1 SWAP2 SUB SWAP1 PUSH1 0x0 CREATE DUP1 ISZERO DUP1 ISZERO PUSH2 0xDE JUMPI RETURNDATASIZE PUSH1 0x0 DUP1 RETURNDATACOPY RETURNDATASIZE PUSH1 0x0 REVERT JUMPDEST POP SWAP1 DUP1 PUSH1 0x1 DUP2 SLOAD ADD DUP1 DUP3 SSTORE DUP1 SWAP2 POP POP PUSH1 0x1 SWAP1 SUB SWAP1 PUSH1 0x0 MSTORE PUSH1 0x20 PUSH1 0x0 KECCAK256 ADD PUSH1 0x0 SWAP1 SWAP2 SWAP1 SWAP2 SWAP1 SWAP2 PUSH2 0x100 EXP DUP2 SLOAD DUP2 PUSH20 0xFFFFFFFFFFFFFFFFFFFFFFFFFFFFFFFFFFFFFFFF MUL NOT AND SWAP1 DUP4 PUSH20 0xFFFFFFFFFFFFFFFFFFFFFFFFFFFFFFFFFFFFFFFF AND MUL OR SWAP1 SSTORE POP JUMP JUMPDEST PUSH1 0x5C DUP1 PUSH2 0x236 DUP4 CODECOPY ADD SWAP1 JUMP JUMPDEST PUSH1 0x0 DUP2 CALLDATALOAD SWAP1 POP PUSH2 0x15C DUP2 PUSH2 0x21E JUMP JUMPDEST SWAP3 SWAP2 POP POP JUMP JUMPDEST PUSH1 0x0 PUSH1 0x20 DUP3 DUP5 SUB SLT ISZERO PUSH2 0x178 JUMPI PUSH2 0x177 PUSH2 0x219 JUMP JUMPDEST JUMPDEST PUSH1 0x0 PUSH2 0x186 DUP5 DUP3 DUP6 ADD PUSH2 0x14D JUMP JUMPDEST SWAP2 POP POP SWAP3 SWAP2 POP POP JUMP JUMPDEST PUSH2 0x198 DUP2 PUSH2 0x1E3 JUMP JUMPDEST DUP3 MSTORE POP POP JUMP JUMPDEST PUSH1 0x0 PUSH1 0x20 DUP3 ADD SWAP1 POP PUSH2 0x1B3 PUSH1 0x0 DUP4 ADD DUP5 PUSH2 0x18F JUMP JUMPDEST SWAP3 SWAP2 POP POP JUMP JUMPDEST PUSH1 0x0 PUSH20 0xFFFFFFFFFFFFFFFFFFFFFFFFFFFFFFFFFFFFFFFF DUP3 AND SWAP1 POP SWAP2 SWAP1 POP JUMP JUMPDEST PUSH1 0x0 DUP2 SWAP1 POP SWAP2 SWAP1 POP JUMP JUMPDEST PUSH1 0x0 PUSH2 0x1EE DUP3 PUSH2 0x1F5 JUMP JUMPDEST SWAP1 POP SWAP2 SWAP1 POP JUMP JUMPDEST PUSH1 0x0 PUSH2 0x200 DUP3 PUSH2 0x207 JUMP JUMPDEST SWAP1 POP SWAP2 SWAP1 POP JUMP JUMPDEST PUSH1 0x0 PUSH2 0x212 DUP3 PUSH2 0x1B9 JUMP JUMPDEST SWAP1 POP SWAP2 SWAP1 POP JUMP JUMPDEST PUSH1 0x0 DUP1 REVERT JUMPDEST PUSH2 0x227 DUP2 PUSH2 0x1D9 JUMP JUMPDEST DUP2 EQ PUSH2 0x232 JUMPI PUSH1 0x0 DUP1 REVERT JUMPDEST POP JUMP INVALID PUSH1 0x80 PUSH1 0x40 MSTORE CALLVALUE DUP1 ISZERO PUSH1 0xF JUMPI PUSH1 0x0 DUP1 REVERT JUMPDEST POP PUSH1 0x3F DUP1 PUSH1 0x1D PUSH1 0x0 CODECOPY PUSH1 0x0 RETURN INVALID PUSH1 0x80 PUSH1 0x40 MSTORE PUSH1 0x0 DUP1 REVERT INVALID LOG2 PUSH5 0x6970667358 0x22 SLT KECCAK256 0xE7 0xDC 0xBF GASLIMIT 0xF6 0xE1 EXTCODECOPY LT 0x5C 0xA9 0xFC LOG2 DUP14 SIGNEXTEND PUSH21 0xAB74B238E8B8D2E958F23D888B001916D664736F6C PUSH4 0x43000807 STOP CALLER LOG2 PUSH5 0x6970667358 0x22 SLT KECCAK256 INVALID 0xE6 0xAD EXTCODESIZE 0xC5 DUP12 0x29 INVALID 0x2B 0xB4 NOT 0x23 0xEF PUSH28 0x5BB76A4D3BDED386877C3806FD794B25D9AE64736F6C634300080700 CALLER "
				},
				"gasEstimates": {
					"creation": {
						"codeDepositCost": "142200",
						"executionCost": "190",
						"totalCost": "142390"
					},
					"external": {
						"createInstance()": "infinite",
						"employee(uint256)": "5020"
					}
				},
				"methodIdentifiers": {
					"createInstance()": "ad501467",
					"employee(uint256)": "99b65f79"
				}
			},
			"storageLayout": {
				"storage": [
					{
						"astId": 5,
						"contract": "DesignPattern_FactoryPattern.sol:Company",
						"label": "employee",
						"offset": 0,
						"slot": "0",
						"type": "t_array(t_contract(Employee)20)dyn_storage"
					}
				],
				"types": {
					"t_array(t_contract(Employee)20)dyn_storage": {
						"base": "t_contract(Employee)20",
						"encoding": "dynamic_array",
						"label": "contract Employee[]",
						"numberOfBytes": "32"
					},
					"t_contract(Employee)20": {
						"encoding": "inplace",
						"label": "contract Employee",
						"numberOfBytes": "20"
					}
				}
			},
			"userdoc": {
				"kind": "user",
				"methods": {},
				"version": 1
			}
		}
	}
}