{
	"assert.sol": {
		"Assert": {
			"abi": [
				{
					"inputs": [
						{
							"internalType": "uint256",
							"name": "amount",
							"type": "uint256"
						}
					],
					"name": "deposit",
					"outputs": [],
					"stateMutability": "nonpayable",
					"type": "function"
				}
			],
			"devdoc": {
				"kind": "dev",
				"methods": {},
				"version": 1
			},
			"evm": {
				"assembly": "    /* \"assert.sol\":65:203  contract Assert{... */\n  mstore(0x40, 0x80)\n    /* \"assert.sol\":101:104  100 */\n  0x64\n    /* \"assert.sol\":86:104  uint balance = 100 */\n  0x00\n  sstore\n    /* \"assert.sol\":65:203  contract Assert{... */\n  callvalue\n  dup1\n  iszero\n  tag_1\n  jumpi\n  0x00\n  dup1\n  revert\ntag_1:\n  pop\n  dataSize(sub_0)\n  dup1\n  dataOffset(sub_0)\n  0x00\n  codecopy\n  0x00\n  return\nstop\n\nsub_0: assembly {\n        /* \"assert.sol\":65:203  contract Assert{... */\n      mstore(0x40, 0x80)\n      callvalue\n      dup1\n      iszero\n      tag_1\n      jumpi\n      0x00\n      dup1\n      revert\n    tag_1:\n      pop\n      jumpi(tag_2, lt(calldatasize, 0x04))\n      shr(0xe0, calldataload(0x00))\n      dup1\n      0xb6b55f25\n      eq\n      tag_3\n      jumpi\n    tag_2:\n      0x00\n      dup1\n      revert\n        /* \"assert.sol\":110:201  function deposit(uint amount) public {... */\n    tag_3:\n      tag_4\n      0x04\n      dup1\n      calldatasize\n      sub\n      dup2\n      add\n      swap1\n      tag_5\n      swap2\n      swap1\n      tag_6\n      jump\t// in\n    tag_5:\n      tag_7\n      jump\t// in\n    tag_4:\n      stop\n    tag_7:\n        /* \"assert.sol\":162:168  amount */\n      dup1\n        /* \"assert.sol\":153:160  balance */\n      0x00\n      dup1\n        /* \"assert.sol\":153:168  balance+=amount */\n      dup3\n      dup3\n      sload\n      tag_9\n      swap2\n      swap1\n      tag_10\n      jump\t// in\n    tag_9:\n      swap3\n      pop\n      pop\n      dup2\n      swap1\n      sstore\n      pop\n        /* \"assert.sol\":190:193  500 */\n      0x01f4\n        /* \"assert.sol\":181:188  balance */\n      sload(0x00)\n        /* \"assert.sol\":181:193  balance<=500 */\n      gt\n      iszero\n        /* \"assert.sol\":174:194  assert(balance<=500) */\n      tag_11\n      jumpi\n      tag_12\n      tag_13\n      jump\t// in\n    tag_12:\n    tag_11:\n        /* \"assert.sol\":110:201  function deposit(uint amount) public {... */\n      pop\n      jump\t// out\n        /* \"#utility.yul\":7:146   */\n    tag_15:\n        /* \"#utility.yul\":53:58   */\n      0x00\n        /* \"#utility.yul\":91:97   */\n      dup2\n        /* \"#utility.yul\":78:98   */\n      calldataload\n        /* \"#utility.yul\":69:98   */\n      swap1\n      pop\n        /* \"#utility.yul\":107:140   */\n      tag_17\n        /* \"#utility.yul\":134:139   */\n      dup2\n        /* \"#utility.yul\":107:140   */\n      tag_18\n      jump\t// in\n    tag_17:\n        /* \"#utility.yul\":7:146   */\n      swap3\n      swap2\n      pop\n      pop\n      jump\t// out\n        /* \"#utility.yul\":152:481   */\n    tag_6:\n        /* \"#utility.yul\":211:217   */\n      0x00\n        /* \"#utility.yul\":260:262   */\n      0x20\n        /* \"#utility.yul\":248:257   */\n      dup3\n        /* \"#utility.yul\":239:246   */\n      dup5\n        /* \"#utility.yul\":235:258   */\n      sub\n        /* \"#utility.yul\":231:263   */\n      slt\n        /* \"#utility.yul\":228:347   */\n      iszero\n      tag_20\n      jumpi\n        /* \"#utility.yul\":266:345   */\n      tag_21\n      tag_22\n      jump\t// in\n    tag_21:\n        /* \"#utility.yul\":228:347   */\n    tag_20:\n        /* \"#utility.yul\":386:387   */\n      0x00\n        /* \"#utility.yul\":411:464   */\n      tag_23\n        /* \"#utility.yul\":456:463   */\n      dup5\n        /* \"#utility.yul\":447:453   */\n      dup3\n        /* \"#utility.yul\":436:445   */\n      dup6\n        /* \"#utility.yul\":432:454   */\n      add\n        /* \"#utility.yul\":411:464   */\n      tag_15\n      jump\t// in\n    tag_23:\n        /* \"#utility.yul\":401:464   */\n      swap2\n      pop\n        /* \"#utility.yul\":357:474   */\n      pop\n        /* \"#utility.yul\":152:481   */\n      swap3\n      swap2\n      pop\n      pop\n      jump\t// out\n        /* \"#utility.yul\":568:873   */\n    tag_10:\n        /* \"#utility.yul\":608:611   */\n      0x00\n        /* \"#utility.yul\":627:647   */\n      tag_27\n        /* \"#utility.yul\":645:646   */\n      dup3\n        /* \"#utility.yul\":627:647   */\n      tag_28\n      jump\t// in\n    tag_27:\n        /* \"#utility.yul\":622:647   */\n      swap2\n      pop\n        /* \"#utility.yul\":661:681   */\n      tag_29\n        /* \"#utility.yul\":679:680   */\n      dup4\n        /* \"#utility.yul\":661:681   */\n      tag_28\n      jump\t// in\n    tag_29:\n        /* \"#utility.yul\":656:681   */\n      swap3\n      pop\n        /* \"#utility.yul\":815:816   */\n      dup3\n        /* \"#utility.yul\":747:813   */\n      0xffffffffffffffffffffffffffffffffffffffffffffffffffffffffffffffff\n        /* \"#utility.yul\":743:817   */\n      sub\n        /* \"#utility.yul\":740:741   */\n      dup3\n        /* \"#utility.yul\":737:818   */\n      gt\n        /* \"#utility.yul\":734:841   */\n      iszero\n      tag_30\n      jumpi\n        /* \"#utility.yul\":821:839   */\n      tag_31\n      tag_32\n      jump\t// in\n    tag_31:\n        /* \"#utility.yul\":734:841   */\n    tag_30:\n        /* \"#utility.yul\":865:866   */\n      dup3\n        /* \"#utility.yul\":862:863   */\n      dup3\n        /* \"#utility.yul\":858:867   */\n      add\n        /* \"#utility.yul\":851:867   */\n      swap1\n      pop\n        /* \"#utility.yul\":568:873   */\n      swap3\n      swap2\n      pop\n      pop\n      jump\t// out\n        /* \"#utility.yul\":879:956   */\n    tag_28:\n        /* \"#utility.yul\":916:923   */\n      0x00\n        /* \"#utility.yul\":945:950   */\n      dup2\n        /* \"#utility.yul\":934:950   */\n      swap1\n      pop\n        /* \"#utility.yul\":879:956   */\n      swap2\n      swap1\n      pop\n      jump\t// out\n        /* \"#utility.yul\":962:1142   */\n    tag_13:\n        /* \"#utility.yul\":1010:1087   */\n      0x4e487b7100000000000000000000000000000000000000000000000000000000\n        /* \"#utility.yul\":1007:1008   */\n      0x00\n        /* \"#utility.yul\":1000:1088   */\n      mstore\n        /* \"#utility.yul\":1107:1111   */\n      0x01\n        /* \"#utility.yul\":1104:1105   */\n      0x04\n        /* \"#utility.yul\":1097:1112   */\n      mstore\n        /* \"#utility.yul\":1131:1135   */\n      0x24\n        /* \"#utility.yul\":1128:1129   */\n      0x00\n        /* \"#utility.yul\":1121:1136   */\n      revert\n        /* \"#utility.yul\":1148:1328   */\n    tag_32:\n        /* \"#utility.yul\":1196:1273   */\n      0x4e487b7100000000000000000000000000000000000000000000000000000000\n        /* \"#utility.yul\":1193:1194   */\n      0x00\n        /* \"#utility.yul\":1186:1274   */\n      mstore\n        /* \"#utility.yul\":1293:1297   */\n      0x11\n        /* \"#utility.yul\":1290:1291   */\n      0x04\n        /* \"#utility.yul\":1283:1298   */\n      mstore\n        /* \"#utility.yul\":1317:1321   */\n      0x24\n        /* \"#utility.yul\":1314:1315   */\n      0x00\n        /* \"#utility.yul\":1307:1322   */\n      revert\n        /* \"#utility.yul\":1457:1574   */\n    tag_22:\n        /* \"#utility.yul\":1566:1567   */\n      0x00\n        /* \"#utility.yul\":1563:1564   */\n      dup1\n        /* \"#utility.yul\":1556:1568   */\n      revert\n        /* \"#utility.yul\":1580:1702   */\n    tag_18:\n        /* \"#utility.yul\":1653:1677   */\n      tag_40\n        /* \"#utility.yul\":1671:1676   */\n      dup2\n        /* \"#utility.yul\":1653:1677   */\n      tag_28\n      jump\t// in\n    tag_40:\n        /* \"#utility.yul\":1646:1651   */\n      dup2\n        /* \"#utility.yul\":1643:1678   */\n      eq\n        /* \"#utility.yul\":1633:1696   */\n      tag_41\n      jumpi\n        /* \"#utility.yul\":1692:1693   */\n      0x00\n        /* \"#utility.yul\":1689:1690   */\n      dup1\n        /* \"#utility.yul\":1682:1694   */\n      revert\n        /* \"#utility.yul\":1633:1696   */\n    tag_41:\n        /* \"#utility.yul\":1580:1702   */\n      pop\n      jump\t// out\n\n    auxdata: 0xa2646970667358221220b04ee8d74a417bca127912a2c877820c9677441c7b71bf9be3a548e9c024c83664736f6c63430008070033\n}\n",
				"bytecode": {
					"linkReferences": {},
					"object": "6080604052606460005534801561001557600080fd5b506101ce806100256000396000f3fe608060405234801561001057600080fd5b506004361061002b5760003560e01c8063b6b55f2514610030575b600080fd5b61004a60048036038101906100459190610091565b61004c565b005b8060008082825461005d91906100be565b925050819055506101f460005411156100795761007861011e565b5b50565b60008135905061008b81610181565b92915050565b6000602082840312156100a7576100a661017c565b5b60006100b58482850161007c565b91505092915050565b60006100c982610114565b91506100d483610114565b9250827fffffffffffffffffffffffffffffffffffffffffffffffffffffffffffffffff038211156101095761010861014d565b5b828201905092915050565b6000819050919050565b7f4e487b7100000000000000000000000000000000000000000000000000000000600052600160045260246000fd5b7f4e487b7100000000000000000000000000000000000000000000000000000000600052601160045260246000fd5b600080fd5b61018a81610114565b811461019557600080fd5b5056fea2646970667358221220b04ee8d74a417bca127912a2c877820c9677441c7b71bf9be3a548e9c024c83664736f6c63430008070033",
					"opcodes": "PUSH1 0x80 PUSH1 0x40 MSTORE PUSH1 0x64 PUSH1 0x0 SSTORE CALLVALUE DUP1 ISZERO PUSH2 0x15 JUMPI PUSH1 0x0 DUP1 REVERT JUMPDEST POP PUSH2 0x1CE DUP1 PUSH2 0x25 PUSH1 0x0 CODECOPY PUSH1 0x0 RETURN INVALID PUSH1 0x80 PUSH1 0x40 MSTORE CALLVALUE DUP1 ISZERO PUSH2 0x10 JUMPI PUSH1 0x0 DUP1 REVERT JUMPDEST POP PUSH1 0x4 CALLDATASIZE LT PUSH2 0x2B JUMPI PUSH1 0x0 CALLDATALOAD PUSH1 0xE0 SHR DUP1 PUSH4 0xB6B55F25 EQ PUSH2 0x30 JUMPI JUMPDEST PUSH1 0x0 DUP1 REVERT JUMPDEST PUSH2 0x4A PUSH1 0x4 DUP1 CALLDATASIZE SUB DUP2 ADD SWAP1 PUSH2 0x45 SWAP2 SWAP1 PUSH2 0x91 JUMP JUMPDEST PUSH2 0x4C JUMP JUMPDEST STOP JUMPDEST DUP1 PUSH1 0x0 DUP1 DUP3 DUP3 SLOAD PUSH2 0x5D SWAP2 SWAP1 PUSH2 0xBE JUMP JUMPDEST SWAP3 POP POP DUP2 SWAP1 SSTORE POP PUSH2 0x1F4 PUSH1 0x0 SLOAD GT ISZERO PUSH2 0x79 JUMPI PUSH2 0x78 PUSH2 0x11E JUMP JUMPDEST JUMPDEST POP JUMP JUMPDEST PUSH1 0x0 DUP2 CALLDATALOAD SWAP1 POP PUSH2 0x8B DUP2 PUSH2 0x181 JUMP JUMPDEST SWAP3 SWAP2 POP POP JUMP JUMPDEST PUSH1 0x0 PUSH1 0x20 DUP3 DUP5 SUB SLT ISZERO PUSH2 0xA7 JUMPI PUSH2 0xA6 PUSH2 0x17C JUMP JUMPDEST JUMPDEST PUSH1 0x0 PUSH2 0xB5 DUP5 DUP3 DUP6 ADD PUSH2 0x7C JUMP JUMPDEST SWAP2 POP POP SWAP3 SWAP2 POP POP JUMP JUMPDEST PUSH1 0x0 PUSH2 0xC9 DUP3 PUSH2 0x114 JUMP JUMPDEST SWAP2 POP PUSH2 0xD4 DUP4 PUSH2 0x114 JUMP JUMPDEST SWAP3 POP DUP3 PUSH32 0xFFFFFFFFFFFFFFFFFFFFFFFFFFFFFFFFFFFFFFFFFFFFFFFFFFFFFFFFFFFFFFFF SUB DUP3 GT ISZERO PUSH2 0x109 JUMPI PUSH2 0x108 PUSH2 0x14D JUMP JUMPDEST JUMPDEST DUP3 DUP3 ADD SWAP1 POP SWAP3 SWAP2 POP POP JUMP JUMPDEST PUSH1 0x0 DUP2 SWAP1 POP SWAP2 SWAP1 POP JUMP JUMPDEST PUSH32 0x4E487B7100000000000000000000000000000000000000000000000000000000 PUSH1 0x0 MSTORE PUSH1 0x1 PUSH1 0x4 MSTORE PUSH1 0x24 PUSH1 0x0 REVERT JUMPDEST PUSH32 0x4E487B7100000000000000000000000000000000000000000000000000000000 PUSH1 0x0 MSTORE PUSH1 0x11 PUSH1 0x4 MSTORE PUSH1 0x24 PUSH1 0x0 REVERT JUMPDEST PUSH1 0x0 DUP1 REVERT JUMPDEST PUSH2 0x18A DUP2 PUSH2 0x114 JUMP JUMPDEST DUP2 EQ PUSH2 0x195 JUMPI PUSH1 0x0 DUP1 REVERT JUMPDEST POP JUMP INVALID LOG2 PUSH5 0x6970667358 0x22 SLT KECCAK256 0xB0 0x4E 0xE8 0xD7 0x4A COINBASE PUSH28 0xCA127912A2C877820C9677441C7B71BF9BE3A548E9C024C83664736F PUSH13 0x63430008070033000000000000 "
				},
				"gasEstimates": {
					"creation": {
						"codeDepositCost": "92400",
						"executionCost": "22247",
						"totalCost": "114647"
					},
					"external": {
						"deposit(uint256)": "infinite"
					}
				},
				"methodIdentifiers": {
					"deposit(uint256)": "b6b55f25"
				}
			},
			"storageLayout": {
				"storage": [
					{
						"astId": 4,
						"contract": "assert.sol:Assert",
						"label": "balance",
						"offset": 0,
						"slot": "0",
						"type": "t_uint256"
					}
				],
				"types": {
					"t_uint256": {
						"encoding": "inplace",
						"label": "uint256",
						"numberOfBytes": "32"
					}
				}
			},
			"userdoc": {
				"kind": "user",
				"methods": {},
				"version": 1
			}
		}
	}
}