{
	"data": {
		"bytecode": {
			"linkReferences": {},
			"object": "608060405234801561001057600080fd5b5061065d806100206000396000f3fe608060405234801561001057600080fd5b50600436106100365760003560e01c80634da0b50a1461003b578063c193e6c214610057575b600080fd5b61005560048036038101906100509190610331565b610089565b005b610071600480360381019061006c9190610304565b610108565b6040516100809392919061040b565b60405180910390f35b604051806060016040528084815260200183815260200182151581525060008086815260200190815260200160002060008201518160000190805190602001906100d49291906101c7565b506020820151816001015560408201518160020160006101000a81548160ff02191690831515021790555090505050505050565b600060205280600052604060002060009150905080600001805461012b90610513565b80601f016020809104026020016040519081016040528092919081815260200182805461015790610513565b80156101a45780601f10610179576101008083540402835291602001916101a4565b820191906000526020600020905b81548152906001019060200180831161018757829003601f168201915b5050505050908060010154908060020160009054906101000a900460ff16905083565b8280546101d390610513565b90600052602060002090601f0160209004810192826101f5576000855561023c565b82601f1061020e57805160ff191683800117855561023c565b8280016001018555821561023c579182015b8281111561023b578251825591602001919060010190610220565b5b509050610249919061024d565b5090565b5b8082111561026657600081600090555060010161024e565b5090565b600061027d6102788461046e565b610449565b905082815260208101848484011115610299576102986105d9565b5b6102a48482856104d1565b509392505050565b6000813590506102bb816105f9565b92915050565b600082601f8301126102d6576102d56105d4565b5b81356102e684826020860161026a565b91505092915050565b6000813590506102fe81610610565b92915050565b60006020828403121561031a576103196105e3565b5b6000610328848285016102ef565b91505092915050565b6000806000806080858703121561034b5761034a6105e3565b5b6000610359878288016102ef565b945050602085013567ffffffffffffffff81111561037a576103796105de565b5b610386878288016102c1565b9350506040610397878288016102ef565b92505060606103a8878288016102ac565b91505092959194509250565b6103bd816104bb565b82525050565b60006103ce8261049f565b6103d881856104aa565b93506103e88185602086016104e0565b6103f1816105e8565b840191505092915050565b610405816104c7565b82525050565b6000606082019050818103600083015261042581866103c3565b905061043460208301856103fc565b61044160408301846103b4565b949350505050565b6000610453610464565b905061045f8282610545565b919050565b6000604051905090565b600067ffffffffffffffff821115610489576104886105a5565b5b610492826105e8565b9050602081019050919050565b600081519050919050565b600082825260208201905092915050565b60008115159050919050565b6000819050919050565b82818337600083830152505050565b60005b838110156104fe5780820151818401526020810190506104e3565b8381111561050d576000848401525b50505050565b6000600282049050600182168061052b57607f821691505b6020821081141561053f5761053e610576565b5b50919050565b61054e826105e8565b810181811067ffffffffffffffff8211171561056d5761056c6105a5565b5b80604052505050565b7f4e487b7100000000000000000000000000000000000000000000000000000000600052602260045260246000fd5b7f4e487b7100000000000000000000000000000000000000000000000000000000600052604160045260246000fd5b600080fd5b600080fd5b600080fd5b600080fd5b6000601f19601f8301169050919050565b610602816104bb565b811461060d57600080fd5b50565b610619816104c7565b811461062457600080fd5b5056fea264697066735822122038761757fd401ceb9cfd2a1361eb61402ccbb96cb804c48bef982379b94ab69864736f6c63430008070033",
			"opcodes": "PUSH1 0x80 PUSH1 0x40 MSTORE CALLVALUE DUP1 ISZERO PUSH2 0x10 JUMPI PUSH1 0x0 DUP1 REVERT JUMPDEST POP PUSH2 0x65D DUP1 PUSH2 0x20 PUSH1 0x0 CODECOPY PUSH1 0x0 RETURN INVALID PUSH1 0x80 PUSH1 0x40 MSTORE CALLVALUE DUP1 ISZERO PUSH2 0x10 JUMPI PUSH1 0x0 DUP1 REVERT JUMPDEST POP PUSH1 0x4 CALLDATASIZE LT PUSH2 0x36 JUMPI PUSH1 0x0 CALLDATALOAD PUSH1 0xE0 SHR DUP1 PUSH4 0x4DA0B50A EQ PUSH2 0x3B JUMPI DUP1 PUSH4 0xC193E6C2 EQ PUSH2 0x57 JUMPI JUMPDEST PUSH1 0x0 DUP1 REVERT JUMPDEST PUSH2 0x55 PUSH1 0x4 DUP1 CALLDATASIZE SUB DUP2 ADD SWAP1 PUSH2 0x50 SWAP2 SWAP1 PUSH2 0x331 JUMP JUMPDEST PUSH2 0x89 JUMP JUMPDEST STOP JUMPDEST PUSH2 0x71 PUSH1 0x4 DUP1 CALLDATASIZE SUB DUP2 ADD SWAP1 PUSH2 0x6C SWAP2 SWAP1 PUSH2 0x304 JUMP JUMPDEST PUSH2 0x108 JUMP JUMPDEST PUSH1 0x40 MLOAD PUSH2 0x80 SWAP4 SWAP3 SWAP2 SWAP1 PUSH2 0x40B JUMP JUMPDEST PUSH1 0x40 MLOAD DUP1 SWAP2 SUB SWAP1 RETURN JUMPDEST PUSH1 0x40 MLOAD DUP1 PUSH1 0x60 ADD PUSH1 0x40 MSTORE DUP1 DUP5 DUP2 MSTORE PUSH1 0x20 ADD DUP4 DUP2 MSTORE PUSH1 0x20 ADD DUP3 ISZERO ISZERO DUP2 MSTORE POP PUSH1 0x0 DUP1 DUP7 DUP2 MSTORE PUSH1 0x20 ADD SWAP1 DUP2 MSTORE PUSH1 0x20 ADD PUSH1 0x0 KECCAK256 PUSH1 0x0 DUP3 ADD MLOAD DUP2 PUSH1 0x0 ADD SWAP1 DUP1 MLOAD SWAP1 PUSH1 0x20 ADD SWAP1 PUSH2 0xD4 SWAP3 SWAP2 SWAP1 PUSH2 0x1C7 JUMP JUMPDEST POP PUSH1 0x20 DUP3 ADD MLOAD DUP2 PUSH1 0x1 ADD SSTORE PUSH1 0x40 DUP3 ADD MLOAD DUP2 PUSH1 0x2 ADD PUSH1 0x0 PUSH2 0x100 EXP DUP2 SLOAD DUP2 PUSH1 0xFF MUL NOT AND SWAP1 DUP4 ISZERO ISZERO MUL OR SWAP1 SSTORE POP SWAP1 POP POP POP POP POP POP JUMP JUMPDEST PUSH1 0x0 PUSH1 0x20 MSTORE DUP1 PUSH1 0x0 MSTORE PUSH1 0x40 PUSH1 0x0 KECCAK256 PUSH1 0x0 SWAP2 POP SWAP1 POP DUP1 PUSH1 0x0 ADD DUP1 SLOAD PUSH2 0x12B SWAP1 PUSH2 0x513 JUMP JUMPDEST DUP1 PUSH1 0x1F ADD PUSH1 0x20 DUP1 SWAP2 DIV MUL PUSH1 0x20 ADD PUSH1 0x40 MLOAD SWAP1 DUP2 ADD PUSH1 0x40 MSTORE DUP1 SWAP3 SWAP2 SWAP1 DUP2 DUP2 MSTORE PUSH1 0x20 ADD DUP3 DUP1 SLOAD PUSH2 0x157 SWAP1 PUSH2 0x513 JUMP JUMPDEST DUP1 ISZERO PUSH2 0x1A4 JUMPI DUP1 PUSH1 0x1F LT PUSH2 0x179 JUMPI PUSH2 0x100 DUP1 DUP4 SLOAD DIV MUL DUP4 MSTORE SWAP2 PUSH1 0x20 ADD SWAP2 PUSH2 0x1A4 JUMP JUMPDEST DUP3 ADD SWAP2 SWAP1 PUSH1 0x0 MSTORE PUSH1 0x20 PUSH1 0x0 KECCAK256 SWAP1 JUMPDEST DUP2 SLOAD DUP2 MSTORE SWAP1 PUSH1 0x1 ADD SWAP1 PUSH1 0x20 ADD DUP1 DUP4 GT PUSH2 0x187 JUMPI DUP3 SWAP1 SUB PUSH1 0x1F AND DUP3 ADD SWAP2 JUMPDEST POP POP POP POP POP SWAP1 DUP1 PUSH1 0x1 ADD SLOAD SWAP1 DUP1 PUSH1 0x2 ADD PUSH1 0x0 SWAP1 SLOAD SWAP1 PUSH2 0x100 EXP SWAP1 DIV PUSH1 0xFF AND SWAP1 POP DUP4 JUMP JUMPDEST DUP3 DUP1 SLOAD PUSH2 0x1D3 SWAP1 PUSH2 0x513 JUMP JUMPDEST SWAP1 PUSH1 0x0 MSTORE PUSH1 0x20 PUSH1 0x0 KECCAK256 SWAP1 PUSH1 0x1F ADD PUSH1 0x20 SWAP1 DIV DUP2 ADD SWAP3 DUP3 PUSH2 0x1F5 JUMPI PUSH1 0x0 DUP6 SSTORE PUSH2 0x23C JUMP JUMPDEST DUP3 PUSH1 0x1F LT PUSH2 0x20E JUMPI DUP1 MLOAD PUSH1 0xFF NOT AND DUP4 DUP1 ADD OR DUP6 SSTORE PUSH2 0x23C JUMP JUMPDEST DUP3 DUP1 ADD PUSH1 0x1 ADD DUP6 SSTORE DUP3 ISZERO PUSH2 0x23C JUMPI SWAP2 DUP3 ADD JUMPDEST DUP3 DUP2 GT ISZERO PUSH2 0x23B JUMPI DUP3 MLOAD DUP3 SSTORE SWAP2 PUSH1 0x20 ADD SWAP2 SWAP1 PUSH1 0x1 ADD SWAP1 PUSH2 0x220 JUMP JUMPDEST JUMPDEST POP SWAP1 POP PUSH2 0x249 SWAP2 SWAP1 PUSH2 0x24D JUMP JUMPDEST POP SWAP1 JUMP JUMPDEST JUMPDEST DUP1 DUP3 GT ISZERO PUSH2 0x266 JUMPI PUSH1 0x0 DUP2 PUSH1 0x0 SWAP1 SSTORE POP PUSH1 0x1 ADD PUSH2 0x24E JUMP JUMPDEST POP SWAP1 JUMP JUMPDEST PUSH1 0x0 PUSH2 0x27D PUSH2 0x278 DUP5 PUSH2 0x46E JUMP JUMPDEST PUSH2 0x449 JUMP JUMPDEST SWAP1 POP DUP3 DUP2 MSTORE PUSH1 0x20 DUP2 ADD DUP5 DUP5 DUP5 ADD GT ISZERO PUSH2 0x299 JUMPI PUSH2 0x298 PUSH2 0x5D9 JUMP JUMPDEST JUMPDEST PUSH2 0x2A4 DUP5 DUP3 DUP6 PUSH2 0x4D1 JUMP JUMPDEST POP SWAP4 SWAP3 POP POP POP JUMP JUMPDEST PUSH1 0x0 DUP2 CALLDATALOAD SWAP1 POP PUSH2 0x2BB DUP2 PUSH2 0x5F9 JUMP JUMPDEST SWAP3 SWAP2 POP POP JUMP JUMPDEST PUSH1 0x0 DUP3 PUSH1 0x1F DUP4 ADD SLT PUSH2 0x2D6 JUMPI PUSH2 0x2D5 PUSH2 0x5D4 JUMP JUMPDEST JUMPDEST DUP2 CALLDATALOAD PUSH2 0x2E6 DUP5 DUP3 PUSH1 0x20 DUP7 ADD PUSH2 0x26A JUMP JUMPDEST SWAP2 POP POP SWAP3 SWAP2 POP POP JUMP JUMPDEST PUSH1 0x0 DUP2 CALLDATALOAD SWAP1 POP PUSH2 0x2FE DUP2 PUSH2 0x610 JUMP JUMPDEST SWAP3 SWAP2 POP POP JUMP JUMPDEST PUSH1 0x0 PUSH1 0x20 DUP3 DUP5 SUB SLT ISZERO PUSH2 0x31A JUMPI PUSH2 0x319 PUSH2 0x5E3 JUMP JUMPDEST JUMPDEST PUSH1 0x0 PUSH2 0x328 DUP5 DUP3 DUP6 ADD PUSH2 0x2EF JUMP JUMPDEST SWAP2 POP POP SWAP3 SWAP2 POP POP JUMP JUMPDEST PUSH1 0x0 DUP1 PUSH1 0x0 DUP1 PUSH1 0x80 DUP6 DUP8 SUB SLT ISZERO PUSH2 0x34B JUMPI PUSH2 0x34A PUSH2 0x5E3 JUMP JUMPDEST JUMPDEST PUSH1 0x0 PUSH2 0x359 DUP8 DUP3 DUP9 ADD PUSH2 0x2EF JUMP JUMPDEST SWAP5 POP POP PUSH1 0x20 DUP6 ADD CALLDATALOAD PUSH8 0xFFFFFFFFFFFFFFFF DUP2 GT ISZERO PUSH2 0x37A JUMPI PUSH2 0x379 PUSH2 0x5DE JUMP JUMPDEST JUMPDEST PUSH2 0x386 DUP8 DUP3 DUP9 ADD PUSH2 0x2C1 JUMP JUMPDEST SWAP4 POP POP PUSH1 0x40 PUSH2 0x397 DUP8 DUP3 DUP9 ADD PUSH2 0x2EF JUMP JUMPDEST SWAP3 POP POP PUSH1 0x60 PUSH2 0x3A8 DUP8 DUP3 DUP9 ADD PUSH2 0x2AC JUMP JUMPDEST SWAP2 POP POP SWAP3 SWAP6 SWAP2 SWAP5 POP SWAP3 POP JUMP JUMPDEST PUSH2 0x3BD DUP2 PUSH2 0x4BB JUMP JUMPDEST DUP3 MSTORE POP POP JUMP JUMPDEST PUSH1 0x0 PUSH2 0x3CE DUP3 PUSH2 0x49F JUMP JUMPDEST PUSH2 0x3D8 DUP2 DUP6 PUSH2 0x4AA JUMP JUMPDEST SWAP4 POP PUSH2 0x3E8 DUP2 DUP6 PUSH1 0x20 DUP7 ADD PUSH2 0x4E0 JUMP JUMPDEST PUSH2 0x3F1 DUP2 PUSH2 0x5E8 JUMP JUMPDEST DUP5 ADD SWAP2 POP POP SWAP3 SWAP2 POP POP JUMP JUMPDEST PUSH2 0x405 DUP2 PUSH2 0x4C7 JUMP JUMPDEST DUP3 MSTORE POP POP JUMP JUMPDEST PUSH1 0x0 PUSH1 0x60 DUP3 ADD SWAP1 POP DUP2 DUP2 SUB PUSH1 0x0 DUP4 ADD MSTORE PUSH2 0x425 DUP2 DUP7 PUSH2 0x3C3 JUMP JUMPDEST SWAP1 POP PUSH2 0x434 PUSH1 0x20 DUP4 ADD DUP6 PUSH2 0x3FC JUMP JUMPDEST PUSH2 0x441 PUSH1 0x40 DUP4 ADD DUP5 PUSH2 0x3B4 JUMP JUMPDEST SWAP5 SWAP4 POP POP POP POP JUMP JUMPDEST PUSH1 0x0 PUSH2 0x453 PUSH2 0x464 JUMP JUMPDEST SWAP1 POP PUSH2 0x45F DUP3 DUP3 PUSH2 0x545 JUMP JUMPDEST SWAP2 SWAP1 POP JUMP JUMPDEST PUSH1 0x0 PUSH1 0x40 MLOAD SWAP1 POP SWAP1 JUMP JUMPDEST PUSH1 0x0 PUSH8 0xFFFFFFFFFFFFFFFF DUP3 GT ISZERO PUSH2 0x489 JUMPI PUSH2 0x488 PUSH2 0x5A5 JUMP JUMPDEST JUMPDEST PUSH2 0x492 DUP3 PUSH2 0x5E8 JUMP JUMPDEST SWAP1 POP PUSH1 0x20 DUP2 ADD SWAP1 POP SWAP2 SWAP1 POP JUMP JUMPDEST PUSH1 0x0 DUP2 MLOAD SWAP1 POP SWAP2 SWAP1 POP JUMP JUMPDEST PUSH1 0x0 DUP3 DUP3 MSTORE PUSH1 0x20 DUP3 ADD SWAP1 POP SWAP3 SWAP2 POP POP JUMP JUMPDEST PUSH1 0x0 DUP2 ISZERO ISZERO SWAP1 POP SWAP2 SWAP1 POP JUMP JUMPDEST PUSH1 0x0 DUP2 SWAP1 POP SWAP2 SWAP1 POP JUMP JUMPDEST DUP3 DUP2 DUP4 CALLDATACOPY PUSH1 0x0 DUP4 DUP4 ADD MSTORE POP POP POP JUMP JUMPDEST PUSH1 0x0 JUMPDEST DUP4 DUP2 LT ISZERO PUSH2 0x4FE JUMPI DUP1 DUP3 ADD MLOAD DUP2 DUP5 ADD MSTORE PUSH1 0x20 DUP2 ADD SWAP1 POP PUSH2 0x4E3 JUMP JUMPDEST DUP4 DUP2 GT ISZERO PUSH2 0x50D JUMPI PUSH1 0x0 DUP5 DUP5 ADD MSTORE JUMPDEST POP POP POP POP JUMP JUMPDEST PUSH1 0x0 PUSH1 0x2 DUP3 DIV SWAP1 POP PUSH1 0x1 DUP3 AND DUP1 PUSH2 0x52B JUMPI PUSH1 0x7F DUP3 AND SWAP2 POP JUMPDEST PUSH1 0x20 DUP3 LT DUP2 EQ ISZERO PUSH2 0x53F JUMPI PUSH2 0x53E PUSH2 0x576 JUMP JUMPDEST JUMPDEST POP SWAP2 SWAP1 POP JUMP JUMPDEST PUSH2 0x54E DUP3 PUSH2 0x5E8 JUMP JUMPDEST DUP2 ADD DUP2 DUP2 LT PUSH8 0xFFFFFFFFFFFFFFFF DUP3 GT OR ISZERO PUSH2 0x56D JUMPI PUSH2 0x56C PUSH2 0x5A5 JUMP JUMPDEST JUMPDEST DUP1 PUSH1 0x40 MSTORE POP POP POP JUMP JUMPDEST PUSH32 0x4E487B7100000000000000000000000000000000000000000000000000000000 PUSH1 0x0 MSTORE PUSH1 0x22 PUSH1 0x4 MSTORE PUSH1 0x24 PUSH1 0x0 REVERT JUMPDEST PUSH32 0x4E487B7100000000000000000000000000000000000000000000000000000000 PUSH1 0x0 MSTORE PUSH1 0x41 PUSH1 0x4 MSTORE PUSH1 0x24 PUSH1 0x0 REVERT JUMPDEST PUSH1 0x0 DUP1 REVERT JUMPDEST PUSH1 0x0 DUP1 REVERT JUMPDEST PUSH1 0x0 DUP1 REVERT JUMPDEST PUSH1 0x0 DUP1 REVERT JUMPDEST PUSH1 0x0 PUSH1 0x1F NOT PUSH1 0x1F DUP4 ADD AND SWAP1 POP SWAP2 SWAP1 POP JUMP JUMPDEST PUSH2 0x602 DUP2 PUSH2 0x4BB JUMP JUMPDEST DUP2 EQ PUSH2 0x60D JUMPI PUSH1 0x0 DUP1 REVERT JUMPDEST POP JUMP JUMPDEST PUSH2 0x619 DUP2 PUSH2 0x4C7 JUMP JUMPDEST DUP2 EQ PUSH2 0x624 JUMPI PUSH1 0x0 DUP1 REVERT JUMPDEST POP JUMP INVALID LOG2 PUSH5 0x6970667358 0x22 SLT KECCAK256 CODESIZE PUSH23 0x1757FD401CEB9CFD2A1361EB61402CCBB96CB804C48BEF SWAP9 0x23 PUSH26 0xB94AB69864736F6C634300080700330000000000000000000000 "
		},
		"gasEstimates": {
			"creation": {
				"codeDepositCost": "325800",
				"executionCost": "362",
				"totalCost": "326162"
			},
			"external": {
				"input(uint256,string,uint256,bool)": "infinite",
				"registration_number(uint256)": "infinite"
			}
		},
		"methodIdentifiers": {
			"input(uint256,string,uint256,bool)": "4da0b50a",
			"registration_number(uint256)": "c193e6c2"
		}
	},
	"abi": [
		{
			"inputs": [
				{
					"internalType": "uint256",
					"name": "_registration_number",
					"type": "uint256"
				},
				{
					"internalType": "string",
					"name": "name",
					"type": "string"
				},
				{
					"internalType": "uint256",
					"name": "NHS_Number",
					"type": "uint256"
				},
				{
					"internalType": "bool",
					"name": "Vaccinated",
					"type": "bool"
				}
			],
			"name": "input",
			"outputs": [],
			"stateMutability": "nonpayable",
			"type": "function"
		},
		{
			"inputs": [
				{
					"internalType": "uint256",
					"name": "",
					"type": "uint256"
				}
			],
			"name": "registration_number",
			"outputs": [
				{
					"internalType": "string",
					"name": "name",
					"type": "string"
				},
				{
					"internalType": "uint256",
					"name": "NHS_Number",
					"type": "uint256"
				},
				{
					"internalType": "bool",
					"name": "Vaccinated",
					"type": "bool"
				}
			],
			"stateMutability": "view",
			"type": "function"
		}
	]
}